:020000040800F2
:1000000000170020DD010008850700084D060008E4
:10001000810700082D0500088B0D00080000000076
:1000200000000000000000000000000005090008BA
:1000300031050008000000000D080008190A00083A
:10004000F7010008F7010008F7010008F7010008B0
:10005000F7010008F7010008F7010008F7010008A0
:10006000F7010008F7010008F7010008F701000890
:10007000F7010008F7010008F7010008F701000880
:10008000F7010008F7010008F7010008F701000870
:10009000F7010008F7010008F7010008F701000860
:1000A000F7010008F7010008F7010008F701000850
:1000B000F7010008F7010008F7010008F701000840
:1000C000F7010008F7010008F7010008F701000830
:1000D000F7010008C50A0008910B0008B50B0008DD
:1000E000F7010008F7010008F7010008F701000810
:1000F000F7010008F7010008F7010008F701000800
:10010000F7010008F7010008F7010008F7010008EF
:100110007D0A0008A10A0008F7010008F70100089D
:10012000F7010008F7010008F7010008F7010008CF
:1001300000F002F800F042F80AA090E8000C8244B7
:100140008344AAF10107DA4501D100F037F8AFF294
:10015000090EBAE80F0013F0010F18BFFB1A43F0A5
:10016000010318475011000070110000103A24BF1D
:1001700078C878C1FAD8520724BF30C830C144BF0C
:1001800004680C607047000000230024002500264E
:10019000103A28BF78C1FBD8520728BF30C148BFEA
:1001A0000B607047782900F0A580732900F05C810E
:1001B000002070471FB51FBD10B510BD00F086F9B7
:1001C0001146FFF7F7FF00F0A3FF00F0A4F903B416
:1001D000FFF7F2FF03BC00F043FF0000094880472F
:1001E00009480047FEE7FEE7FEE7FEE7FEE7FEE719
:1001F000FEE7FEE7FEE7FEE704480549054A064B31
:10020000704700001D0A000831010008001100209D
:10021000001700200013002000130020704700008A
:100220000FB4044910B503AA029800F021F910BCDC
:100230005DF814FB1C0000202DE9F0410E46044639
:10024000002020622046E168884730B3252805D089
:10025000D4E901219047206A401CF2E7E16820467A
:1002600000278847050018D0A5F14100192802D8B9
:1002700020354FF400673246294620462760FFF7B5
:1002800091FF40B1012804D0F61D26F0070608367C
:10029000D8E7361DD6E72846DAE7206ABDE8F081C0
:1002A00070B50C460546012A05D02878800600D591
:1002B000EA69002302E0012305E05B1C934202D2BD
:1002C000E05C0028F9D1A869E618C01AA861286A7C
:1002D000184428622846AFF3008004E0D5E90121E4
:1002E00014F8010B9047B442F8D32846AFF30080CE
:1002F00070BD000070B504460D4621461068AFF38E
:1003000000802188090502D50F4A7A4402E00E4A8E
:100310007A440E32002104F1240305E000F00F06B8
:100320000009965D5E54491C0028F7D1207800230F
:10033000000704D5702D02D009B1022311322046E6
:10034000BDE8704000F025B87B0F000010B5431CDD
:1003500002E010F8011B71B18107FAD14FF00132B0
:1003600002C88C1A8C4314EAC211F9D0C01A0A06CA
:1003700003D0C01E10BDC01A10BD0A0401D0801EDB
:1003800010BD0902FCD0401E10BD70477047704779
:1003900070472DE9F0470D4699469246044600F114
:1003A00024080168880604D5E06921F01001216065
:1003B00000E00120A84201DD471B00E00027A16901
:1003C0007A1902EB0900081AA0612078C00602D44D
:1003D0002046AFF30080002608E0D4E901211AF896
:1003E00006009047206A401C761C20624E45F4DBD4
:1003F0002078C0060AD52046AFF3008006E0D4E995
:10040000012130209047206A401C2062381EA7F14D
:100410000107F4DC07E0D4E9012118F80500904752
:10042000206A401C2062281EA5F10105F3DC20464D
:10043000AFF300802078000602D50220BDE8F087E7
:100440000120FBE710B5436913B1AFF3008001E071
:10045000FFF726FF012010BD127800F124010A7079
:1004600000224A700122EDE711684FF0FF32E9E700
:10047000074B70B50D467B4400F011F80446284642
:1004800000F020F810B14FF0FF3070BD204670BD75
:100490007B0C000001694A1C02610878704700B5B6
:1004A0008FB0CDE901310021059105497944CDE9AD
:1004B000031011466846FFF7BFFE0FB000BD0000F5
:1004C000E5FFFFFF007B00F080007047754600F0FD
:1004D00029F8AE4605006946534620F007008546D8
:1004E00018B020B5FFF788FEBDE820404FF00006A9
:1004F0004FF000074FF000084FF0000B21F007010C
:10050000AC46ACE8C009ACE8C009ACE8C009ACE84E
:10051000C0098D4670470446AFF300802046FFF7C0
:1005200056FE000000487047A010002000BFFEE704
:1005300070472DE9F04102460025002600200023E7
:100540000024002791F803C00CF00F0591F803C0B8
:100550000CF0100CBCF1000F03D091F802C04CEA73
:10056000050591F800C0BCF1000F31D014680020DF
:100570002BE04FF0010C0CFA00F3B1F800C00CEACC
:1005800003069E4220D183004FF00F0C0CFA03F7B4
:10059000BC4305FA03FC4CEA040491F803C0BCF127
:1005A000280F06D14FF0010C0CFA00FCC2F814C061
:1005B0000AE091F803C0BCF1480F05D14FF0010CDF
:1005C0000CFA00FCC2F810C0401C0828D1D31460FB
:1005D000B1F800C0BCF1FF0F34DD546800202EE0FC
:1005E00000F1080C4FF0010808FA0CF3B1F800C054
:1005F0000CEA03069E4221D183004FF00F0C0CFA47
:1006000003F7BC4305FA03FC4CEA040491F803C069
:10061000BCF1280F05D100F1080C08FA0CF8C2F85B
:10062000148091F803C0BCF1480F07D100F1080C09
:100630004FF0010808FA0CF8C2F81080401C082896
:10064000CED35460BDE8F0810161704700BFFEE782
:1006500008B50121082000F0DBF84FF48050ADF818
:10066000000010208DF8030003208DF80200694679
:100670001648FFF75EFF4FF480511448FFF7E4FF80
:100680004FF40050ADF8000069461048FFF751FFE5
:100690004FF400510D48FFF7D7FF4FF40040ADF87D
:1006A000000069460948FFF744FF4FF4004107483E
:1006B000FFF7CAFF4FF48040ADF8000048208DF8E6
:1006C000030069460148FFF734FF08BD000C0140F4
:1006D00010B5014600204FF40053154C2360002252
:1006E00023E001F0800323B14FF40043104C23605A
:1006F00004E04FF400430E4C241D23604FF40053DC
:100700000B4C241D23604B06190E4306180E084B94
:10071000083B1B68C3F380330BB1431CD8B24FF4C2
:100720000053034C2360531CDAB2082AD9DB10BDF6
:10073000100C014008B50121482000F069F8202084
:10074000ADF8000010208DF8030003208DF80200A2
:1007500069460948FFF7EDFE20210748FFF774FFBF
:100760002020ADF8000069460448FFF7E2FE202192
:100770000248FFF769FF08BD000C01400018014066
:1007800000BFFEE77047000070B5002100230F2274
:10079000C47804B3154C246804F4E064C4F5E06440
:1007A000210AC1F10403CA40447804FA03F18478B1
:1007B0001440214309010E4C0678A155047804F039
:1007C0001F050124AC4005786D11AD0005F1E02551
:1007D000C5F8004109E0047804F01F050124AC408D
:1007E000044D0678761145F8264070BD0CED00E00A
:1007F00000E400E080E100E002490143024A1160A8
:10080000704700000000FA050CED00E070470000A2
:1008100029B1064A92690243044B9A6104E0034AF3
:1008200092698243014B9A617047000000100240B8
:1008300030B500210022002400232D4D6D6805F005
:100840000C0121B1042905D0082923D105E0294D47
:10085000056022E0274D05601FE0254D6D6805F419
:100860007012234D6D6805F48034022505EB924229
:100870001CB9214D554305600BE01D4D6D6805F415
:1008800000351DB11C4D5543056002E0194D55431F
:10089000056002E0174D056000BF00BF144D6D6894
:1008A00005F0F0010909154D6B5C0568DD404560F8
:1008B0000F4D6D6805F4E061090A104D6B5C4568E9
:1008C000DD4085600A4D6D6805F46051C90A0B4D25
:1008D0006B5C4568DD40C560054D6D6805F44041C1
:1008E000890B074D6B5CC568B5FBF3F5056130BD41
:1008F0000010024000127A0000093D00260000208E
:1009000036000020704710B500F002F810BD00005E
:100910000CB50020019000903348006840F480300E
:100920003149086000BF3048006800F40030009092
:100930000198401C0190009818B90198B0F5A06F7B
:10094000F1D12948006800F4003010B10120009076
:1009500001E0002000900098012843D1234800685E
:1009600040F01000214908600846006820F00300AC
:1009700008600846006840F0020008601A484068B5
:10098000194948600846406848600846406840F495
:10099000806048600846406820F47C104860084643
:1009A000406840F4E81048600846006840F08070F5
:1009B000086000BF0C48006800F000700028F9D003
:1009C0000948406820F0030007494860084640682D
:1009D00040F00200486000BF0348406800F00C008F
:1009E0000828F9D10CBD0000001002400020024090
:1009F000042808D14FF0E021096941F004014FF0CB
:100A0000E022116107E04FF0E021096921F00401C3
:100A10004FF0E022116170477047000010B5134895
:100A2000006840F00100114908600846406810491C
:100A300008400E494860084600680E4908400B49C6
:100A400008600846006820F4802008600846406876
:100A500020F4FE0048604FF41F008860FFF753FF4A
:100A60004FF000600449086010BD00000010024013
:100A70000000FFF8FFFFF6FE08ED00E010B540F2C1
:100A80002551064800F0BDF838B1044800F074F96B
:100A9000C4B22146014800F074F910BD004C00407A
:100AA00010B540F22551064800F0ABF838B10448C3
:100AB00000F062F9C4B22146014800F062F910BDAD
:100AC0000050004010B540F22551064800F099F85A
:100AD00038B1044800F050F9C4B22146014800F092
:100AE00050F910BD0038014010B586B00446012110
:100AF00044F20400FFF78CFE4FF40070ADF81400D0
:100B000003208DF8160018208DF8170005A91E483F
:100B1000FFF70FFD4FF48060ADF8140004208DF84E
:100B2000170005A91848FFF704FD01940020ADF84F
:100B30000800ADF80A00ADF80C00ADF810000C206C
:100B4000ADF80E0001A9114800F0AAF825208DF893
:100B5000000003208DF801008DF8020001208DF8BF
:100B600003006846FFF710FE4021084800F034F803
:100B7000012240F22551054800F06DF8012103489B
:100B800000F033F806B010BD000801400038014005
:100B900010B540F22551064800F033F838B104484A
:100BA00000F0EAF8C4B22146014800F0EAF810BDAE
:100BB0000044004010B540F22551064800F021F8ED
:100BC00038B1044800F0D8F8C4B22146014800F01A
:100BD000D8F810BD0048004001F40072B2F5007F63
:100BE00000D100BFCA430280704721B1828942F41C
:100BF0000052828104E082894DF6FF731A4082819F
:100C0000704770B50246002400230025002040F6FE
:100C10006A16B14200D100BFC1F3421501F01F03B3
:100C2000012606FA03F3012D02D19689334006E02E
:100C3000022D02D1168A334001E0968A33400C120D
:100C4000012606FA04F41688344013B10CB10120D1
:100C500000E0002070BDF0B503460024002600250A
:100C6000002040F66A17B94200D100BF1846C1F310
:100C7000421401F01F06012707FA06F5012C01D1E5
:100C80000C3004E0022C01D1103000E014301AB115
:100C900007682F43076002E00768AF430760F0BDB5
:100CA0002DE9F04786B005460E460024A24600BF57
:100CB000A1460027B08900B100BF2F462C8A4CF610
:100CC000FF700440F08804432C82AC894EF6F31088
:100CD0000440B08831890843718908430443AC81DA
:100CE000AC8A4FF6FF400440B0890443AC8201A8AF
:100CF000FFF79EFD1F48874202D1DDF810A001E0FA
:100D0000DDF80CA0A88900F4004040B10AEBCA004D
:100D100000EB0A1031684900B0FBF1F807E00AEB7C
:100D2000CA0000EB0A1031688900B0FBF1F86420BA
:100D3000B8FBF0F004012009642101FB1089A889A7
:100D400000F4004040B1322000EBC900B0FBF1F0EC
:100D500000F00700044308E0322000EB0910642192
:100D6000B0FBF1F000F00F0004432C8106B0BDE8A9
:100D7000F08700000038014001468888C0F3080071
:100D80007047C1F308028280704700BFFEE7000091
:100D900010B50446214611A0FFF742FA240300F0E3
:100DA000FDF800F095F84FF480500E4908602020BF
:100DB000FFF78EFCC4F30740FFF78AFCC4F307205B
:100DC000FFF786FCE0B2FFF783FC4FF48050054943
:100DD000091F086000F07CF810BD000066653A2528
:100DE000780D0A00140C014010B5FFF731FC4FF4E8
:100DF00080500349086000F031F80249088010BDB6
:100E0000100C0140200000202DE9F04106460C4660
:100E100017464FF48050104908600320FFF758FC34
:100E2000C4F30740FFF754FCC4F30720FFF750FC5E
:100E3000E0B2FFF74DFC002505E0FF20FFF748FC7E
:100E40007055681C85B2BD42F7DB4FF480500249F3
:100E5000091F0860BDE8F081140C014010B50024A2
:100E60004FF480500E4908609020FFF731FC0020BD
:100E7000FFF72EFC0020FFF72BFC0020FFF728FCDB
:100E8000FF20FFF725FC44EA0024FF20FFF720FCA9
:100E900004434FF480500249091F0860204610BDEA
:100EA000140C014010B500244FF48050074908602D
:100EB0000520FFF70DFCFF20FFF70AFC04464FF466
:100EC00080500249091F0860204610BD140C0140E3
:100ED00010B500BFFFF7E6FF00F001000028F9D1D0
:100EE00010BD00002DE9F05F81460F461646DFF881
:100EF000A8B04FEA1738C7F30B0ACAF58054A642C8
:100F000000DC344644E04FEA08314FF48052584642
:100F1000FFF77AFF002508E00AEB05001BF8000048
:100F2000FF2800D003E0681C85B2A542F4DB00BFB7
:100F3000A54216DA4046FFF72BFF002507E019F817
:100F4000050005EB0A010BF80100681C85B2A542FB
:100F5000F5DB4FEA08314FF48052584600F02EF886
:100F600004E022463946484600F028F8A64200D15F
:100F70000FE008F101084FF0000AA1442744301B9C
:100F800086B2B6F5805F02DD4FF4805400E034464F
:100F9000B9E700BFBDE8F09FA000002010B54FF4F6
:100FA0008050054908600620FFF792FB4FF48050FF
:100FB0000149091F086010BD140C01402DE9F041E2
:100FC00007460E461446F0B2C0F58075AC4200DC10
:100FD000254612E02A463146384600F013F8AC4266
:100FE00000D10BE02F442E44601B84B2B4F5807F07
:100FF00002DD4FF4807500E02546EBE700BFBDE859
:10100000F08100002DE9F04106460C461746FFF737
:10101000C5FF4FF48050114908600220FFF758FBCC
:10102000C4F30740FFF754FBC4F30720FFF750FB5E
:10103000E0B2FFF74DFB002504E0705DFFF748FBD1
:10104000681C85B2BD42F8DB4FF480500349091F8C
:101050000860FFF73DFFBDE8F0810000140C01407F
:1010600000BF704710B56FF00400FFF7C1FC0A48DD
:1010700000680A49B0FBF1F0094908700846007899
:1010800000EB4001C1EBC0104FF6FF7101EAC00058
:101090000449088010BD00000800002000127A00FA
:1010A00022000020240000200146114A12884A43F1
:1010B0004FF0E0235A6100229A611A46126942F009
:1010C00001021A6100BF4FF0E022106900F0010236
:1010D0001AB100F48032002AF5D04FF0E0221269F4
:1010E00022F001024FF0E0231A6100229A6170475A
:1010F0002400002000BF054A128802F04002002AA6
:10110000F9D0C2B2014B1B1D1A8070470038014054
:10111000FFF7A8FF4FF4A060FFF76EFBFFF70AFB95
:101120004FF4E130FFF7E0FCFFF75EFE2FA0FFF782
:1011300077F833480088A0F56F401338052818D297
:10114000DFE800F003070B0F13002EA0FFF768F88D
:101150000FE02EA0FFF764F80BE02EA0FFF760F879
:1011600007E02EA0FFF75CF803E02EA0FFF758F889
:1011700000BF00BF2DA0FFF753F82D48FFF7E6F89A
:1011800084B2224600212A48FFF7ACFE29A0FFF7CF
:1011900047F800202C49088009E000202B492A4A02
:1011A0001288885428480088401C2749088026480F
:1011B00000886428F1DB1E48FFF7C8F884B2224695
:1011C00000212248FFF720FE204921A0FFF728F840
:1011D0000AE04FF47A70FFF767FF2348006880F059
:1011E00001002249C1F89401F3E700000D0A0D0A3D
:1011F000466C617368C0E0D0CD203A20000000004A
:101200002000002057323551383000005732355118
:1012100031360000573235513332000057323551E4
:101220003634000057323551313238000D0A000093
:1012300070120008CAFDBEDDD0B4C8EBCDEAB1CF54
:10124000A3A10D0A00000000040000203C000020C3
:101250000D0AB6C1C8A1B5BDC8E7CFC2CAFDBEDD83
:101260003A0D0A25730D0A00948121420080214223
:1012700053504920464C41534820CAFDBEDDB6C1FB
:10128000D0B4B2E2CAD42021003031323334353602
:1012900037383941424344454640305800303132B6
:1012A0003334353637383961626364656640307887
:1012B00000000000D4120008000000203C000000E4
:1012C0006C010008101300083C000020C416000048
:1012D00088010008000000000000000000A24A048D
:1012E00000000000000000000102030406070809D6
:1012F0000000000017EF00000000000000000102E5
:10130000030401020304060708090204060800009A
:04000005080001DD11
:00000001FF
