:020000040800F2
:1000000000B20020DD010008E1010008E301000862
:10001000E5010008E7010008E90100080000000010
:10002000000000000000000000000000EB010008DC
:10003000ED01000800000000EF010008F1010008D8
:10004000F3010008F3010008F3010008F3010008C0
:10005000F3010008F3010008F3010008F3010008B0
:10006000F3010008F3010008F3010008F3010008A0
:10007000F3010008F3010008F3010008F301000890
:10008000F3010008F3010008F3010008F301000880
:10009000F3010008F3010008F3010008F301000870
:1000A000F3010008F3010008F3010008F301000860
:1000B000F3010008F3010008F3010008F301000850
:1000C000F3010008F3010008F3010008F301000840
:1000D000F3010008B15E0008F3010008F301000815
:1000E000F3010008F3010008F3010008F301000820
:1000F000F3010008F3010008F3010008F301000810
:10010000F3010008594F0008F3010008F30100084B
:10011000F3010008F3010008F3010008F3010008EF
:10012000F3010008F3010008F3010008F3010008DF
:1001300000F002F800F042F80AA090E8000C8244B7
:100140008344AAF10107DA4501D100F037F8AFF294
:10015000090EBAE80F0013F0010F18BFFB1A43F0A5
:10016000010318476885000088850000103A24BF05
:1001700078C878C1FAD8520724BF30C830C144BF0C
:1001800004680C607047000000230024002500264E
:10019000103A28BF78C1FBD8520728BF30C148BFEA
:1001A0000B607047642900F07580782900F0AE80FC
:1001B000002070471FB51FBD10B510BD00F0D4F969
:1001C0001146FFF7F7FF05F02BFF00F0F2F903B43B
:1001D000FFF7F2FF03BC05F0ADFE00000848004742
:1001E000FEE7FEE7FEE7FEE7FEE7FEE7FEE7FEE7E7
:1001F000FEE7FEE703480449024A044B704700004B
:100200003101000800AE002000B2002000AE002046
:10021000704700000FB4044910B503AA029800F01B
:1002200043F910BC5DF814FB040000202DE9F041F7
:100230000E460446002020622046E168884730B31D
:10024000252805D0D4E901219047206A401CF2E717
:10025000E168204600278847050018D0A5F1410035
:10026000192802D820354FF4006732462946204627
:100270002760FFF797FF40B1012804D0F61D26F054
:1002800007060836D8E7361DD6E72846DAE7206A9B
:10029000BDE8F0812DE9F04106460024106875297B
:1002A000314616A510D0AFF30080002802DA404294
:1002B00013A507E031688A0701D512A502E04907B6
:1002C00004D511A5012401E0AFF3008000210A222A
:1002D00006F1240709E0B0FBF2FCB0FBF2F302FBED
:1002E0001C00303078541846491C0028F3D12346AE
:1002F0002A463046BDE8F04100F07DB8000000001D
:100300002D0000002B0000002000000070B5044606
:100310000D4621461068AFF300802188090502D5FB
:100320000F4A7A4402E00E4A7A440E32002104F168
:10033000240305E000F00F060009965D5E54491C99
:100340000028F7D120780023000704D5702D02D0B3
:1003500009B1022311322046BDE8704000F04BB8CD
:100360007E830000032A40F2308010F0030C00F07E
:10037000158011F8013BBCF1020F624498BF11F8DF
:1003800001CB00F8013B38BF11F8013BA2F1040298
:1003900098BF00F801CB38BF00F8013B11F0030310
:1003A00000F09480083AC0F0088051F8043B083A05
:1003B00051F804CBA0E80810F5E7121D5CBF51F816
:1003C000043B40F8043BAFF30080D20724BF11F890
:1003D000013B11F801CB48BF11F8012B24BF00F8F5
:1003E000013B00F801CB48BF00F8012B7047704774
:1003F0007047704770472DE9F0470D469946924681
:10040000044600F124080168880604D5E06921F05B
:100410001001216000E00120A84201DD471B00E03F
:100420000027A1697A1902EB0900081AA061207857
:10043000C00602D42046AFF30080002608E0D4E9CD
:1004400001211AF806009047206A401C761C2062A1
:100450004E45F4DB2078C0060AD52046AFF3008075
:1004600006E0D4E9012130209047206A401C206238
:10047000381EA7F10107F4DC07E0D4E9012118F8E0
:1004800005009047206A401C2062281EA5F1010546
:10049000F3DC2046AFF300802078000602D502206E
:1004A000BDE8F0870120FBE7074B70B50D467B44A4
:1004B00000F043F80446284600F052F810B14FF01F
:1004C000FF3070BD204670BD535B000010B5203A70
:1004D000C0F00B80B1E81850203AA0E81850B1E8FD
:1004E0001850A0E81850BFF4F5AF5FEA027C24BFB3
:1004F000B1E81850A0E8185044BF18C918C0BDE8AA
:1005000010405FEA827C24BF51F8043B40F8043B72
:1005100008BF7047D20728BF31F8023B48BF11F827
:10052000012B28BF20F8023B48BF00F8012B704781
:1005300001694A1C02610878704700B58FB0CDE9A7
:1005400001310021059105497944CDE90310114697
:100550006846FFF76BFE0FB000BD0000E5FFFFFF30
:10056000007B00F080007047754600F029F8AE4629
:1005700005006946534620F00700854618B020B5AF
:10058000FFF738FEBDE820404FF000064FF00007AF
:100590004FF000084FF0000B21F00701AC46ACE82B
:1005A000C009ACE8C009ACE8C009ACE8C0098D4698
:1005B00070470446AFF300802046FFF708FE0000B6
:1005C00000487047A0AD002000224FF4803105E0C4
:1005D0000948406B00F0800000B103E00800A1F181
:1005E0000101F5D100BF09B90320704740F2FF5067
:1005F000014B98631046F8E700800140024605E091
:100600001348416B01F0450000B100E0F8E700BF7E
:1006100001F0040020B104200D4B986303207047C3
:1006200001F0010018B10120094B9863F7E7084871
:100630000069904201D01020F1E740F2FF50044BD6
:1006400098631846406908231840C0B2E7E70000E5
:100650000080014010B500204FF4803205E0134BBC
:10066000596B01F0450303B103E01300A2F101024D
:10067000F5D100BF12B101F004033BB103200B4BD5
:100680009B6B43F00403094CA36310BD01F001030D
:1006900033B10120054B9B6B43F00103034CA36373
:1006A00040F2FF53014CA36300BFEEE7008001401E
:1006B00005E00C48416B01F0450000B100E0F8E7AF
:1006C00000BF01F0040038B10648806B40F0040020
:1006D000044A90630320704740F2FF50014A906340
:1006E0000020F8E70080014070B503460C46002565
:1006F00005E02148426B02F0450000B100E0F8E758
:1007000000BF02F0040038B11B48806B40F00400C9
:10071000194EB063032070BD02F0010038B11648D5
:10072000806B40F00100144EB0630120F3E71248E3
:100730000069984201D01020EDE740F2FF500E4EC4
:10074000B0633046416901F4604018B9080C20805C
:100750002846E0E701F4005008B11320DBE701F47C
:10076000804008B11020D6E701F4004008B10F2006
:10077000D1E72846CFE700000080014010B50020F7
:100780004FF4803205E0114B596B01F0450303B182
:1007900003E01300A2F10102F5D100BF12B101F094
:1007A00004033BB10320094B9B6B43F00403074C4C
:1007B000A36310BD01F0400333B10020034B9B6BDA
:1007C00043F04003014CA36300BFF2E70080014007
:1007D000FCB507460D46002600240020009001903D
:1007E00008220121102004F0BBFB1020FFF706FFB8
:1007F00004460CB12046FCBD3A040121372004F028
:10080000AFFB3720FFF7FAFE04460CB12046F2E7B3
:10081000012303220821101F04F0B6FB002201214E
:10082000332004F09DFB3320FFF7E8FE04460CB1B3
:100830002046E0E70DE03848406B00F4001040B17E
:100840003548803000684DF82600761C022E00D313
:1008500006E03148406B40F22A6108400028EAD0A7
:1008600000BF2D48406B00F0080038B12A48806B6B
:1008700040F00800284988630420BCE72648406B04
:1008800000F0020038B12448806B40F00200224999
:1008900088630220AFE72048406B00F0200038B1A9
:1008A0001D48806B40F020001B4988630620A2E7AA
:1008B0001948406B00F4007038B11748806B40F461
:1008C000007015498863072095E740F2FF501249F0
:1008D000886300980006009901F47F4140EA0120F6
:1008E000009901F47F0140EA1120009940EA11606B
:1008F000686001980006019901F47F4140EA0120F7
:10090000019901F47F0140EA1120019940EA116048
:10091000286020466FE700000080014072B67047F3
:1009200062B670471548806940F004001349886139
:100930000846806940F0400088611148006820F056
:100940000F000F4908600846006840F00800086082
:100950000C4800680C4908400A49086008460068CD
:100960000A4908430749086006480C30006840F00F
:100970001C0004490C310860704700000010024060
:100980000008014000180140FF00F0FF0088080047
:1009900010B5044614B1012023490870224800789C
:1009A00058B32248006858B12048001F006838B189
:1009B0001E480838006818B11D48006801281CD17D
:1009C0000A2005F0E3FA002017490870174800686C
:1009D00008B9012010BD1548001F006808B90220A1
:1009E000F8E712480838006808B90320F2E7104811
:1009F0000068012815D10420ECE70C4800680128A4
:100A00000FD10A48001F006801280AD1074808389A
:100A10000068012805D10648006810B90120024984
:100A200008700020D6E700000E00002010012342CD
:100A30000001214270B50446002617480588408809
:100A400045431548808846F60401884216D112486D
:100A50008079012812D100200F4988712A2048810D
:100A60002B2088810021084603F062FF01200A49FB
:100A700088712B2048812A20888103E000210846C4
:100A800003F056FF04F046F9002602E00348048014
:100A9000761CAE42FAD370BD040100200008006C41
:100AA00010B50446002C66D16C498871F02008808E
:100AB0004FF4A07048800846808849F2413188424E
:100AC0000BD06648808846F60401884205D063480A
:100AD000808845F2103188421AD12C205F49088164
:100AE0002A2048812B2088810846808846F6040108
:100AF000884205D05948808845F21031884206D195
:100B00004FF4A070554908804FF4F0704880A1E080
:100B10005248808845F21051884210D14FF430502D
:100B20004E4908814FF4285048814FF42C50888159
:100B30004FF4F07008804FF4487048808AE04748CE
:100B4000808841F6631188420DD12C2043490881E9
:100B50002B2048812A2088814FF4F07008804FF4C0
:100B60004870488076E022203C4908812020488156
:100B7000212088816EE00120384988714FF4A070EF
:100B80000880F02048800846808849F24131884238
:100B900005D03248808845F21031884207D12C2098
:100BA0002E4908812A2048812B2088813FE02B484C
:100BB000808846F60401884207D12C202749088105
:100BC0002B2048812A20888131E02448808845F202
:100BD0001051884210D14FF43050204908814FF411
:100BE000285048814FF42C5088814FF44870088079
:100BF0004FF4F07048801AE01848808841F663117D
:100C000088420DD12C20154908812A2048812B20AB
:100C100088814FF4487008804FF4F070488006E0F7
:100C200022200E49088121204881202088810B48FC
:100C3000808846F60401884205D00848808845F23D
:100C40001031884206D14FF4F070044908804FF407
:100C5000A0704880002003F0F5FC10BD04010020C6
:100C600030B503460C4615465A48808849F2413152
:100C7000884205D05748808845F21031884214D107
:100C80005449488904F040F8181204F037F8D8B2F3
:100C900004F034F84F49888904F036F8201204F043
:100CA0002DF8E0B204F02AF88CE04A48808845F23A
:100CB0001051884220D14749488904F025F818127C
:100CC00004F01CF843494989491C88B204F01CF817
:100CD000D8B204F013F83F49888904F015F82012BF
:100CE00004F00CF83B498989491C88B204F00CF8DF
:100CF000E0B204F003F865E03648808841F66311FD
:100D0000884228D13348807920B932480088401E73
:100D1000C01A83B22F49488903F0F6FF181203F076
:100D2000EDFFD8B203F0EAFF181203F0E7FFD8B2E4
:100D300003F0E4FF2749888903F0E6FF201203F05F
:100D4000DDFFE0B203F0DAFF201203F0D7FFE0B2DC
:100D500003F0D4FF36E01F48808846F6040188423D
:100D60001DD11C488079012804D11A480088401EF2
:100D7000C01A83B21749488903F0C6FF181203F05E
:100D8000BDFFD8B203F0BAFF1249888903F0BCFF57
:100D9000201203F0B3FFE0B203F0B0FF12E00D4801
:100DA0008079012804D10B480088401EC01A83B204
:100DB00008494889194603F0B7FF06498889214642
:100DC00003F0B2FF0348008903490880881C0580AE
:100DD00030BD000004010020FE07006C10B5FD4886
:100DE000406940F48070FB4948610846806940F0E2
:100DF000080088610846806940F020008861084644
:100E0000806940F0400088610846806940F4807045
:100E10008861F148006820F00F00EF49086008463B
:100E2000006840F003000860EC480068EC490840A6
:100E3000EA49086008460068EA490843E74908604B
:100E4000081F006800F0FF20091F086008460068BE
:100E500040F0BB100860E44800680020E2490860E8
:100E60000846006840F0BB300860081F006820F0AA
:100E70007040091F08600846006840F03040086074
:100E8000DA48406820F47020D84948600846406835
:100E900040F4302048600846006820F00F000860E9
:100EA0000846006840F00B00086000204FF0204129
:100EB0008861C861CE4908604FF02040806940F4E5
:100EC00080504FF0204188610846806940F480409E
:100ED00088610846806940F0100088610846C06952
:100EE000C8610846C06940F00100C8610846C06991
:100EF00040F47060C861BE480068C1F81C01BC487D
:100F00000068C1F81C010846D0F81C0140F440708C
:100F1000C1F81C010846806940F001008861322058
:100F200005F034F8002003F057FBB24988800846EA
:100F30008088FF280ADB084680884FF6FF718842C8
:100F400004D0AC488088B0F5134F7CD1D32003F097
:100F5000DBFE03F037FBA749888003F033FBA5498C
:100F6000888003F02FFBA3498880084680884FF6CD
:100F7000FF7101EA00209F49888003F023FB9D490F
:100F8000898808439B4988800846808849F2413116
:100F9000884258D0BF2003F0B7FE03F013FB9549F9
:100FA000888003F00FFB9349888003F00BFB914985
:100FB000888003F007FB8F498880084680884FF6B9
:100FC000FF7101EA00208B49888003F0FBFA894910
:100FD00089880843874988800846808846F6040146
:100FE00088427AD0D42003F08FFE03F0EBFA8149D7
:100FF000888003F0E7FA7F49888003F0E3FA7D49AF
:101000008880084680884FF6FF7101EA0020794900
:10101000888003F0D7FA7749898808437549888022
:101020000846808845F21031884256D04FF45A4025
:1010300003F06AFE03F0C6FA6E4988804FF45B4005
:1010400003F062FE00E048E003F0BCFA69498880E2
:10105000084680884FF6FF7101EA002065498880C4
:101060004FF45C4003F050FE03F0ACFA614989880C
:1010700008436049888008468088B0F5004F02D157
:1010800045F2105088805B48808845F210518842B4
:1010900023D0A12003F038FE03F094FA554988804C
:1010A00003F090FA53498880084680884FF6FF7114
:1010B00001EA00204F49888003F084FA4D4989886D
:1010C00008434C4988800846808845F2617188420F
:1010D00003D141F66310474988804648818846A07D
:1010E000FFF798F84348808849F24131884270D12F
:1010F000CF2003F009FE002003F000FEC12003F022
:10110000FDFD302003F0FAFDED2003F0FDFD64202D
:1011100003F0F4FD032003F0F1FD122003F0EEFDD7
:10112000812003F0EBFDE82003F0EEFD852003F0C5
:10113000E5FD102003F0E2FD7A2003F0DFFDCB2077
:1011400003F0E2FD392003F0D9FD2C2003F0D6FD99
:10115000002003F0D3FD342003F0D0FD022003F083
:10116000CDFDF72003F0D0FD202003F0C7FDEA20DD
:1011700003F0CAFD002003F0C1FD002003F0BEFD16
:10118000C02003F0C1FD1B2003F0B8FDC12003F017
:10119000BBFD012003F0B2FDC52003F0B5FD3020FA
:1011A00003F0ACFD302003F0A9FDC72003F0ACFD37
:1011B000B72003F0A3FD362003F0A6FD482003F07E
:1011C0009DFD3A2003F0A0FD552003F097FDB120CE
:1011D0001AE0BFE000100240000C0140041401407E
:1011E00000F0FF00BB0B00BB0418014000200140D1
:1011F0001C0100A004010020204C43442049443A33
:1012000025780D0A0000000003F07EFD002003F0A9
:1012100075FD1A2003F072FDB62003F075FD0A205B
:1012200003F06CFDA22003F069FDF22003F06CFDD9
:10123000002003F063FD262003F066FD012003F08B
:101240005DFDE02003F060FD0F2003F057FD2A2034
:1012500003F054FD282003F051FD082003F04EFD5B
:101260000E2003F04BFD082003F048FD542003F04E
:1012700045FDA92003F042FD432003F03FFD0A2075
:1012800003F03CFD0F2003F039FD002003F036FD94
:10129000002003F033FD002003F030FD002003F0B8
:1012A0002DFDE12003F030FD002003F027FD152087
:1012B00003F024FD172003F021FD072003F01EFD9D
:1012C000112003F01BFD062003F018FD2B2003F076
:1012D00015FD562003F012FD3C2003F00FFD052004
:1012E00003F00CFD102003F009FD0F2003F006FDB4
:1012F0003F2003F003FD3F2003F000FD0F2003F02B
:10130000FDFC2B2003F000FD002003F0F7FC002083
:1013100003F0F4FC012003F0F1FC3F2003F0EEFCAD
:101320002A2003F0F1FC002003F0E8FC002003F089
:10133000E5FC002003F0E2FCEF2003F0DFFC1120CD
:1013400003F0E2FC782004F021FE292003F0DCFC0D
:1013500003F01DB9FE48808846F6040188427CD11E
:10136000112003F0D1FC142004F010FED02003F073
:10137000CBFC072003F0C2FC422003F0BFFC1D2081
:1013800003F0BCFCD12003F0BFFC002003F0B6FC4E
:101390001A2003F0B3FC092003F0B0FCD22003F0C4
:1013A000B3FC012003F0AAFC222003F0A7FCC0201C
:1013B00003F0AAFC102003F0A1FC3B2003F09EFCEC
:1013C000002003F09BFC022003F098FC112003F0A6
:1013D00095FCC52003F098FC032003F08FFCC82087
:1013E00003F092FC002003F089FC252003F086FC2A
:1013F000212003F083FC052003F080FC002003F093
:101400007DFC0A2003F07AFC652003F077FC2520A0
:1014100003F074FC772003F071FC502003F06EFCA5
:101420000F2003F06BFC002003F068FCF82003F0B1
:101430006BFC012003F062FCFE2003F065FC002041
:1014400003F05CFC022003F059FC202003F05CFC5C
:10145000362003F059FC082000E02CE003F04EFC9D
:101460003A2003F051FC552003F048FC2B2003F0F8
:101470004BFC002003F042FC002003F03FFC012065
:1014800003F03CFC3F2003F039FC2A2003F03CFC35
:10149000002003F033FC002003F030FC012003F0B7
:1014A0002DFCDF2003F02AFC782004F06FFD2920BA
:1014B00003F02AFC4CE7A648808845F210318842A8
:1014C00040F07C87ED2003F01FFC012003F016FCA8
:1014D000FE2003F013FCEE2003F016FCDE2003F0E8
:1014E0000DFC212003F00AFCF12003F00DFC01208B
:1014F00003F004FCDF2003F007FC102003F0FEFBE8
:10150000C42003F001FC8F2003F0F8FBC62003F099
:10151000FBFB002003F0F2FBE22003F0EFFBE220F4
:1015200003F0ECFBE22003F0E9FBBF2003F0ECFB4F
:10153000AA2003F0E3FBB02003F0E6FB0D2003F04C
:10154000DDFB002003F0DAFB0D2003F0D7FB0020C9
:1015500003F0D4FB112003F0D1FB002003F0CEFBFD
:10156000192003F0CBFB002003F0C8FB212003F07F
:10157000C5FB002003F0C2FB2D2003F0BFFB0020C1
:1015800003F0BCFB3D2003F0B9FB002003F0B6FBE9
:101590005D2003F0B3FB002003F0B0FB5D2003F0FF
:1015A000ADFB002003F0AAFBB12003F0ADFB8020CF
:1015B00003F0A4FB002003F0A1FB8B2003F09EFBB3
:1015C000002003F09BFB962003F098FB002003F023
:1015D00095FBB22003F098FB002003F08FFB002066
:1015E00003F08CFB022003F089FB002003F086FB54
:1015F000032003F083FB002003F080FBB32003F003
:1016000083FB002003F07AFB002003F077FB00202F
:1016100003F074FB002003F071FB002003F06EFB6D
:10162000002003F06BFB002003F068FB002003F0B8
:1016300065FB002003F062FB002003F05FFB00204D
:1016400003F05CFB002003F059FB002003F056FB85
:10165000002003F053FB002003F050FB002003F0B8
:101660004DFB002003F04AFB002003F047FB002065
:1016700003F044FB002003F041FB002003F03EFB9D
:10168000002003F03BFB002003F038FB002003F0B8
:1016900035FBB42003F038FB8B2003F02FFB002038
:1016A00003F02CFB962003F029FB002003F026FB1F
:1016B000A12003F023FB002003F020FBB52003F062
:1016C00023FB022003F01AFB002003F017FB03208A
:1016D00003F014FB002003F011FB042003F00EFBC9
:1016E000002003F00BFBB62003F00EFB002003F0FC
:1016F00005FB002003F002FBB72003F005FB0020F0
:1017000003F0FCFA002003F0F9FA3F2003F0F6FAA8
:10171000002003F0F3FA5E2003F0F0FA002003F05B
:10172000EDFA642003F0EAFA002003F0E7FA8C20D7
:1017300003F0E4FA002003F0E1FAAC2003F0DEFA53
:10174000002003F0DBFADC2003F0D8FA002001E0EF
:101750000401002003F0D2FA702003F0CFFA002039
:1017600003F0CCFA902003F0C9FA002003F0C6FA87
:10177000EB2003F0C3FA002003F0C0FADC2003F0F2
:10178000BDFA002003F0BAFAB82003F0BDFA002039
:1017900003F0B4FA002003F0B1FA002003F0AEFA2F
:1017A000002003F0ABFA002003F0A8FA002003F0B9
:1017B000A5FA002003F0A2FA002003F09FFABA2055
:1017C00003F0A2FA242003F099FA002003F096FA1D
:1017D000002003F093FA002003F090FAC12003F0F8
:1017E00093FA202003F08AFA002003F087FA5420AD
:1017F00003F084FA002003F081FAFF2003F07EFA60
:10180000002003F07BFAC22003F07EFA0A2003F0E6
:1018100075FA002003F072FA042003F06FFA00203A
:1018200003F06CFAC32003F06FFA3C2003F066FA71
:10183000002003F063FA3A2003F060FA002003F07E
:101840005DFA392003F05AFA002003F057FA3720E6
:1018500003F054FA002003F051FA3C2003F04EFA52
:10186000002003F04BFA362003F048FA002003F082
:1018700045FA322003F042FA002003F03FFA2F200D
:1018800003F03CFA002003F039FA2C2003F036FA7A
:10189000002003F033FA292003F030FA002003F08F
:1018A0002DFA262003F02AFA002003F027FA24203C
:1018B00003F024FA002003F021FA242003F01EFA9A
:1018C000002003F01BFA232003F018FA002003F095
:1018D00015FA3C2003F012FA002003F00FFA36202C
:1018E00003F00CFA002003F009FA322003F006FAA4
:1018F000002003F003FA2F2003F000FA002003F089
:10190000FDF92C2003F0FAF9002003F0F7F9292063
:1019100003F0F4F9002003F0F1F9262003F0EEF9CA
:10192000002003F0EBF9242003F0E8F9002003F095
:10193000E5F9242003F0E2F9002003F0DFF9232089
:1019400003F0DCF9002003F0D9F9C42003F0DCF93E
:10195000622003F0D3F9002003F0D0F9052003F052
:10196000CDF9002003F0CAF9842003F0C7F9002064
:1019700003F0C4F9F02003F0C1F9002003F0BEF930
:10198000182003F0BBF9002003F0B8F9A42003F0FD
:10199000B5F9002003F0B2F9182003F0AFF90020E8
:1019A00003F0ACF9502003F0A9F9002003F0A6F9E8
:1019B0000C2003F0A3F9002003F0A0F9172003F096
:1019C0009DF9002003F09AF9952003F097F9002083
:1019D00003F094F9F32003F091F9002003F08EF95D
:1019E000E62003F08BF9002003F088F9C52003F00E
:1019F0008BF9322003F082F9002003F07FF94420B4
:101A000003F07CF9002003F079F9652003F076F902
:101A1000002003F073F9762003F070F9002003F042
:101A20006DF9882003F06AF9002003F067F9C620F9
:101A300003F06AF9202003F061F9002003F05EF959
:101A4000172003F05BF9002003F058F9012003F0A0
:101A500055F9002003F052F9C72003F055F9002092
:101A600003F04CF9002003F049F9002003F046F997
:101A7000002003F043F9C82003F046F9002003F0EA
:101A80003DF9002003F03AF9002003F037F9002077
:101A900003F034F9C92003F037F9002003F02EF9E0
:101AA000002003F02BF9002003F028F9002003F0B8
:101AB00025F9002003F022F9002003F01FF900208F
:101AC00003F01CF9002003F019F9002003F016F9C7
:101AD000002003F013F9002003F010F9002003F0B8
:101AE0000DF9002003F00AF9002003F007F90020A7
:101AF00003F004F9002003F001F9E02003F004F9F9
:101B0000162003F0FBF8002003F0F8F81C2003F087
:101B1000F5F8002003F0F2F8212003F0EFF80020A0
:101B200003F0ECF8362003F0E9F8002003F0E6F8C3
:101B3000462003F0E3F8002003F0E0F8522003F021
:101B4000DDF8002003F0DAF8642003F0D7F8002075
:101B500003F0D4F87A2003F0D1F8002003F0CEF897
:101B60008B2003F0CBF8002003F0C8F8992003F095
:101B7000C5F8002003F0C2F8A82003F0BFF8002049
:101B800003F0BCF8B92003F0B9F8002003F0B6F870
:101B9000C42003F0B3F8002003F0B0F8CA2003F02B
:101BA000ADF8002003F0AAF8D22003F0A7F8002037
:101BB00003F0A4F8D92003F0A1F8002003F09EF868
:101BC000E02003F09BF8002003F098F8F32003F0E6
:101BD00095F8002003F092F8E12003F095F8162024
:101BE00003F08CF8002003F089F81C2003F086F83D
:101BF000002003F083F8222003F080F8002003F097
:101C00007DF8362003F07AF8002003F077F84520BD
:101C100003F074F8002003F071F8522003F06EF81E
:101C2000002003F06BF8642003F068F8002003F054
:101C300065F87A2003F062F8002003F05FF88B204B
:101C400003F05CF8002003F059F8992003F056F8EF
:101C5000002003F053F8A82003F050F8002003F010
:101C60004DF8B92003F04AF8002003F047F8C420EB
:101C700003F044F8002003F041F8CA2003F03EF8D6
:101C8000002003F03BF8D22003F038F8002003F0E6
:101C900035F8D82003F032F8002003F02FF8E020C8
:101CA00003F02CF8002003F029F8F32003F026F8C5
:101CB000002003F023F8E22003F026F8052003F0CB
:101CC0001DF8002003F01AF80B2003F017F800208D
:101CD00003F014F81B2003F011F8002003F00EF8B5
:101CE000342003F00BF8002003F008F8442003F040
:101CF00005F8002003F002F84F2002F0FFFF00205B
:101D000002F0FCFF612002F0F9FF002002F0F6FF74
:101D1000792002F0F3FF002002F0F0FF882002F0AB
:101D2000EDFF002002F0EAFF972002F0E7FF00201D
:101D300002F0E4FFA62002F0E1FF002002F0DEFF47
:101D4000B72002F0DBFF002002F0D8FFC22002F033
:101D5000D5FF002002F0D2FFC72002F0CFFF002005
:101D600002F0CCFFD12002F0C9FF002002F0C6FF34
:101D7000D62002F0C3FF002002F0C0FFDD2002F0F9
:101D8000BDFF002002F0BAFFF32002F0B7FF0020F1
:101D900002F0B4FFE32002F0B7FF052002F0AEFF2F
:101DA000002002F0ABFF0A2002F0A8FF002002F0A2
:101DB000A5FF1C2002F0A2FF002002F09FFF3320AD
:101DC00002F09CFF002002F099FF442002F096FFF1
:101DD000002002F093FF502002F090FF002002F05C
:101DE0008DFF622002F08AFF002002F087FF78203A
:101DF00002F084FF002002F081FF882002F07EFFC5
:101E0000002002F07BFF972002F078FF002002F014
:101E100075FFA62002F072FF002002F06FFFB720CE
:101E200002F06CFF002002F069FFC22002F066FFA2
:101E3000002002F063FFC72002F060FF002002F0E4
:101E40005DFFD12002F05AFF002002F057FFD5209D
:101E500002F054FF002002F051FFDD2002F04EFF9F
:101E6000002002F04BFFF32002F048FF002002F0B8
:101E700045FFE42002F048FF012002F03FFF002070
:101E800002F03CFF012002F039FF002002F036FF93
:101E9000022002F033FF002002F030FF2A2002F07F
:101EA0002DFF002002F02AFF3C2002F027FF002037
:101EB00002F024FF4B2002F021FF002002F01EFF61
:101EC0005D2002F01BFF002002F018FF742002F0DA
:101ED00015FF002002F012FF842002F00FFF002007
:101EE00002F00CFF932002F009FF002002F006FF31
:101EF000A22002F003FF002002F000FFB32002F056
:101F0000FDFE002002F0FAFEBE2002F0F7FE0020E7
:101F100002F0F4FEC42002F0F1FE002002F0EEFE1A
:101F2000CD2002F0EBFE002002F0E8FED32002F00C
:101F3000E5FE002002F0E2FEDD2002F0DFFE0020E0
:101F400002F0DCFEF32002F0D9FE002002F0D6FE03
:101F5000E52002F0D9FE002002F0D0FE002002F0C1
:101F6000CDFE002002F0CAFE002002F0C7FE0220D3
:101F700002F0C4FE002002F0C1FE292002F0BEFEE5
:101F8000002002F0BBFE3C2002F0B8FE002002F070
:101F9000B5FE4B2002F0B2FE002002F0AFFE5D2045
:101FA00002F0ACFE002002F0A9FE742002F0A6FEB2
:101FB000002002F0A3FE842002F0A0FE002002F028
:101FC0009DFE932002F09AFE002002F097FEA220D0
:101FD00002F094FE002002F091FEB32002F08EFE8B
:101FE000002002F08BFEBE2002F088FE002002F0EE
:101FF00085FEC42002F082FE002002F07FFECD208C
:1020000002F07CFE002002F079FED32002F076FE82
:10201000002002F073FEDC2002F070FE002002F0CF
:102020006DFEF32002F06AFE002002F067FEE6205B
:1020300002F06AFE112002F061FE002002F05EFE56
:10204000342002F05BFE002002F058FE562002F021
:1020500055FE002002F052FE762002F04FFE0020D6
:1020600002F04CFE772002F049FE002002F046FE0E
:10207000662002F043FE002002F040FE882002F0BD
:102080003DFE002002F03AFE992002F037FE0020CB
:1020900002F034FEBB2002F031FE002002F02EFEE2
:1020A000992002F02BFE002002F028FE662002F0AC
:1020B00025FE002002F022FE552002F01FFE002027
:1020C00002F01CFE552002F019FE002002F016FE60
:1020D000452002F013FE002002F010FE432002F023
:1020E0000DFE002002F00AFE442002F007FE002050
:1020F00002F004FEE72002F007FE322002F0FEFDAF
:10210000002002F0FBFD552002F0F8FD002002F057
:10211000F5FD762002F0F2FD002002F0EFFD6620D2
:1021200002F0ECFD002002F0E9FD672002F0E6FD80
:10213000002002F0E3FD672002F0E0FD002002F045
:10214000DDFD872002F0DAFD002002F0D7FD9920A6
:1021500002F0D4FD002002F0D1FDBB2002F0CEFD44
:10216000002002F0CBFD992002F0C8FD002002F013
:10217000C5FD772002F0C2FD002002F0BFFD442023
:1021800002F0BCFD002002F0B9FD562002F0B6FDC1
:10219000002002F0B3FD232002F0B0FD002002F089
:1021A000ADFD332002F0AAFD002002F0A7FD45207E
:1021B00002F0A4FD002002F0A1FDE82002F0A4FD41
:1021C000002002F09BFD002002F098FD992002F013
:1021D00095FD002002F092FD872002F08FFD002087
:1021E00002F08CFD882002F089FD002002F086FDBF
:1021F000772002F083FD002002F080FD662002F0CF
:102200007DFD002002F07AFD882002F077FD00209D
:1022100002F074FDAA2002F071FD002002F06EFDB4
:10222000BB2002F06BFD002002F068FD992002F057
:1022300065FD002002F062FD662002F05FFD0020D7
:1022400002F05CFD552002F059FD002002F056FD21
:10225000552002F053FD002002F050FD442002F012
:102260004DFD002002F04AFD442002F047FD002011
:1022700002F044FD552002F041FD002002F03EFD39
:10228000E92002F041FDAA2002F038FD002002F012
:1022900035FD002002F032FD002002F02FFD00206D
:1022A00002F032FDAA2002F029FDCF2002F02CFD21
:1022B000002002F023FD002002F020FD002002F0AB
:1022C0001DFD002002F01AFD002002F017FD002085
:1022D00002F014FD002002F011FD002002F00EFDBE
:1022E000002002F00BFD002002F008FD002002F0AB
:1022F00005FD002002F002FD002002F0FFFC00209E
:1023000002F0FCFC002002F0F9FC002002F0F6FCD8
:10231000002002F0F3FCF02002F0F6FC002002F0B6
:10232000EDFC502002F0EAFC002002F0E7FC002067
:1023300002F0E4FC002002F0E1FCF32002F0E4FCF7
:10234000002002F0DBFCF92002F0DEFC062002F0A7
:10235000D5FC102002F0D2FC292002F0CFFC002096
:1023600002F0CCFC3A2002F0CFFC552002F0C6FC73
:10237000112002F0C9FC642003F008FE292002F0BD
:10238000C3FC352002F0C0FC002002F0B7FC512055
:1023900002F0BAFCFF2002F0B1FC532002F0B4FCC2
:1023A0002C2002F0ABFC552002F0AEFC822002F0A3
:1023B000A5FC2C2002F0A8FC02F0E9B8FE488088B9
:1023C00045F2105188427DD155214FF4704002F002
:1023D000ABFCAA214FF2010002F0A6FC52214FF201
:1023E000020002F0A1FC08214FF2030002F09CFC65
:1023F00001214FF2040002F097FC0D214FF4304010
:1024000002F092FC0D214BF2010002F08DFC0D2137
:102410004BF2020002F088FC34214FF4364002F007
:1024200083FC34214BF2016002F07EFC34214BF23C
:10243000026002F079FC0D214FF4314002F074FC8F
:102440000D214BF2011002F06FFC0D214BF2021036
:1024500002F06AFC34214FF4374002F065FC34216D
:102460004BF2017002F060FC34214BF2027002F07A
:102470005BFC00214FF4324002F056FC00214BF28D
:10248000012002F051FC00214BF2022002F04CFC32
:1024900024214FF4384002F047FC24214BF6010080
:1024A00002F042FC24214BF6020002F03DFC012127
:1024B0004FF43F4002F038FC0F214FF4334002F05C
:1024C00033FC00E0FDE30F214BF2013002F02CFC65
:1024D0000F214BF2023002F027FC34214FF4394037
:1024E00002F022FC34214BF6011002F01DFC3421D5
:1024F0004BF6021002F018FC08214FF4354002F0B0
:1025000013FC08214BF2015002F00EFC08214BF2A3
:10251000025002F009FC03214FF4424002F004FC97
:1025200024214FF43A4002F0FFFB24214BF6012016
:1025300002F0FAFB24214BF6022002F0F5FB002109
:102540004FF43C4002F0F0FB78214BF6014002F0E2
:10255000EBFB00214BF6024002F0E6FB00214FF4BA
:102560003D4002F0E1FB78214BF6015002F0DCFB2C
:1025700000214BF6025002F0D7FB00214FF43E4001
:1025800002F0D2FB64214BF6016002F0CDFB00218A
:102590004FF4514002F0C8FB33214DF2011002F01C
:1025A000C3FB00214DF2021002F0BEFB34214DF2BC
:1025B000031002F0B9FB00214DF2041002F0B4FB4D
:1025C0003A214DF2051002F0AFFB00214DF206104A
:1025D00002F0AAFB4A214DF2071002F0A5FB0021F0
:1025E0004DF2081002F0A0FB5C214DF2091002F040
:1025F0009BFB00214DF20A1002F096FB81214DF267
:102600000B1002F091FB00214DF20C1002F08CFB3C
:10261000A6214DF20D1002F087FB00214DF20E10A5
:1026200002F082FBE5214DF20F1002F07DFB01214B
:102630004DF2101002F078FB13214DF2111002F050
:1026400073FB01214DF2121002F06EFB54214DF28A
:10265000131002F069FB01214DF2141002F064FB2B
:1026600082214DF2151002F05FFB01214DF2161090
:1026700002F05AFBCA214DF2171002F055FB02215D
:102680004DF2181002F050FB00214DF2191002F02B
:102690004BFB02214DF21A1002F046FB01214DF2D4
:1026A0001B1002F041FB02214DF21C1002F03CFB1A
:1026B00034214DF21D1002F037FB02214DF21E10A5
:1026C00002F032FB67214DF21F1002F02DFB0221B8
:1026D0004DF2201002F028FB84214DF2211002F06F
:1026E00023FB02214DF2221002F01EFBA4214DF229
:1026F000231002F019FB02214DF2241002F014FB0A
:10270000B7214DF2251002F00FFB02214DF22610E9
:1027100002F00AFBCF214DF2271002F005FB022147
:102720004DF2281002F000FBDE214DF2291002F0DC
:10273000FBFA02214DF22A1002F0F6FAF2214DF2D4
:102740002B1002F0F1FA02214DF22C1002F0ECFAFB
:10275000FE214DF22D1002F0E7FA03214DF22E106A
:1027600002F0E2FA10214DF22F1002F0DDFA0321FF
:102770004DF2301002F0D8FA33214DF2311002F050
:10278000D3FA03214DF2321002F0CEFA6D214DF250
:10279000331002F0C9FA00214FF4524002F0C4FA9B
:1027A00033214DF2012002F0BFFA00214DF2022048
:1027B00002F0BAFA342101E0040100204DF20320B6
:1027C00002F0B2FA00214DF2042002F0ADFA3A21F3
:1027D0004DF2052002F0A8FA00214DF2062002F089
:1027E000A3FA4A214DF2072002F09EFA00214DF291
:1027F000082002F099FA5C214DF2092002F094FAC7
:1028000000214DF20A2002F08FFA81214DF20B20B7
:1028100002F08AFA00214DF20C2002F085FAA6217E
:102820004DF20D2002F080FA00214DF20E2002F050
:102830007BFAE5214DF20F2002F076FA01214DF2EC
:10284000102002F071FA13214DF2112002F06CFAFF
:1028500001214DF2122002F067FA54214DF21320AB
:1028600002F062FA01214DF2142002F05DFA822199
:102870004DF2152002F058FA01214DF2162002F017
:1028800053FACA214DF2172002F04EFA02214DF2FE
:10289000182002F049FA00214DF2192002F044FA02
:1028A00002214DF21A2002F03FFA01214DF21B20C5
:1028B00002F03AFA02214DF21C2002F035FA3421DE
:1028C0004DF21D2002F030FA02214DF21E2002F0DE
:1028D0002BFA67214DF21F2002F026FA02214DF259
:1028E000202002F021FA84214DF2212002F01CFA6E
:1028F00002214DF2222002F017FAA4214DF22320EA
:1029000002F012FA02214DF2242002F00DFAB72152
:102910004DF2252002F008FA02214DF2262002F0A5
:1029200003FACF214DF2272002F0FEF902214DF2E9
:10293000282002F0F9F9DE214DF2292002F0F4F905
:1029400002214DF22A2002F0EFF9F2214DF22B2064
:1029500002F0EAF902214DF22C2002F0E5F9FE2105
:102960004DF22D2002F0E0F903214DF22E2002F06D
:10297000DBF910214DF22F2002F0D6F903214DF2A0
:10298000302002F0D1F933214DF2312002F0CCF9A0
:1029900003214DF2322002F0C7F96D214DF23320B0
:1029A00002F0C2F900214FF4534002F0BDF9332187
:1029B0004DF2013002F0B8F900214DF2023002F080
:1029C000B3F934214DF2033002F0AEF900214DF29B
:1029D000043002F0A9F93A214DF2053002F0A4F9D1
:1029E00000214DF2063002F09FF94A214DF20730E6
:1029F00002F09AF900214DF2083002F095F95C21BD
:102A00004DF2093002F090F900214DF20A3002F047
:102A10008BF981214DF20B3002F086F900214DF245
:102A20000C3002F081F9A6214DF20D3002F07CF954
:102A300000214DF20E3002F077F9E5214DF20F3012
:102A400002F072F901214DF2103002F06DF91321FC
:102A50004DF2113002F068F901214DF2123002F00E
:102A600063F954214DF2133002F05EF901214DF269
:102A7000143002F059F982214DF2153002F054F968
:102A800001214DF2163002F04FF9CA214DF21730F4
:102A900002F04AF902214DF2183002F045F9002106
:102AA0004DF2193002F040F902214DF21A3002F0D5
:102AB0003BF901214DF21B3002F036F902214DF2B3
:102AC0001C3002F031F934214DF21D3002F02CF9A6
:102AD00002214DF21E3002F027F967214DF21F301E
:102AE00002F022F902214DF2203002F01DF984217A
:102AF0004DF2213002F018F902214DF2223002F09D
:102B000013F9A4214DF2233002F00EF902214DF207
:102B1000243002F009F9B7214DF2253002F004F912
:102B200002214DF2263002F0FFF8CF214DF227307E
:102B300002F0FAF802214DF2283002F0F5F8DE2119
:102B40004DF2293002F0F0F802214DF22A3002F065
:102B5000EBF8F2214DF22B3002F0E6F802214DF2B3
:102B60002C3002F0E1F8FE214DF22D3002F0DCF8BD
:102B700003214DF22E3002F0D7F810214DF22F3004
:102B800002F0D2F803214DF2303002F0CDF83321BB
:102B90004DF2313002F0C8F803214DF2323002F02C
:102BA000C3F86D214DF2333002F0BEF800214FF42E
:102BB000544002F0B9F833214DF2014002F0B4F86C
:102BC00000214DF2024002F0AFF834214DF20340F3
:102BD00002F0AAF800214DF2044002F0A5F83A21D3
:102BE0004DF2054002F0A0F800214DF2064002F03F
:102BF0009BF84A214DF2074002F096F800214DF271
:102C0000084002F091F85C214DF2094002F08CF886
:102C100000214DF20A4002F087F881214DF20B406D
:102C200002F082F800214DF20C4002F07DF8A6215E
:102C30004DF20D4002F078F800214DF20E4002F006
:102C400073F8E5214DF20F4002F06EF801214DF2CC
:102C5000104002F069F813214DF2114002F064F8BF
:102C600001214DF2124002F05FF854214DF2134061
:102C700002F05AF801214DF2144002F055F8822179
:102C80004DF2154002F050F801214DF2164002F0CD
:102C90004BF8CA214DF2174002F046F802214DF2DE
:102CA000184002F041F800214DF2194002F03CF8C2
:102CB00002214DF21A4002F037F801214DF21B407B
:102CC00000E006E302F030F802214DF21C4002F071
:102CD0002BF834214DF21D4002F026F802214DF26E
:102CE0001E4002F021F867214DF21F4002F01CF84F
:102CF00002214DF2204002F017F884214DF22140CC
:102D000002F012F802214DF2224002F00DF8A42147
:102D10004DF2234002F008F802214DF2244002F067
:102D200003F8B7214DF2254001F0FEFF02214DF2DC
:102D3000264001F0F9FFCF214DF2274001F0F4FFCA
:102D400002214DF2284001F0EFFFDE214DF2294033
:102D500001F0EAFF02214DF22A4001F0E5FFF221E5
:102D60004DF22B4001F0E0FF02214DF22C4001F02A
:102D7000DBFFFE214DF22D4001F0D6FF03214DF285
:102D80002E4001F0D1FF10214DF22F4001F0CCFF79
:102D900003214DF2304001F0C7FF33214DF23140A5
:102DA00001F0C2FF03214DF2324001F0BDFF6D2161
:102DB0004DF2334001F0B8FF00214FF4554001F0CF
:102DC000B3FF33214DF2015001F0AEFF00214DF26F
:102DD000025001F0A9FF34214DF2035001F0A4FF8D
:102DE00000214DF2045001F09FFF3A214DF20550B1
:102DF00001F09AFF00214DF2065001F095FF4A21A3
:102E00004DF2075001F090FF00214DF2085001F003
:102E10008BFF5C214DF2095001F086FF00214DF23D
:102E20000A5001F081FF81214DF20B5001F07CFF2F
:102E300000214DF20C5001F077FFA6214DF20D500C
:102E400001F072FF00214DF20E5001F06DFFE521FF
:102E50004DF20F5001F068FF01214DF2105001F0CA
:102E600063FF13214DF2115001F05EFF01214DF27D
:102E7000125001F059FF54214DF2135001F054FF4C
:102E800001214DF2145001F04FFF82214DF21550F7
:102E900001F04AFF01214DF2165001F045FFCA2111
:102EA0004DF2175001F040FF02214DF2185001F091
:102EB0003BFF00214DF2195001F036FF02214DF287
:102EC0001A5001F031FF01214DF21B5001F02CFF8F
:102ED00002214DF21C5001F027FF34214DF21D500C
:102EE00001F022FF02214DF21E5001F01DFF67216B
:102EF0004DF21F5001F018FF02214DF2205001F059
:102F000013FF84214DF2215001F00EFF02214DF2FA
:102F1000225001F009FFA4214DF2235001F004FFDB
:102F200002214DF2245001F0FFFEB7214DF2255051
:102F300001F0FAFE02214DF2265001F0F5FECF21FC
:102F40004DF2275001F0F0FE02214DF2285001F021
:102F5000EBFEDE214DF2295001F0E6FE02214DF29A
:102F60002A5001F0E1FEF2214DF22B5001F0DCFE7F
:102F700002214DF22C5001F0D7FEFE214DF22D50D2
:102F800001F0D2FE03214DF22E5001F0CDFE1021B2
:102F90004DF22F5001F0C8FE03214DF2305001F0E8
:102FA000C3FE33214DF2315001F0BEFE03214DF23C
:102FB000325001F0B9FE6D214DF2335001F0B4FEF4
:102FC00000214FF4564001F0AFFE33214DF2016075
:102FD00001F0AAFE00214DF2026001F0A5FE3421AD
:102FE0004DF2036001F0A0FE00214DF2046001F0FB
:102FF0009BFE3A214DF2056001F096FE00214DF254
:10300000066001F091FE4A214DF2076001F08CFE4E
:1030100000214DF2086001F087FE5C214DF209604D
:1030200001F082FE00214DF20A6001F07DFE812157
:103030004DF20B6001F078FE00214DF20C6001F0C2
:1030400073FEA6214DF20D6001F06EFE00214DF2DF
:103050000E6001F069FEE5214DF20F6001F064FEA3
:1030600001214DF2106001F05FFE13214DF211605D
:1030700001F05AFE01214DF2126001F055FE54217B
:103080004DF2136001F050FE01214DF2146001F089
:103090004BFE82214DF2156001F046FE01214DF2FA
:1030A000166001F041FECA214DF2176001F03CFEAE
:1030B00002214DF2186001F037FE00214DF2196037
:1030C00001F032FE02214DF21A6001F02DFE0121C5
:1030D0004DF21B6001F028FE02214DF21C6001F050
:1030E00023FE34214DF21D6001F01EFE02214DF23F
:1030F0001E6001F019FE67214DF21F6001F014FE01
:1031000002214DF2206001F00FFE84214DF221607A
:1031100001F00AFE02214DF2226001F005FEA42119
:103120004DF2236001F000FE02214DF2246001F017
:10313000FBFDB7214DF2256001F0F6FD02214DF2B5
:10314000266001F0F1FDCF214DF2276001F0ECFD8A
:1031500002214DF2286001F0E7FDDE214DF22960E9
:1031600001F0E2FD02214DF22A6001F0DDFDF221C5
:103170004DF22B6001F0D8FD02214DF22C6001F0E0
:10318000D3FDFE214DF22D6001F0CEFD03214DF265
:103190002E6001F0C9FD10214DF22F6001F0C4FD39
:1031A00003214DF2306001F0BFFD33214DF231605B
:1031B00001F0BAFD03214DF2326001F0B5FD6D2141
:1031C0004DF2336001F0B0FD55214FF4704001F035
:1031D000ABFDAA214FF2010001F0A6FD52214FF2F2
:1031E000020001F0A1FD08214FF2030001F09CFD57
:1031F00000214FF2040001F097FDCC214FF4314043
:1032000001F092FD00214BF2011001F08DFD05212E
:103210004FF4364001F088FD70214FF4374001F043
:1032200083FD70214BF2017001F07EFD01214FF40E
:10323000384001F079FD03214BF6010001F074FDE7
:1032400003214BF6020001F06FFD03214BF6030052
:1032500001F06AFD02214FF43C4001F065FD0021C0
:103260004BF6014001F060FD00214BF6024001F0F9
:103270005BFDD0214FF4494001F056FD02214CF690
:10328000011001F051FD50214CF6021001F04CFDEF
:1032900050214CF6031001F047FD50214CF604106C
:1032A00001F042FD00214FF4545001F03DFD552145
:1032B0004FF4685001F038FD4FF4885001F024FDC0
:1032C000782002F081FE4FF4245001F01DFD01F042
:1032D0005EB9FE48808849F2253188427ED147F6A2
:1032E000F001E52001F020FD4FF48071012001F094
:1032F0001BFD4FF4E061022001F016FD41F23001A8
:10330000032001F011FD0021042001F00DFD40F229
:103310000221082001F008FD0021092001F004FD30
:1033200000210A2001F000FD00210C2001F0FCFC2E
:1033300000210D2001F0F8FC00210F2001F0F4FC29
:103340000021102001F0F0FC0721112001F0ECFC1D
:103350000021122001F0E8FC0021132001F0E4FC20
:103360000021072001F0E0FC41F29061102001F003
:10337000DBFC40F22721112001F0D6FC9D21122018
:1033800001F0D2FC4FF4C851132001F0CDFC2521EF
:10339000292001F0C9FC0D212B2001F0C5FC0721DB
:1033A000302001F0C1FC40F20331312001F0BCFCBF
:1033B0000321322001F0B8FC40F20621352001F053
:1033C000B3FC0821362001F0AFFC40F20641372063
:1033D00001F0AAFC4FF44171382000E057E001F001
:1033E000A3FC0721392001F09FFC40F202613C2040
:1033F00001F09AFC08213D2001F096FC00215020AC
:1034000001F092FCEF21512001F08EFC00215220AE
:1034100001F08AFC40F23F11532001F085FC4FF48B
:103420002741602001F080FC0121612001F07CFC3B
:1034300000216A2001F078FC0021802001F074FC5A
:103440000021812001F070FC0021822001F06CFC41
:103450000021832001F068FC0021842001F064FC3D
:103460000021852001F060FC1021902001F05CFC1F
:103470004FF4C061922001F057FC40F23311072055
:1034800001F052FC2221002001F04EFC1FE78F4882
:10349000808849F2283188427ED141F28F01EC20A8
:1034A00001F042FC41F23421EF2001F03DFC4FF4E9
:1034B0008071012001F038FC4FF4E061022001F03E
:1034C00033FC41F23001032001F02EFC00210420E6
:1034D00001F02AFC40F20221082001F025FC002125
:1034E000092001F021FC00210A2001F01DFC01212E
:1034F0000C2001F019FC00210D2001F015FC002129
:103500000F2001F011FC0021102001F00DFC07211B
:10351000112001F009FC0021122001F005FC00211E
:10352000132001F001FC0121072001F0FDFB3220F6
:1035300002F02CFD41F29041102001F0F5FB40F229
:103540002721112001F0F0FB322002F01FFD8A211B
:10355000122001F0E9FB322002F018FD4FF4D051A7
:10356000132001F0E1FB0621292001F0DDFB0D21F4
:103570002B2001F0D9FB322002F008FD0021202091
:1035800001F0D2FB0021212001F0CEFB322002F01D
:10359000FDFC0021302000E074E001F0C5FB40F2AA
:1035A0000461312001F0C0FB40F20531322001F00E
:1035B000BBFB0021352001F0B7FB40F60941362066
:1035C00001F0B2FB4FF40171372001F0ADFB40F286
:1035D0000131382001F0A8FB40F20771392001F0D9
:1035E000A3FB00213C2001F09FFB40F60A213D2077
:1035F00001F09AFB322002F0C9FC0021502001F0BA
:1036000093FBEF21512001F08FFB0021522001F0AC
:103610008BFB40F23F11532001F086FB4FF4274112
:10362000602001F081FB0121612001F07DFB002180
:103630006A2001F079FB0021802001F075FB002158
:10364000812001F071FB0021822001F06DFB00213F
:10365000832001F069FB0021842001F065FB00213B
:10366000852001F061FB1021902001F05DFB4FF4FB
:10367000C061922001F058FB40F23311072001F0A5
:1036800053FB24E61148808849F2203188427DD1DD
:103690000021084601F048FB4FF48071012001F041
:1036A00043FB4FF4E061022001F03EFB41F23001A8
:1036B000032001F039FB0021042001F035FB40F22A
:1036C0000221082001F030FB002101E0040100206C
:1036D000092001F029FB00210A2001F025FB01212E
:1036E0000C2001F021FB00210D2001F01DFB002129
:1036F0000F2001F019FB322002F048FC40F20111CA
:10370000072001F011FB322002F040FC4FF48651FB
:10371000102001F009FB0721112001F005FB4FF4F7
:103720008871122001F000FB4FF43061132001F08A
:10373000FBFA0021292001F0F7FA44F210012B20B6
:1037400001F0F2FA0021502001F0EEFAEF215120B1
:1037500001F0EAFA0021522001F0E6FA40F23F11AE
:10376000532001F0E1FA4FF41C51602001F0DCFA23
:103770000121612001F0D8FA00216A2001F0D4FA79
:103780000021802001F0D0FA002100E031E081200A
:1037900001F0CAFA0021822001F0C6FA002183203C
:1037A00001F0C2FA0021842001F0BEFA0021852038
:1037B00001F0BAFA1021902001F0B6FA002192200F
:1037C00001F0B2FA0121932001F0AEFA4FF48871B2
:1037D000952001F0A9FA0021972001F0A5FA002117
:1037E000982001F0A1FA40F27311072001F09CFA31
:1037F0006DE5FE48808849F2313188427DD141F241
:103800001401E72001F090FA4FF48071012001F0DB
:103810008BFA4FF40071022001F086FA41F2380170
:10382000032001F081FA40F20221082001F07CFA25
:103830000021092001F078FA00210A2001F074FA31
:1038400000210C2001F070FA00210D2001F06CFA2B
:1038500000210F2001F068FA0021102001F064FA25
:103860000721112001F060FA0021122001F05CFA1A
:103870000021132001F058FAC82002F087FB41F222
:103880009061102001F050FA40F22721112001F040
:103890004BFA322002F07AFB0C21122001F044FA9C
:1038A000322002F073FB4FF40061132001F03CFA68
:1038B0001121292001F038FA0B212B2001F034FAD4
:1038C000322002F063FB0021202001F02DFA40F2AB
:1038D0003F11212001F028FA0021302001F024FAC4
:1038E0004FF48371312001F01FFA0021322001F0E2
:1038F0001BFA4FF40171352000E064E001F014FA86
:1039000041F20A61362001F00FFA40F207713720C8
:1039100001F00AFA4FF48371382001F005FA40F201
:103920000771392001F000FA40F202413C2001F019
:10393000FBF940F60F413D2001F0F6F9002150203F
:1039400001F0F2F9EF21512001F0EEF900215220AF
:1039500001F0EAF940F23F11532001F0E5F94FF48C
:103960001C51602001F0E0F90121612001F0DCF937
:1039700000216A2001F0D8F90021802001F0D4F95B
:103980000021812001F0D0F90021822001F0CCF942
:103990000021832001F0C8F90021842001F0C4F93E
:1039A0000021852001F0C0F91021902001F0BCF920
:1039B0004FF4C061922001F0B7F940F233110720B3
:1039C00001F0B2F983E48948808845F208418842D1
:1039D0007ED14FF48071012001F0A6F94FF4E0612F
:1039E000022001F0A1F941F23001032001F09CF91D
:1039F0000021042001F098F940F20721082001F08D
:103A000093F90021092001F08FF900210A2001F02B
:103A10008BF900210C2001F087F900210D2001F025
:103A200083F900210F2001F07FF9142002F0AEFA93
:103A300041F2B061102001F077F90121112001F06D
:103A400073F90121172001F06FF94FF49C711220D6
:103A500001F06AF94FF40061132001F065F90921C2
:103A6000292001F061F909212A2001F05DF90021E6
:103A7000A42001F059F90021502001F055F9EF215F
:103A8000512001F051F90021522001F04DF940F28E
:103A90003F11532001F048F94FF41C51602001F010
:103AA00043F90121612001F03FF900216A2001F072
:103AB0003BF90021802001F037F90021812001F03D
:103AC00033F90021822001F02FF90021832000E04A
:103AD00023E001F029F90021842001F025F90021DB
:103AE000852001F021F91321902001F01DF900211A
:103AF000922001F019F90321932001F015F94FF4F8
:103B00008871952001F010F940F27311072001F03F
:103B10000BF9322002F03AFAB8E43448808841F2D6
:103B2000055188427ED10021072001F0FDF83220A6
:103B300002F02CFA4FF48E71122001F0F5F80121F9
:103B4000A42001F0F1F80F21082001F0EDF8082180
:103B50000A2001F0E9F808210D2001F0E5F840F213
:103B60000771302001F0E0F80721312001F0DCF886
:103B700040F20361322001F0D7F84FF4E0613320C6
:103B800001F0D2F840F20221342001F0CDF80221F8
:103B9000352001F0C9F841F60F71362001F0C4F864
:103BA00040F20771372001F0BFF80021382001F002
:103BB000BBF80021392001F0B7F840F207713A2034
:103BC00001F0B2F800213B2001F0AEF807213C20C3
:103BD00001F0AAF800213D2001F0A6F8322002F001
:103BE000D5F90121072001F09FF801E00401002030
:103BF0000121172001F098F8322002F0C7F94FF4A4
:103C0000BD51102001F090F840F21721112001F071
:103C10008BF84FF48F71122001F086F84FF4706129
:103C2000132000E097E001F07FF800212A2001F046
:103C30007BF80A21292001F077F84FF49F711220B8
:103C400001F072F80021502001F06EF8EF215120B0
:103C500001F06AF80021522001F066F840F23F11AD
:103C6000532001F061F84FF41C51602001F05CF822
:103C70000121612001F058F800216A2001F054F878
:103C80000021802001F050F80021812001F04CF843
:103C90000021822001F048F80021832001F044F83F
:103CA0000021842001F040F80021852001F03CF83B
:103CB0001321902001F038F84FF44071922001F068
:103CC00033F80521932001F02FF80021952001F011
:103CD0002BF80021972001F027F80021982001F00F
:103CE00023F84FF48071012001F01EF84FF4E061D9
:103CF000022001F019F841F23801032001F014F814
:103D00000021042001F010F800210C2001F00CF833
:103D100000210F2001F008F80021202001F004F814
:103D20000021212001F000F82121072000F0FCFFF4
:103D3000142002F02BF96121072000F0F5FF142078
:103D400002F024F940F27311072000F0EDFF142077
:103D500002F01CF995E4FE4880884BF20551884238
:103D60007ED10021084600F0DFFF0021084600F068
:103D7000DBFF0021084600F0D7FF0021084600F0D5
:103D8000D3FF0121A42000F0CFFF142002F0FEF8A1
:103D90004FF41C51602000F0C7FF40F202210820C0
:103DA00000F0C2FF4FF40571302000F0BDFF43F278
:103DB0001571312000F0B8FF40F20461322000F0AC
:103DC000B3FF40F61661332000F0AEFF42F211213E
:103DD000342000F0A9FF4FF4A851352000F0A4FFD3
:103DE00048F20751362000F09FFF41F2074137208B
:103DF00000F09AFF41F20341382000F095FF2021A6
:103E0000392000F091FF1A21902000F08DFF002151
:103E1000102000F089FF0721112000F085FF00210C
:103E2000122000F081FF0021132000F07DFF1420FC
:103E300002F0ACF84FF4E661102000F075FF40F29C
:103E40003711112000F070FF142002F09FF84FF49A
:103E5000DC71122000F068FF142002F097F800E0F7
:103E600083E04FF47061132000F05EFF80212A2070
:103E700000F05AFF4821292000F056FF142002F0DC
:103E800085F84FF48071012000F04EFF4FF4E0619F
:103E9000022000F049FF41F23801032000F044FF06
:103EA00040F20221082000F03FFF00210A2000F02C
:103EB0003BFF00210C2000F037FF00210D2000F017
:103EC00033FF30210E2000F02FFF0021502000F0A2
:103ED0002BFFEF21512000F027FF0021522000F09E
:103EE00023FF40F23F11532000F01EFF4FF41C51FE
:103EF000602000F019FF0121612000F015FF002172
:103F00006A2000F011FF1121902000F00DFF4FF406
:103F1000C061922000F008FF40F20241932000F0BF
:103F200003FF0221942000F0FFFE142002F02EF87F
:103F30000121072000F0F8FE142002F027F861218B
:103F4000072000F0F1FE40F27311072000F0ECFEB4
:103F50000021202000F0E8FE0021212000F0E4FEF6
:103F60002221002000F0E0FE11E3794880884CF225
:103F7000055188427ED10021084600F0D5FE00217F
:103F8000084600F0D1FE142002F000F80021084697
:103F900000F0CAFE0021084600F0C6FE00210846D7
:103FA00000F0C2FE0021084600F0BEFE0121A42060
:103FB00000F0BAFE142001F0E9FF4FF41C5160201C
:103FC00000F0B2FE40F60601082000F0ADFE40F21F
:103FD0000371302000F0A8FE0121312000F0A4FE82
:103FE0000421322000F0A0FE4FF48171332000F054
:103FF0009BFE4FF44071342000F096FE40F2031116
:10400000352000F091FE1F21362000F08DFE40F299
:104010000371372000F088FE0121382000F084FE73
:104020000421392000F080FE1521902000F07CFE54
:104030004FF48261102000F077FE40F247211120FA
:1040400000F072FE4FF4DE71122000F06DFE4FF4AE
:104050006061132000F068FE782001F097FF4FF4B4
:104060008071012000F060FE4FF40071022000F02A
:104070005BFE00E050E041F23001032000F054FE0E
:1040800008210A2000F050FE00210C2000F04CFE18
:1040900020210E2000F048FE00210F2000F044FEF9
:1040A0000021202000F040FE0021212000F03CFEF5
:1040B0003D212A2000F038FE142001F067FF2D2159
:1040C000292000F031FE0021502000F02DFE4DF29D
:1040D000EF01512000F028FE0021522000F024FEC4
:1040E00040F23F11532000F01FFE0021612000F03C
:1040F0001BFE00216A2000F017FE4FF44071922051
:1041000000F012FE0521932000F00EFE4FF48071A6
:10411000072000F009FE3AE20D48808844F2315150
:1041200088427CD10121002000F0FEFD0A2001F030
:104130002DFF41F22861102000F0F6FD0E21122023
:1041400000F0F2FD40F63921132000F0EDFD01E012
:10415000040100200A2001F019FF4021112000F085
:10416000E3FD5021152000F0DFFD0A2001F00EFFD5
:104170001E21122000F0D8FD0A2001F007FF4FF4A5
:10418000B151102000F0D0FD42F63921132000F08B
:10419000CBFD0A2001F0FAFE4FF48071012000F0FF
:1041A000C3FD4FF44071022000F0BEFD41F2380122
:1041B000032000F0B9FD40F20221082000F0B4FD18
:1041C00008210A2000F0B0FD0021302000F0ACFDF5
:1041D00040F20241312000F0A7FD4FF483713220FC
:1041E00000F0A2FD40F20351332000F09DFD4FF49A
:1041F0008271342000F098FD40F20131352000F04A
:1042000093FD40F20771362000F08EFD40F205313B
:10421000372000F089FD4FF40271382000E040E0C3
:1042200000F082FD40F60B71392000F07DFD022187
:10423000412000F079FD4FF41C51602000F074FD26
:104240000121612000F070FD4FF40471902000F016
:104250006BFD4FF48571922000F066FD04219320E0
:1042600000F062FD4FF48071A02000F05DFD01219F
:10427000072000F059FD2121072000F055FD2321E2
:10428000072000F051FD3321072000F04DFD40F2E2
:104290003311072000F048FD0021A02000F044FD6C
:1042A00075E1C048808844F2355188427ED1302182
:1042B000152000F039FD10219A2000F035FD202155
:1042C000112000F031FD43F22841102000F02CFDB8
:1042D0000221122000F028FD41F23801132000F0E5
:1042E00023FD282001F052FE1221084600F01CFD9B
:1042F000282001F04BFE43F22041102000F014FD75
:1043000043F23801132000F00FFD462001F03EFE7D
:104310000021302000F008FD40F20241312000F081
:1043200003FD40F20731322000F0FEFC4FF44171F2
:10433000332000F0F9FC0421342000F0F5FC40F2B9
:104340000141352000F0F0FC40F20771362000F00A
:10435000EBFC40F20531372000F0E6FC4FF4C2617F
:10436000382000F0E1FC4FF4C261392000F0DCFCA1
:104370004FF48071012000F0D7FC4FF4407102200F
:1043800000F0D2FC41F23001032000F0CDFC40F6F9
:104390000801082000F0C8FC08210A2000F0C4FC35
:1043A0004FF41C51602000F0BFFC00E031E001211F
:1043B000612000F0B9FC4FF49F71902000F0B4FC34
:1043C0004FF48071922000F0AFFC4FF48071932085
:1043D00000F0AAFC4FF44051A02000F0A5FC1021F1
:1043E000A32000F0A1FC0121072000F09DFC212169
:1043F000072000F099FC2321072000F095FC3321D1
:10440000072000F091FC40F23311072000F08CFCF3
:10441000BDE06448808841F663118842F8D1E2200B
:1044200000F072FC1D2000F069FC022000F066FC28
:10443000042000F063FC642001F0C6FDE02000F0E1
:1044400063FC012000F05AFC0A2001F09FFDE020EF
:1044500000F05AFC032000F051FC0C2001F096FD06
:10446000012000F051FC0A2001F090FDE62000F050
:104470004BFC2F2000F042FCFF2000F03FFCFF200F
:1044800000F03CFCB02000F03FFC202000F036FCA7
:10449000002000F033FC032000F030FC40F21F301D
:1044A00000F02CFC012000F029FC40F2DF1000F0AD
:1044B00025FC002000F022FCB42000F025FC0420A4
:1044C00000F01CFC40F21F4000F018FC002000F03F
:1044D00015FC2E2000F012FC002000F00FFC002044
:1044E00000F00CFC002000F009FC002000F006FCAD
:1044F000B62000F009FC022000F000FC4FF403702D
:1045000000F0FCFB002000F0F9FB172000F0F6FBA8
:10451000152000F0F3FB002000F0F0FB002000F07D
:10452000EDFBF02000F0F0FB032000F0E7FB29207A
:1045300000F0EAFBD02000F0E7FB002000F0DEFBFB
:10454000BE2000F0E1FB052000F0D8FBFE2000F0CB
:10455000D5FB012000F0D2FB002000F0CFFB0020B3
:1045600000F0CCFB002000F0C9FBB82000F0CCFB31
:10457000032000F0C3FB012000F0C0FBBA2000F0D4
:10458000C3FB012000F0BAFB642000F031F80020EA
:10459000FCF786FA0120044908604FF6FF70FCF72B
:1045A00049FA10BD040100208081214210B5024665
:1045B000012000E050430B00A1F10104E1B2F9D168
:1045C00010BD000008B5034800880090BDF8000049
:1045D00008BD00000008006C10B50446204600F03D
:1045E00093FB052001F0F0FCFFF7ECFF10BD00008D
:1045F0002DE9F0470446BE2000F086FB052000F0C0
:104600007DFB204602F0ADF807464FF066320C4BBA
:1046100002F0BAF8054602F077F81FFA80F948462A
:1046200000F06CFB012000F069FBFF2000F066FB4E
:10463000002000F063FB002000F060FBBDE8F08785
:104640006666044070B5044600230026B7488079AA
:1046500001280BD1B548808846F60401884205D070
:10466000B248808841F66311884208D1AF4880790A
:10467000F0B9AE48808841F66311884218D1082C01
:1046800015D2DFE804F00406080A0C0E1012062406
:104690000DE007240BE0042409E0052407E00124D1
:1046A00005E0002403E0032401E0022400BF00BF72
:1046B0009E48808849F24131884217D09B488088C3
:1046C00046F60401884211D09848808845F210319E
:1046D00088420BD09548808845F21051884205D019
:1046E0009248808841F6631188427DD1082C1CD203
:1046F000DFE804F00406090C0F12151800BF14E0DF
:1047000043F0800311E043F040030EE043F0C003A8
:104710000BE043F0200308E043F0600305E043F0C2
:10472000A00302E043F0E00300BF00BF7F488088A1
:1047300045F21051884202D14FF4585600E0362617
:104740007A48808845F2103188420DD077488088B9
:1047500045F21051884207D07448808841F66311B1
:10476000884201D043F008037048808846F604016F
:10477000884201D143F002031946304600F0D4FAD2
:104780006A48808841F6631188421DD003F02000FA
:1047900068B16648008865494988884214DA6348E8
:1047A0000588408861490880084645800CE05F48DC
:1047B00000885E494988884206DD5C480588408853
:1047C0005A490880084645805848808845F210516B
:1047D000884254D15549488900F096FA002000F0EB
:1047E0008DFA5249498900E078E0491C88B200F00E
:1047F0008BFA002000F082FA4C494989891C88B262
:1048000000F082FA49490988491EC1F30F2000F0DF
:1048100075FA46494989C91C88B200F075FA4349BE
:104820000978491EC8B200F069FA4049888900F049
:104830006BFA002000F062FA3C498989491C88B271
:1048400000F062FA002000F059FA38498989891C81
:1048500088B200F059FA35494988491EC1F30F2042
:1048600000F04CFA31498989C91C88B200F04CFA31
:104870002E498978491EC8B200F040FA55E02B490C
:10488000488900F041FA002000F038FA002000F0DA
:1048900035FA26490988491EC1F30F2000F02EFA87
:1048A00022490978491EC8B200F028FA1F498889B0
:1048B00000F02AFA002000F021FA002000F01EFA91
:1048C0001A494988491EC1F30F2000F017FA174909
:1048D0008978491EC8B200F011FA26E0082C1CD2D3
:1048E000DFE804F004070A0D0F12151843F0300337
:1048F00013E043F0100310E043F020030DE000BF8D
:104900000BE043F0380308E043F0280305E043F0F0
:10491000180302E043F0080300BF00BF032643F47E
:1049200080531946304600F0FFF970BD04010020A5
:1049300010B503460C466748808849F241318842E9
:1049400005D06448808845F21031884214D161490D
:10495000488900F0D9F9181200F0D0F9D8B200F067
:10496000CDF95C49888900F0CFF9201200F0C6F932
:10497000E0B200F0C3F9ABE05648808846F6040187
:1049800088421DD153488079012804D151480088BC
:10499000401EC01A83B24F49488900F0B5F9181279
:1049A00000F0ACF9D8B200F0A9F94A49888900F0C2
:1049B000ABF9201200F0A2F9E0B200F09FF987E015
:1049C0004448808841F66311884247D14148807944
:1049D000A8B940480088401EC01A83B23D494889A2
:1049E00000F092F9002000F089F9002000F086F92B
:1049F000181200F083F9D8B200F080F916E03549BA
:104A0000488900F081F9181200F078F9D8B200F066
:104A100075F930490988491EC1F30F2000F06EF97D
:104A20002C490978491EC8B200F068F929498889DB
:104A300000F06AF9201200F061F9E0B200F05EF9CE
:104A400024494988491EC1F30F2000F057F9214934
:104A50008978491EC8B200F051F939E01D488088B4
:104A600045F21051884220D11A49488900F04CF98A
:104A7000181200F043F917494989491C88B200F01F
:104A800043F9D8B200F03AF91249888900F03CF9AC
:104A9000201200F033F90F498989491C88B200F0CF
:104AA00033F9E0B200F02AF912E00A4880790128CF
:104AB00004D108480088401EC01A83B205494889BD
:104AC000194600F031F903498889214600F02CF994
:104AD00010BD0000040100202DE9F84F80460E466D
:104AE00017461C46B3462046E31704EB5373DB100E
:104AF00021464FEAE47C04EB5C7C4FEAEC0CA4EB2F
:104B0000CC0CBCF1000F02D04FF0010C01E04FF0D3
:104B1000000C6344224604EBD27C4FEA6C0C03FB8E
:104B20000CF3DBB20093A7F12000C7B2002556E0DA
:104B30000C2C07D107EB47002B4901EB800010F844
:104B4000059013E0102C05D1284800EB071010F851
:104B500005900BE0182C07D107EBC700244901EBA7
:104B6000800010F8059001E0BDE8F88F4FF0000AD2
:104B70002FE009F0800030B11E48028831464046DF
:104B8000FCF76EF807E00A9828B91B4802883146FE
:104B90004046FCF765F84FEA49604FEA1069701C1F
:104BA00086B216484088B04200DCDDE7A6EB0B0079
:104BB000A0420AD15E4608F101001FFA80F80F48B2
:104BC0000088404500DCCFE706E00AF1010000F074
:104BD000FF0ABAF1080FCCDB00BF681CC5B2009811
:104BE0008542A5DB00BFBFE7CA6E00083E73000820
:104BF0002E7900080A0000200C000020040100208B
:104C00002DE9FF4F81B0074691461E460E9D4FF09D
:104C1000000A002439E0301B401EC1B20A20FFF711
:104C2000C5FCB9FBF0F00A21B0FBF1F201FB120860
:104C3000BAF1000F16D1701EA04213DDB8F1000FBB
:104C40000ED10020AB4605EBDB71491001FB04716E
:104C5000009088B22B4620220299FFF73DFF12E018
:104C60004FF0010A0020AB4605EBDB71491001FB58
:104C70000471009088B208F13001CAB22B46029943
:104C8000FFF72AFF00BF601CC4B2B442C3DB05B00B
:104C9000BDE8F08F2DE9F84704460D469046994649
:104CA000DDE9096704F0FF0A08EB04001FFA80F849
:104CB00009EB05001FFA80F916E0444502DB544673
:104CC000A81985B24D4500DB14E0002000903A7829
:104CD000334629462046FFF7FFFE304606EBD071EB
:104CE00004EB61018CB27F1C38787E2802DC3878B6
:104CF0002028E2DA00BFBDE8F887000001490880FB
:104D0000704700000008006C0149088070470000EF
:104D1000FE07006C024800890249088070470000C5
:104D200004010020FE07006C024A1080921C1180D2
:104D300070470000FE07006C1848806940F00800CA
:104D4000164988610846806940F04000886114482F
:104D5000006820F47000124908600846006840F4BA
:104D6000401008600E480C30006840F020000C49EC
:104D70000C3108600B48006820F470000949086095
:104D80000846006840F44010086006480C3000688F
:104D900040F0200003490C310860704700100240C9
:104DA000000C01400018014000B5002015490861C1
:104DB000C8601420486100208861C8610846006806
:104DC00040F001000860084640680F4908400D495E
:104DD0004860084600680D4908400A4908600846CE
:104DE000006820F4802008600846406820F4FE0037
:104DF00048600020886000214FF0006000F058F803
:104E000000BD0000001002400000FFF8FFFFF6FEAA
:104E10002DE9F0410746884614461D46284600F015
:104E200033F8C5F1040007FA00F60F20284100EA24
:104E30000800064306F00F06E21704EBD262521197
:104E4000920002F1E022D2F800212146E31704EBA0
:104E5000D3635B11A4EB431C012303FA0CF31A4345
:104E60002046E31704EBD3635B119B0003F1E023BF
:104E7000C3F800210348005D40EA061001490855C7
:104E8000BDE8F08100E400E00146072323EA0102C7
:104E90001202054B18684FF6FF031840034B1843E6
:104EA0001043014B186070470CED00E00000FA055C
:104EB000024A0A400243024B1A60704780FFFF1FFC
:104EC00008ED00E07CB5054600240020009001902C
:104ED00000260DB1022600E000261848406900F0C7
:104EE000007008B10E207CBD1549098888B269465A
:104EF000FBF76EFC04460CB12046F4E7019800F481
:104F00008020C0B10E48008802040121372000F043
:104F100027F83720FBF772FB04460CB12046E2E786
:104F200032460121062000F01BF80620FBF766FB45
:104F300004462046D7E72520D5E700000080014041
:104F4000140000200146034A506820F0FF00084387
:104F5000506070470080014000B500F0FDFB00BDCF
:104F600010B50346074CA260E0686FF30A0003F037
:104F70003F04204340EA811000BF40F48060014CB0
:104F8000E06010BD0080014070B504460A4D6C62BF
:104F900021F07E45084EB5623546E86A20F0F700FC
:104FA00040EA021000BF03F0010540EA450040F06E
:104FB00001003546E86270BD0080014010B5234B0A
:104FC0001B6843F47043214C2360204B40331B6823
:104FD00023F001031D4C4034236023461B6847F631
:104FE000F074A343194C4034236023461B6843EA02
:104FF0000213236023461B68236023461B6823603B
:1050000023461B6843F08003236023461B6843F458
:105010000073236023461B6843F400632360234628
:105020001B6843F4005323608B08241D2360084B46
:10503000241D2360231D1860044B40331B6843F07C
:105040000103024C4034236010BD00000404024000
:105050008080014030B504460025164800780328BA
:1050600001D1272030BD1348007838B111480078AD
:10507000012803D00F480078022818D1022C01D350
:105080002720EFE7E0B2FFF71DFF05467DB90A488C
:10509000406820F4C0500849486008464068A1B202
:1050A00040EAC120044948600846406848602846F4
:1050B000D8E700001000002000800140F0B5014654
:1050C00000200022BE4B1B7881F85630BD4B1B8858
:1050D000A1F85430BC4B1B681A0E93090B70C2F335
:1050E00083034B7002F003038B70B74B1B68C3F351
:1050F0000742CA70B44B1B88C3F307220A71B24B34
:105100001A784A715B681A0E1301CB80AE4B5B684C
:10511000C3F30742CB8843EA1213CB8002F00F039C
:105120000B72A94B9B88C3F30722D3094B72C2F3BE
:1051300080138B72C2F34013CB72C2F300130B7354
:1051400000234B739E4B1B783BB19D4B1B78012B6F
:1051500003D09B4B1B78032B4FD193071B0D0B6187
:10516000994B1A790B6943EA82030B61964B9B6852
:105170001A0E0B6943EA92130B61C2F3C2030B755B
:1051800002F007034B75904B9B68C3F3074253092A
:105190008B75C2F38203CB7593075B0F0B768A4B3B
:1051A0001B89C3F307220B7E43EAD2130B760B69EC
:1051B0005B1C0024C1E912340B7E9B1C012404FA01
:1051C00003F3DC17D1E91256A5FB037C06FB03C3EE
:1051D00005FB0433C1E912730C7A0123A3400B656C
:1051E0000024D1E912650B6DA6FB037C05FB03C30C
:1051F00006FB0433C1E912732EE0714B1B78022BBE
:105200002AD1714B1A7993069B0A0B616E4B9B68EE
:105210001A0E0B6943EA02230B616B4B9B68C3F3C5
:1052200007420B6913430B61674B1B89C3F30722CA
:105230000B695B1C4FF40074A3FB04464FF48063BE
:105240000025A4FB037C06FB03C304FB0533C1E973
:1052500012734FF400730B65C2F3801301F8193F0A
:1052600093065B0E4B70584B1A7A4B7843EAD21375
:105270004B7002F07F038B70534BDB681A0ED3091F
:10528000CB70C2F341130B71C2F382034B719307CE
:105290001B0F8B714C4BDB68C3F307428B7943EADE
:1052A00092138B71C2F34013CB7100230B7202F087
:1052B00001034B72444B9B89C3F30722D3098B72C2
:1052C000C2F38013CB72C2F340130B73C2F300130B
:1052D0004B73C2F381038B7302F00303CB733A4B1E
:1052E0001A7B53080B7401234B74384B1B681A0E3E
:1052F000CA741939354B1B68C3F307421402CC85B5
:10530000324B1B88C3F30722CB8D1343CB852F4B26
:105310001A7814060C635B681A0E0B6B43EA02449E
:105320000C632A4B5B68C3F307420B6B43EA02240E
:105330000C63264B9B88C3F307220B6B13430B6351
:10534000224B1A7934235A54204B9B681A0E35236A
:105350005A541E4B9B68C3F3074214068C631B4BC5
:105360001B89C3F307228B6B43EA02448C63174B00
:105370001A7A8B6B43EA02248C63144BDB681A0E97
:105380008B6B13438B63114BDB68C3F307423C23E6
:105390005B5C43EA12143C235C5413071C0DCC875E
:1053A0000A4B9B89C3F30722CB8F1343CB87074B51
:1053B0001A7B540840235C54012441235C54F0BD03
:1053C00010000020140000201801002028010020F7
:1053D00070B5002500243948806940F01000374935
:1053E00088610846806940F020008861084640696D
:1053F00040F4806048610846406940F0020048611E
:105400002F4840686FF313002D49486008464068F4
:105410002C4908432A4948602B48006820F47060F2
:10542000294908600846006840F4306008600020A0
:105430002649086048608860C86048628862C8621F
:10544000234888630020C8630223312200210846D4
:10545000FFF7DEFC00F0C4F8044614B900F03EF893
:1054600004461CB91B48FFF729FE044634B9194904
:10547000B1F85410080400F0BBFC04461CB901202C
:10548000FFF7E8FD04461CB113480078032812D149
:10549000104890F8560020B10E4890F856000128A8
:1054A00001D10A2500E004252846FFF74BFD002026
:1054B00000F0AAFC0446204670BD00000010024027
:1054C00000100140BBBB0B000014014000800140F4
:1054D000FF07C000380100201000002018B500248C
:1054E000012000903948006800F0030008B9252029
:1054F00018BD37480078042817D000220321022065
:10550000FFF72EFDFBF7A6F804460CB12046EFE7A7
:105510002E4840692F4908602C48806948602B4814
:10552000C06988602948006AC8602948007858B175
:1055300027480078012807D025480078062803D09E
:105540002348007802280CD1002201210320FFF714
:1055500007FD69460320FBF7C7F804460CB1204657
:10556000C6E71B48007803280CD1BDF800000204F0
:1055700001210320FFF7F4FCFBF76CF804460CB1A3
:105580002046B5E71248007804281DD0BDF8000079
:1055900011490860BDF80000020403210920FFF74B
:1055A000DFFCFBF757F804460CB12046A0E707489C
:1055B00040690A4908600548806948600348C06935
:1055C00088600248006AC860002091E700800140BE
:1055D00010000020280100201400002018010020E5
:1055E0002DE9F0430027002400260025A046A1460F
:1055F00000205549486008464068486008464068B1
:105600004860084640684860084640684860084668
:1056100040684860B220FFF795FC03204A490860C3
:105620000846406840F48070486000BF0BE00022EC
:1056300011461046FFF794FCFAF7C6FF044604B97A
:1056400003E0781CC7B24A2FF1DB00BF14B120463B
:10565000BDE8F0834FF4D57201210820FFF780FCEC
:10566000FBF78CF8044624B90120384908704FF044
:105670008049002201213720FFF772FC3720FAF71A
:10568000BDFF04467CBB20E0002201213720FFF74C
:1056900067FC3720FAF7B2FF04460CB12046D7E783
:1056A0002B4849EA000201212920FFF759FCFAF7AB
:1056B000FFFF04460CB12046CAE723484669012093
:1056C00080EAD67080F001086D1CB8F1000F03D19C
:1056D0004FF6FF708542D7D34FF6FF70854203D354
:1056E0001B242046B4E707E006F08040060028D0DF
:1056F00002201649087024E012E0164A01210846EB
:10570000FFF72EFCFAF7D4FF04460CB120469FE7C2
:105710000D484669012080EAD67080F001086D1CB2
:10572000B8F1000F03D14FF6FF708542E5D34FF675
:10573000FF70854202D31B24204689E703200349DA
:105740000870204684E7000000800140100000201F
:10575000000010800080FF8000B54D48406B00F4D1
:10576000807020B34B48007801280AD10022012123
:105770000C20FFF7F5FB0C20FAF740FF46490870B4
:1057800002E00020444908704148806B40F480707A
:105790003F4988630846C06B4CF23A3188433C4924
:1057A000C86301203D4908703B48007800BD384877
:1057B000406B00F0020080B13548806B40F0020081
:1057C000334988630846C06B4CF23A31884330490C
:1057D000C863022030490870E8E72D48406B00F0AC
:1057E000080080B12A48806B40F00800284988638F
:1057F0000846C06B4CF23A3188432549C8630420FF
:1058000025490870D2E72248406B00F0200080B1A3
:105810001F48806B40F020001D4988630846C06B1C
:105820004CF23A3188431A49C86306201A49087075
:10583000BCE71748406B00F0100080B11448806B43
:1058400040F01000124988630846C06B4CF23A31B0
:1058500088430F49C86305200F490870A6E70C4824
:10586000406B00F4007080B10948806B40F4007018
:10587000074988630846C06B4CF23A3188430449B3
:10588000C86307200449087090E700208EE70000F5
:1058900000800140190000201A0000201B00002099
:1058A0002DE9F84F8146174698460A9C4FF0000AAA
:1058B000D3464D464FF0FF36B9F1000F02D12620F6
:1058C000BDE8F88F00207649C86276480078022843
:1058D00005D10402780A40EAC8574FEA6828002335
:1058E0001A461946581EFFF74FFB6D48406900F0F5
:1058F000007008B10E20E3E7002C17DDB4F5006F4F
:1059000014DC601E204088B9204600F016FB009091
:10591000224601211020FFF723FB1020FAF76EFE2C
:105920008246BAF1000F03D05046C9E72620C7E7E8
:1059300001232146981E009AFFF726FB3A460121D3
:105940001120FFF70DFB1120FAF758FE8246BAF13D
:10595000000F01D05046B3E753480078002869D1C2
:10596000FAF7DCFF18E04E48406B00F4004078B1D5
:105970004FF0000B06E04A488030006845F82B00E5
:105980000BF1010BBBF1080FF5D32035474E03E0B7
:105990000EB9042094E7761E4148406B40F22A611C
:1059A00008400028DFD03E48406B00F0080038B1C6
:1059B0003B48806B40F008003949886304207FE74A
:1059C0003748406B00F0020038B13548806B40F03A
:1059D000020033498863022072E73148406B00F0CF
:1059E000200038B12E48806B40F020002C4988639D
:1059F000062065E72A48406B00F4007038B128485B
:105A0000806B40F4007026498863072058E704E063
:105A10002348D0F8800028602D1D2148406B00F4F9
:105A200000100028F4D1FAF77BFF40F2FF501C4928
:105A3000886333E01C48007801282FD100222146DA
:105A40004846FFF7BBFA0020194908701949087049
:105A5000194908701248C06B40F22A3108431049B6
:105A6000C8630846C06A40F00800C86200E0761EBD
:105A70001248006800F4005038B90F48007820B987
:105A80000B48007808B9002EF1D10EB9042017E7B1
:105A90000748007810B1064890F800A050460FE77C
:105AA000008001401000002018000020FFFF7F0050
:105AB0001A000020190000201B00002000040240F2
:105AC0002DE9FE4F83460C469146002002900026A9
:105AD00025462C46700240EAD5566D020BF00300B5
