:020000040800F2
:10000000780C0020CD200008E10D0008E30D000869
:10001000E70D0008EB0D0008EF0D000800000000E0
:10002000000000000000000000000000F30D0008C8
:10003000F50D000800000000F70D0008F90D00089C
:10004000E7200008E7200008E7200008E720000874
:10005000E7200008E7200008E7200008E720000864
:10006000E7200008E7200008E7200008E720000854
:10007000E7200008E7200008E7200008E720000844
:10008000E7200008E7200008E7200008E720000834
:10009000E7200008E7200008E7200008E720000824
:1000A000E7200008E7200008E7200008E720000814
:1000B000E7200008E7200008E7200008E720000804
:1000C000E7200008E7200008E7200008E7200008F4
:1000D000E7200008DB1D00089F1D0008631D0008C5
:1000E000E7200008E7200008E7200008E7200008D4
:1000F000E7200008E7200008E7200008E7200008C4
:10010000E7200008E7200008E7200008E7200008B3
:10011000E7200008E7200008E7200008E7200008A3
:10012000E7200008E7200008E7200008E720000893
:1001300000F002F800F063F80AA090E8000C824496
:100140008344AAF10107DA4501D100F058F8AFF273
:10015000090EBAE80F0013F0010F18BFFB1A43F0A5
:1001600001031847BC390000DC39000010F8013BDE
:100170000A4413F0030408BF10F8014B1D1108BF17
:1001800010F8015B641E05D010F8016B641E01F8C5
:10019000016BF9D1002D15D010F8014B03F00C03C1
:1001A0000C2BA1EB04040ABF10F8013BA4EB831451
:1001B000A4EB032405F1010314F8016B5B1E01F8A5
:1001C000016BF9D5914238BF10F8013BD1D370478C
:1001D0000023002400250026103A28BF78C1FBD850
:1001E000520728BF30C148BF0B607047642902F036
:1001F0004F83002070471FB51FBD10B510BD02F022
:100200000FFC1146FFF7F7FF00F030FC02F02DFC69
:1002100003B4FFF7F2FF03BC01F094FD2DE9F843AE
:100220000A21012001F07AFAF549086008460068C1
:100230000A2190FBF1F040F29911081AF049086088
:10024000102003230090084604210268302001F0AA
:100250004DF81023EBA20421482001F08BF8E84868
:100260000068642190FBF1F0E7490870E4480068F9
:100270000A2190FBF1F090FBF1F201FB1200E24940
:100280004870DF4800680A2190FBF1F201FB120080
:10029000DD4988700020DD49087013E0DA48DB4949
:1002A0000978405C3030DA49088000BFD848001F28
:1002B000008800F040000028F8D0D4480078401CA6
:1002C000D2490870D14800780328E7DB0A210420CE
:1002D00001F024FACF4908800846008802F0B4FEF5
:1002E000804602F029FD06464FF06632CA4B02F006
:1002F00025FC044602F0F4FBC649088010200323C5
:100300000090084602880221302000F0EFFF102301
:10031000C2A20221482001F02DF801F009FBC049DA
:100320000860084600680A2190FBF1F0BD490860AA
:10033000BB4800680A2190FBF1F0B9490860102021
:1003400002230090084600210268302000F0CEFF12
:1003500010232E220021402000F070FF10200123E6
:100360000090B04800210268482000F0BFFF102331
:1003700043220021502000F061FFBDE8F8830021F6
:100380000EE050B1A84A108000BFA74A121F128881
:1003900002F04002002AF8D000E070474A1CD1B2B7
:1003A0000329EEDB00BFF8E7002110E0425C6AB1F0
:1003B000425C9D4B1A8000BF9B4A121F128802F0BC
:1003C0004002002AF8D04A1CD1B200E07047EDE7A5
:1003D00000B59648007830389549087093484078C1
:1003E00030389449087092480078012851D1084665
:1003F00000780A284CD2DFE800F0050C131A2128F7
:100400002F363D448CA0FFF7CFFFFF20FFF7B7FF4B
:100410003EE08FA0FFF7C8FFFF20FFF7B0FF37E0F7
:1004200091A0FFF7C1FFFF20FFF7A9FF30E094A0E4
:10043000FFF7BAFFFF20FFF7A2FF29E096A0FFF722
:10044000B3FFFF20FFF79BFF22E099A0FFF7ACFF6F
:10045000FF20FFF794FF1BE09BA0FFF7A5FFFF2005
:10046000FFF78DFF14E09EA0FFF79EFFFF20FFF730
:1004700086FF0DE0A0A0FFF797FFFF20FFF77FFFAB
:1004800006E0A3A0FFF790FFFF20FFF778FF00BF73
:1004900000BF67480078022851D1664800780A28D2
:1004A0004CD2DFE800F0050C131A21282F363D440A
:1004B0009DA0FFF779FFFF20FFF761FF3EE0A0A0BE
:1004C000FFF772FFFF20FFF75AFF37E0A2A0FFF708
:1004D0006BFFFF20FFF753FF30E0A5A0FFF764FF9D
:1004E000FF20FFF74CFF29E0A7A0FFF75DFFFF20EB
:1004F000FFF745FF22E0AAA0FFF756FFFF20FFF716
:100500003EFF1BE0ACA0FFF74FFFFF20FFF737FFD8
:1005100014E0AFA0FFF748FFFF20FFF730FF0DE02A
:10052000B1A0FFF741FFFF20FFF729FF06E0B4A0CD
:10053000FFF73AFFFF20FFF722FF00BF00BF3C4854
:100540000078032851D13B4800780A284CD2DFE8D4
:1005500000F0050C131A21282F363D44AEA0FFF7FA
:1005600023FFFF20FFF70BFF3EE0B1A0FFF71CFFCA
:10057000FF20FFF704FF37E0B3A0FFF715FFFF20D0
:10058000FFF7FDFE30E0B6A0FFF70EFFFF20FFF7FC
:10059000F6FE29E0B8A0FFF707FFFF20FFF7EFFE08
:1005A00022E0BBA0FFF700FFFF20FFF7E8FE1BE003
:1005B000BDA0FFF7F9FEFF20FFF7E1FE14E0C0A0A9
:1005C000FFF7F2FEFF20FFF7DAFE0DE0C2A0FFF713
:1005D000EBFEFF20FFF7D3FE06E0C5A0FFF7E4FE29
:1005E000FF20FFF7CCFE00BF00BF114800780428B1
:1005F00004D1104800780A2801D285E1D2E1D0E187
:1006000008000020436400001000002013000020B8
:10061000043801400C00002066664A3F50706D00AF
:1006200000000020040000200444004008050020D1
:100630000E0000200F000020486F6D65312E686F9E
:100640006D65316D6F6E65792E76616C3D300000A1
:10065000486F6D65312E686F6D65316D6F6E6579B0
:100660002E76616C3D310000486F6D65312E686FEC
:100670006D65316D6F6E65792E76616C3D3200006F
:10068000486F6D65312E686F6D65316D6F6E657980
:100690002E76616C3D330000486F6D65312E686FBA
:1006A0006D65316D6F6E65792E76616C3D3400003D
:1006B000486F6D65312E686F6D65316D6F6E657950
:1006C0002E76616C3D350000486F6D65312E686F88
:1006D0006D65316D6F6E65792E76616C3D3600000B
:1006E000486F6D65312E686F6D65316D6F6E657920
:1006F0002E76616C3D370000486F6D65312E686F56
:100700006D65316D6F6E65792E76616C3D380000D8
:10071000486F6D65312E686F6D65316D6F6E6579EF
:100720002E76616C3D390000486F6D65322E686F22
:100730006D65326D6F6E65792E76616C3D300000AF
:10074000486F6D65322E686F6D65326D6F6E6579BD
:100750002E76616C3D310000486F6D65322E686FFA
:100760006D65326D6F6E65792E76616C3D3200007D
:10077000486F6D65322E686F6D65326D6F6E65798D
:100780002E76616C3D330000486F6D65322E686FC8
:100790006D65326D6F6E65792E76616C3D3400004B
:1007A000486F6D65322E686F6D65326D6F6E65795D
:1007B0002E76616C3D350000486F6D65322E686F96
:1007C0006D65326D6F6E65792E76616C3D36000019
:1007D000486F6D65322E686F6D65326D6F6E65792D
:1007E0002E76616C3D370000486F6D65322E686F64
:1007F0006D65326D6F6E65792E76616C3D380000E7
:10080000486F6D65322E686F6D65326D6F6E6579FC
:100810002E76616C3D390000486F6D65332E686F30
:100820006D65336D6F6E65792E76616C3D300000BD
:10083000486F6D65332E686F6D65336D6F6E6579CA
:100840002E76616C3D310000486F6D65332E686F08
:100850006D65336D6F6E65792E76616C3D3200008B
:10086000486F6D65332E686F6D65336D6F6E65799A
:100870002E76616C3D330000486F6D65332E686FD6
:100880006D65336D6F6E65792E76616C3D34000059
:10089000486F6D65332E686F6D65336D6F6E65796A
:1008A0002E76616C3D350000486F6D65332E686FA4
:1008B0006D65336D6F6E65792E76616C3D36000027
:1008C000486F6D65332E686F6D65336D6F6E65793A
:1008D0002E76616C3D370000486F6D65332E686F72
:1008E0006D65336D6F6E65792E76616C3D380000F5
:1008F000486F6D65332E686F6D65336D6F6E65790A
:100900002E76616C3D390000DFE800F0050C131A0B
:1009100021282F363D44AFA0FFF746FDFF20FFF70B
:100920002EFD3EE0B1A0FFF73FFDFF20FFF727FDC2
:1009300037E0B4A0FFF738FDFF20FFF720FD30E0DF
:10094000B6A0FFF731FDFF20FFF719FD29E0B9A0A0
:10095000FFF72AFDFF20FFF712FD22E0BBA0FFF703
:1009600023FDFF20FFF70BFD1BE0BEA0FFF71CFDE2
:10097000FF20FFF704FD14E0C0A0FFF715FDFF20E6
:10098000FFF7FDFC0DE0C3A0FFF70EFDFF20FFF712
:10099000F6FC06E0C5A0FFF707FDFF20FFF7EFFC20
:1009A00000BF00BFC7480078052827D1C648007897
:1009B000012806D002280BD0032810D004281CD10F
:1009C00014E0C2A0FFF7F0FCFF20FFF7D8FC14E012
:1009D000C4A0FFF7E9FCFF20FFF7D1FC0DE0C7A0A2
:1009E000FFF7E2FCFF20FFF7CAFC06E0C9A0FFF713
:1009F000DBFCFF20FFF7C3FC00BF00BFB14800785D
:100A0000062827D1B0480078012806D002280BD04C
:100A1000032810D004281CD114E0C4A0FFF7C4FCA4
:100A2000FF20FFF7ACFC14E0C5A0FFF7BDFCFF20E2
:100A3000FFF7A5FC0DE0C7A0FFF7B6FCFF20FFF70E
:100A40009EFC06E0C8A0FFF7AFFCFF20FFF797FC75
:100A500000BF00BF00BD10B5C82000F0EFFFFF20B1
:100A6000FFF78DFCC82000F0E9FF10BD002409202D
:100A700001F00FF9482000F0A9FF4FF4165148206B
:100A800001F0CBF94FF49641482001F02CFA4FF4D5
:100A90009641482001F094FAFFF7DDFF00F0FAFCE0
:100AA00000F08EFB00F080FD4FF47A7000F0C6FF7E
:100AB00009220021084600F07AFC0A2200211020B9
:100AC00000F075FC10233A220021202000F0B6FB34
:100AD00000220221104600F06AFC012202211020AF
:100AE00000F065FC10233A220221202000F0A6FB32
:100AF0000B220421002000F05AFC0C2204211020BB
:100B000000F055FC10233A220421202000F096FB2F
:100B100000BF00F0F0FE0028FBD15AE097480078B3
:100B200000F0800080B19548007800F03F05002477
:100B300005E09348005D93490855601CC4B2AC427F
:100B4000F7DB00208D4908708F48007800F08000A6
:100B500000283AD08C48007800F03F05002405E0DA
:100B60008A48005D8A490855601CC4B2AC42F7DB74
:100B70008748007801280BD085480078022807D0E4
:100B800083480078032803D081480078042812D1D4
:100B90007F4801787FA001F03BFE012408E07C48FB
:100BA000005DA0F1300180A001F032FE601CC4B2F3
:100BB000AC42F4DB06E0092180A001F029FE79A017
:100BC00001F026FE002070490870FFF701FCFFF7D6
:100BD00025FBA3E7486F6D65342E686F6D65346D36
:100BE0006F6E65792E76616C3D300000486F6D65E3
:100BF000342E686F6D65346D6F6E65792E76616C1D
:100C00003D310000486F6D65342E686F6D65346D41
:100C10006F6E65792E76616C3D320000486F6D65B0
:100C2000342E686F6D65346D6F6E65792E76616CEC
:100C30003D330000486F6D65342E686F6D65346D0F
:100C40006F6E65792E76616C3D340000486F6D657E
:100C5000342E686F6D65346D6F6E65792E76616CBC
:100C60003D350000486F6D65342E686F6D65346DDD
:100C70006F6E65792E76616C3D360000486F6D654C
:100C8000342E686F6D65346D6F6E65792E76616C8C
:100C90003D370000486F6D65342E686F6D65346DAB
:100CA0006F6E65792E76616C3D380000486F6D651A
:100CB000342E686F6D65346D6F6E65792E76616C5C
:100CC0003D3900000E0000200F0000204D61696ECC
:100CD0002E686F6D65312E62636F3D363334383860
:100CE000000000004D61696E2E686F6D65322E62E6
:100CF000636F3D3633343838000000004D61696E53
:100D00002E686F6D65332E62636F3D36333438382D
:100D1000000000004D61696E2E686F6D65342E62B3
:100D2000636F3D3633343838000000004D61696E22
:100D30002E686F6D65312E62636F3D323031360043
:100D40004D61696E2E686F6D65322E62636F3D3244
:100D5000303136004D61696E2E686F6D65332E62DD
:100D6000636F3D32303136004D61696E2E686F6DB4
:100D700065342E62636F3D3230313600F20400205C
:100D8000D805002008050020F10400209805002067
:100D900048050020B7BFBCE4BAC5CEAAA3BA2564F3
:100DA000BAC5B7BF0D0A0000D4A4D4BCCAB1BCE414
:100DB000CEAAA3BA2564480D0A000000B4EDCEF314
:100DC000CCE1CABEA3BAB4AEBFDAC6C1CAFDBEDDAD
:100DD000B7A2CBCDCAA7B0DC2025640D0A00000065
:100DE000704700BFFEE700BFFEE700BFFEE700BFA1
:100DF000FEE7704770477047704700000CB5002051
:100E0000019000906C48006840F480306A490860A6
:100E100000BF6948006800F4003000900198401C51
:100E20000190009818B90198B0F5A06FF1D162480F
:100E3000006800F4003010B10120009001E00020B3
:100E400000900098012843D15C48006840F01000F1
:100E50005A4908600846006820F003000860084608
:100E6000006840F0020008605348406852494860FA
:100E70000846406848600846406840F48060486022
:100E80000846406820F47C1048600846406840F4FA
:100E9000E81048600846006840F08070086000BFB5
:100EA0004548006800F000700028F9D042484068CA
:100EB00020F00300404948600846406840F00200C6
:100EC000486000BF3C48406800F00C000828F9D199
:100ED0000CBD10B5FFF792FF10BD10B53648006885
:100EE00040F0010034490860084640683449084031
:100EF0003149486008460068324908402E49086078
:100F00000846006820F4802008600846406820F405
:100F1000FE0048604FF41F008860FFF7DAFF4FF0D3
:100F200000602949086010BD10B500210020002292
:100F3000214B5B6803F00C0121B1042906D008297C
:100F400028D107E0214B224C236027E01F4B204C87
:100F5000236023E0184B5B6803F47010164B5B684A
:100F600003F48032022303EB904022B9194B434330
:100F7000174C23600DE0104B5B6803F4003323B182
:100F8000144B4343124C236003E0104B4343104C7B
:100F9000236003E00D4B0E4C236000BF00BF064BE7
:100FA0005B68C3F303130C4CE15C094B1B68CB403B
:100FB000074C236010BD00000010024000200240DA
:100FC0000000FFF8FFFFF6FE08ED00E000127A00D7
:100FD0001400002000093D001800002010B5042175
:100FE000F94801F0A0F90121F74801F09CF901212D
:100FF000F54801F09AF90421F34801F096F910BD83
:1010000010B50421F04801F08EF90121EE4801F0FD
:101010008CF90121EC4801F086F910BD10B50421CE
:10102000E94801F080F90421E74801F07EF910BD9C
:101030002DE9F04105462C460421E34801F075F9FD
:10104000002619E0274607F08007802F04D10121F0
:10105000DD4801F068F903E00121DB4801F065F9A2
:101060006006040E0421D84801F05DF90421D64839
:1010700001F05BF9701CC6B2082EE3DBBDE8F0811D
:1010800010B50446FFF7AAFF7820FFF7D1FFFFF75E
:10109000C5FF0020FFF7CCFFFFF7C0FF2046FFF79A
:1010A000C7FFFFF7BBFFFFF7ABFF10BD10B504464E
:1010B000FFF794FF7820FFF7BBFFFFF7AFFF40205B
:1010C000FFF7B6FFFFF7AAFF2046FFF7B1FFFFF7D4
:1010D000A5FFFFF795FF10BD70B504460D461DB185
:1010E000E0B2FFF7E3FF02E0E0B2FFF7C9FF70BD37
:1010F00070B50646002418E004F1B0000021FFF7A7
:10110000EBFF00210846FFF7E7FF00211020FFF763
:10111000E3FF002505E001213046FFF7DDFF681CF5
:10112000C5B2802DF7DB601CC4B2082CE4DB70BDB7
:1011300006E041F6650100E0491E0029FCD1401E91
:101140000028F6D17047014605E0002001E0421C6E
:10115000D0B27B28FBDB0A00A1F10101F5D1704779
:1011600070B504460D4605F1B0000021FFF7B4FF4D
:10117000102141EA14100021FFF7AEFF04F00F0028
:101180000021FFF7A9FF70BD10B500218D20FFF7EA
:10119000A3FF00211420FFF79FFF0021AF20FFF7DE
:1011A0009BFF10BD10B500218D20FFF795FF00219A
:1011B0001020FFF791FF0021AE20FFF78DFF10BD3B
:1011C00070B5002418E004F1B0000021FFF784FF9F
:1011D00000210846FFF780FF00211020FFF77CFF69
:1011E000002505E001210020FFF776FF681CC5B24D
:1011F000802DF7DB601CC4B2082CE4DB70BD70B539
:10120000002418E004F1B0000021FFF765FF002181
:101210000846FFF761FF00211020FFF75DFF002562
:1012200005E001210846FFF757FF681CC5B2802D75
:10123000F7DB601CC4B2082CE4DB70BD2DE9F0477D
:1012400007460E469046994600250024A8F1200046
:10125000C5B27F2F02DD0027B01CC6B2B9F1100F56
:1012600024D131463846FFF77BFF002408E004EB29
:101270000511564A505C0121FFF72EFF601CC4B2D5
:10128000082CF4DB701CC1B23846FFF769FF00245C
:1012900009E004EB051108314C4A505C0121FFF7CD
:1012A0001BFF601CC4B2082CF3DB12E03146384649
:1012B000FFF756FF00240AE005EB4501444A02EB24
:1012C0004101085D0121FFF707FF601CC4B2062C35
:1012D000F2DBBDE8F08710B50246012000E0504384
:1012E0000B00A1F10104E1B2F9D110BD2DE9FF5FBE
:1012F000074691461E460E9D4FF0000A002435E039
:10130000301B401EC1B20A20FFF7E5FFB9FBF0F029
:101310000A21B0FBF1F201FB1208BAF1000F14D15F
:10132000701EA04211DDB8F1000F0CD1AB4605EBE9
:10133000DB71491001FB0471C8B22B4620220199D0
:10134000FFF77CFF10E04FF0010AAB4605EBDB71C5
:10135000491001FB0471C8B208F13001CAB22B4632
:101360000199FFF76BFF00BF601CC4B2B442C7DB3A
:10137000BDE8FF9F2DE9F04104460F46154698460B
:1013800000260FE0AA5D434639462046FFF756FF88
:1013900004F10800C4B2782C02DD0024B81CC7B2E6
:1013A000701CC6B2A85D0028ECD1BDE8F0812DE923
:1013B000F04180460E461546002731464046FFF76D
:1013C000CFFE002411E00000000C01402E35000883
:1013D00006330008724A02EB8511085D0121FFF710
:1013E0007BFE781CC7B2601CC4B2102CF2DB701CF0
:1013F000C1B24046FFF7B4FE00240CE06900491C6E
:10140000674A02EB4111085D0121FFF765FE781C78
:10141000C7B2601CC4B2102CF0DBBDE8F0812DE92E
:10142000F05F06460F4690461C46DDF828A04FF0B8
:10143000000BE11704EB5171C910A4EBC10131B9E4
:101440002046E11704EB5171C1F3C70506E02046C1
:10145000E11704EB5171C910491CCDB23D4615E0AE
:1014600029463046FFF77CFEB1460BE059460BF1AA
:10147000010B1AF801000121FFF72EFE09F101000E
:1014800000F0FF09C145F1DB681CC5B2A542E7DBEE
:10149000BDE8F09F08B50121082001F053F90520AF
:1014A000ADF8000010208DF8030003208DF8020035
:1014B00069463C4800F08AFE05213A4800F033FFB7
:1014C000C82000F0BBFA0021AE20FFF705FE002186
:1014D0000846FFF701FE00211020FFF7FDFD002167
:1014E0004020FFF7F9FD0021B020FFF7F5FD0021B6
:1014F0008120FFF7F1FD0021FF20FFF7EDFD002126
:10150000A120FFF7E9FD0021A620FFF7E5FD00215E
:10151000A820FFF7E1FD00213F20FFF7DDFD0021BE
:10152000C820FFF7D9FD0021D320FFF7D5FD00210A
:101530000846FFF7D1FD0021D520FFF7CDFD0021A2
:101540008020FFF7C9FD0021D820FFF7C5FD00214D
:101550000520FFF7C1FD0021D920FFF7BDFD0021C7
:10156000F120FFF7B9FD0021DA20FFF7B5FD0021DA
:101570001220FFF7B1FD0021DB20FFF7ADFD0021B8
:101580003020FFF7A9FD00218D20FFF7A5FD0021E8
:101590001420FFF7A1FD0021AF20FFF79DFD08BD3E
:1015A00028000020000C01406848806940F00400D9
:1015B0006649886166480068664908406449086071
:1015C0006248806940F40070604988610846C068DC
:1015D00040F40070C8600846C06820F40070C8601D
:1015E0000846406820F4404048600846406840F49F
:1015F000004048605848006858490840564908600B
:101600000846006808600846006820F4807008609A
:10161000081D006820F00200091D086008460068E7
:1016200020F4602008600846006840F460200860EC
:101630000846006840F4801008600846006820F4FE
:101640000060086044482830006820F47000424977
:10165000283108600846006840F4801008603E4861
:101660000C30006820F038003B490C310860084617
:10167000006840F0380008600846006820F4E04048
:1016800008600846006840F4E04008603248001DE9
:10169000006840F001003049091D086008460068F4
:1016A00040F00800086000BF2B48001D006800F0F3
:1016B00008000028F8D12848001D006840F0040008
:1016C0002549091D086000BF2348001D006800F07F
:1016D00004000028F8D1704701461F4830300068E8
:1016E00020F01F001C4A303210601046006808438A
:1016F00010601948001D006840F48000164A121D51
:10170000106000BF1448001F006800F002000028AD
:10171000F8D011484830006880B270472DE9F04198
:1017200007460C460025002608E03846FFF7D4FFA0
:101730000544052000F082F9701CC6B2A642F4DB15
:10174000B5FBF4F080B2BDE8F0810000001002406B
:10175000000801400FFFF0FF04240140FFFFF000EC
:1017600010B59548006820F00F00934908600846BE
:10177000006840F00300086000209049086040F2D3
:10178000EE2000F03FF901208D49C1F880010F20C3
:1017900000F038F910BD10B500248748006820F02B
:1017A0000F00854908600846006840F0080008609E
:1017B00004E0601CC4B2012000F024F97F488038A6
:1017C000006808B1C82CF4DBC82C01DB012010BD77
:1017D000002404E0601CC4B2012000F013F9774833
:1017E0008038006808B9F02CF4DBF02C01DB012014
:1017F000EDE70020EBE710B56F48006820F00F0020
:101800006D4908600846006840F003000860002049
:101810006A490860022000F0F5F801206849C1F823
:1018200080016548006820F00F00634908600846A1
:10183000006840F0080008600C2000F0E3F85F4802
:101840008038006808B1012400E00024322000F054
:10185000D9F8204610BD70B50026012508E0FFF735
:10186000CAFF0446E00140EA6600C6B2681CC5B281
:10187000082DF4DD304670BD70B504464E48006852
:1018800020F00F004C4908600846006840F0030053
:101890000860012520E004F0010664106EB100200C
:1018A00046490860022000F0ADF801204449C1F823
:1018B00080013C2000F0A6F80CE000203F490860C1
:1018C0003C2000F09FF801203D49C1F88001022032
:1018D00000F098F8681CC5B2082DDCDD70BD10B5AD
:1018E000FFF73EFFFFF757FFCC20FFF7C5FF44206F
:1018F000FFF7C2FF10BD08B50121082000F022FF4C
:101900004FF40060ADF8000010208DF803000320B4
:101910008DF8020069462B4800F058FC4FF4006136
:10192000284800F000FDFFF71BFFFFF734FF08BD5C
:101930002DE9F84FFFF7D3FFFFF712FFFFF72BFF5B
:10194000CC20FFF799FFBE20FFF796FFFFF783FF3C
:101950008346FFF780FF0446072C08DDE043C4B24E
:101960006FEA0B0000F0FF0B4FF0000A01E04FF0B0
:10197000010AA1464FEA09200FFA80F909EB0B0092
:101980000FFA80F9484601F047FB009001F0D4F9C6
:10199000074600220C4B01F0D1F8054601F070F823
:1019A0000FFA80F9BAF1000F02D04846BDE8F88F6F
:1019B000C9F1000000B2F9E70008014080012142AE
:1019C00000002142000C01400000E43F4FF0E02104
:1019D000096921F004014FF0E0221161C21700EB08
:1019E0005272C2F3C702234B1A701946097801EBF1
:1019F0004102C2EBC1114FF6FF7202EAC1011E4A59
:101A00001180704701461B4A12784A434FF0E02389
:101A10005A6100229A6101221A6100BF4FF0E02250
:101A2000106900F001021AB100F48032002AF5D0EA
:101A300000224FF0E0231A619A61704701460E4A76
:101A400012884A434FF0E0235A6100229A61012232
:101A50001A6100BF4FF0E022106900F001021AB1D4
:101A600000F48032002AF5D000224FF0E0231A6102
:101A70009A617047E8040020EA040020A64A0A4060
:101A80000243A64B1A6070470146072323EA01026E
:101A90001202A24B1B1D18684FF6FF031840A04B03
:101AA000184310439D4B1B1D186070472DE9F041F2
:101AB0000746884614461D462846FFF7E5FFC5F150
:101AC000040007FA00F60F20284100EA0800064348
:101AD00006F00F06E21704EBD2625211920002F1F7
:101AE000E022D2F800212146E31704EBD3635B1117
:101AF000A4EB431C012303FA0CF31A432046E3171B
:101B000004EBD3635B119B0003F1E023C3F80021D6
:101B10008448005D40EA061082490855BDE8F0811E
:101B200070B504460B46CE1701EB9676C6F38700D8
:101B3000CE1701EB9676B610A1EB8606B606350EEB
:101B4000794B9B6943F00103774EB3614FEAB6339B
:101B500053F820300F26AE40B343744E46F8203081
:101B6000334653F8203004FA05F61E436F4B43F812
:101B700020606F4B1B6801268E4033436C4E3360F0
:101B800002F0010343B16A4B0C331B6801268E40FF
:101B90003343674E0C36336002F0020343B1644BAB
:101BA00008331E6801238B401E43614B08331E60BF
:101BB00070BD00B500205C490861C8601420486110
:101BC00000208861C8610846006840F00100086094
:101BD000084640685749084053494860084600682D
:101BE00055490840504908600846006820F48020A4
:101BF00008600846406820F4FE00486000208860C5
:101C000000214FF00060FFF739FF00BD30BF704783
:101C100072B6704762B6704700B540480830006839
:101C200040F004003D49083108603F48C06940F079
:101C300080503D49C8614148406840F480703F4948
:101C400048600846006840F00400086008460068E4
:101C500040F002000860FFF7D9FF00BD3048001DCA
:101C60002E49091D08607047014649062E4A9269AF
:101C700042F001022C4B9A612C4A083A526822F039
:101C8000E0622A4B083B5A601A4652680A435A607F
:101C9000704730B504460025FFF78BFF22480068E7
:101CA00040F480302049086000BF1F480068400CA5
:101CB0000028FAD04FF480601B494860A01EC4B2CF
:101CC0000846406840EA844048600846406840F45E
:101CD000803048601A48006840F0320018490860B7
:101CE0001148006840F080700F49086000BF0E483E
:101CF0000068400E0028FAD00B48406840F002000F
:101D00000949486005E008484068C0F3870505F0C8
:101D10000305022DF7D130BD80FFFF1F08ED00E065
:101D20000000FA0500E400E0001002400800014055
:101D3000000401400000FFF8FFFFF6FE00700040C5
:101D400000200240014600BF704700BFD24A1288FF
:101D500002F04002002AF9D0C2B2CF4B1B1D1A80FC
:101D60007047CE49098801F02001B9B1CB49091D5E
:101D70000988C8B20A280BD0C949097801F03F0187
:101D8000C84A5054C6490978491CC54A117005E033
:101D9000C349097841F08001C14A11707047C249B6
:101DA000098801F02001B9B1BF49091D0988C8B2ED
:101DB0000A280BD0BD49097801F03F01BC4A5054B4
:101DC000BA490978491CB94A117005E0B749097840
:101DD00041F08001B54A11707047AF49098801F0A0
:101DE0002001C9B1AC49091D0988C8B20D280DD020
:101DF0000A280BD0AF49097801F03F01AE4A505490
:101E0000AC490978491CAB4A117005E0A949097829
:101E100041F08001A74A117070472DE9F05F054637
:101E20000E46300101F010F98146A44905FB01F08E
:101E300001F00AF98246494601F00CF80746384697
:101E400001F0CAF884B2204601F0FEF88346394614
:101E500001F0DAF982464FF0834101F009F9814639
:101E600001F0BAF880464FF6FF7000EA041404EB64
:101E7000080084B29248806940F00400904988616B
:101E80000846806940F4804088618E48006820F4EC
:101E90007F608C4908600846006840F40B60086069
:101EA0008748C06840F480408549C8600846C068DB
:101EB00020F48040C860784808300480001D008805
:101EC00042F20C01084374490C310880084600882E
:101ED00040F0200008800223252203210846FFF756
:101EE000E5FDBDE8F09F2DE9F05F05460E463001A7
:101EF00001F0AAF88146714905FB01F001F0A4F850
:101F00008246494600F0A6FF0746384601F064F8CD
:101F100084B2204601F098F88346394601F074F9FE
:101F200082464FF0834101F0A3F8814601F054F856
:101F300080464FF6FF7000EA041404EB080084B2F8
:101F40005F48806940F004005D4988610846C069C7
:101F500040F40030C8615B48001F006820F47F40F7
:101F60005849091F08600846006840F40B400860A3
:101F70005348006940F4003051490861084600693F
:101F800020F400300861484808300480001D0088B3
:101F900042F20C01084344490C310880084600888D
:101FA00040F4807008800846008840F020000880D7
:101FB0000223262219460320FFF778FDBDE8F09F93
:101FC0002DE9F05F05460E46300101F03DF88146EF
:101FD0003A4905FB01F001F037F88246494600F026
:101FE00039FF0746384600F0F7FF84B2204601F07B
:101FF0002BF88346394601F007F982464FF08341BA
:1020000001F036F8814600F0E7FF80464FF6FF709A
:1020100000EA041404EB080084B22948806940F007
:102020000800274988610846C06940F48020C861DB
:102030002548006820F47F4023490860084600686E
:1020400040F40B4008601E48006940F480201C49A1
:1020500008610846006920F4802008610F480830B4
:102060000480001D008842F20C0108430B490C312A
:1020700008800846008840F4807008800846008880
:1020800040F0200008800223272201210320FFF7CF
:102090000DFDBDE8F09F0000003801400048004001
:1020A000F00400205805002000440040F104002006
:1020B00098050020F2040020D805002040420F00BF
:1020C0000010024004080140040C01400948804708
:1020D00009480047FEE7FEE7FEE7FEE7FEE7FEE70A
:1020E000FEE7FEE7FEE7FEE704480549054A064B22
:1020F00070470000DB0E0008310100087806002060
:10210000780C0020780800207808002010B50446DC
:10211000CC48844208D10121042000F02DFB00218D
:10212000042000F029FB46E0C748844208D1012181
:10213000082000F021FB0021082000F01DFB3AE000
:10214000C248844208D10121102000F015FB002173
:10215000102000F011FB2EE0BD48844208D101217F
:10216000202000F009FB0021202000F005FB22E0E8
:10217000B848844208D10121402000F0FDFA002136
:10218000402000F0F9FA16E0B348844208D101215A
:10219000802000F0F1FA0021802000F0EDFA0AE042
:1021A000AE48844207D10121801500F0E5FA0021F4
:1021B000A01500F0E1FA10BD10B50121084600F0AD
:1021C000DBFA0021012000F0D7FA10BD2DE9F04123
:1021D000024600250026002000230024002791F855
:1021E00003C00CF00F0591F803C00CF0100CBCF10B
:1021F000000F03D091F802C04CEA050591F800C029
:10220000BCF1000F31D0146800202BE04FF0010C1E
:102210000CFA00F3B1F800C00CEA03069E4220D18C
:1022200083004FF00F0C0CFA03F7BC4305FA03FCD4
:102230004CEA040491F803C0BCF1280F06D14FF01A
:10224000010C0CFA00FCC2F814C00AE091F803C0BB
:10225000BCF1480F05D14FF0010C0CFA00FCC2F89C
:1022600010C0401C0828D1D31460B1F800C0BCF1E4
:10227000FF0F34DD546800202EE000F1080C4FF011
:10228000010808FA0CF3B1F800C00CEA03069E42FC
:1022900021D183004FF00F0C0CFA03F7BC4305FA71
:1022A00003FC4CEA040491F803C0BCF1280F05D1EB
:1022B00000F1080C08FA0CF8C2F8148091F803C079
:1022C000BCF1480F07D100F1080C4FF0010808FAE3
:1022D0000CF8C2F81080401C0828CED35460BDE82A
:1022E000F0814FF6FF710180022181700421C170DD
:1022F00070470246002093680B400BB1012000E0BC
:10230000002070470146886880B27047024600206E
:10231000D3680B400BB1012000E00020704701465C
:10232000C86880B2704701617047416170470AB167
:10233000016100E041617047C16070474FF4803235
:102340000A438261816182618269826970470246C3
:102350000020434B18684FF68073184040EA021083
:1023600008433F4B186070473E49C8617047F0B55D
:102370000A46002300240021002500F00046B6F1A3
:10238000004F02D1364EF16901E0354E7168C0F35D
:10239000034583B200F44016B6F5401F08D121F082
:1023A00070612F4E766826F070662D4F7E6012E0C9
:1023B00000F48016B6F5801F06D1032606FA05F450
:1023C000A14341F0706106E0460D360103FA06F6BE
:1023D000B14341F0706122B1460D360103FA06F6B1
:1023E000314300F00046B6F1004F02D11C4EF161BE
:1023F00001E01B4E7160F0BD30B500228B071C0F51
:102400000F2303FA04F2164B08338C1053F82430D0
:102410009343134C08348D1044F8253023468C1018
:1024200053F824308C07240F00FA04F423430C4C97
:1024300008348D1044F8253030BD0A49DC3108607D
:102440007047000000080140000C014000100140EE
:102450000014014000180140001C01400020014010
:102460000000014000002042DF48006840F0010009
:10247000DD49086008464068DC490840DA494860A0
:1024800008460068DA490840D749086008460068ED
:1024900020F4802008600846406820F4FE00486070
:1024A0004FF41F0088607047CF49096821F48031DC
:1024B000CD4A11601146096821F480211160B0F500
:1024C000803F03D0B0F5802F0ED106E0C6490968E1
:1024D00041F48031C44A116007E0C349096841F4FE
:1024E000A021C14A116000E000BF00BF704710B5D5
:1024F00001460022002300204A11012A02D1BA4CD1
:10250000236806E0022A02D1B74C236A01E0B64CE8
:10251000636A01F01F02012494401C400CB10120A9
:1025200000E0002010BD38B50020009000240025F8
:1025300000BF3120FFF7DBFF05460098401C0090EC
:102540000098B0F5A06F01D0002DF2D03120FFF738
:10255000CEFF08B1012400E00024204638BD01462A
:102560000020A14A106820F0F80040EAC100106085
:102570007047A04908607047024600209A4B58688F
:1025800020F47C1042EA01031843974B58607047CF
:1025900098490866704701460020934A506820F029
:1025A00003000843506070478F48406800F00C00FB
:1025B0007047014600208C4A506820F0F000084324
:1025C0005060704701460020874A506820F4E06060
:1025D00008435060704701460020834A506820F449
:1025E000605040EAC1005060704729B17E4A527A7B
:1025F00002437D4B5A7204E07B4A527A82437A4B03
:102600005A7270477B49D8310860704701460020F4
:10261000754A506820F440400843506070470021DC
:10262000714A20321170704A82F82010012802D0BD
:1026300004280AD104E001216B4A2032117005E020
:102640000521694A2032117000E000BF00BF7047C9
:102650006949086070476449096A0143624A116226
:102660007047654944390860704730B50021002241
:10267000002400235C4D6D6805F00C0121B1042994
:1026800005D0082923D105E05C4D056022E05B4DB3
:1026900005601FE0544D6D6805F47012524D6D6871
:1026A00005F48034022505EB92421CB9544D554384
:1026B00005600BE04C4D6D6805F400351DB1504DC3
:1026C0005543056002E04D4D5543056002E04B4D1A
:1026D000056000BF00BF444D6D6805F0F0010909B9
:1026E000484D6B5C0568DD4045603F4D6D6805F405
:1026F000E061090A434D6B5C4568DD4085603A4DF9
:102700006D6805F46051C90A3E4D6B5C4568DD405B
:10271000C560354D6D6805F44041890B3A4D6B5CE1
:10272000C568B5FBF3F5056130BD29B12E4A526984
:1027300002432D4B5A6104E02B4A526982432A4BD3
:102740005A61704729B1284A92690243264B9A611F
:1027500004E0254A92698243234B9A61704729B16C
:10276000214AD2690243204BDA6104E01E4AD26951
:1027700082431D4BDA61704729B11B4AD26802437C
:10278000194BDA6004E0184AD2688243164BDA60CB
:10279000704729B1144A12690243134B1A6104E0CD
:1027A000114A12698243104B1A617047124940392D
:1027B000086070470F49C86470470B49C87170477B
:1027C0000948406A40F080700749486270470146F6
:1027D0000020054A92680A400AB1012000E000206A
:1027E0007047014988727047001002400000FFF8EE
:1027F000FFFFF6FE000042428004424200127A00CF
:1028000000093D00F304002003050020704700008C
:102810000FB4044910B503AA029800F0D3F810BC15
:102820005DF814FBEC0400202DE9F0410E4604464F
:10283000002020622046E168884730B3252805D073
:10284000D4E901219047206A401CF2E7E168204664
:1028500000278847050018D0A5F14100192802D8A3
:1028600020354FF400673246294620462760FDF7A1
:10287000BDFC40B1012804D0F61D26F0070608363D
:10288000D8E7361DD6E72846DAE7206ABDE8F081AA
:102890002DE9F0410646002410687529314616A539
:1028A00010D0AFF30080002802DA404213A507E001
:1028B00031688A0701D512A502E0490704D511A5A0
:1028C000012401E0AFF3008000210A2206F1240771
:1028D00009E0B0FBF2FCB0FBF2F302FB1C0030306D
:1028E00078541846491C0028F3D123462A4630461E
:1028F000BDE8F04100F00CB8000000002D00000021
:102900002B000000200000007047704770477047A0
:102910002DE9F0470D4699469246044600F12408F9
:102920000168880604D5E06921F01001216000E00B
:102930000120A84201DD471B00E00027A1697A19A8
:1029400002EB0900081AA0612078C00602D42046D4
:10295000AFF30080002608E0D4E901211AF8060050
:102960009047206A401C761C20624E45F4DB20789C
:10297000C0060AD52046AFF3008006E0D4E9012165
:1029800030209047206A401C2062381EA7F10107C2
:10299000F4DC07E0D4E9012118F805009047206A2B
:1029A000401C2062281EA5F10105F3DC2046AFF390
:1029B00000802078000602D50220BDE8F0870120C3
:1029C000FBE70000074B70B50D467B4400F011F8A3
:1029D0000446284600F020F810B14FF0FF3070BDDB
:1029E000204670BD7DF3FFFF01694A1C0261087833
:1029F000704700B58FB0CDE901310021059105493F
:102A00007944CDE9031011466846FFF70DFF0FB07A
:102A100000BD0000E5FFFFFF007B00F08000704775
:102A2000754600F029F8AE4605006946534620F089
:102A30000700854618B020B5FFF756FBBDE82040DB
:102A40004FF000064FF000074FF000084FF0000B6A
:102A500021F00701AC46ACE8C009ACE8C009ACE81D
:102A6000C009ACE8C0098D4670470446AFF300804A
:102A70002046FDF7CDFB00000048704718060020F7
:102A80004FEA41034FEA5353A3F58063D3F11E038A
:102A9000C8BFD3F1210C0CDD4FF0004242EAC12245
:102AA00042EA505232FA03FC8CEAE17CACEBE17072
:102AB0007047102BC4BF0020704703F5787CBCF131
:102AC000FF3F04D06FF0004282EA2100704770B5EA
:102AD00000F0DEF84992248000207047F2E7000001
:102AE0004FEA1153A3F58063D3F11E03A8BFD3F1BE
:102AF000200C08DB4FF0004242EAC12252EA505259
:102B000032FA03F0704709420BD4102BC4BF0020E7
:102B1000704703F5787CBCF1FF3F05D04FF0FF30E4
:102B200070474FF00000704770B500F0B1F800BF7B
:102B30004992248000207047F0E70000DFF848C188
:102B400070B51CEA111E1EBF1CEA13159EEA0C0F7D
:102B500095EA0C0F00F06F8081EA030423EA4C131E
:102B60004EEAD47E21EA4C1141F4801143F48013E3
:102B7000AE44A1FB024CA0FB0365AEF17F7E36198B
:102B800055EB0C05A1FB034C4CF10003A0FB021C10
:102B900016EB0C06654153F10003094218BF46F0DD
:102BA000010613F4007F0BD14FEA03314FEA0530E1
:102BB000340341EA155140EA16506FF003020AE06F
:102BC0004FEAC3214FEAC520F40241EA555140EAD9
:102BD00056506FF0020202EB2E4201EB025585EADD
:102BE000CE710AD05FEA440C18BF24F0004450F1C3
:102BF000000041F1000120EAD47040F2FE7C624501
:102C000000D270BDA84214BF4FF080444FF0404442
:102C1000002E08BF0024BEF1806FA8BFA1F1C04103
:102C2000BDE8704080F282804FF0000001F1C041A9
:102C300001F0004170479EEA0C0F0CEA131518BF13
:102C400095EA0C0F06D04FF0000081EA030E0EF05B
:102C5000004170BD00F01CF88900013E00F007B88B
:102C600000F009B84FEA430C5FEA5C5C08D081EAE7
:102C7000030100F05BB84FEA410C5FEA5C5CF6D1FF
:102C80004FF00000014970470000FF070000F87F87
:102C90000EF1020E2EF0030E5EF8046B364205D4E0
:102CA000012A43EB030515F5001F12D8012841EB5B
:102CB000010C1CF5001F0CD80ED14FEAD17C15F584
:102CC000001F0CEB4C0C0CF1020C08BF4CEBD37C3E
:102CD00004E04FF0080C01E04FEAD37C0CEB4C050C
:102CE00026FA05F606F00706B6F1040C06D20EEB3E
:102CF000860CBDE870404CF0010C6047DFE80CF03A
:102D0000090B02024FF000414FF00000A1F5002135
:102D100070BD19461046012851EB010418BFD4F5C7
:102D2000001484BF002001F0004170BD0808A0F528
:102D300000114FEA3101704743004FEAD30C4FEACC
:102D40003C0C43401FBF40070CF1605113F0FE4F95
:102D500070471CF0006F03D100200CF00041704759
:102D60000CF0004343EA507010B540EACC0000F08C
:102D700000FA00BF000000924FEA0001FFF7D6BF43
:102D80004FF000414FF00000A1F500217047000016
:102D900090EA010F48BF81F0004100F14682421ADB
:102DA0003CBF801A89184FEAD0524FF07F4C1CEA82
:102DB000410FA2EBD15318BF9CEA026F00F03B8099
:102DC0004FF0004C4CEA00204CEA012121FA03FCB0
:102DD00010EB0C0C1ED202F1FF325FEA1C2040EB1C
:102DE000C25038BF70471CF07F0F4FEA400C18BF2D
:102DF000BCF17F4F38BF7047C3F12003994008BF33
:102E000020F00100BCF17F4F38BF7047A0F1C040F7
:102E100000F0F5B94FEA3C00000A40EBC25028BF71
:102E20001CF0FF0F4FEA400CE6D018BFBCF17F4FFB
:102E300038BF7047EAE79CEA026F05D010EA5C0FE2
:102E400008BF00F00040704710B500F092F900BFD5
:102E500064FBBE3E4FF47F0C1CEAD0121EBF1CEA7E
:102E6000D11392EA0C0F93EA0C0F00F0858090EAE0
:102E7000010F48BF42F4807240F4000C41F400009E
:102E80002CF07F4120F07F4000B58142A2EB03028D
:102E90000FF2081CACEB504EC0F100009EF800E0B1
:102EA0004FEA4E0E00FB0EFC38BF49004FEA2C1CC7
:102EB00002F5FA020CFB0EF34FEACE1E4FEA112C7C
:102EC0004FEAC1210EEB635E42EB22420EFB0CFC8B
:102ED0004FEA1C5300FB03114FEA112C4FEA01315A
:102EE0000EFB0CFC4FEADC4C00FB0C11C14228BF6E
:102EF00009184CEB03335DF804EB10EB410143EB95
:102F0000C250B2F57C0F38BF704729D512F0F00FD0
:102F10001CBF00F1C04000F0004070470081828378
:102F20008485868788898B8C8D8E8F9192939596D8
:102F300097999A9C9D9FA0A2A3A5A7A8AAACAEB062
:102F4000B2B3B5B7B9BCBEC0C2C5C7C9CCCED1D467
:102F5000D7D9DCDFE2E6E9ECF0F3F7FAFE00000097
:102F60004FEA400C0CF1807CBCF17E4F28BF7047CB
:102F7000B0F1C04000F043B990EA010F0CEAD11360
:102F800048BF42F48072624538BF634507D213F4EC
:102F90007F0F16D080EA010000F00040704710B5A6
:102FA00000F0E7F8097EFC3E00F005B880EA010079
:102FB00000F00040704780EA010000F0004000F09F
:102FC0001EB912F47F0F04BF0248704780EA010067
:102FD00000F015B90000C07FC10DD1F19E0206DBE3
:102FE0004FEA002343F0004323FA02F07047004207
:102FF00007D54FEA4001B1F1FE4F02D24FF0000079
:10300000704710B500F0B5F8499224800020704751
:103010006FEA20007047000010F0004148BF4042B6
:10302000B0FA80F310FA03F2C3F19D030BD051EA1A
:10303000C35101EB1220530638BF704700F1010065
:1030400008BF20F001007047B0FA80F310FA03F2D5
:10305000C3F19D030AD0D90501EB1220530638BFF6
:10306000704700F1010008BF20F001007047000028
:103070004FF47F0C1CEAD0121EBF1CEAD11392EA57
:103080000C0F93EA0C0F00F0478090EA010F48BF45
:1030900042F480724FF0004C4CEA00204CEA0121CF
:1030A00002EB0302A0FB0113A2F50002002918BFE6
:1030B00043F001035B0028BF4FEA330342EB224297
:1030C0005FEA132C4CEBC2502EBFBCEB436FB2F542
:1030D0007C0F70474FEA036CBCF1004F08BF20F033
:1030E0000100B2F57C0F38BF70470BD582F0FF02AC
:1030F00012F5803FC8BF704700F1C040D8BF00F054
:103100000040704700F5000C5FEA4C0C48BF704768
:10311000B0F1C04000F073B890EA010F0CEAD1138F
:1031200048BF42F48072624538BF634504D280EAEA
:10313000010000F00040704710B500F01AF800BF21
:103140008900013E00F007B800F009B85FEA410CC1
:103150005FEA1C6C08D080EA010000F050B85FEA1A
:10316000400C5FEA1C6CF6D14FF00040A0F58000E7
:1031700070470EF1020E2EF0030E5EF8044B24424F
:1031800004D44FEA4102B2F17F4F11D84FEA400315
:10319000B3F17F4F0CD80ED14FEAD07CB2F17F4F04
:1031A0000CEB4C0C0CF1020C08BF4CEBD17C04E096
:1031B0004FF0080C01E04FEAD17C0CEB4C0324FAF1
:1031C00003F404F00704B4F1040C06D20EEB840CF3
:1031D000BDE810404CF0010C6047DFE80CF0070838
:1031E00002024FF00040A0F5800010BD08464200EA
:1031F00018BFD2F1807288BF00F0004010BDFF21DF
:1032000041EAD050C005704780F0004090EA010FBD
:103210007FF5C5AD81F0004100F007B890EA010FDD
:1032200048BF81F000413FF5BAAD421A04D882F0A0
:103230000042A0EB020011444FEAD0524FF07F4C05
:103240001CEA410FA2EBD15318BF9CEA026F4AD08F
:103250004FF0004C4CEA00204CEA012121FA03FC1B
:10326000B0EB0C0C0FD412F0FE0F36D05FEA4C001E
:103270001DD5001240EBC25038BF70471CF03F0F05
:1032800018BF70470BE0A2F101025FEA1C2040EB7F
:10329000C25038BF70471CF07F0F18BF7047C3F192
:1032A0002003994014BF401E20F0010070478008A1
:1032B0004FEA122308BF7047B0FA80FCA2EB0C0261
:1032C000CCF1280C60FA0CF093EA122F04BF00EB4B
:1032D000C25070474FEAC3707047130A5FEADC10B0
:1032E00008BF7047F6E79CEA026F04D010EA5C0F53
:1032F00008BF0020704710B5FFF73BFF40DFF63EE8
:1033000081F0004070470000000000000000002F26
:10331000000000000700070000147F147F14002441
:103320002A7F2A120062640813230036495522506E
:1033300000000503000000001C22410000004122A3
:103340001C000014083E08140008083E080800008D
:1033500000A0600000080808080800006060000085
:10336000002010080402003E5149453E0000427F03
:103370004000004261514946002141454B3100184F
:1033800014127F10002745454539003C4A49493011
:1033900000017109050300364949493600064949CB
:1033A000291E0000363600000000563600000008D6
:1033B00014224100001414141414000041221408B3
:1033C00000020151090600324959513E007C121198
:1033D000127C007F49494936003E41414122007F2D
:1033E0004141221C007F49494941007F09090901E7
:1033F000003E4149497A007F0808087F0000417F6C
:103400004100002040413F01007F08142241007F1D
:1034100040404040007F020C027F007F0408107F84
:10342000003E4141413E007F09090906003E4151ED
:10343000215E007F091929460046494949310001AA
:10344000017F0101003F4040403F001F2040201FFE
:10345000003F4038403F00631408146300070870C1
:10346000080700615149454300007F414100005574
:103470002A552A55000041417F0000040201020440
:10348000004040404040000001020400002054542D
:103490005478007F4844443800384444442000387D
:1034A0004444487F00385454541800087E090102EF
:1034B0000018A4A4A47C007F080404780000447DC4
:1034C0004000004080847D00007F10284400000000
:1034D000417F4000007C04180478007C08040478D4
:1034E00000384444443800FC2424241800182424C0
:1034F00018FC007C080404080048545454200004BC
:103500003F444020003C4040207C001C2040201CC8
:10351000003C4030403C004428102844001CA0A03F
:10352000A07C004464544C4414141414141400007B
:10353000000000000000000000000000000000008B
:1035400000F8000000000000003330000000001010
:103550000C06100C0600000000000000000040C037
:103560007840C0784000043F04043F040400007029
:1035700088FC08300000001820FF211E0000F00821
:10358000F000E018000000211C031E211E0000F0C6
:103590000888700000001E2123241927211010160E
:1035A0000E0000000000000000000000000000000D
:1035B00000E018040200000000071820400000028C
:1035C0000418E00000000040201807000000404000
:1035D00080F0804040000202010F01020200000062
:1035E00000F0000000000101011F010101000000C6
:1035F00000000000000080B070000000000000002B
:1036000000000000000000010101010101010000B3
:10361000000000000000003030000000000000004A
:10362000000080601804006018060100000000E03F
:1036300010080810E000000F102020100F000010EC
:1036400010F8000000000020203F20200000007043
:10365000080808887000003028242221300000303B
:103660000888884830000018202020110E00000033
:10367000C02010F8000000070424243F240000F8B4
:103680000888880808000019212020110E0000E099
:10369000108888180000000F112020110E0000383B
:1036A0000808C83808000000003F00000000007053
:1036B000880808887000001C222121221C0000E0DC
:1036C00010080810E0000000312222110F00000055
:1036D00000C0C0000000000000303000000000000A
:1036E000008000000000000080600000000000007A
:1036F0008040201008000001020408102000404013
:103700004040404040000404040404040400000855
:10371000102040800000002010080402010000700A
:1037200048080808F0000000003036010000C030F2
:10373000C828E810E0000718272423140B00000015
:10374000C038E0000000203C23020227382008F89F
:10375000888888700000203F202020110E00C03093
:10376000080808083800071820202010080008F86A
:1037700008080810E000203F202020100F0008F863
:103780008888E8081000203F20202320180008F82F
:103790008888E8081000203F200003000000C030A7
:1037A00008080838000007182020221E020008F828
:1037B00008000008F808203F210101213F200008EF
:1037C00008F8080800000020203F2020000000002A
:1037D0000808F8080800C08080807F00000008F812
:1037E00088C028180800203F20012638200008F84B
:1037F000080000000000203F20202020300008F8B2
:10380000F800F8F80800203F003F003F200008F8CB
:1038100030C00008F808203F200007183F00E010E3
:1038200008080810E0000F10202020100F0008F8F2
:1038300008080808F000203F210101010000E01005
:1038400008080810E0000F18242438504F0008F82A
:10385000888888887000203F2000030C302000708A
:103860008808080838000038202121221C00180888
:1038700008F8080818000000203F2000000008F8A1
:1038800008000008F808001F202020201F000878EA
:10389000880000C83808000007380E010000F8084A
:1038A00000F80008F800033C0700073C0300081874
:1038B00068808068180820302C03032C30200838DA
:1038C000C800C83808000000203F20000000100891
:1038D0000808C838080020382621202018000000D9
:1038E00000FE020202000000007F40404000000C89
:1038F00030C000000000000000010638C0000002D7
:103900000202FE000000004040407F000000000076
:103910000402020204000000000000000000000099
:103920000000000000008080808080808080000295
:103930000204000000000000000000000000000081
:103940008080808000000019242222223F2008F875
:10395000008080000000003F112020110E000000B8
:10396000008080800000000E112020201100000047
:1039700000808088F800000E112020103F200000F9
:10398000808080800000001F2222222213000080FD
:1039900080F0888888180020203F20200000000048
:1039A000808080808000006B94949493600008F87D
:1039B000008080800000203F210000203F20008008
:1039C0009898000000000020203F20200000000008
:1039D00000809898000000C08080807F000008F878
:1039E000000080808000203F24022D30200000084D
:1039F00008F8000000000020203F20200000808008
:103A0000808080808000203F20003F20003F808019
:103A1000008080800000203F210000203F20000027
:103A2000808080800000001F202020201F008080D8
:103A300000808000000080FFA12020110E00000007
:103A4000008080808000000E112020A0FF808080F8
:103A500080008080800020203F21200001000000A5
:103A6000808080808000003324242424190000807A
:103A700080E0808000000000001F20200000808087
:103A8000000000808000001F202020103F20808048
:103A900080000080808000010E30080601008080D8
:103AA0000080008080800F300C030C300F000080FD
:103AB0008000808080000020312E0E312000808028
:103AC00080000080808080818E7018060100008058
:103AD0008080808080000021302C22213000000076
:103AE0000000807C020200000000003F4040000017
:103AF0000000FF00000000000000FF0000000002C6
:103B0000027C800000000040403F000000000006F2
:103B10000101020204040000000000000000000097
:103B2000403B000800000020080500006C01000870
:103B3000A43D00080805002070070000D00100081F
:103B4000021200016004A24A040B101401020304D3
:103B500006070809807000FF1008FE424242FA047E
:103B6000F2FE33F010806018070810FF50484641FD
:103B7000424C40FF201009100C055555D5057F0615
:103B80000005105505140C20100C10108AA96B3577
:103B90002525ABE9080C01102010092C2424A4A42D
:103BA00065A624010310A43440001011404949299E
:103BB000241452897F040A11102020D523FE92017B
:103BC00012F2040004109E8080401009300F00FCA7
:103BD00044444447040613FC15040C1222322AA65E
:103BE000A262211109810134000E104222130B42FE
:103BF000827E02020A1223463E0010102030AC637F
:103C0000300088C8A8998E88A8C8885E20066722D8
:103C100012128086000612003F404071C0040A1252
:103C2000021222C202C23202FEB304111280601FCD
:103C30000020100C030C30000F3040F80061000A27
:103C400012101011161090503010C0300A40201081
:103C50001028444241400101127F140422DA064731
:103C60000613FF1D1118040D1008108847201807AF
:103C700000071820406064051060028C840112C1A6
:103C8000100A04047E01407E42427E020311427EFD
:103C9000801700FCFA2005FC25262408061104C024
:103CA000040C128F80844C55252525554C80E01836
:103CB0000A40424458C0407F40C0A30111E02004A4
:103CC000808040BD357EF004404078A0380902E293
:103CD00022223E00809E4202109EE028070043827E
:103CE000423E403E0C06147F444454E700030E1845
:103CF000550003000F1180403F1115F5951515353E
:103D00005555B591C01B44C49E1C05401010FF2A98
:103D1000030611F0DF100B3C131014B840300E01F5
:103D2000404B0D13D603437F49010E127FF303204E
:103D30000A8141211D214181FF890107108181A153
:103D4000000E10028282422212FA0622224242828F
:103D50001F3F01013F034E453F030D1222034BC09D
:103D6000383E15680912C01A818118070C03000338
:103D70000C103F0510004D80040C0A142090888719
:103D80004404948C80800414043000FF240804163A
:103D9000404444A5AE00D7046DDB040006000204D5
:043DA0000608000011
:0400000508000131BD
:00000001FF
