:020000040800F2
:10000000C0070020D1010008451900084719000861
:100010004B1900084F190008531900080000000090
:100020000000000000000000000000005719000858
:1000300059190008000000005B1900085D1900084C
:10004000EB010008EB010008EB010008EB010008E0
:10005000EB010008EB010008EB010008EB010008D0
:10006000EB010008EB010008EB010008EB010008C0
:10007000EB010008EB010008EB010008EB010008B0
:10008000EB010008EB010008EB010008EB010008A0
:10009000EB010008EB010008EB010008EB01000890
:1000A000EB010008EB010008EB010008EB01000880
:1000B000271800085518000881180008EB010008EF
:1000C000EB010008EB010008EB010008EB01000860
:1000D000EB010008D9180008FD18000821190008D4
:1000E000EB010008EB010008EB010008EB01000840
:1000F000EB010008EB010008EB010008EB01000830
:10010000EB010008EB010008AD180008EB01000846
:10011000EB010008EB010008EB010008F1170008F3
:10012000EB010008EB010008EB010008EB010008FF
:1001300000F002F800F03CF80AA090E8000C8244BD
:100140008344AAF10107DA4501D100F031F8AFF29A
:10015000090EBAE80F0013F0010F18BFFB1A43F0A5
:1001600001031847002C0000202C0000103A24BF87
:1001700078C878C1FAD8520724BF30C830C144BF0C
:1001800004680C607047000000230024002500264E
:10019000103A28BF78C1FBD8520728BF30C148BFEA
:1001A0000B6070471FB502F020FD1FBD10B510BDDC
:1001B00002F00FFB1146FFF7F5FF01F0FBFA02F02A
:1001C0002DFB03B4FFF7F2FF03BC02F035FB000088
:1001D0000948804709480047FEE7FEE7FEE7FEE7DB
:1001E000FEE7FEE7FEE7FEE7FEE7FEE70448054917
:1001F000054A064B704700007D1A000831010008CF
:10020000C0010020C0070020C0030020C003002060
:1002100036490143364A1160704770B5002100230A
:100220000F22C4784CB3324C246804F4E064C4F563
:10023000E0644FEA1421C1F1040322FA01F2447888
:1002400004FA03F1847804EA020444EA01014FEA63
:100250000111284C0678A155047804F01F054FF0D1
:10026000010404FA05F405784FEA65154FF0E0261D
:1002700006EB8505C5F8004109E0047804F01F0588
:100280000124AC401C4D0678761145F8264070BD1F
:100290001A4A0A4002431A4B1A60704741B1194A80
:1002A000126842EA00024FF0E023C3F8102D07E085
:1002B000144A126822EA00024FF0E023C3F8102D1E
:1002C0007047042808D14FF0E021096941F004018A
:1002D0004FF0E022116107E04FF0E021096921F0C1
:1002E00004014FF0E0221161704700000000FA05A0
:1002F0000CED00E000E400E080E100E080FFFF1F83
:1003000008ED00E010ED00E010B50446CA48844254
:1003100008D10121042000F024FB0021042000F07A
:1003200020FB46E0C548844208D10121082000F0A6
:1003300018FB0021082000F014FB3AE0C04884427A
:1003400008D10121102000F00CFB0021102000F04A
:1003500008FB2EE0BB48844208D10121202000F098
:1003600000FB0021202000F0FCFA22E0B648844285
:1003700008D10121402000F0F4FA0021402000F0D3
:10038000F0FA16E0B148844208D10121802000F043
:10039000E8FA0021802000F0E4FA0AE0AC48844248
:1003A00007D10121801500F0DCFA0021A01500F032
:1003B000D8FA10BD10B50121084600F0D2FA00218C
:1003C000012000F0CEFA10BD2DE9F04102460025D3
:1003D0000026002000230024002791F803C00CF021
:1003E0000F0591F803C01CF0100F03D091F802C064
:1003F0004CEA0505B1F800C01CF0FF0F31D01468BD
:1004000000202BE04FF0010C0CFA00F3B1F800C013
:100410000CEA03069E4220D183004FF00F0C0CFA29
:1004200003F7BC4305FA03FC4CEA040491F803C04B
:10043000BCF1280F06D14FF0010C0CFA00FCC2F8F9
:1004400014C00AE091F803C0BCF1480F05D14FF089
:10045000010C0CFA00FCC2F810C0401C0828D1D3D3
:100460001460B1F800C0BCF1FF0F34DD5468002007
:100470002EE000F1080C4FF0010808FA0CF3B1F877
:1004800000C00CEA03069E4221D183004FF00F0CFE
:100490000CFA03F7BC4305FA03FC4CEA040491F898
:1004A00003C0BCF1280F05D100F1080C08FA0CF8C4
:1004B000C2F8148091F803C0BCF1480F07D100F1D5
:1004C000080C4FF0010808FA0CF8C2F81080401C24
:1004D0000828CED35460BDE8F0814FF6FF7101804B
:1004E000022181700421C170704702460020936888
:1004F0000B4201D0012000E00020704701468868CF
:1005000080B2704702460020D3680B4201D0012020
:1005100000E0002070470146C86880B27047016162
:100520007047416170470AB1016100E04161704765
:10053000C16070474FF480320A43826181618261F9
:1005400082698269704702460020424B18684FF664
:100550008073184040EA021008433E4B1860704711
:100560003D49C8617047F0B50A46002300240021C8
:10057000002500F00046B6F1004F02D1354EF1697A
:1005800001E0344E7168C0F3034583B200F44016B5
:10059000B6F5401F08D121F070612E4E766826F026
:1005A00070662C4F7E6012E000F48016B6F5801F56
:1005B00006D1032606FA05F4A14341F0706106E076
:1005C000460D360103FA06F6B14341F0706122B1DF
:1005D000460D360103FA06F6314300F00046B6F147
:1005E000004F02D11B4EF16101E01A4E7160F0BD67
:1005F00030B500228B071C0F0F2303FA04F2154BB2
:1006000008338C1053F824309343124C08348D1067
:1006100044F8253023468C1053F824308C07240FDF
:1006200000FA04F423430B4C08348D1044F82530B1
:1006300030BD0A490860704700080140000C0140C5
:10064000001001400014014000180140001C01404E
:10065000002001400000014000002042DC00204258
:10066000DB48006840F00100D9490860084640684E
:10067000D8490840D649486008460068D64908402D
:10068000D34908600846006820F4802008600846C6
:10069000406820F4FE0048604FF41F0088607047F7
:1006A000CB49096821F48031C94A116011460968B3
:1006B00021F480211160B0F5803F03D0B0F5802F88
:1006C0000ED106E0C249096841F48031C04A116088
:1006D00007E0BF49096841F4A021BD4A116000E06C
:1006E00000BF00BF704710B5014600220023002064
:1006F0004A11012A02D1B64C236806E0022A02D12F
:10070000B34C236A01E0B24C636A01F01F0201247A
:1007100094401C4201D0012000E0002010BD70B5C3
:1007200000240025002600BF3120FFF7DCFF06462D
:10073000641CB4F5A06F01D0002EF5D03120FFF776
:10074000D2FF08B1012500E00025284670BD014612
:1007500000209F4A106820F0F80040EAC1001060B5
:1007600070479E490860704702460020984B5868C1
:1007700020F47C1042EA01031843954B58607047FF
:1007800096490866704701460020914A506820F05B
:1007900003000843506070478D48406800F00C002B
:1007A0007047014600208A4A506820F0F000084354
:1007B0005060704701460020854A506820F4E06090
:1007C00008435060704701460020814A506820F479
:1007D000605040EAC1005060704729B17C4A527AAB
:1007E00002437B4B5A7206E0794A527AC343DBB22A
:1007F0001A40774B5A727047794908607047014632
:100800000020734A506820F440400843506070470D
:100810000021744A11706E4A82F82010012802D01B
:10082000042808D103E001216E4A117004E005217B
:100830006C4A117000E000BF00BF70476A49086051
:1008400070476349096A0143614A11627047674909
:100850000860704730B500210022002400235C4D61
:100860006D6805F00C0121B1042905D0082923D1B8
:1008700005E05F4D056022E05D4D05601FE0544DD1
:100880006D6805F47012524D6D6805F480340225D0
:1008900005EB92421CB9574D554305600BE04C4D9A
:1008A0006D6815F4003F03D0524D5543056002E0DA
:1008B0004F4D5543056002E04D4D056000BF00BF40
:1008C000434D6D6805F0F00109094B4D6B5C0568FF
:1008D000DD4045603E4D6D6805F4E061090A464D16
:1008E0006B5C4568DD408560394D6D6805F460518D
:1008F000C90A414D6B5C4568DD40C560344D6D688B
:1009000005F44041890B3D4D6B5CC568B5FBF3F5C3
:10091000056130BD29B12E4A526902432C4B5A6100
:1009200004E02B4A52698243294B5A61704729B12E
:10093000274A92690243264B9A6104E0244A92694D
:100940008243234B9A61704729B1214AD2690243FD
:100950001F4BDA6104E01E4AD26982431C4BDA6104
:10096000704729B11A4AD2680243194BDA6004E091
:10097000174AD2688243164BDA60704729B1144A8D
:1009800012690243124B1A6104E0114A1269824350
:100990000F4B1A6170471A49086070470F49C864C5
:1009A00070470B49C87170470948406A40F0807031
:1009B00007494862704701460020054A92680A428A
:1009C00001D0012000E00020704701498872704783
:1009D000001002400000FFF8FFFFF6FE0000424258
:1009E000D800424220100240800442423C0442426D
:1009F00000127A0000093D000000002010000020D5
:100A00004004424210B50446FF48844208D1012107
:100A1000C014FFF7A6FF0021E014FFF7A2FFC4E017
:100A2000B4F1804F08D101210846FFF7A7FF00214C
:100A30000120FFF7A3FFB8E0F448844208D1012168
:100A40000220FFF79BFF00210220FFF797FFACE099
:100A5000EF48844208D101210420FFF78FFF0021D5
:100A60000420FFF78BFFA0E0EA48844208D101216F
:100A70000820FFF783FF00210820FFF77FFF94E0A5
:100A8000E548844208D101211020FFF777FF0021BB
:100A90001020FFF773FF88E0E048844208D101216D
:100AA0002020FFF76BFF00212020FFF767FF7CE08D
:100AB000DB48844208D101214014FFF752FF002196
:100AC0006014FFF74EFF70E0D648844209D101213F
:100AD000C804FFF746FF00214FF40020FFF741FF55
:100AE00063E0D148844209D101210805FFF739FFAD
:100AF00000214FF48010FFF734FF56E0CB488442CA
:100B000009D101214805FFF72CFF00214FF4001007
:100B1000FFF727FF49E0C648844208D10121402061
:100B2000FFF72CFF00214020FFF728FF3DE0C148E0
:100B3000844208D101218020FFF720FF002180207E
:100B4000FFF71CFF31E0BC48844208D10121801529
:100B5000FFF714FF0021A015FFF710FF25E0B748AD
:100B6000844209D101210804FFF7FBFE00214FF464
:100B70008030FFF7F6FE18E0B148844209D1012128
:100B80004804FFF7EEFE00214FF40030FFF7E9FEC6
:100B90000BE0AC48844208D101218804FFF7E1FE54
:100BA00000214FF48020FFF7DCFE10BD00220288F8
:100BB000954B98420ED09A4B98420BD0B0F1804F93
:100BC00008D0924B984205D0914B984202D0914B5D
:100BD000984204D14FF68F731A404B881A438E4BBC
:100BE000984207D08D4B984204D04FF6FF431A40ED
:100BF000CB881A4302808B8883850B880385824BC0
:100C000098420BD0864B984208D08C4B984205D026
:100C10008B4B984202D08B4B984201D10B7A0386C2
:100C200001238382704770B5002400220023058CC5
:100C30004FF6FE7635400584028C8388048B4FF690
:100C40008F752C40B51E2C400D882C43751E2A40F4
:100C50000D892A434D882A436B4DA8420BD0704D15
:100C6000A84208D0754DA84205D0754DA84202D0C3
:100C7000744DA84213D14FF6F7752A404D892A4387
:100C80004FF6FB752A408D882A434FF6FF652B40AF
:100C90004FF6FF552B408D892B43CD892B43838005
:100CA0000483CD888586028470BD70B5002400223F
:100CB0000023058C4FF6EF7635400584028C83883F
:100CC000048B48F6FF752C404FF6FF452C400D88ED
:100CD0002D0644EA15444FF6DF752A400D892D058F
:100CE00042EA15424D882D0542EA1542464DA8427A
:100CF00002D04B4DA8421BD14FF67F752A404D893B
:100D00002D0542EA15424FF6BF752A408D882D0504
:100D100042EA15424FF6FF352B404FF2FF752B404C
:100D20008D89AD0443EA1543CD89AD0443EA1543EB
:100D300083800483CD880587028470BD70B500244C
:100D400000220023058C4FF6FF6635400584028C97
:100D50008388848B4FF68F752C404FF6FC752C40A2
:100D60000D882C434FF6FF552A400D892D0642EA87
:100D700015424D882D0642EA1542234DA84202D065
:100D8000274DA8421BD14FF2FF752A404D892D06F1
:100D900042EA15424FF6FF352A408D882D0642EA79
:100DA00015424EF6FF752B404DF6FF752B408D8991
:100DB0002D0543EA1543CD892D0543EA154383806C
:100DC0008483CD888587028470BD70B5002200239E
:100DD0000024058C4EF6FF7635400584038C84880C
:100DE000828B48F6FF752A404FF6FF452A400D8852
:100DF0002D0642EA15424DF6FF752B400D892D0751
:100E000043EA15434D881FE0002C014000040040D8
:100E100000080040000C004000100040001400409A
:100E200000340140004C014000500140005401409A
:100E300000180040001C004000200040004001401D
:100E400000440140004801402D0743EA1543F94D95
:100E5000A84202D0F84DA84206D14BF6FF752C40AF
:100E60008D89AD0544EA154484808283CD88A0F83D
:100E70004050038470BD828B4FF2FF331A4082834F
:100E8000828B0B0642EA134282837047F0B50C4610
:100E90001546002200210026078C4EF6FF7C07EA4B
:100EA0000C070784828B018C27073E0C40F6FF4716
:100EB0003A402F0642EA17421F0742EA1742DD4F27
:100EC000B8420ED0DC4FB8420BD0B0F1804F08D002
:100ED000DA4FB84205D0DA4FB84202D0D94FB84203
:100EE00006D14DF6FF77394046F48057394305E087
:100EF00047F6FF57394044F48057394382830184D1
:100F0000F0BD828B4FF6F3731A408283828B0A43C3
:100F100082837047F0B50C4615460022002100265A
:100F2000078C4FF6FF6C07EA0C070784828B018C55
:100F300027063E0C4FF60C773A401F0545EA174747
:100F40003A43BC4FB8420ED0BB4FB8420BD0B0F1C1
:100F5000804F08D0B94FB84205D0B94FB84202D03F
:100F6000B84FB84206D14FF6FF57394046F4807764
:100F7000394305E04FF2FF57394044F48077394355
:100F800082830184F0BD028B4FF2FF331A4002834B
:100F9000028B0B0642EA134202837047F0B50C46FF
:100FA0001546002200210026078C4FF6EF7C07EA49
:100FB0000C070784028B018C27053E0C40F6FF4787
:100FC0003A401F0742EA17422F0642EA1742994F5A
:100FD000B8420ED0984FB8420BD0B0F1804F08D035
:100FE000964FB84205D0964FB84202D0954FB842BE
:100FF00006D14FF6DF77394046F01007394305E058
:101000004FF65F77394044F010073943028301847B
:10101000F0BD028B4FF6F3731A400283028B0A4332
:1010200002837047F0B50C46154600220021068C5D
:101030004FF6FE773E400684028B018C4FF60C760D
:1010400032401E0545EA164632437A4EB0420ED073
:10105000794EB0420BD0B0F1804F08D0774EB042FD
:1010600005D0774EB04202D0764EB04206D14FF650
:10107000FD76314044F00106314305E04FF6F57648
:10108000314044F00106314302830184F0BD70B564
:1010900005460C46674885420ED0674885420BD00E
:1010A000B5F1804F08D06548854205D06448854237
:1010B00002D06448854200D100E000BF208850B9CA
:1010C0002389A28861882846FFF7ACFFE18828467B
:1010D000FFF79FFF25E0208804280AD12389A288F2
:1010E00061882846FFF75AFFE1882846FFF74BFF43
:1010F00017E0208808280AD12389A2886188284619
:10110000FFF708FFE1882846FFF7FBFE09E0238987
:10111000A28861882846FFF7B9FEE1882846FFF7D4
:10112000AAFE70BD2DE9F04105460C4600260127B8
:10113000608808B9022600E00026A088012801D1B5
:10114000022700E001272088A0B92389A2886188AE
:101150002846FFF767FFE1882846FFF75AFF2389F3
:101160003A4631462846FFF719FFE1882846FFF73F
:101170000AFF13E02389A28861882846FFF70EFF43
:10118000E1882846FFF7FFFE23893A463146284684
:10119000FFF748FFE1882846FFF73BFFBDE8F081F5
:1011A0000A884B881A438B881A43CB881A430B89C9
:1011B0001A434B891A438B891A43A0F8442070477D
:1011C0004FF6FF71818000210180C1804180017252
:1011D00070470021018041808180C180018141816F
:1011E0008181C1817047002101804180012181807E
:1011F0000021C180018170470021018041808180F0
:10120000C180018141818181704721B1028842F012
:101210000102028004E002884FF6FE731A40028049
:10122000704789B1B0F8442042F40042A0F844204D
:1012300010E00000002C0140003401400004004098
:1012400000080040000C0040B0F84420C2F30E0239
:10125000A0F84420704710B51AB183890B438381ED
:1012600004E08389CC43A4B22340838110BD8182F2
:10127000704741EA0203A0F84830704710B51AB130
:1012800083890B43838104E08389CC43A4B2234048
:10129000838110BD01894FF6F872114001817047BA
:1012A0000A46002101894FF68F73194011430181CD
:1012B000704730B504460D4629462046FFF7F0FF3B
:1012C000208940F00700208130BD2DE9F04104461F
:1012D0000D4616461F46602D06D13B46012231467B
:1012E0002046FFF75BFE05E03B46012231462046E3
:1012F000FFF798FE29462046FFF7D2FF208940F0ED
:1013000007002081BDE8F08130B50C46002101893D
:10131000C9B21D0642EA154525432943018130BD66
:101320002DE9F04105460E461746984600244346EF
:101330003A4631462846FFF7E7FF2C894FF6F87109
:101340000C4044F007044FF68F710C4044F07004D9
:101350002C81BDE8F081F0B504460D4616461F46C7
:101360003B46324629462046FFF7CEFF208940F40F
:1013700080402081F0BD0185828270470A460021AD
:1013800001884FF68F731940114301807047F0B503
:101390000C4615461E460021002200230189028BBF
:1013A000038C4FF6F877394021434FF6FC473A401B
:1013B00040F201173A434FF6DD773B40370545EAE7
:1013C00017473B43018102830384F0BD0A46002195
:1013D000018B4FF68F7319401143018370470A4602
:1013E0000021018B48F6FF731940130641EA1341AF
:1013F000018370470A460021818B4FF68F73194095
:101400001143818370470A460021818B48F6FF73A0
:101410001940130641EA13418183704721B10288C4
:1014200042F08002028004E002884FF67F731A4087
:101430000280704721B1828842F00402828004E079
:1014400082884FF6FB731A408280704721B18288F0
:1014500042F00802828004E082884FF6F7731A4057
:101460008280704721B1828842F00102828004E0CC
:1014700082884FF6FE731A40828070470A46002128
:10148000018B4FF6F77319401143018370470A46E9
:101490000021018B4FF2FF731940130641EA1341FB
:1014A000018370470A460021818B4FF6F77319407C
:1014B0001143818370470A460021818B4FF2FF73ED
:1014C0001940130641EA1341818370470A460021FF
:1014D000018B4FF6FB7319401143018370470A4695
:1014E0000021018B4FF6FF331940130641EA1341E7
:1014F000018370470A460021818B4FF6FB73194028
:101500001143818370470A460021818B4FF6FF33D8
:101510001940130641EA1341818370470A460021AE
:10152000018B4FF67F7319401143018370470A46C0
:101530000021018BC1F30E01130641EA134101831F
:1015400070470A460021818B4FF67F731940114383
:10155000818370470A460021818BC1F30E01130677
:1015600041EA1341818370470A460021018C4FF6FE
:10157000FD7319401143018470470A460021018C14
:101580004FF6F77319401143018470470A46002152
:10159000018C4FF6DF731940130541EA13410184B2
:1015A00070470A460021018C4FF67F7319401305DE
:1015B00041EA1341018470470A460021018C4FF62D
:1015C000FF531940130641EA1341018470470A464C
:1015D0000021018C4FF2FF731940130641EA1341B9
:1015E000018470470A460021018C4DF6FF731940B3
:1015F000130741EA13410184704730B500230124E9
:101600008C40A3B2048CDD43ADB22C400484048C26
:1016100002FA01F5ADB22C43048430BD30B500238D
:1016200004248C40A3B2048CDD43ADB22C4004846E
:10163000048C02FA01F5ADB22C43048430BD70B5C0
:101640000346002000241846183001258D40ACB216
:101650001D8CE643B6B235401D8409B1082909D175
:1016600000EB6100056825F070050560056815430D
:1016700005600CE00D1FADB200EB6500056825F4B8
:10168000E04505600568160645EA1645056070BD2B
:1016900021B1028842F00202028004E002884FF683
:1016A000FD731A400280704721B1028842F00402A3
:1016B000028004E002884FF6FB731A4002807047F4
:1016C00021B1828842F08002828004E082884FF655
:1016D0007F731A408280704702884FF6F7731A4072
:1016E000028002880A430280704782884FF68F7317
:1016F0001A40828082880A438280704702894FF6AE
:10170000F8731A40028102890A43028170470289F4
:101710004FF67F731A40028102890A4302817047A3
:101720008184704781857047818670470187704743
:1017300081877047A0F84010704702884FF6FF433A
:101740001A40028002880A43028070470146888E50
:1017500070470146088F70470146888F70470146E1
:10176000B1F8400070470146888C70470146088DEB
:10177000704702460020138A0B4201D0012000E08E
:1017800000207047CA430282704730B502460020ED
:1017900000230024158A05EA0103958905EA01045E
:1017A00013B10CB1012000E0002030BDCA43028219
:1017B0007047000000F062F900F00AFD00F076FCCE
:1017C00000F0DEFF00F092FF0EE0C82000F09EFF68
:1017D0000648006808B9012000E0002003490860BD
:1017E0004FF0C80000F092FFEFE7000094012342A1
:1017F00010B500F03DFD00F07FFD00F0C2FD00F0EF
:1018000005FE4FF4FA7000F03AFF5548006808B939
:10181000012000E00020524908604FF001015148CA
:10182000FFF7C4FF10BD10B54FF08040008810F0E6
:10183000100F05D04C480068401E4B49086004E07A
:1018400049480068401C4849086001218807FFF7A3
:10185000ADFF10BD10B54548008810F0100F05D041
:1018600043480068401E4249086004E04048006860
:10187000401C3F49086001213C48FFF797FF10BD1D
:1018800010B53C48008810F0100F05D03A480068A9
:10189000401E3949086004E037480068401C36495A
:1018A000086001213348FFF781FF10BD10B53348B0
:1018B000008810F0100F05D031480068401E3049F4
:1018C000086004E02E480068401C2D490860012192
:1018D0002A48FFF76BFF10BD2A48008810F0200F40
:1018E0000BD0294800882949294A12788854284869
:1018F000007800F1010026490870704725480088EB
:1019000010F0200F0BD0244800882449244A127874
:1019100088542348007800F101002149087070477D
:101920002048008810F0200F0BD01F4800881F4966
:101930001F4A127888541E48007800F101001C49A3
:1019400008707047704700BFFEE700BFFEE700BFAA
:10195000FEE700BFFEE77047704770477047000022
:10196000948121420014004018000020000400402F
:101970001C0000200008004020000020000C004057
:101980002400002000380140043801407400002089
:10199000140000200044004004440040B400002033
:1019A000150000200048004004480040F4000020DA
:1019B0001600002000210020674A126842F480329D
:1019C000654B1A6000BF644A126802F40030491C7B
:1019D00010B9B1F5A06FF6D15F4A126812F4003F5A
:1019E00001D0012000E00020012842D15B4A1268AA
:1019F00042F01002594B1A601A46126822F0030294
:101A00001A601A46126842F002021A60524A52687C
:101A1000514B5A601A4652685A601A46526842F44C
:101A200080625A601A46526822F47C125A601A4642
:101A3000526842F4E8125A601A46126842F0807204
:101A40001A6000BF444A126812F0007FFAD0424A7E
:101A5000526822F00302404B5A601A46526842F024
:101A600002025A6000BF3C4A526802F00C02082A87
:101A7000F9D1704710B5FFF79DFF10BD10B536487E
:101A8000006840F001003449086008464068344965
:101A900008403149486008460068324908402E49EC
:101AA00008600846006820F4802008600846406806
:101AB00020F4FE0048604FF41F008860FFF7DAFF53
:101AC0004FF000602849086010BD10B500210020CB
:101AD0000022214B5B6803F00C0121B1042906D0E0
:101AE000082928D107E0214B214C236027E01F4B18
:101AF0001F4C236023E0184B5B6803F47010164BF7
:101B00005B6803F48032022303EB904022B9194B47
:101B10004343174C23600DE00F4B5B6813F4003F09
:101B200004D0144B4343124C236003E00F4B434358
:101B30000F4C236003E00D4B0D4C236000BF00BF32
:101B4000054B5B68C3F303130B4CE15C084B1B684C
:101B5000CB40074C236010BD001002400020024023
:101B60000000FFF8FFFFF6FE08ED00E000127A002B
:101B70002800002000093D002C00002000B589B09D
:101B800001210846FEF7D3FE0121C802FEF7CFFE71
:101B900001210420FEF7CBFE4FF47060ADF8200069
:101BA00003208DF8220018208DF8230008A9FF4893
:101BB000FEF70AFC0020ADF81400ADF8160042F262
:101BC0001070ADF818000020ADF81A008DF81C0058
:101BD00005A9F748FEF7EAFF7020ADF804000120E0
:101BE000ADF806000020ADF808000220ADF80C00AA
:101BF0000020ADF80E004FF48070ADF8100000200A
:101C0000ADF8120001A9EA48FFF70DF801A9E8486C
:101C1000FFF74BF801A9E648FFF790F801A9E4485F
:101C2000FFF7D3F80020E3490880E349A1F8380C16
:101C3000E2490880E049A1F8400C4FF00101DC487E
:101C4000FFF7E3FA0121DA48FFF7EBFA09B000BD2C
:101C500000B589B001210846FEF769FE012148035D
:101C6000FEF765FE01211020FEF761FE4FF4707053
:101C7000ADF8200003208DF8220018208DF82300F5
:101C800008A9CF48FEF7A0FB0020ADF81400ADF87E
:101C9000160042F21070ADF818000020ADF81A00DE
:101CA0008DF81C0005A9C748FEF780FF7020ADF82D
:101CB00004000120ADF806000020ADF80800022065
:101CC000ADF80C000020ADF80E004FF48070ADF8B8
:101CD00010000020ADF8120001A9BA48FEF7A3FFDA
:101CE00001A9B848FEF7E1FF01A9B648FFF726F8B9
:101CF00001A9B448FFF769F80020B3490880B34947
:101D0000A1F83804B2490880B049A1F840044FF066
:101D10000101AC48FFF779FA0121AA48FFF781FADF
:101D200009B000BD00B587B00121AA48FEF71BFC31
:101D300001210846FEF7FBFD01210846FEF704FEDF
:101D400001210420FEF7F3FD01210820FEF7EFFD3D
:101D50000121A148FEF707FC4FF40040ADF8180040
:101D600048208DF81B0003208DF81A0006A98F4823
:101D7000FEF72AFB0122D1038C48FEF7D4FB082092
:101D8000ADF8180048208DF81B0003208DF81A00CC
:101D900006A99248FEF718FB012208218F48FEF79A
:101DA000C2FB42F21070ADF810000020ADF80C003C
:101DB000ADF81200ADF80E0003A94FF08040FEF719
:101DC000F5FE0A231A4603215807FFF7E0FA684692
:101DD000FFF709FA0620ADF8080069464FF0804089
:101DE000FFF755F901218807FFF7CCFC01221146C6
:101DF0009007FFF730FA00204FF0804188840121DE
:101E00008807FFF702FA07B000BD00B587B00121CF
:101E10000846FEF78CFD01210220FEF795FD012109
:101E20000420FEF784FDC020ADF8180048208DF88E
:101E30001B0003208DF81A0006A95C48FEF7C4FABF
:101E4000012240215948FEF76EFB012280215748AC
:101E5000FEF769FB42F21070ADF810000020ADF8FB
:101E60000C00ADF81200ADF80E0003A95C48FEF7B7
:101E70009DFE0A231A4603215948FFF788FA68464F
:101E8000FFF7B1F90620ADF8080069465448FFF79E
:101E9000FEF801215248FFF775FC01221146504817
:101EA000FFF7D9F900204F4908804FF001014C4855
:101EB000FFF7ABF907B000BD00B587B001210846B8
:101EC000FEF735FD01210420FEF73EFD012108202B
:101ED000FEF72DFDC020ADF8180048208DF81B003E
:101EE00003208DF81A0006A93C48FEF76DFA01227E
:101EF00040213A48FEF717FB012280213748FEF7C0
:101F000012FB42F21070ADF810000020ADF80C008A
:101F1000ADF81200ADF80E0003A93348FEF746FEF7
:101F20000A231A4603213048FFF731FA6846FFF7C3
:101F30005AF90620ADF8080069462B48FFF7A7F8C4
:101F400001212948FFF71EFC012211462648FFF710
:101F500082F90020254908804FF001012248FFF74F
:101F600054F907B000BD00B587B001210846FEF75F
:101F7000DEFC01210820FEF7E7FC01210420FEF72A
:101F8000D6FC0320ADF8180048208DF81B00032074
:101F90008DF81A0006A90548FEF716FA0122114627
:101FA0000248FEF7C0FA0122022121E000080140A8
:101FB000002C0140342C0140002001403C2C014009
:101FC0000010014000340140343401400030014031
:101FD0003C3401400002300000031800000C0140B6
:101FE0000004004024040040000800402408004091
:101FF0006C48FEF798FA42F21070ADF8100000201D
:10200000ADF80C00ADF81200ADF80E0003A966485B
:10201000FEF7CCFD0A231A4603216348FFF7B7F900
:102020006846FFF7E0F80620ADF8080069465E480C
:10203000FFF72DF801215C48FFF7A4FB01221146B0
:102040005948FFF708F90020584908804FF001016E
:102050005548FFF7DAF807B000BD0EB50121084674
:10206000FEF765FC01212020FEF76EFC41F287306F
:10207000ADF804004720ADF800000020ADF80600E0
:10208000ADF802008DF8080069464948FEF78EFD5C
:1020900001214748FFF708FB012211464448FFF79A
:1020A000DAF801214248FFF7B0F80EBD10B5FFF78E
:1020B00065FDFFF7CDFDFFF735FEFFF7A6FEFFF745
:1020C000FBFEFFF750FFFFF7C8FF10BD30B503461A
:1020D000184642F21074A04200DD601E354CA0424A
:1020E00000DA601C002802DA4142012201E00146C8
:1020F000002232B10024304D2C80304DA5F8381C20
:1021000006E02D4D29804FF000042C4DA5F8384CE9
:1021100030BD10B5002802DA4142012201E001463B
:10212000002232B10023264C2380244CA4F8401C0A
:1021300006E0234C21804FF00003204CA4F8403CE3
:1021400010BD10B5002802DA4142012201E001462B
:10215000002232B100231B4C23801B4CA4F83814FE
:1021600006E0184C21804FF00003174CA4F83834D7
:1021700010BD10B5002802DA4142012201E00146FB
:10218000002232B10023114C23800F4CA4F84014DC
:1021900006E00E4C21804FF000030B4CA4F84034B5
:1021A00010BD000000080140000C0040240C00405D
:1021B00000140040F0D8FFFF342C01400020014003
:1021C0003C2C014034340140003001403C3401409B
:1021D00008B54FF4A060FEF71BF81C208DF8000036
:1021E00000208DF801008DF8020001208DF8030019
:1021F0006846FEF712F81D208DF8000000208DF8CB
:10220000010001208DF802008DF803006846FEF7FA
:1022100004F81E208DF8000000208DF80100022037
:102220008DF8020001208DF803006846FDF7F5FFE8
:1022300032208DF8000000208DF8010003208DF879
:10224000020001208DF803006846FDF7E6FF372005
:102250008DF8000002208DF8010000208DF80200AA
:1022600001208DF803006846FDF7D7FF08BD000088
:102270004FF08042928C884B1A80884A1168884AB5
:10228000126840F271235A43834B1B8803EB021000
:10229000421A844B1A6010E0814A1268521E804B29
:1022A0001A601A46126840F271235A437A4B1B880F
:1022B00003EB0210421A7B4B1A607A4A1268B2F59D
:1022C000FA5FE9DC10E0764A1268521C744B1A601F
:1022D0001A46126840F271235A436F4B1B8803EB76
:1022E0000210421A6F4B1A606E4A126812F5FA5FBA
:1022F000E9DB6A4A106070476B4A12886B4B1A80A0
:102300006B4A11686B4A126840F2712302FB03F2B8
:10231000664B1B8803EB0210A0EB0102664B1A60B0
:1023200010E0644A1268521E624B1A601A46126824
:1023300040F271235A435D4B1B8803EB0210421A93
:102340005D4B1A605C4A1268B2F5FA5FE9DC10E096
:10235000584A1268521C574B1A601A46126840F2CB
:1023600071235A43514B1B8803EB0210421A524B04
:102370001A60514A126812F5FA5FE9DB4C4A1060A4
:1023800070474E4A12884E4B1A804E4A11684E4A88
:10239000126840F2712302FB03F2494B1B8803EBE6
:1023A0000210A0EB0102494B1A6010E0464A126885
:1023B000521E454B1A601A46126840F271235A4366
:1023C0003F4B1B8803EB0210421A404B1A603F4AF6
:1023D0001268B2F5FA5FE9DC10E03B4A1268521C61
:1023E000394B1A601A46126840F271235A43344B33
:1023F0001B8803EB0210421A344B1A60334A1268EE
:1024000012F5FA5FE9DB2F4A10607047304A1288F4
:10241000304B1A80304A1168304A126840F27123FA
:1024200002FB03F22B4B1B8803EB0210A0EB010213
:102430002B4B1A6010E0294A1268521E274B1A6073
:102440001A46126840F271235A43224B1B8803EB51
:102450000210421A224B1A60214A1268B2F5FA5F42
:10246000E9DC10E01D4A1268521C1C4B1A601A4627
:10247000126840F271235A43164B1B8803EB02107B
:10248000421A174B1A60164A126812F5FA5FE9DB16
:10249000114A1060704700003C00002044000020FA
:1024A0001800002054000020240400403E000020BA
:1024B000480000201C000020580000202408004094
:1024C000400000204C000020200000205C00002084
:1024D000240C004042000020500000202400002076
:1024E000600000202DE9F04104460021206800F042
:1024F00081FA03D2206880F00040206000216068EB
:1025000000F078FA03D2606880F00040606000213B
:10251000A06800F06FFA03D2A06880F00040A060CD
:102520000021E06800F066FA03D2E06880F0004025
:10253000E0602069E0612169206A00F085F920628D
:102540000021E06800F0EEF913D0E168206A00F0A5
:1025500058FB02D2E06820620BE0E06880F00045A2
:102560002846216A00F04DFB03D2E06880F000406D
:102570002062A169206900F07FFB60622069A06190
:10258000616AA06800F06AFA0646216A606800F095
:1025900065FA0746E169206800F060FA804639462E
:1025A00000F052F90546314600F04EF96061BDE891
:1025B000F0812DE9F05F04460021206800F01AFA4E
:1025C00003D2206880F0004020600021606800F0A5
:1025D00011FA03D2606880F0004060600021A068BA
:1025E00000F008FA03D2A06880F00040A060A16962
:1025F000E06800F041FB8046E5684FF08040A1694B
:1026000000F02CFA8146E16800F02CFB0746E169F6
:1026100000F01AF90646A069E061E068A061314661
:10262000A06800F01BFA81462946606800F016FA9F
:1026300082464146206800F011FA8346514600F078
:1026400003F90746494600F0FFF8206100212068A1
:1026500000F068F90CD10021606800F063F907D13F
:102660000021A06800F05EF902D10020606104E062
:10267000D4E9041000F0E8F86061BDE8F09F10B5FF
:102680000446124800681249086012480460014676
:1026900009680F4A1268881A00F094F90E49086117
:1026A0000E4808600E48486088600E48C8600846BA
:1026B000FFF718FF0849486900F068F90A490860FF
:1026C00008460068FFF702FD10BD0000540000201E
:1026D00068000020640000203401002000007041E8
:1026E0000000A04000007A446C00002010B56FF09C
:1026F0000400FDF7E6FD09201F4908700846007830
:102700004FF47A7148431D49088010BD01461B4AA9
:1027100012884A434FF0E0235A6100229A61012255
:102720001A6100BF4FF0E022106910F0010F02D0D3
:1027300010F4803FF6D000224FF0E0231A619A6136
:10274000704701460C4A12784A434FF0E0235A6121
:1027500000229A6101221A6100BF4FF0E022106945
:1027600010F0010F02D010F4803FF6D000224FF09D
:10277000E0231A619A617047700000207200002007
:1027800008B501214820FEF7D2F82020ADF800005E
:1027900010208DF8030003208DF8020069460948D7
:1027A000FDF712FE20210748FDF7B9FE2020ADF805
:1027B000000069460448FDF707FE20210248FDF7A6
:1027C000AEFE08BD000C0140001801407047704784
:1027D0007047754600F028F8AE4605006946534636
:1027E00020F00700854618B020B5FDF7FFFCBDE8D6
:1027F00020404FF000064FF000074FF000084FF068
:10280000000B21F00701AC46ACE8C009ACE8C009F8
:10281000ACE8C009ACE8C0098D4670470446AFF388
:1028200000802046FDF7CDFC004870475C01002089
:10283000004870476001002001491820ABBEFEE748
:10284000260002007047000090EA010F48BF81F0A7
:10285000004100F11882421A3CBF801A89184FEAE1
:10286000D0524FF07F4C1CEA410FA2EBD15318BF5E
:102870009CEA026F00F03B804FF0004C4CEA0020D5
:102880004CEA012121FA03FC10EB0C0C1ED202F1E0
:10289000FF325FEA1C2040EBC25038BF70471CF08B
:1028A0007F0F4FEA400C18BFBCF17F4F38BF704715
:1028B000C3F12003994008BF20F00100BCF17F4F15
:1028C00038BF7047A0F1C04000F096B94FEA3C0015
:1028D000000A40EBC25028BF1CF0FF0F4FEA400C2B
:1028E000E6D018BFBCF17F4F38BF7047EAE79CEADB
:1028F000026F05D010EA5C0F08BF00F0004070477F
:1029000010B500F02CF900BF64FBBE3E401058BF6C
:10291000C0F14040491058BFC1F140418142EFF33E
:102920000080704750EA010C00F113801CF5000F85
:1029300058BFBCF5000F01D48842704707D710F587
:10294000000F58BF11F5000F15D488427047894217
:1029500070471CF5000F04D5BCF5000FF7D5814278
:1029600070474FF0807C1CEB400F38BF1CEB410FD1
:1029700001D28142704710B500F0F1F8922449006D
:102980004FF000504FF08051FFF7C0BF41000B0ED9
:10299000D3F19E0208D950F400034FEA032323FA2F
:1029A00002F048BF4042704710B500F0D8F800BFB1
:1029B00049922480002070476FF0004282EA200094
:1029C0007047000010F0004148BF4042B0FA80F369
:1029D00010FA03F2C3F19D030BD051EAC35101EB8E
:1029E0001220530638BF704700F1010008BF20F0E5
:1029F0000100704750EA010C00F113801CF5000F34
:102A000058BFBCF5000F01D48842704707D710F5B6
:102A1000000F58BF11F5000F15D488427047894246
:102A200070471CF5000F04D5BCF5000FF7D58142A7
:102A300070474FF0807C1CEB400F38BF1CEB410F00
:102A400001D28142704710B500F089F89224490004
:102A50004FF000504FF08051FFF758BF4FF47F0CFC
:102A60001CEAD0121EBF1CEAD11392EA0C0F93EAA3
:102A70000C0F00F0478090EA010F48BF42F48072CB
:102A80004FF0004C4CEA00204CEA012102EB03021B
:102A9000A0FB0113A2F50002002918BF43F00103B7
:102AA0005B0028BF4FEA330342EB22425FEA132C5C
:102AB0004CEBC2502EBFBCEB436FB2F57C0F70479E
:102AC0004FEA036CBCF1004F08BF20F00100B2F5E3
:102AD0007C0F38BF70470BD582F0FF0212F5803FA4
:102AE000C8BF704700F1C040D8BF00F00040704739
:102AF00000F5000C5FEA4C0C48BF7047B0F1C040D5
:102B000000F07AB890EA010F0CEAD11348BF42F402
:102B10008072624538BF634504D280EA010000F04C
:102B20000040704710B500F01AF800BF8900013E60
:102B300000F007B800F009B85FEA410C5FEA1C6CCE
:102B400008D080EA010000F057B85FEA400C5FEA65
:102B50001C6CF6D14FF00040A0F5800070470EF1DC
:102B6000020E2EF0030E5EF8044B244204D44FEA0A
:102B70004102B2F17F4F11D84FEA4003B3F17F4FCA
:102B80000CD80ED14FEAD07CB2F17F4F0CEB4C0C3D
:102B90000CF1020C08BF4CEBD17C04E04FF0080CA8
:102BA00001E04FEAD17C0CEB4C0324FA03F404F06F
:102BB0000704B4F1040C06D20EEB840CBDE81040FF
:102BC0004CF0010C6047DFE80CF0070802024FF000
:102BD0000040A0F5800010BD0846420018BFD2F1A9
:102BE000807288BF00F0004010BD10B5FFF720FED6
:102BF0004FF00001016010BDFF2141EAD050C00537
:102C0000704751EA000C00F113801CF5000F58BF0B
:102C1000BCF5000F01D48142704707D711F5000FB2
:102C200058BF10F5000F15D4814270478942704794
:102C30001CF5000F04D5BCF5000FF7D5884270478E
:102C40004FF0807C1CEB410F38BF1CEB400F01D2D2
:102C50008842704780EA010081EA000180EA0100B1
:102C6000FFF7F1BE80F0004090EA010F7FF5F3AD71
:102C700081F0004100F007B890EA010F48BF81F0F1
:102C800000413FF5E8AD421A04D882F00042A0EBC3
:102C9000020011444FEAD0524FF07F4C1CEA410F22
:102CA000A2EBD15318BF9CEA026F4AD04FF0004C00
:102CB0004CEA00204CEA012121FA03FCB0EB0C0C99
:102CC0000FD412F0FE0F36D05FEA4C001DD5001273
:102CD00040EBC25038BF70471CF03F0F18BF704721
:102CE0000BE0A2F101025FEA1C2040EBC25038BFAA
:102CF00070471CF07F0F18BF7047C3F12003994045
:102D000014BF401E20F00100704780084FEA1223D4
:102D100008BF7047B0FA80FCA2EB0C02CCF1280C83
:102D200060FA0CF093EA122F04BF00EBC250704718
:102D30004FEAC3707047130A5FEADC1008BF7047A0
:102D4000F6E79CEA026F04D010EA5C0F08BF00208F
:102D5000704710B5FFF703FF40DFF63E81F00040FB
:102D600070470000842D000800000020740000005F
:102D70006C010008F82D0008740000204C070000CA
:102D8000880100080000000001020304010203049E
:102D90000607080902040608000000000000000001
:102DA00000000000000000000000000000A24A0433
:102DB00000000000000000000102030406070809EB
:102DC0000000000000000000000000000000000003
:102DD00000000000000000000000000000000000F3
:102DE00000000000000000000000000000000000E3
:082DF0000000000000000000DB
:0400000508000131BD
:00000001FF
