:020000040800F2
:1000000098040020DD010008E1010008E301000878
:10001000E5010008E7010008E90100080000000010
:10002000000000000000000000000000EB010008DC
:10003000ED01000800000000EF010008F1010008D8
:10004000F3010008F3010008F3010008F3010008C0
:10005000F3010008F3010008F3010008F3010008B0
:10006000F3010008F3010008F3010008F3010008A0
:10007000F3010008F3010008F3010008F301000890
:10008000F3010008F3010008F3010008F301000880
:10009000F3010008F3010008F3010008650C0008F3
:1000A000F3010008F3010008F3010008F301000860
:1000B000F301000845500008F3010008F3010008AF
:1000C000F3010008F3010008F3010008F301000840
:1000D000F30100082D510008F3010008F3010008A6
:1000E000F3010008F3010008F3010008F301000820
:1000F000F3010008F3010008F3010008F301000810
:10010000F3010008F3010008F3010008F3010008FF
:10011000F3010008F3010008C5500008F3010008CE
:10012000F3010008F3010008F3010008F3010008DF
:1001300000F002F800F042F80AA090E8000C8244B7
:100140008344AAF10107DA4501D100F037F8AFF294
:10015000090EBAE80F0013F0010F18BFFB1A43F0A5
:1001600001031847D8720000F8720000103A24BF4B
:1001700078C878C1FAD8520724BF30C830C144BF0C
:1001800004680C607047000000230024002500264E
:10019000103A28BF78C1FBD8520728BF30C148BFEA
:1001A0000B607047642900F07580782900F0AE80FC
:1001B000002070471FB51FBD10B510BD00F05EF9DF
:1001C0001146FFF7F7FF05F00DF800F07CF903B4D6
:1001D000FFF7F2FF03BC04F0B9FF00000848004736
:1001E000FEE7FEE7FEE7FEE7FEE7FEE7FEE7FEE7E7
:1001F000FEE7FEE703480449024A044B704700004B
:100200003101000898000020980400209800002088
:10021000704700000FB4044910B503AA029800F01B
:10022000FFF810BC5DF814FB180000202DE9F04128
:100230000E460446002020622046E168884730B31D
:10024000252805D0D4E901219047206A401CF2E717
:10025000E168204600278847050018D0A5F1410035
:10026000192802D820354FF4006732462946204627
:100270002760FFF797FF40B1012804D0F61D26F054
:1002800007060836D8E7361DD6E72846DAE7206A9B
:10029000BDE8F0812DE9F04106460024106875297B
:1002A000314616A510D0AFF30080002802DA404294
:1002B00013A507E031688A0701D512A502E04907B6
:1002C00004D511A5012401E0AFF3008000210A222A
:1002D00006F1240709E0B0FBF2FCB0FBF2F302FBED
:1002E0001C00303078541846491C0028F3D12346AE
:1002F0002A463046BDE8F04100F038B80000000062
:100300002D0000002B0000002000000070B5044606
:100310000D4621461068AFF300802188090502D5FB
:100320000F4A7A4402E00E4A7A440E32002104F168
:10033000240305E000F00F060009965D5E54491C99
:100340000028F7D120780023000704D5702D02D0B3
:1003500009B1022311322046BDE8704000F006B812
:10036000EE70000070477047704770472DE9F04706
:100370000D4699469246044600F124080168880615
:1003800004D5E06921F01001216000E00120A842BD
:1003900001DD471B00E00027A1697A1902EB090083
:1003A000081AA0612078C00602D42046AFF300806E
:1003B000002608E0D4E901211AF806009047206AD7
:1003C000401C761C20624E45F4DB2078C0060AD51E
:1003D0002046AFF3008006E0D4E9012130209047A9
:1003E000206A401C2062381EA7F10107F4DC07E0F8
:1003F000D4E9012118F805009047206A401C2062CA
:10040000281EA5F10105F3DC2046AFF3008020781B
:10041000000602D50220BDE8F0870120FBE70000BE
:10042000074B70B50D467B4400F011F80446284692
:1004300000F020F810B14FF0FF3070BD204670BDC5
:10044000A34D000001694A1C02610878704700B59D
:100450008FB0CDE901310021059105497944CDE9FD
:10046000031011466846FFF7E1FE0FB000BD000023
:10047000E5FFFFFF007B00F080007047754600F04D
:1004800029F8AE4605006946534620F00700854628
:1004900018B020B5FFF7AEFEBDE820404FF00006D3
:1004A0004FF000074FF000084FF0000B21F007015C
:1004B000AC46ACE8C009ACE8C009ACE8C009ACE89F
:1004C000C0098D4670470446AFF300802046FFF711
:1004D0007EFE0000004870473400002037488169E4
:1004E00041F00401816136490A6822F0F0020A6095
:1004F000816941F400718161C16841F40071C1609A
:10050000C16821F40071C160416821F4404141603B
:10051000416841F4004141602A4801682A4A11407B
:10052000016001680160016821F480710160001DB3
:10053000016821F002010160016821F4602101607D
:10054000016841F460210160016841F4801101609B
:10055000016821F400610160016841F4000101605B
:10056000184928310A6822F470020A600A680A6091
:1005700014490C310A6822F003020A600A6842F04A
:1005800038020A60011D0A6822F4E0120A600A6853
:1005900042F4E0120A60016841F001010160016863
:1005A00041F00801016001680907FCD4016841F0CD
:1005B0000401016001684907FCD470470010024043
:1005C0000008014004240140FFFFF0002DE9F04144
:1005D000544C60782178884205D04FF6FF7000F0C7
:1005E00041FC20786070207800252E1F4E4F112886
:1005F0007CD2DFE800F0090D141827374757667CD6
:100600009494949494948700BDE8F04100F058B914
:10061000207901286AD1BDE8F04104F00BBBBDE8A8
:10062000F04100F0ABB9207A401C2072642004F045
:10063000A5FD207A062800D12572207ABDE8F04178
:1006400004F0C4B96079401C6071642004F096FD28
:100650006079052800D1667194F90500BDE8F04184
:1006600004F0E1B8A079401CA071642004F086FD7C
:10067000A079052800D1A67194F90600BDE8F041E3
:1006800004F0AAB8E079401CE071642004F076FD23
:10069000E079052800D1E67194F90700BDE8F04142
:1006A00004F0D2B8607A401C6072642004F066FDE9
:1006B000607A062800D16572607ABDE8F04104F0E6
:1006C000D1B96572E571A57165712846257204F08E
:1006D0007DF994F9050004F0A6F894F9060004F0F9
:1006E0007BF894F9070004F0AFF8E5E717E0A07A8B
:1006F000401CA072142004F041FDA07A12280CD9ED
:10070000122009E0A07A401EA072142004F036FDE9
:10071000A07A062801D20620A072C0B23880BDE8B7
:10072000F0810000000000203404004070B516483D
:100730000024416821F470414160416841F4004166
:100740004160124D04E0641CE4B2012004F02AFD73
:10075000D5F82C0110B1642CF5D30DE0642C0BD22C
:10076000002404E0641CE4B2012004F01BFDD5F871
:100770002C0118B1642C04D3012070BD642CF1D37A
:10078000FAE7002070BD0000002001400000244274
:100790000C4810B5816941F4807181610A48416853
:1007A00021F470414160416841F440514160C168A9
:1007B00041F40061C16000F065F8BDE81040FFF74A
:1007C000B5BF0000001002400020014070B50024B9
:1007D000104D04E0641CE4B2012004F0E3FCD5F801
:1007E0002C0108B1642CF5D3002404E0641CE4B2AD
:1007F000012004F0D7FCD5F82C0108B9642CF5D3FE
:10080000282004F0CFFCD5F82C01002800D00120CE
:1008100070BD00000000244270B500200446400670
:10082000050EFFF7D3FF641C2843E4B2082CF6D36F
:1008300070BD2DE9FC410E46074600F023F8FFF796
:1008400075FF10B10120BDE8FC8100246D46FFF763
:10085000E3FF2855641CE4B2052CF8D39DF8000092
:100860009DF801109DF8033042189DF802100B44CA
:100870001A449DF804309A4201D13070397000203A
:10088000E1E700000C4810B5416821F47041416077
:10089000416841F440514160084C0020C4F8AC016B
:1008A000142004F5D67404F069FC01202060BDE832
:1008B00010401E2004F076BC0020014000002442BD
:1008C0007CB51A4D4FF478401824288018A0CDE943
:1008D00000402346A8220021242003F06BFE0020C4
:1008E000288017A0CDE900401823D82264210C20CD
:1008F00003F060FE17A0CDE90040182330228221CA
:10090000002003F057FE15A0CDE900401823F02287
:10091000C821002003F04EFE16A0CDE900401823A8
:100920003022E621002003F045FE7CBD1C000020A3
:1009300057656C636F6D6520546F205573650000BB
:1009400043616D657261204D6F6465204F7264650F
:10095000723A00003058303000000000506879735F
:100960006963616C204D6F6465204F726465723AF3
:100970000000000030583031000000002DE9FC5F1D
:100980007A4D1824E87840B979A0CDE900401823C1
:10099000CC223221122003F00DFEE878012808D184
:1009A00078A0CDE900401823CC223221122003F098
:1009B00001FEE878022808D177A0CDE9004018238D
:1009C000CC223221122003F0F5FDE878032808D16B
:1009D00076A0CDE900401823CC223221122003F06A
:1009E000E9FD62490F31481EFFF723FF0A2101206C
:1009F00000F0ACF9A8462E462882714D1F2018231E
:100A0000288070A0CDE900409C220A212A2003F012
:100A1000D1FD70A0CDE9004018231A4664211E20A4
:100A200003F0C8FD4FF00009CDE900494F4602230D
:100A3000B27B64213C2003F0E7FD67A0CDE90040D4
:100A400018231A468C211E2003F0B4FDCDE900477F
:100A50000223F27B8C213C2003F0D6FD5FA0CDE980
:100A6000004018233C22B4211E2003F0A3FDCDE951
:100A70000047308A0423C0F58052B4213C2003F0A3
:100A8000C3FDB07B4FF0010A1E2898F80B004FF40D
:100A900078464FF4FC670BD328B94FF6FF7000F08F
:100AA000E1F988F80BA018232E804DA0B4220BE0AA
:100AB000012805D14FF6FF7000F0D4F988F80B90AB
:100AC00018232F804AA09022CDE90040D221002097
:100AD00003F070FD98F80F00322898F80C0009D345
:100AE00028B94FF6FF7000F0BDF988F80CA02E80F1
:100AF00043A009E0012805D14FF6FF7000F0B2F9DC
:100B000088F80C902F8044A0CDE90040F0221823F3
:100B10001146002003F04EFDB8F8100040F6B83141
:100B2000C0F58050884298F80D004FF4877B09DBB0
:100B300028B94FF6FF7000F095F988F80DA02E80C7
:100B400039A009E0012805D14FF6FF7000F08AF9BD
:100B500088F80D902F8037A0CDE900401823F022AF
:100B60005946002003F026FDBDE8FC9F0000002050
:100B7000446574656374696F6E204120506F696EBF
:100B800074000000446574656374696F6E204220D0
:100B9000506F696E74000000446574656374696F1A
:100BA0006E204320506F696E7400000044657465C8
:100BB0006374696F6E204420506F696E740000008A
:100BC0001C000020456E7669726F6E6D656E7461F3
:100BD0006C000000543A0000483A00004C3A000013
:100BE0004F76657274656D706572617475726500BB
:100BF0004E6F726D6F746865726D69610000000000
:100C000048756D696469747920497320546F6F2049
:100C100048696768000000004E6F726D616C204883
:100C2000756D696469747900546F6F2042726967E9
:100C3000687400004E6F726D616C20427269676863
:100C4000746E65737300000010B502220821002045
:100C500000F032F8022317220021BDE810400846B8
:100C600003F078BD30B50F4B1868C00506D50E4AA5
:100C70000E4C0020117829B1C4F88C014FF480701B
:100C8000186030BD0A49C1F898010A4D102028604B
:100C90002D1F28600120C1F89801C4F88C01107044
:100CA000ECE70000140401402000002000802142F5
:100CB00000802242140C014070B5144D8B088C0743
:100CC000AE69240F46F00106AE619D00104B2B4427
:100CD0009E680F25A540AE439E609D68A0400543D9
:100CE0009D600C4B1C680120884004431C60D107A8
:100CF00004D008490C310B6803430B60910704D5FD
:100D0000044A083211680143116070BD00100240AE
:100D100000000140000401400B490A6822F01F0254
:100D20000A600A6802430A6007482C38016841F4E7
:100D3000800101600448343801688907FCD5024805
:100D40001830006880B27047342401402DE9F0412A
:100D500000250E4607462C4608E03846FFF7DCFF24
:100D60000544052004F00AFA641CE4B2B442F4D34A
:100D7000B5FBF6F080B2BDE8F081000010B5174C6D
:100D800000221749A078012378B1012813D0022846
:100D900019D0032808D1E070C1F88831C1F88C312E
:100DA000C1F89031C1F8942110BDE270C1F88821DA
:100DB000C1F88C3104E0E370C1F88831C1F88C21AE
:100DC000C1F8903107E00220E070C1F88831C1F825
:100DD0008C31C1F89021C1F8943110BD0000002081
:100DE0000000214241060748826942F00102826107
:100DF0000548426822F0E062426042680A4342606D
:100E00007047000000100240000001401048816956
:100E100041F004018161816941F0400181610D4827
:100E2000016821F00F010160016841F008010160D3
:100E300009480168094A114001600168084A1143E4
:100E4000016005480C30016841F01C0101607047E9
:100E5000001002400008014000180140FF00F0FFB0
:100E6000008808002DE9F043174F06460024388813
:100E70007D884543B888A0F5D041043902D1B879BE
:100E8000012807D00021084603F0CCF903F000FC4C
:100E90000E4815E00020B8714FF02A09A7F80A9013
:100EA0004FF02B08A7F80C80014603F0BBF9012096
:100EB000B871A7F80A80A7F80C90E7E70680641CD1
:100EC000AC42FBD3BDE8F083240000200008006C96
:100ED0002DE9F04F4A492A232B24898845F2105ADC
:100EE0004FF4305B4FF4285E4FF448754FF0F00C30
:100EF00049F241394FF4A07745F210364FF4F072C1
:100F000080B13F484FF00108494580F806800780CE
:100F1000A0F802C001D0B1423ED12C250581438109
:100F2000848157E036484FF00008494580F8068034
:100F3000A0F800C0478006D0A1F5D04CBCF1040C4D
:100F400001D0B1420CD12C2505814381A1F5D043BC
:100F50008481043B01D0B14244D10780428041E00A
:100F6000514507D1A0F808B0A0F80AE04FF42C5181
:100F700081810EE0A1F5C856633E06D02221018191
:100F800020214181212181812CE02C21018144817A
:100F900083810280458025E0A1F5D04CBCF1040C92
:100FA00009D051450BD1A0F808B0A0F80AE04FF4E1
:100FB0002C53838121E02C250581448109E0A1F592
:100FC000C85CBCF1630C12D022230381212343812E
:100FD00020238381A1F5D043043B01D0B14201D14C
:100FE00002804780BDE8F04F002003F047B84FF083
:100FF0002C0CA0F808C04381848105804280E9E779
:10100000240000202DE9F04FDFF80C819346424682
:101010000B46B8F804500C0ADFF800A19189060AC3
:101020005289A5F513470AF10209413F18D0A5F5E9
:10103000A647103F14D0B7F500771CD04746A5F55A
:10104000C85CBE793F883F1A7F1EBCF1630C27D075
:10105000A5F5D04CBCF1040C3AD0012E4AD04AE0A0
:10106000AAF800204A46A9F80060C0B2A9F800001A
:10107000AAF800103AE0AAF80020A9F80060521C73
:10108000AAF80020C0B2A9F80000AAF80010A9F838
:101090000040491CAAF80010D8B2A9F8000033E0BB
:1010A00006B9B8B2AAF80020050A4A46A9F80050C5
:1010B000C7B2A9F80070A9F80050C0B2A9F80000A2
:1010C000AAF80010A9F80040D8B2A9F800000DE075
:1010D000012E00D1B8B2AAF80020050A4A46A9F8A4
:1010E0000050C0B2A9F80000AAF800101480D8B2CD
:1010F000108009E0B8B20146104603F0D3FAB8F800
:101100000C00194603F0CEFAB8F80810AAF800103F
:10111000A9F800B0BDE8F08F24000020FE07006CA5
:101120002DE9F8431F4D1F468046AB88089EA3F566
:10113000D040043802D1A879012807D0A2EB0800DA
:10114000401C85B20C46DFF8609028E02B880846EA
:10115000991A0024AC713A462A24A3EB08036C8147
:101160002B27491E5B1EAF8189B29BB20096FFF709
:10117000D7FF0120A8716F81AC81BDE8F8832146BB
:10118000404603F04FF803F083FA0020494602E09E
:101190000E80401C80B2A842FAD3641CA4B2BC42A8
:1011A000EDD9EAE7240000200008006C2DE9F05F8B
:1011B000FE484069FD4940F480704861886940F00C
:1011C00008008861886940F020008861886940F0E3
:1011D00040008861886940F480708861F448006844
:1011E000F34920F00F000860086840F00300086031
:1011F000F0480168F04A114001600168EF4A11436C
:101200000160001F016801F0FF210160016841F0E9
:10121000BB110160EA48016800210160026842F0E8
:10122000BB320260001F026822F070420260026856
:1012300042F030420260E348426822F47022426089
:10124000426842F430224260026822F00F020260DB
:10125000026842F00B0202604FF020408161C161E0
:10126000C0F81C11816941F480518161816941F4A8
:1012700080418161816941F010018161C169C16171
:10128000C16941F00101C161C16941F47061C1618D
:10129000D0F81C11C0F81C11D0F81C11C0F81C119A
:1012A000D0F81C1141F44071C0F81C11816941F063
:1012B00001018161322003F061FF002002F0B4FEE1
:1012C000C14DC24C49F24137A88046F6040945F2A7
:1012D000103A45F210564FF6FF78FF2804D34045E8
:1012E00002D0B0F5134F70D1D320208002F092FECF
:1012F000A88002F08FFEA88002F08CFE08EA002091
:101300004146A88002F086FEAA881043A880B84211
:101310005BD0BF20208002F07DFEA88002F07AFE24
:10132000A88002F077FEA88002F074FE01EA002097
:10133000A88002F06FFEAA881043A880484544D0D8
:10134000D420208002F066FEA88002F063FEA88010
:1013500002F060FE01EA0020A88002F05BFEAA888D
:101360001043A880504530D04FF45A40208002F0FE
:1013700051FEA8804FF45B40208002F04BFE01EA52
:101380000020A8804FF45C40208002F043FEAA8831
:101390001043A880B0F5004F7ED0B04215D0A120F8
:1013A000208002F037FEA88002F034FE01EA00201F
:1013B000A88002F02FFEA9880843A0F5AE41A880BE
:1013C000613902D141F66310A880A98880A0FEF798
:1013D00021FFA8887D4DAD1CB8427DD1CF20208053
:1013E00000202880C120288030202880ED20208007
:1013F00064202880032028801220288081202880D3
:10140000E820208085202880102028807A202880CD
:10141000CB202080392028802C2028800020288084
:101420003420288002202880F72020802020288057
:10143000EA202080002028802880C02020801B20D7
:101440002880C120208001202880C52020803020D5
:1014500028802880C7202080B72028803620208040
:10146000482028803A20208055202880B1202080E4
:10147000002028801A202880B62020800A2028807A
:10148000A2202880F2202080002028802620208092
:1014900001202880E02000E050E020800F202880FC
:1014A0002A20288028202880082028800E202880B4
:1014B0000820288054202880A920288043202880C4
:1014C0000A2028800F20288000202880288028805B
:1014D0002880E120208000E032E0002028801520D4
:1014E00028801720288007202880112028800620A7
:1014F00028802B202880562028803C20288005200A
:101500002880102028800F2028803F2028802880D5
:101510000F2028802B202080002028802880012078
:1015200028803F2028802A202080002028802880B2
:101530002880EF202880112020808BE0AE8044E7B7
:1015400048457DD111202080142003F017FED020C3
:10155000208007202880422028801D202880D1203C
:101560002080002028801A20288009202880D2206E
:1015700020800120288022202880C0202080102068
:1015800028803B20288000202880022028801120ED
:101590002880C520208003202880C82020800020AB
:1015A0002880252028802120288019E00010024072
:1015B000000C01400414014000F0FF00BB0B00BB15
:1015C000041801400020014024000020FE07006CA8
:1015D000204C43442049443A25780D0A000000007D
:1015E00005202880002028800A2028806520288067
:1015F0002520288077202880502028800F202880D0
:1016000000202880F820208001202880FE202080D3
:101610000020288002202880202020803620208062
:10162000082028803A202080552028802B202080E8
:10163000002028802880012028803F20288000E08A
:101640000EE02A2020800020288028800120288089
:10165000DF202880782003F091FD292001F02DBCA7
:1016600050457DD1ED20208001202880FE2028805B
:10167000EE202080DE20288021202880F12020807C
:1016800001202880DF20208010202880C420208096
:101690008F202880C620208000202880E2202880FB
:1016A00028802880BF202080AA202880B020208089
:1016B0000D202880002028800D20288000202880F0
:1016C00011202880002028801920288000202880D0
:1016D00021202880002028802D202880002028809C
:1016E0003D202880002028805D2028800020288040
:1016F0005D20288000202880B12020808020288044
:10170000002028808B202880002028809620288098
:1017100000202880B22020800020288028800220FD
:101720002880002028800320288000202880B320E3
:1017300020800020288028802880288028802880F9
:101740002880288028802880288028802880288059
:10175000288028802880288028802880288000E011
:10176000FEE3288028802880B42020808B202880D9
:10177000002028809620288000202880A120288012
:1017800000202880B520208002202880002028808A
:101790000320288000202880042028800020288022
:1017A000B6202080002028802880B72020800020BC
:1017B000288028803F202880002028805E202880E4
:1017C0000020288064202880002028808C20288009
:1017D00000202880AC20288000202880DC20288061
:1017E00000202880702028800020288090202880D9
:1017F00000202880EB20288000202880DC20288002
:1018000000202880B8202080002028802880288080
:1018100028802880288028802880BA2020802420C2
:1018200028800020288028802880C1202080202037
:101830002880002028805420288000202880FF2035
:10184000288000202880C22020800A2028800020B4
:1018500028800420288000202880C32020803C206D
:101860002880002028803A202880002028803920E5
:1018700028800020288037202880002028803C20D5
:1018800028800020288036202880002028803220D0
:101890002880002028802F202880002028802C20CD
:1018A00028800020288029202880002028802620C9
:1018B00028800020288024202880002028802420C0
:1018C00028800020288023202880002028803C2099
:1018D0002880002028803620288000202880322080
:1018E0002880002028802F202880002028802C207D
:1018F0002880002028802920288000202880262079
:10190000288000202880242028800020288024206F
:101910002880002028802320288000202880C420C0
:101920002080622028800020288005202880002038
:1019300028808420288000202880F0202880002013
:1019400028801820288000202880A42028800020BB
:1019500028801820288000202880502028800020FF
:1019600028800C2028800020288017202880002034
:1019700028809520288000202880F32028800020BF
:101980002880E620288000202880C5202080322062
:10199000288000202880442028800020288065207E
:1019A0002880002028807620288000202880882019
:1019B000288000202880C620208020202880002029
:1019C00028801720288000202880012028800020DF
:1019D0002880C72020800020288028802880288018
:1019E000C820208000202880288028802880C920C6
:1019F0002080002028802880288028802880288037
:101A00002880288028802880288028802880288096
:101A100028802880E0202080162028800020288030
:101A20001C20288000202880212028800020288059
:101A3000362028800020288046202880002028800A
:101A400052202880002028806420288000202880C0
:101A50007A202880002028808B2028800020288061
:101A60009920288000202880A82028800020288015
:101A7000B920288000202880C420288000202880C9
:101A8000CA20288000202880D2202880002028809A
:101A9000D920288000202880E0202880002028806D
:101AA000F320288000202880E12020801620288034
:101AB000002028801C2028800020288022202880C8
:101AC000002028803620288000202880452028807B
:101AD0000020288052202880002028806420288030
:101AE000002028807A202880002028808B202880D1
:101AF000002028809920288000202880A820288085
:101B000000202880B920288000202880C420288038
:101B100000202880CA20288000202880D220288009
:101B200000202880D820288000202880E0202880DD
:101B300000202880F320288000202880E2202080B8
:101B400005202880002028800B2028800020288065
:101B50001B20288000202880342028800020288016
:101B600044202880002028804F20288000202880C2
:101B7000612028800020288079202880002028806B
:101B80008820288000202880972028800020288016
:101B9000A620288000202880B720288000202880C8
:101BA000C220288000202880C7202880002028808C
:101BB000D120288000202880D6202880002028805E
:101BC000DD20288000202880F32028800020288025
:101BD000E320208005202880002028800A202880FB
:101BE000002028801C202880002028803320288086
:101BF0000020288044202880002028805020288031
:101C000000202880622028800020288078202880DA
:101C10000020288088202880002028809720288085
:101C200000202880A620288000202880B720288037
:101C300000202880C220288000202880C7202880FB
:101C400000202880D120288000202880D5202880CE
:101C500000202880DD20288000202880F320288094
:101C600000202880E4202080012028800020288077
:101C70000120288000202880022028800020288041
:101C80002A202880002028803C20288000202880CE
:101C90004B202880002028805D202880002028807C
:101CA000742028800020288084202880002028801C
:101CB0009320288000202880A220288000202880CF
:101CC000B320288000202880BE2028800020288083
:101CD000C420288000202880CD2028800020288053
:101CE000D320288000202880DD2028800020288024
:101CF000F320288000202880E520208000202880F4
:101D00002880288028800220288000202880292000
:101D10002880002028803C202880002028804B201C
:101D20002880002028805D202880002028807420C2
:101D3000288000202880842028800020288093206C
:101D4000288000202880A220288000202880B3201E
:101D5000288000202880BE20288000202880C420E1
:101D6000288000202880CD20288000202880D320B3
:101D7000288000202880DC20288000202880F32074
:101D8000288000202880E620208011202880002044
:101D90002880342028800020288056202880002099
:101DA0002880762028800020288077202880002026
:101DB0002880662028800020288088202880002015
:101DC00028809920288000202880BB20288000209F
:101DD00028809920288000202880662028800020E4
:101DE0002880552028800020288055202880002029
:101DF000288045202880002028804320288000203B
:101E000028804420288000202880E720208032205D
:101E100028800020288055202880002028807620D7
:101E200028800020288066202880002028806720C5
:101E30002880002028806720288000202880872094
:101E40002880002028809920288000202880BB201E
:101E50002880002028809920288000202880772052
:101E600028800020288044202880002028805620B8
:101E700028800020288023202880002028803320EC
:101E80002880002028804520288000202880E82005
:101E90002080002028802880992028800020288009
:101EA0008720288000202880882028800020288003
:101EB0007720288000202880662028800020288025
:101EC0008820288000202880AA20288000202880C0
:101ED000BB2028800020288099202880002028808E
:101EE0006620288000202880552028800020288017
:101EF0005520288000202880442028800020288029
:101F00004420288000202880552028800020288018
:101F1000E9202080AA20288000202880288028808E
:101F20002080AA202880CF202080002028802880A0
:101F30002880288028802880288028802880288061
:101F40002880288028802880288028802880F020E9
:101F5000208000202880502028800020288000E059
:101F60002CE028802880F320208000202880F92081
:101F7000208006202880102028802920288000200A
:101F800028803A202080552028801120208064203D
:101F900003F0F4F8292020803520208000202880BC
:101FA00051202080FF202880532020802C20288052
:101FB00055202080822028802C20FCE3B0427DD157
:101FC0004FF470435521184602F06CFB4FF20105A7
:101FD000AA21284602F066FB6E1C5221304602F010
:101FE00061FBAF1C0821384602F05CFB4FF204098C
:101FF0000121484602F056FB0D214FF4304002F01B
:1020000051FB0D214BF2010002F04CFB0D214BF274
:10201000020002F047FB4FF4364A3421504602F0EA
:1020200041FB34214BF2016002F03CFB34214BF2C6
:10203000026002F037FB4FF4314B0D21584602F09D
:1020400031FB0D214BF2011002F02CFB0D214BF264
:10205000021002F027FB34214FF4374002F022FB3C
:1020600034214BF2017002F01DFB34214BF202705F
:1020700002F018FB00214FF4324002F013FB002164
:102080004BF2012002F00EFB00214BF2022002F085
:1020900009FB24214FF4384002F004FB24214BF6C5
:1020A000010002F0FFFA24214BF6020002F0FAFAD6
:1020B00001214FF43F4002F0F5FA00E0FEE30F216A
:1020C0004FF4334002F0EEFA0F214BF2013002F0F0
:1020D000E9FA0F214BF2023002F0E4FA34214FF416
:1020E000394002F0DFFA34214BF6011002F0DAFA3F
:1020F00034214BF6021002F0D5FA08214FF4354096
:1021000002F0D0FA08214BF2015002F0CBFA08217C
:102110004BF2025002F0C6FA03214FF4424002F0A3
:10212000C1FA24214FF43A4002F0BCFA24214BF6C4
:10213000012002F0B7FA24214BF6022002F0B2FA95
:1021400000214FF43C4002F0ADFA78214BF60140FB
:1021500002F0A8FA00214BF6024002F0A3FA002197
:102160004FF43D4002F09EFA78214BF6015002F008
:1021700099FA00214BF6025002F094FA00214FF434
:102180003E4002F08FFA64214BF6016002F08AFAB9
:1021900000214FF4514002F085FA33214DF2011035
:1021A00002F080FA00214DF2021002F07BFA342195
:1021B0004DF2031002F076FA00214DF2041002F005
:1021C00071FA3A214DF2051002F06CFA00214DF23D
:1021D000061002F067FA4A214DF2071002F062FA87
:1021E00000214DF2081002F05DFA5C214DF2091059
:1021F00002F058FA00214DF20A1002F053FA812140
:102200004DF20B1002F04EFA00214DF20C1002F0CC
:1022100049FAA6214DF20D1002F044FA00214DF2C8
:102220000E1002F03FFAE5214DF20F1002F03AFADB
:1022300001214DF2101002F035FA13214DF2111068
:1022400002F030FA01214DF2121002F02BFA542163
:102250004DF2131002F026FA01214DF2141002F093
:1022600021FA82214DF2151002F01CFA01214DF2E3
:10227000161002F017FACA214DF2171002F012FAE6
:1022800002214DF2181002F00DFA00214DF2191042
:1022900002F008FA02214DF21A1002F003FA0121AD
:1022A0004DF21B1002F0FEF902214DF21C1002F05B
:1022B000F9F934214DF21D1002F0F4F902214DF22A
:1022C0001E1002F0EFF967214DF21F1002F0EAF93B
:1022D00002214DF2201002F0E5F984214DF2211087
:1022E00002F0E0F902214DF2221002F0DBF9A42104
:1022F0004DF2231002F0D6F902214DF2241002F023
:10230000D1F9B7214DF2251002F0CCF902214DF29E
:10231000261002F0C7F9CF214DF2271002F0C2F9C2
:1023200002214DF2281002F0BDF9DE214DF22910F4
:1023300002F0B8F902214DF22A1002F0B3F9F221AD
:102340004DF22B1002F0AEF902214DF22C1002F0EA
:10235000A9F9FE214DF22D1002F0A4F903214DF24E
:102360002E1002F09FF910214DF22F1002F09AF971
:1023700003214DF2301002F095F933214DF2311066
:1023800002F090F903214DF2321002F08BF96D2129
:102390004DF2331002F086F900214FF4524002F062
:1023A00081F933214DF2012002F07CF900214DF238
:1023B000022002F077F934214DF2032002F072F985
:1023C00000214DF2042002F06DF93A214DF2052072
:1023D00002F068F900214DF2062002F063F94A216B
:1023E0004DF2072002F05EF900214DF2082002F0C4
:1023F00059F95C214DF2092002F054F900214DF207
:102400000A2002F04FF981214DF20B2002F04AF927
:1024100000214DF20C2002F045F9A6214DF20D20CD
:1024200002F040F900214DF20E2002F03BF9E521C7
:102430004DF20F2002F036F901214DF2102002F08A
:1024400031F913214DF2112002F02CF901214DF246
:10245000122002F027F954214DF2132002F022F944
:1024600001214DF2142002F01DF982214DF21520B8
:1024700002F018F901214DF2162002F013F9CA21D9
:102480004DF2172002F00EF902214DF2182002F051
:1024900009F900214DF2192002F004F902214DF250
:1024A0001A2002F0FFF801214DF21B2002F0FAF889
:1024B00002214DF21C2002F0F5F834214DF21D20CE
:1024C00002F0F0F802214DF21E2002F0EBF8672135
:1024D0004DF21F2002F0E6F802214DF2202002F01A
:1024E000E1F884214DF2212002F0DCF802214DF2C6
:1024F000222002F0D7F8A4214DF2232002F0D2F8D6
:1025000002214DF2242002F0CDF8B7214DF2252012
:1025100002F0C8F802214DF2262002F0C3F8CF21C4
:102520004DF2272002F0BEF802214DF2282002F0E1
:10253000B9F8DE214DF2292002F0B4F802214DF263
:102540002A2002F0AFF8F2214DF22B2002F0AAF877
:1025500002214DF22C2002F0A5F8FE214DF22D2093
:1025600002F0A0F803214DF22E2002F09BF810217A
:102570004DF22F2002F096F803214DF2302002F0A8
:1025800091F833214DF2312002F08CF803214DF205
:10259000322002F087F86D214DF2332002F082F8EC
:1025A00000214FF4534002F07DF833214DF2013009
:1025B00002F078F800214DF2023002F073F8342175
:1025C0004DF2033002F06EF800214DF2043002F0BB
:1025D00069F83A214DF2053002F064F800214DF21D
:1025E000063002F05FF84A214DF2073002F05AF847
:1025F00000214DF2083002F055F85C214DF209300F
:1026000002F050F800214DF20A3002F04BF881211F
:102610004DF20B3002F046F800214DF20C3002F082
:1026200041F8A6214DF20D3002F03CF800214DF2A8
:102630000E3002F037F8E5214DF20F3002F032F89B
:1026400001214DF2103002F02DF813214DF211301E
:1026500002F028F801214DF2123002F023F8542143
:102660004DF2133002F01EF801214DF2143002F049
:1026700019F882214DF2153002F014F801214DF2C3
:10268000163002F00FF8CA214DF2173002F00AF8A6
:1026900002214DF2183002F005F800214DF21930F8
:1026A00002F000F802214DF21A3001F0FBFF012187
:1026B0004DF21B3001F0F6FF02214DF21C3001F00B
:1026C000F1FF34214DF21D3001F0ECFF02214DF2FB
:1026D0001E3001F0E7FF67214DF21F3001F0E2FFED
:1026E00002214DF2203001F0DDFF84214DF2213036
:1026F00001F0D8FF02214DF2223001F0D3FFA421D6
:102700004DF2233001F0CEFF02214DF2243001F0D2
:10271000C9FFB7214DF2253001F0C4FF02214DF26F
:10272000263001F0BFFFCF214DF2273001F0BAFF74
:1027300002214DF2283001F0B5FFDE214DF22930A3
:1027400001F0B0FF02214DF22A3001F0ABFFF2217F
:102750004DF22B3001F0A6FF02214DF22C3001F09A
:10276000A1FFFE214DF22D3001F09CFF03214DF21F
:102770002E3001F097FF10214DF22F3001F092FF23
:1027800003214DF2303001F08DFF33214DF2313015
:1027900001F088FF03214DF2323001F083FF6D21FB
:1027A0004DF2333001F07EFF00214FF4544001F030
:1027B00079FF332100E080E34DF2014001F072FF28
:1027C00000214DF2024001F06DFF34214DF2034033
:1027D00001F068FF00214DF2044001F063FF3A214F
:1027E0004DF2054001F05EFF00214DF2064001F080
:1027F00059FF4A214DF2074001F054FF00214DF2EC
:10280000084001F04FFF5C214DF2094001F04AFF02
:1028100000214DF20A4001F045FF81214DF20B40AD
:1028200001F040FF00214DF20C4001F03BFFA621DA
:102830004DF20D4001F036FF00214DF20E4001F047
:1028400031FFE5214DF20F4001F02CFF01214DF247
:10285000104001F027FF13214DF2114001F022FF3B
:1028600001214DF2124001F01DFF54214DF21340A1
:1028700001F018FF01214DF2144001F013FF8221F5
:102880004DF2154001F00EFF01214DF2164001F00E
:1028900009FFCA214DF2174001F004FF02214DF259
:1028A000184001F0FFFE00214DF2194001F0FAFE40
:1028B00002214DF21A4001F0F5FE00E0FFE2012195
:1028C0004DF21B4001F0EEFE02214DF21C4001F0E2
:1028D000E9FE34214DF21D4001F0E4FE02214DF2EB
:1028E0001E4001F0DFFE67214DF21F4001F0DAFECD
:1028F00002214DF2204001F0D5FE84214DF221400D
:1029000001F0D0FE02214DF2224001F0CBFEA421C5
:102910004DF2234001F0C6FE02214DF2244001F0A9
:10292000C1FEB7214DF2254001F0BCFE02214DF25F
:10293000264001F0B7FECF214DF2274001F0B2FE54
:1029400002214DF2284001F0ADFEDE214DF229407A
:1029500001F0A8FE02214DF22A4001F0A3FEF2216F
:102960004DF22B4001F09EFE02214DF22C4001F071
:1029700099FEFE214DF22D4001F094FE03214DF20F
:102980002E4001F08FFE10214DF22F4001F08AFE03
:1029900003214DF2304001F085FE33214DF23140EC
:1029A00001F080FE03214DF2324001F07BFE6D21EB
:1029B0004DF2334001F076FE00214FF4554001F016
:1029C00071FE33214DF2015001F06CFE00214DF2F9
:1029D000025001F067FE34214DF2035001F062FE17
:1029E00000214DF2045001F05DFE3A214DF20550F8
:1029F00001F058FE00214DF2065001F053FE4A212D
:102A00004DF2075001F04EFE00214DF2085001F04A
:102A100049FE5C214DF2095001F044FE00214DF2C7
:102A20000A5001F03FFE81214DF20B5001F03AFEB9
:102A300000214DF20C5001F035FEA6214DF20D5053
:102A400001F030FE00214DF20E5001F02BFEE52189
:102A50004DF20F5001F026FE01214DF2105001F011
:102A600021FE13214DF2115001F01CFE01214DF207
:102A7000125001F017FE54214DF2135001F012FED6
:102A800001214DF2145001F00DFE82214DF215503E
:102A900001F008FE01214DF2165001F003FECA219B
:102AA0004DF2175001F0FEFD02214DF2185001F0D9
:102AB000F9FD00214DF2195001F0F4FD02214DF213
:102AC0001A5001F0EFFD01214DF21B5001F0EAFD1B
:102AD00002214DF21C5001F0E5FD34214DF21D5054
:102AE00001F0E0FD02214DF21E5001F0DBFD6721F7
:102AF0004DF21F5001F0D6FD02214DF2205001F0A1
:102B0000D1FD84214DF2215001F0CCFD02214DF286
:102B1000225001F0C7FDA4214DF2235001F0C2FD67
:102B200002214DF2245001F0BDFDB7214DF2255098
:102B300001F0B8FD02214DF2265001F0B3FDCF2186
:102B40004DF2275001F0AEFD02214DF2285001F068
:102B5000A9FDDE214DF2295001F0A4FD02214DF224
:102B60002A5001F09FFDF2214DF22B5001F09AFD09
:102B700002214DF22C5001F095FDFE214DF22D5019
:102B800001F090FD03214DF22E5001F08BFD10213C
:102B90004DF22F5001F086FD03214DF2305001F02F
:102BA00081FD33214DF2315001F07CFD03214DF2C6
:102BB000325001F077FD6D214DF2335001F072FD7E
:102BC00000214FF4564001F06DFD33214DF20160BC
:102BD00001F068FD00214DF2026001F063FD342137
:102BE0004DF2036001F05EFD00214DF2046001F042
:102BF00059FD3A214DF2056001F054FD00214DF2DE
:102C0000066001F04FFD4A214DF2076001F04AFDD8
:102C100000214DF2086001F045FD5C214DF2096094
:102C200001F040FD00214DF20A6001F03BFD8121E1
:102C30004DF20B6001F036FD00214DF20C6001F009
:102C400031FDA6214DF20D6001F02CFD00214DF269
:102C50000E6001F027FDE5214DF20F6001F022FD2D
:102C600001214DF2106001F01DFD13214DF21160A4
:102C700001F018FD01214DF2126001F013FD542105
:102C80004DF2136001F00EFD01214DF2146001F0D0
:102C900009FD82214DF2156001F004FD01214DF284
:102CA000166001F0FFFCCA214DF2176001F0FAFC3A
:102CB00002214DF2186001F0F5FC00214DF219607F
:102CC00001F0F0FC02214DF21A6001F0EBFC012151
:102CD0004DF21B6001F0E6FC02214DF21C6001F098
:102CE000E1FC34214DF21D6001F0DCFC02214DF2CB
:102CF0001E6001F0D7FC67214DF21F6001F0D2FC8D
:102D000002214DF2206001F0CDFC84214DF22160C2
:102D100001F0C8FC02214DF2226001F0C3FCA421A5
:102D20004DF2236001F0BEFC02214DF2246001F05F
:102D3000B9FCB7214DF2256001F0B4FC02214DF23F
:102D4000266001F0AFFCCF214DF2276001F0AAFC14
:102D500002214DF2286001F0A5FCDE214DF2296030
:102D600001F0A0FC02214DF22A6001F09BFCF2214F
:102D70004DF22B6001F096FC02214DF22C6001F027
:102D800091FCFE214DF22D6001F08CFC03214DF2EF
:102D90002E6001F087FC10214DF22F6001F082FCC3
:102DA00003214DF2306001F07DFC33214DF23160A2
:102DB00001F078FC03214DF2326001F073FC6D21CB
:102DC0004DF2336001F06EFC5521184601F06AFCAB
:102DD000AA21284601F066FC5221304601F062FC2F
:102DE0000821384601F05EFC0021484601F05AFCFB
:102DF000CC21584601F056FC00214BF2011001F0A5
:102E000051FC0521504601F04DFC70214FF4374034
:102E100001F048FC70214BF2017001F043FC0121EC
:102E20004FF4384001F03EFC03214BF6010001F065
:102E300039FC03214BF6020001F034FC03214BF670
:102E4000030001F02FFC02214FF43C4001F02AFC6A
:102E500000214BF6014001F025FC00214BF6024019
:102E600001F020FCD0214FF4494001F01BFC02216D
:102E70004CF6011001F016FC50214CF6021001F046
:102E800011FC50214CF6031001F00CFC50214CF6C3
:102E9000041001F007FC00214FF4545001F002FC33
:102EA00055214FF4685001F0FDFB4FF4885020800D
:102EB000782002F077F94FF424502080FDE3A0F54C
:102EC00013414FF480764FF4E06940F2022B4FF447
:102ED000274A253924D040F20777C91E7ED04FF407
:102EE000887A08317BD011397AD0A0F5A841083909
:102EF00077D0A0F5A8514FF4407A053972D0B1F5DA
:102F0000204170D0B1F580516ED0A0F58A413139A1
:102F10006BD0091F6AD0A0F5C851633967D0CDE7DF
:102F200047F6F001E52001F0BDFB3146012001F03C
:102F3000B9FB4946022001F0B5FB41F23001032004
:102F400001F0B0FB0021042001F0ACFB5946082041
:102F500001F0A8FB0021092001F0A4FB00210A20B8
:102F600001F0A0FB00210C2001F09CFB00210D20B2
:102F700001F098FB00210F2001F094FB00211020AC
:102F800001F090FB0721112001F08CFB00211220A1
:102F900001F088FB0021132001F084FB00210720B1
:102FA00001F080FB41F29061102001F07BFB40F2C8
:102FB0002721112001F076FB9D21122001F072FBE8
:102FC0004FF4C851132001F06DFB2521292001F099
:102FD00069FB0D212B2001F065FB09E077E033E16F
:102FE000D8E1AEE24AE3FDE3FDE3FDE3FDE3FDE30B
:102FF0000721302001F056FB40F20331312001F06F
:1030000051FB0321322001F04DFB40F20621352017
:1030100001F048FB0821362001F044FB40F2064154
:10302000372001F03FFB4FF44171382001F03AFBAB
:103030000721392001F036FB40F202613C2001F00B
:1030400031FB08213D2001F02DFB0021502001F033
:1030500029FBEF21512001F025FB0021522001F036
:1030600021FB40F23F11532001F01CFB5146602030
:1030700001F018FB0121612001F014FB00216A20FE
:1030800001F010FB0021802001F00CFB00218120C9
:1030900001F008FB0021822001F004FB00218320C5
:1030A00001F000FB0021842001F0FCFA00218520C2
:1030B00001F0F8FA1021902001F0F4FA4FF4C06109
:1030C000922001F0EFFA40F233110720FDE341F2C4
:1030D0008F01EC2001F0E6FA41F23421EF2001F0FB
:1030E000E1FA3146012001F0DDFA4946022001F003
:1030F000D9FA41F23001032001F0D4FA0021042072
:1031000001F0D0FA5946082001F0CCFA002109203C
:1031100001F0C8FA00210A2001F0C4FA01210C20B4
:1031200001F0C0FA00210D2001F0BCFA00210F20AF
:1031300001F0B8FA0021102001F0B4FA07211120A3
:1031400001F0B0FA0021122001F0ACFA00211320A6
:1031500001F0A8FA0121072001F0A4FA322002F0C0
:103160000DF841F29041102001F09CFA40F2272125
:10317000112001F097FA322002F000F88A21122083
:1031800001F090FA322001F0F9FF4FF4D0511320F2
:1031900001F088FA0621292001F084FA0D212B2064
:1031A00001F080FA322001F0E9FF0021202001F037
:1031B00079FA0021212001F075FA322001F0DEFFBA
:1031C0000021302001F06EFA40F20461312001F05C
:1031D00069FA40F20531322001F064FA002135200D
:1031E00001F060FA40F60941362001F05BFA4FF435
:1031F0000171372001F056FA40F20131382001F018
:1032000051FA3946392001F04DFA00213C2001F0F5
:1032100049FA40F60A213D2001F044FA322001F03B
:10322000ADFF0021502001F03DFAEF21512001F0C7
:1032300039FA0021522001F035FA40F23F115320B3
:1032400001F030FA514651E10021084601F02AFA16
:103250003146012001F026FA4946022001F022FA07
:1032600041F23001032001F01DFA0021042001F099
:1032700019FA5946082001F015FA0021092001F039
:1032800011FA00210A2001F00DFA01210C2001F0B1
:1032900009FA00210D2001F005FA00210F2001F0AC
:1032A00001FA322001F06AFF40F20111072001F01B
:1032B000F9F9322001F062FF4FF48651102001F03D
:1032C000F1F90721112001F0EDF953465146122082
:1032D00001F0E8F94FF43061132001F0E3F9002127
:1032E000292001F0DFF944F210012B2001F0DAF976
:1032F0000021502001F0D6F9EF21512001F0D2F940
:103300000021522001F0CEF940F23F11532001F08C
:10331000C9F94FF41C51602001F0C4F9012161206A
:1033200001F0C0F900216A2001F0BCF900218020E1
:1033300001F0B8F90021812001F0B4F900218220C8
:1033400001F0B0F90021832001F0ACF900218420C4
:1033500001F0A8F90021852001F0A4F910219020A6
:1033600001F0A0F90021922001F09CF901219320A5
:1033700001F098F91946952001F094F90021972061
:1033800001F090F90021982001F08CF940F27311BE
:10339000072085E341F21401E72001F083F931466B
:1033A000012001F07FF94FF40071022001F07AF959
:1033B00041F23801032001F075F95946082001F067
:1033C00071F90021092001F06DF900210A2001F0B6
:1033D00069F900210C2001F065F900210D2001F0B0
:1033E00061F900210F2001F05DF90021102001F0AA
:1033F00059F90721112001F055F90021122001F09F
:1034000051F90021132001F04DF9C82001F0B6FE5A
:1034100041F29061102001F045F940F2272111207E
:1034200001F040F9322001F0A9FE0C21122001F038
:1034300039F9322001F0A2FE4FF40061132001F0AF
:1034400031F91121292001F02DF90B212B2001F058
:1034500029F9322001F092FE0021202001F022F90A
:1034600040F23F131946212001F01CF900213020C1
:1034700001F018F94FF483742146312001F012F95C
:103480000021322001F00EF94FF40171352001F0D6
:1034900009F941F20A61362001F004F93946372072
:1034A00001F000F92146382001F0FCF839463920B6
:1034B00001F0F8F840F202413C2001F0F3F840F648
:1034C0000F413D2001F0EEF80021502001F0EAF814
:1034D000EF21512001F0E6F80021522001F0E2F83E
:1034E0001946532001F0DEF84FF41C51602001F022
:1034F000D9F80121612001F0D5F800216A2001F0FE
:10350000D1F80021802001F0CDF80021812001F0C8
:10351000C9F80021822001F0C5F80021832001F0C4
:10352000C1F80021842001F0BDF80021852001F0C0
:10353000B9F81021902001F0B5F84FF4C061922045
:10354000FDE33146012001F0ADF84946022001F0CB
:10355000A9F841F23001032001F0A4F80021042071
:1035600001F0A0F840F20721082001F09BF80021AB
:10357000092001F097F800210A2001F093F80021BA
:103580000C2001F08FF800210D2001F08BF80021B4
:103590000F2001F087F8142001F0F0FD41F2B06136
:1035A000102001F07FF80121112001F07BF80121AA
:1035B000172001F077F84FF49C71122001F072F897
:1035C0004FF40061132001F06DF80921292001F06A
:1035D00069F809212A2001F065F80021A42001F0F2
:1035E00061F80021502001F05DF8EF21512001F039
:1035F00059F80021522001F055F840F23F115320B4
:1036000001F050F84FF41C51602001F04BF80121FB
:10361000612001F047F800216A2001F043F8002101
:10362000802001F03FF80021812001F03BF80021CB
:10363000822001F037F80021832001F033F80021C7
:10364000842001F02FF80021852001F02BF81321B0
:10365000902001F027F80021922001F023F80321A7
:10366000932001F01FF85146952001F01BF840F21D
:103670007311072001F016F8322010E10021072015
:1036800001F010F8322001F079FD4FF48E71122014
:1036900001F008F80121A42001F004F80F2108200E
:1036A00001F000F808210A2000F0FCFF08210D209D
:1036B00000F0F8FF3946302000E072E300F0F2FF3E
:1036C0000721312000F0EEFF40F20361322000F0CC
:1036D000E9FF4C464946332000F0E4FF59463420C8
:1036E00000F0E0FF0221352000F0DCFF41F60F7111
:1036F000362000F0D7FF3946372000F0D3FF0021F5
:10370000382000F0CFFF0021392000F0CBFF3946F0
:103710003A2000F0C7FF00213B2000F0C3FF072143
:103720003C2000F0BFFF00213D2000F0BBFF322015
:1037300001F024FD0121072000F0B4FF0121172032
:1037400000F0B0FF322001F019FD4FF4BD51102000
:1037500000F0A8FF40F21721112000F0A3FF4FF462
:103760008F71122000F09EFF4FF47061132000F063
:1037700099FF00212A2000F095FF0A21292000F05E
:1037800091FF4FF49F71122000F08CFF0021502018
:1037900000F088FFEF21512000F084FF002152202B
:1037A00000F080FF40F23F11532000F07BFF4FF408
:1037B0001C51602000F076FF0121612000F072FFB3
:1037C00000216A2000F06EFF0021802000F06AFFD7
:1037D0000021812000F066FF0021822000F062FFBE
:1037E000002104E05EE05CE125E2DBE282E383208D
:1037F00000F058FF0021842000F054FF00218520B4
:1038000000F050FF1321902000F04CFF5146922011
:1038100000F048FF0521932000F044FF002195208F
:1038200000F040FF0021972000F03CFF002198208D
:1038300000F038FF3146012000F034FF214602201D
:1038400000F030FF41F23801032000F02BFF00218F
:10385000042000F027FF00210C2000F023FF0021AE
:103860000F2000F01FFF0021202000F01BFF00218F
:10387000212000F017FF2121072000F013FF142062
:1038800001F07CFC6121072000F00CFF142001F006
:1038900075FC40F27311072000F004FF142001F0C2
:1038A0006DFCA1E30021084600F0FCFE0021084663
:1038B00000F0F8FE0021084600F0F4FE0021084662
:1038C00000F0F0FE0121A42000E0E5E000F0EAFEB7
:1038D000142001F053FC4FF41C542146602000F0EA
:1038E000E1FE5D465946082000F0DCFE4FF405710C
:1038F000302000F0D7FE43F21571312000F0D2FEE7
:1039000040F20461322000F0CDFE40F61661332013
:1039100000F0C8FE42F21121342000F0C3FE4FF443
:10392000A851352000F0BEFE48F20751362000F0C5
:10393000B9FE41F20741372000F0B4FE41F20341E5
:10394000382000F0AFFE2021392000F0ABFE1A2114
:10395000902000F0A7FE0021102000F0A3FE072118
:10396000112000F09FFE0021122000F09BFE00219C
:10397000132000F097FE142001F000FC4FF4E661E4
:10398000102000F08FFE40F23711112000F08AFE67
:10399000142001F0F3FB4FF4DC71122000F082FEE2
:1039A000142001F0EBFB4FF47061132000F07AFE5D
:1039B00080212A2000F076FE4821292000F072FEA6
:1039C000142001F0DBFB3146012000F06BFE49467C
:1039D000022000F067FE41F23801032000F062FE91
:1039E0002946082000F05EFE00210A2000F05AFE61
:1039F00000210C2000F056FE00210D2000F052FEA8
:103A000030210E2000F04EFE0021502000F04AFE32
:103A1000EF21512000F046FE0021522000F042FE2E
:103A200040F23F11532000F03DFE2146602000F09F
:103A300039FE0121612000F035FE00216A2000F0EE
:103A400031FE1121902000F02DFE4FF4C061922034
:103A500000F028FE40F20241932000F023FE0221F4
:103A6000942000F01FFE142001F088FB01210720A4
:103A700000F018FE142001F081FB6121072000F006
:103A800011FE40F27311072000F00CFE00212020EF
:103A900000F008FE0021212000F004FE2221002079
:103AA0007DE10021084600F0FDFD0021084600F000
:103AB000F9FD142001F062FB0021084600F0F2FD40
:103AC0000021084600F0EEFD0021084600F0EAFD66
:103AD0000021084600F0E6FD0121A42000F0E2FDEF
:103AE000142001F04BFB4FF41C51602000F0DAFD74
:103AF00040F60601082000F0D5FD40F20373194698
:103B0000302000F0CFFD0121312000F0CBFD042159
:103B1000322000F0C7FD4FF48171332000F0C2FD68
:103B200054465146342000F0BDFD40F203113520CB
:103B300000F0B8FD1F21362000F0B4FD19463720F3
:103B400000F0B0FD0121382000F0ACFD0421392047
:103B500000F0A8FD1521902000F0A4FD4FF4826133
:103B6000102000F09FFD40F24721112000F09AFD47
:103B70004FF4DE71122000F095FD4FF460611320C8
:103B800000F090FD782001F0F9FA3146012000F0B4
:103B900089FD4FF40071022000F084FD41F23001F4
:103BA000032000F07FFD08210A2000F07BFD0021AA
:103BB0000C2000F077FD20210E2000F073FD002185
:103BC0000F2000F06FFD0021202000F06BFD002190
:103BD000212000F067FD3D212A2000F063FD142024
:103BE00001F0CCFA2D21292000F05CFD00215020AD
:103BF00000F058FD4DF2EF01512000F053FD00217F
:103C0000522000F04FFD40F23F11532000F04AFDDA
:103C10000021612000F046FD00216A2000F042FDF5
:103C20002146922000F03EFD0521932000F03AFD50
:103C30003146FFF7ADBB0121002000F033FD0A2023
:103C400001F09CFA41F22861102000F02BFD0E21BA
:103C5000122000F027FD40F63921132000F022FD4C
:103C60000A2001F08BFA4021112000F01BFD5021A9
:103C7000152000F017FD0A2001F080FA1E21122005
:103C800000F010FD0A2001F079FA4FF4B151102034
:103C900000F008FD42F63921132000F003FD0A2050
:103CA00001F06CFA3146012000F0FCFC5146022084
:103CB00000F0F8FC41F23801032000F0F3FC594613
:103CC000082000F0EFFC08210A2000F0EBFC0021A6
:103CD000302000F0E7FC40F20241312000F0E2FC2D
:103CE0004FF48371322000F0DDFC40F203513320A9
:103CF00000F0D8FC4FF48271342000F0D3FC40F285
:103D00000131352000F0CEFC3946362000F0CAFCE7
:103D100040F20531372000F0C5FC4FF40271382025
:103D200000F0C0FC40F60B71392000F0BBFC022112
:103D3000412000F0B7FC4FF41C51602000E0D4E0BB
:103D400000F0B0FC0121612000F0ACFC4FF40471E4
:103D5000902000F0A7FC4FF48571922000F0A2FCA7
:103D60000421932000F09EFC3146A02000F09AFC34
:103D70000121072000F096FC2121072000F092FC91
:103D80002321072000F08EFC3321072000F08AFC5D
:103D900040F23311072000F085FC0021A02000F044
:103DA00081FC21E13021152000F07CFC10219A20BB
:103DB00000F078FC2021112000F074FC43F228412F
:103DC000102000F06FFC0221122000F06BFC41F289
:103DD0003801132000F066FC282001F0CFF91221F1
:103DE000084600F05FFC282001F0C8F943F22041AA
:103DF000102000F057FC43F23801132000F052FC71
:103E0000462001F0BBF90021302000F04BFC40F2CD
:103E10000241312000F046FC40F20731322000F030
:103E200041FC4FF44171332000F03CFC042134206C
:103E300000F038FC40F20141352000F033FC3946F7
:103E4000362000F02FFC40F20531372000F02AFC2C
:103E50004FF4C2631946382000F024FC194639207B
:103E600000F020FC3146012000F01CFC51460220ED
:103E700000F018FC41F23001032000F013FC40F682
:103E80000801082000F00EFC08210A2000F00AFCBE
:103E90004FF41C51602000F005FC0121612000F06E
:103EA00001FC4FF49F71902000F0FCFB3146922002
:103EB00000F0F8FB3146932000F0F4FB4FF4405142
:103EC000A02000F0EFFB1021A32000F0EBFB01216C
:103ED000072000F0E7FB2121072000F0E3FB23216E
:103EE000072000F0DFFB3321072000F0DBFB40F26E
:103EF00033119EE6E22020801D20288002202880A9
:103F000004202880642001F04DF9E0202080012069
:103F100028800A2001F032F9E02020800320288048
:103F20000C2001F02BF9012020800A2001F026F955
:103F3000E62020802F202880FF2028802880B020A5
:103F4000208020202880002028800320288040F224
:103F50001F3028800120288040F2DF1028800020B8
:103F60002880B42020800420288040F21F40288030
:103F7000002028802E20288000202880288028806B
:103F80002880B6202080022028804FF403702880EB
:103F900000202880172028801520288000202880D5
:103FA0002880F02020800320288029202080D02015
:103FB000208000202880BE20208005202880FE2030
:103FC0002880012028800020288028802880B82090
:103FD00020800320288001202880BA202080012012
:103FE0002880642000F02CF80020FCF771FF0449C1
:103FF0000120C1F880014046BDE8F05FFCF732BF08
:10400000008021420346012000E05843491EC9B206
:10401000FBD27047034808B50088ADF80000BDF832
:10402000000008BD0008006C044910B50880052098
:1040300001F0B8F8BDE81040FFF7ECBFFE07006CD8
:104040000C4A10B5BE211180941C0521218001F07D
:1040500018FA4FF06632084B01F026FA01F0E4F945
:10406000208001202080FF202080002020802080D0
:1040700010BD0000FE07006C66660440F0B5674E98
:1040800000233146B279898846F6040741F6631465
:10409000012A01D02AB11DE0B9421BD0A14202D1B0
:1040A00018E0A14216D1082814D2DFE800F0040677
:1040B000080A0C0E101206200CE007200AE004206B
:1040C00008E0052006E0012004E0002002E00320D3
:1040D00000E00220A1F5134C45F2103245F21055D4
:1040E000BCF1410C07D0B94205D0914203D0A9429E
:1040F00001D0A14275D1082812D2DFE800F01104E6
:1041000006080A0C0E1080230AE0402308E0C023B2
:1041100006E0202304E0602302E0A02300E0E02387
:10412000A94202D14FF4585000E03620914205D008
:10413000A94203D0A14201D043F00803B94201D102
:1041400043F00203194600F0ADFAB288A2420AD049
:1041500098063088718802D5884202D303E08842ED
:1041600001D9318070802E48811CAA427289028058
:1041700021D100230B80531C038000230B80931C50
:10418000038033885B1E1C0A0C80D21C0280DAB2CA
:104190000A80B289028000230B80531C0380002315
:1041A0000B80931C038073885B1E1C0A0C80D21C3E
:1041B0000280D8B212E000220A800A803288521EA1
:1041C000130A0B80D2B20A80B289028000200880D4
:1041D00008807088401E020A0A80C0B20880F0BDC4
:1041E000FFE7082812D2DFE800F0040608110A0CE5
:1041F0000E1030230AE0102308E0202306E03823C5
:1042000004E0282302E0182300E00823BDE8F04082
:10421000032043F4805100F045BA00002400002040
:10422000FE07006C2DE9F04F4E4F0B463A46BD8815
:104230000C0ADFF834B191895289A5F513464FEA8B
:10424000102C0BF1020A413E1DD0A5F5A646103EEA
:1042500019D03E46BE4696F806903688A5F5D0475A
:10426000A6EB0008A8F10108043F17D0A5F5C85730
:10427000633F28D0A5F5AA477646103F51D0B9F143
:10428000010F63D064E0ABF800205246AAF800C0EA
:10429000C0B2AAF80000ABF800100FE0B9F1010FAE
:1042A00001D11FFA88F0ABF80020050A5246AAF89F
:1042B0000050C0B2AAF80000ABF800101480D8B2C9
:1042C0001080BDE8F08FB9F1000F1BD0ABF80020D3
:1042D0005246AAF800C0C0B2AAF80000761E300A02
:1042E000AAF80000F0B21080ABF80010114614805C
:1042F000D8B21080BEF80200401E020A0A80C0B286
:104300000880DEE71FFA88F0ABF80020002652464E
:10431000AAF80060AAF80060060AAAF80060C0B215
:10432000E1E7ABF80020AAF800C0521CABF800206F
:10433000C0B2AAF80000ABF80010AAF80040491C6F
:10434000ABF80010D8B2AAF80000BAE71FFA88F05C
:104350000146104600F0A6F9B089BDE8F04F1946B5
:1043600000F0A0B924000020FE07006C2DE9FC4FEE
:10437000044691464844401E86B2C818401E83B287
:10438000009004EB0900401EC0F3072EDFF850C177
:1043900000980D46C0F3072B6046BCF804204FEA96
:1043A000112881894089A2F513474FEA142A413F19
:1043B00010D0A2F5A647103F0CD0A2F5D047043F7D
:1043C00008D09CF8067041F6631C0197012F13D1A9
:1043D000624511D1434F3880B81CA0F800A0E2B26A
:1043E0000280A0F800E0F2B202803980A0F80080DC
:1043F000E9B2018059461CE0394F62453F881DD122
:10440000A7EB0902121B374C009B92B29BB2208093
:10441000160AA01C0680D6B206804A44521E160A0E
:104420000680D2B202802180A0F80080E9B201802B
:10443000190A0180D9B20180BDE8FC8FA2F5A04C19
:10444000BCF5A26C1FD0019801283FD0B046214690
:104450002E4650204FF0510A4FF05209532700F0DA
:1044600021F94146504600F01DF93146484600F01A
:1044700019F91946384600F015F929462046BDE8D5
:10448000FC4FFFF7CFBE174A1080971CA7F800A07B
:1044900000F1010CA2F800C0E4B23C80841C14803E
:1044A000A7F800E0C01C1080F0B238801180A7F897
:1044B0000080481C1080E8B23880881C1080A7F863
:1044C00000B0C91C1180D8B23880B5E7B81B401EB7
:1044D00086B2381B9846401E294683B2B9E70000D1
:1044E00024000020FE07006C2DE9F84F82461F468D
:1044F0000C468B46580700D0012000EBD700790806
:104500004843203AC0B202F0FF090026009041E083
:104510000C2F10D0102F12D0182F3ED1204909EBAC
:10452000C90001EB80004FF00008855D28060AD520
:104530001C4802880BE009EB49001B49F1E71B49C5
:1045400001EB0910EFE70A9828B91648428821467E
:104550005046FCF757FD6806050E1548641CA4B2CA
:104560004088A04219D9A4EB0B00B84209D10AF146
:1045700001001FFA80FA0E485C46018851450CD9AB
:1045800006E008F1010000F0FF08B8F1080FCDD3F4
:10459000761CF6B200988642BAD3BDE8F88F0000C8
:1045A000366600081C000020D25B00084660000848
:1045B000240000202DE9F84F044600F0FF081019F0
:1045C0000D46DDE90A761FFA80FA58191FFA80F9BC
:1045D0004FF0000B11E0544502D3E819444685B270
:1045E0004D450FD23B4629462046CDF800B0FFF797
:1045F0007BFF04EB570084B2761C3278A2F12000D6
:104600005E28E8D9BDE8F88F2DE9FF4F81B08046DC
:10461000DDF83CA00E984FF000091F4693464C462B
:104620000AF0010546082BE0381B401EC1B20A20E3
:10463000FFF7E8FCBBFBF0F00A21B0FBF1F201FB55
:104640001200B9F1000F05D1791E8C4202DA48B18F
:104650004FF001093030C2B206FB048080B20095F1
:104660000E9B08E05FEA0A6006FB04800E9B80B2A6
:1046700000950AD530220299FFF736FF641CE4B298
:10468000BC42D1D305B0BDE8F08F2022F3E7000093
:104690000248034900890880704700002400002078
:1046A000FE07006C024A1080901C018070470000D9
:1046B000FE07006C1048816941F0040181610F48D8
:1046C00001680F4A1140016001680E4A1143016000
:1046D0000A480C30016841F004010160016841F0B2
:1046E00008010160016841F010010160016841F0BA
:1046F00020010160704700000010024000080140E6
:10470000FF0000FF003333000F4800210161C1604A
:10471000142242618161C161026842F001020260BB
:1047200042680A4B1A4042600268094B1A40026014
:10473000026822F480220260426822F4FE02426093
:104740008160C00300F03EB8001002400000FFF896
:10475000FFFFF6FEF0B5064614460F461D46184606
:1047600000F01EF8C5F1040086400F21E9403940F1
:1047700031436009800000F1E020D0F8002104F00E
:104780001F050123AB401A43C0F8002104F1E024C7
:1047900094F8000440EA011084F80004F0BD000021
:1047A000064A0721814310684FF6FF031840044B67
:1047B000184340EA01201060704700000CED00E053
:1047C0000000FA05024A11400143024801607047A7
:1047D00080FFFF1F08ED00E010B5001D092815D26D
:1047E000DFE800F01F1D12100E0C0A07050048211B
:1047F00000E03821062409E02821FBE71821F9E729
:104800000821F7E7082100E018210E249B2000F082
:10481000C3FB2146BDE81040AB2000F0BDBB282102
:10482000F3E73821F1E710B5011D08290BD8040181
:104830004034E1B2A72000F0AFFBE1B2BDE8104088
:10484000A82000F0A9BB10BD011D082906D8202111
:1048500001EB8000C1B29C2000F09EBB70470000BD
:1048600070B54D480024816941F00401816181697E
:1048700041F008018161816941F010018161816924
:1048800041F020018161816941F480718161434877
:10489000016821F00F010160016841F00801016029
:1048A0003E480830016841F4807101603C4801686D
:1048B00021F47F210160016841F44C3101603848E6
:1048C0000C30016841F01801016036484FF0883122
:1048D0000160C16841F0FF01C1603348016821F007
:1048E00070610160016841F0407101602E480C3038
:1048F000016841F0400101602C48416821F07F418E
:104900004160416841F04C5141604FF4E031C16079
:104910000120FCF767FA00F00BFA8021122000F06A
:104920003BFB08B1012070BD322000F027FC1C20A9
:1049300000F08EFA4FF6FF7505EA00261D2000F004
:1049400087FA40EA0601A1F5FE40A23803D018A07C
:10495000FBF760FCE6E70A2000F07AFA05EA00259A
:104960000B2000F075FA40EA0501A1F5EE40213870
:1049700004D012A0FBF74EFC022070BD124D05EBD7
:104980004400417815F8140000F006FB641CA4B242
:10499000412CF4D3002070BD0010024004080140F7
:1049A000000C0140001001400014014000200140B3
:1049B0004D49443A25640D0A000000004849443A34
:1049C00025640D0A000000009273000810B5062847
:1049D00047D2DFE800F003061D27313CFF211320FA
:1049E00009E0FD21132000F0D7FA5A21012000F040
:1049F000D3FA5C2129E000F0CFFA65210E2000F007
:104A0000CBFA00212D2000F0C7FA00212E2024E04F
:104A1000FD21132000F0C0FA5821012000F0BCFA5B
:104A2000602112E0FD21132000F0B6FA842101205C
:104A300000F0B2FA4C2108E0FD21132000F0ACFA9E
:104A40009621012000F0A8FA40210220D3E7FF219F
:104A5000132000F0A1FAE5210E20BDE8104000F07F
:104A60009BBA10BD10B5072840D2DFE800F004065D
:104A700009131D273100062103E04621A62031E05D
:104A80002621A62000F088FA8021602000F084FA18
:104A9000802126E01E21A62000F07EFA80216020E1
:104AA00000F07AFAC0211CE01E21A62000F074FA62
:104AB0006021084600F070FA602112E01E21A62055
:104AC00000F06AFAA021602000F066FA402108E0B8
:104AD0001E21A62000F060FA4021602000F05CFA60
:104AE000A0216120BDE8104000F056BA10BD2DE9AC
:104AF000F0470C4605464AB3C5F5207000EBD07070
:104B0000C0F34F07C4F5F07000EBD070C0F34F0650
:104B10000621122000F040FA2321172000F03CFA71
:104B2000A021182000F038FA0721192000F034FAEB
:104B3000F0211A2000F030FA0021322000F02CFA87
:104B4000A021292000F028FAF02128E0C5F5A07066
:104B500000EBD070C0F34F07C4F1F00000EBD07051
:104B6000C0F34F064621122000F016FA3F2117200D
:104B700000F012FA5021182000F00EFA032119203B
:104B800000F00AFA78211A2000F006FA00213220FB
:104B900000F002FA5021292000F0FEF978212C20A3
:104BA00000F0FAF9172000F053F900EB9700C1B2BA
:104BB000172000F0F1F9C5F387018A46182000F0AC
:104BC000EBF9192000F044F900EB5600C1B21920AE
:104BD00000F0E2F9C4F3470189461A2000F0DCF93D
:104BE000322000F035F98046F007400E07F003014F
:104BF00004F0010640EA011040EA860105F00304D2
:104C0000214341EA0801322000F0C6F9514629202B
:104C100000F0C2F949462C2000F0BEF92A2000F02D
:104C200017F944EA080444EA8601BDE8F0472A205F
:104C300000F0B2B92DE9F05FDFF8D8B09BF80000C2
:104C4000002865D00420FFF719FA334C4FF4A07503
:104C5000F02320886188A0F5A070F03901EBD171B4
:104C600000EBD070C1F34F01C0F34F002A46FFF7AD
:104C70007DFBA088A0F5C851633910D120886188D8
:104C8000A0F5A070F03901EBD17100EBD070C1F349
:104C90004F01C0F34F002B46F022FFF767FBFFF7F1
:104CA000F7FC1E484FF0000AC0F8B8A11C4E1021B6
:104CB0003160371F396031600122C0F8B821396096
:104CC000A946184DDFF8608054464FF6FF73002068
:104CD0003160AA68396003EA02223160D5F808C061
:104CE00039600CF0FF0C4CEA020CA8F800C0401C24
:104CF0004845EDD3641CF02CE9D30C488BF800A098
:104D00000178491C0170BDE8F05F0020FFF7B6B9DB
:104D1000BDE8F09F20000020240000200000244275
:104D2000140C0140001001400008006C210000201C
:104D30001648816941F480718161816941F02001E7
:104D400081611348416821F470014160416841F478
:104D500000014160C16841F40051C1600D490A6819
:104D600022F470420A600A6842F440520A6009491B
:104D70000C310A6842F008020A60416821F47001AF
:104D80004160416841F440114160704700100240A9
:104D9000002001400014014070B5322000F002FAFA
:104DA0000C4D0120C5F8B4010B4EC6F88C01322021
:104DB00005F5DA7506F5C67600F0F4F900243460DE
:104DC000322000F0EFF92C60BDE87040322000F096
:104DD000E9B9000000002442008022422DE9F0479A
:104DE000184F0024786820F470007860786840F4E8
:104DF00000007860DFF85090144E08254FF001084D
:104E0000A246322000F0CEF9C6F88C816006040E6E
:104E1000D9F8340108B1641CE4B2322000F0C2F9C0
:104E2000C6F88CA16D1E15F0FF05EAD1786820F454
:104E300070007860786840F4401078602046BDE8E3
:104E4000F087000000200140000024420080224240
:104E500010B5044600F022F8422000F055F8642016
:104E600000F0A0F9204600F04FF8642000F09AF915
:104E700000F02EF8642000F095F900F00FF84320C0
:104E800000F042F8642000F08DF9FFF7A7FF044618
:104E9000FFF782FF00F01CF8204610BD70B50A4EE7
:104EA0000120C6F8B401094DC5F88C01322005F582
:104EB000C67506F5DA7600F075F900243460322004
:104EC00000F070F92C6070BD000024420080224286
:104ED00070B50B4C0020C4F8B401322004F5DA742C
:104EE00000F060F907480125C0F88C51322000F02D
:104EF00059F92560BDE87040322000F053B9000038
:104F000000002442008022422DE9F04700241F4E79
:104F10001F4F0546A0464FF00109280601D5484617
:104F200000E04046C6F8B4016806050E322000F0E5
:104F300039F9C7F88C91322000F034F9C7F88C8128
:104F4000641CE4B2082CE8D3124C606820F47000B2
:104F50006060606840F400006060322000F022F978
:104F6000C7F88C91322000F01DF9D6F8340100B159
:104F70000120C7F88C81616821F47001616061686B
:104F800041F440116160BDE8F08700000000244258
:104F9000008022420020014070B50D4606460024E4
:104FA000FFF77CFF4220FFF7AFFF00B10124642030
:104FB00000F0F8F83046FFF7A7FF00B101246420A5
:104FC00000F0F0F82846FFF79FFF00B10124FFF73B
:104FD0007FFF204670BD000030B505460024FFF776
:104FE00093FB1649086840F4803008600868400C5C
:104FF000FCD04FF480604860AD1E4A68E8B242EAD7
:1050000080404860486840F4803048600C4802683E
:1050100042F032020260086840F080700860086860
:10502000400EFCD0486840F00200486002E048684A
:10503000C0F38104022CFAD130BD00000010024000
:105040000020024003480188018821F0010101800D
:105050007047000010040040174A936943F00403AE
:105060009361D36943F00203D361144A136823F0B8
:1050700070631360136843F030631360104A10804C
:10508000101F01800E481438018841F06001018032
:10509000018841F00801018009480C38018841F07D
:1050A00001010180064880212C380180018841F0EF
:1050B000010101807047000000100240000801401B
:1050C0002C040040094A108AC0070AD00848094940
:1050D000002303700878401CC0B20870042800D375
:1050E0000B70108A20F00100108270470010004001
:1050F00021000020020000200A4AD36943F0100377
:10510000D361094A90851185908940F00100908112
:10511000108840F001001080022336220321012074
:10512000FFF718BB0010024000100040054801883E
:10513000890605D5011D0988034A117000210180E7
:105140007047000000380140000000207047000058
:105150004FF0E0210A6922F004020A610649C00802
:1051600000EB40020870C2EBC0104FF6FF7202EA7B
:10517000C00048807047000012000020084949889C
:1051800048434FF0E021486100238B610120086112
:105190000869C20701D0C003FAD50B618B61704763
:1051A000120000200849097848434FF0E021486187
:1051B00000238B61012008610869C20701D0C00388
:1051C000FAD50B618B6170471200002004490A88F0
:1051D0005206FCD5024AC1B2121D11807047000070
:1051E000003801401CB50920FFF7F6FE4FF41651B8
:1051F000482000F0C1F84820FFF7AAFFFFF75AFA4D
:10520000FBF704FEFBF7D2FFFBF7C2FAFBF766F9E8
:1052100041F61F463146C820FFF71EFF39494FF4BB
:1052200078401024088038A0CDE900402346C822E9
:1052300046211E20FFF7BEF938A0CDE9004010231B
:10524000C8226E211E20FFF7B5F937A0CDE9004036
:105250001023C82282211E20FFF7ACF94FF6FF75FC
:10526000FFF7FEFAB0B136A0CDE900401023C82206
:10527000E6211E20FFF79EF9C820FFF77FFFF623E7
:10528000EF22E6211E200095FBF74AFFC820FFF71A
:1052900075FFE5E7304F0120102338712FA0CDE9CD
:1052A0000040C822E6211E20FFF784F9387AFFF774
:1052B0008DFB97F90500FFF7B6FA97F90600FFF79F
:1052C0008BFA97F90700FFF7BFFA787AFFF7CAFB66
:1052D00028490020C1F8BC010246F0214FF4A0701B
:1052E000FFF705FC314642F21070FFF705FFFBF7B0
:1052F000ABFC2846FBF7B6FDFBF740FDFBF766F974
:10530000FAE700001C0000204F56373732355F4F58
:105310005637363730205445535400003230313838
:105320002F352F31320000004F56373732355F4F5F
:10533000563736373020496E69742E2E2E00000005
:105340004F56373732355F4F563736373020457234
:10535000726F722121000000000000204F56373785
:10536000323520496E6974204F4B202020202020A8
:10537000200000000000244270B50446080100F03F
:10538000DBFA05462448604300F0D6FA294600F0CF
:10539000F1F9054600F0B0FA84B2204600F0CCFAEC
:1053A000294600F027FB042100F0D5FB00F0A4FA09
:1053B0004FF6FF7101EA04110A181848816941F09B
:1053C00004018161816941F48041816114490B6864
:1053D00023F47F630B600B6843F40B630B60C168BD
:1053E00041F48041C160C16821F48041C1600D4831
:1053F0000280001D018842F20C02114301800188E5
:1054000041F020010180BDE87040022325220321E4
:105410000846FFF79FB9000040420F00001002400D
:1054200004080140083801404FEA1153A3F5806396
:10543000D3F11E03A8BFD3F1200C08DB4FF00042CC
:1054400042EAC12252EA505232FA03F0704709424E
:105450000BD4102BC4BF0020704703F5787CBCF13F
:10546000FF3F05D04FF0FF3070474FF0000070470E
:1054700070B500F0C3F800BF499224800020704747
:10548000F0E7B0FA80F310FA03F10AD0C3F11D037C
:1054900003F580634FEA41504FEA035202EBD121FA
:1054A00070474FF000007047DFF848C170B51CEA44
:1054B000111E1EBF1CEA13159EEA0C0F95EA0C0F75
:1054C00000F06F8081EA030423EA4C134EEAD47E95
:1054D00021EA4C1141F4801143F48013AE44A1FB46
:1054E000024CA0FB0365AEF17F7E361955EB0C052F
:1054F000A1FB034C4CF10003A0FB021C16EB0C06B5
:10550000654153F10003094218BF46F0010613F448
:10551000007F0BD14FEA03314FEA0530340341EAF3
:10552000155140EA16506FF003020AE04FEAC3211A
:105530004FEAC520F40241EA555140EA56506FF057
:10554000020202EB2E4201EB025585EACE710AD02F
:105550005FEA440C18BF24F0004450F1000041F110
:10556000000120EAD47040F2FE7C624500D270BD9A
:10557000A84214BF4FF080444FF04044002E08BFB3
:105580000024BEF1806FA8BFA1F1C041BDE870400A
:1055900080F282804FF0000001F1C04101F0004133
:1055A00070479EEA0C0F0CEA131518BF95EA0C0F12
:1055B00006D04FF0000081EA030E0EF0004170BDEE
:1055C00000F01CF88900013E00F007B800F009B8AF
:1055D0004FEA430C5FEA5C5C08D081EA030100F00B
:1055E0005BB84FEA410C5FEA5C5CF6D14FF000001B
:1055F000014970470000FF070000F87F0EF1020E1E
:105600002EF0030E5EF8046B364205D4012A43EBFC
:10561000030515F5001F12D8012841EB010C1CF5FC
:10562000001F0CD80ED14FEAD17C15F5001F0CEBF2
:105630004C0C0CF1020C08BF4CEBD37C04E04FF097
:10564000080C01E04FEAD37C0CEB4C0526FA05F67A
:1056500006F00706B6F1040C06D20EEB860CBDE888
:1056600070404CF0010C6047DFE80CF0090B0202BF
:105670004FF000414FF00000A1F5002170BD194628
:105680001046012851EB010418BFD4F5001484BF63
:10569000002001F0004170BD0808A0F500114FEA9C
:1056A0003101704790EA010F48BF81F0004100F1DD
:1056B000B281421A3CBF801A89184FEAD0524FF08B
:1056C0007F4C1CEA410FA2EBD15318BF9CEA026F3A
:1056D00000F03B804FF0004C4CEA00204CEA0121E6
:1056E00021FA03FC10EB0C0C1ED202F1FF325FEA30
:1056F0001C2040EBC25038BF70471CF07F0F4FEAB0
:10570000400C18BFBCF17F4F38BF7047C3F1200376
:10571000994008BF20F00100BCF17F4F38BF7047AF
:10572000A0F1C04000F061B94FEA3C00000A40EB34
:10573000C25028BF1CF0FF0F4FEA400CE6D018BF44
:10574000BCF17F4F38BF7047EAE79CEA026F05D093
:1057500010EA5C0F08BF00F00040704710B500F081
:10576000FEF800BF64FBBE3E014800F0C2B900BFB6
:105770000000C07F4FF47F0C1CEAD0121EBF1CEA51
:10578000D11392EA0C0F93EA0C0F00F0858090EA97
:10579000010F48BF42F4807240F4000C41F4000055
:1057A0002CF07F4120F07F4000B58142A2EB030244
:1057B0000FF2081CACEB504EC0F100009EF800E068
:1057C0004FEA4E0E00FB0EFC38BF49004FEA2C1C7E
:1057D00002F5FA020CFB0EF34FEACE1E4FEA112C33
:1057E0004FEAC1210EEB635E42EB22420EFB0CFC42
:1057F0004FEA1C5300FB03114FEA112C4FEA013111
:105800000EFB0CFC4FEADC4C00FB0C11C14228BF24
:1058100009184CEB03335DF804EB10EB410143EB4B
:10582000C250B2F57C0F38BF704729D512F0F00F87
:105830001CBF00F1C04000F000407047008182832F
:105840008485868788898B8C8D8E8F91929395968F
:1058500097999A9C9D9FA0A2A3A5A7A8AAACAEB019
:10586000B2B3B5B7B9BCBEC0C2C5C7C9CCCED1D41E
:10587000D7D9DCDFE2E6E9ECF0F3F7FAFE0000004E
:105880004FEA400C0CF1807CBCF17E4F28BF704782
:10589000B0F1C04000F0A9B890EA010F0CEAD113B2
:1058A00048BF42F48072624538BF634507D213F4A3
:1058B0007F0F16D080EA010000F00040704710B55D
:1058C00000F04DF8097EFC3E00F005B880EA0100CA
:1058D00000F00040704780EA010000F0004000F056
:1058E00084B812F47F0F04BF0248704780EA0100B9
:1058F00000F07BB80000C07FC10DD1F19E0206DB35
:105900004FEA002343F0004323FA02F070470042BD
:1059100007D54FEA4001B1F1FE4F02D24FF000002F
:10592000704710B500F01BF84992248000207047A2
:105930006FEA200070470000B0FA80F310FA03F21B
:10594000C3F19D030AD0D90501EB1220530638BFDD
:10595000704700F1010008BF20F0010070470EF110
:10596000020E2EF0030E5EF8044B244204D44FEADC
:105970004102B2F17F4F11D84FEA4003B3F17F4F9C
:105980000CD80ED14FEAD07CB2F17F4F0CEB4C0C0F
:105990000CF1020C08BF4CEBD17C04E04FF0080C7A
:1059A00001E04FEAD17C0CEB4C0324FA03F404F041
:1059B0000704B4F1040C06D20EEB840CBDE81040D1
:1059C0004CF0010C6047DFE80CF0070802024FF0D2
:1059D0000040A0F5800010BD0846420018BFD2F17B
:1059E000807288BF00F0004010BDFF2141EAD05016
:1059F000C005704780F0004090EA010F7FF559AE76
:105A000081F0004100F007B890EA010F48BF81F033
:105A100000413FF54EAE421A04D882F00042A0EB9E
:105A2000020011444FEAD0524FF07F4C1CEA410F64
:105A3000A2EBD15318BF9CEA026F4AD04FF0004C42
:105A40004CEA00204CEA012121FA03FCB0EB0C0CDB
:105A50000FD412F0FE0F36D05FEA4C001DD50012B5
:105A600040EBC25038BF70471CF03F0F18BF704763
:105A70000BE0A2F101025FEA1C2040EBC25038BFEC
:105A800070471CF07F0F18BF7047C3F12003994087
:105A900014BF401E20F00100704780084FEA122317
:105AA00008BF7047B0FA80FCA2EB0C02CCF1280CC6
:105AB00060FA0CF093EA122F04BF00EBC25070475B
:105AC0004FEAC3707047130A5FEADC1008BF7047E3
:105AD000F6E79CEA026F04D010EA5C0F08BF0020D2
