:020000040800F2
:1000000088040020D5010008D9010008DB010008A0
:10001000DD010008DF010008E10100080000000028
:10002000000000000000000000000000E3010008E4
:10003000E501000800000000E7010008E9010008F0
:10004000EB010008EB010008EB010008EB010008E0
:10005000EB010008EB010008EB010008EB010008D0
:10006000EB010008EB010008EB010008EB010008C0
:10007000EB010008EB010008EB010008EB010008B0
:10008000EB010008EB010008EB010008EB010008A0
:10009000EB010008EB010008EB010008EB01000890
:1000A000EB010008EB010008EB010008EB01000880
:1000B000EB010008EB010008EB010008EB01000870
:1000C000EB010008EB010008EB010008EB01000860
:1000D000EB01000889530008EB010008EB01000860
:1000E000EB010008EB010008EB010008EB01000840
:1000F000EB010008EB010008EB010008EB01000830
:10010000EB010008EB010008EB010008EB0100081F
:10011000EB010008EB010008EB010008EB0100080F
:10012000EB010008EB010008EB010008EB010008FF
:1001300000F002F800F03FF80AA090E8000C8244BA
:100140008344AAF10107DA4501D100F034F8AFF297
:10015000090EBAE80F0013F0010F18BFFB1A43F0A5
:100160000103184790740000B0740000103A24BFD7
:1001700078C878C1FAD8520724BF30C830C144BF0C
:1001800004680C607047000000230024002500264E
:10019000103A28BF78C1FBD8520728BF30C148BFEA
:1001A0000B607047782900F07180002070471FB500
:1001B0001FBD10B510BD00F021F91146FFF7F7FF84
:1001C00005F07CF900F03FF903B4FFF7F2FF03BC40
:1001D00005F006F908480047FEE7FEE7FEE7FEE700
:1001E000FEE7FEE7FEE7FEE7FEE7FEE70348044919
:1001F000024A044B704700003101000888000020CB
:100200008804002088000020704700000FB40449D3
:1002100010B503AA029800F0C3F810BC5DF814FBF7
:10022000040000202DE9F0410E4604460020206223
:100230002046E168884730B3252805D0D4E901215C
:100240009047206A401CF2E7E16820460027884773
:10025000050018D0A5F14100192802D820354FF427
:1002600000673246294620462760FFF79BFF40B1D2
:10027000012804D0F61D26F007060836D8E7361DFB
:10028000D6E72846DAE7206ABDE8F08170B5044673
:100290000D4621461068AFF300802188090502D57C
:1002A0000F4A7A4402E00E4A7A440E32002104F1E9
:1002B000240305E000F00F060009965D5E54491C1A
:1002C0000028F7D120780023000704D5702D02D034
:1002D00009B1022311322046BDE8704000F006B893
:1002E0002473000070477047704770472DE9F0474E
:1002F0000D4699469246044600F124080168880696
:1003000004D5E06921F01001216000E00120A8423D
:1003100001DD471B00E00027A1697A1902EB090003
:10032000081AA0612078C00602D42046AFF30080EE
:10033000002608E0D4E901211AF806009047206A57
:10034000401C761C20624E45F4DB2078C0060AD59E
:100350002046AFF3008006E0D4E901213020904729
:10036000206A401C2062381EA7F10107F4DC07E078
:10037000D4E9012118F805009047206A401C20624A
:10038000281EA5F10105F3DC2046AFF3008020789C
:10039000000602D50220BDE8F0870120FBE700003F
:1003A000074B70B50D467B4400F011F80446284613
:1003B00000F020F810B14FF0FF3070BD204670BD46
:1003C000F750000001694A1C02610878704700B5C7
:1003D0008FB0CDE901310021059105497944CDE97E
:1003E000031011466846FFF71DFF0FB000BD000067
:1003F000E5FFFFFF007B00F080007047754600F0CE
:1004000029F8AE4605006946534620F007008546A8
:1004100018B020B5FFF7EAFEBDE820404FF0000617
:100420004FF000074FF000084FF0000B21F00701DC
:10043000AC46ACE8C009ACE8C009ACE8C009ACE81F
:10044000C0098D4670470446AFF300802046FFF791
:10045000BBFE00000048704724000020014649060A
:10046000084A926942F00102064B9A61064A5268B4
:1004700022F0E062044B5A601A4652680A435A60FE
:1004800070470000001002400000014070B50446B3
:1004900000261D480588408845431B48808846F64D
:1004A0000401884216D118488079012812D1002011
:1004B000154988712A2048812B208881002108460F
:1004C00004F08CFB0120104988712B2048812A20E0
:1004D000888103E00021084604F080FB04F05EFE02
:1004E00000260DE04FF48070084908614000486123
:1004F0000748046080204861086180000861761C1C
:10050000AE42EFD370BD0000140000200010014087
:100510000C0C014010B50446002C66D16C49887162
:10052000F02008804FF4A07048800846808849F287
:10053000413188420BD06648808846F604018842E3
:1005400005D06348808845F2103188421AD12C20AA
:100550005F4908812A2048812B20888108468088AD
:1005600046F60401884205D05948808845F210318A
:10057000884206D14FF4A070554908804FF4F070BE
:100580004880A1E05248808845F21051884210D13D
:100590004FF430504E4908814FF4285048814FF4B1
:1005A0002C5088814FF4F07008804FF448704880D8
:1005B0008AE04748808841F6631188420DD12C209B
:1005C000434908812B2048812A2088814FF4F0700C
:1005D00008804FF44870488076E022203C4908812A
:1005E00020204881212088816EE0012038498871CF
:1005F0004FF4A0700880F02048800846808849F2B7
:100600004131884205D03248808845F21031884215
:1006100007D12C202E4908812A2048812B2088814F
:100620003FE02B48808846F60401884207D12C2001
:10063000274908812B2048812A20888131E02448DD
:10064000808845F21051884210D14FF43050204933
:1006500008814FF4285048814FF42C5088814FF482
:10066000487008804FF4F07048801AE0184880887D
:1006700041F6631188420DD12C20154908812A20AA
:1006800048812B2088814FF4487008804FF4F07027
:10069000488006E022200E49088121204881202040
:1006A00088810B48808846F60401884205D00848B6
:1006B000808845F21031884206D14FF4F070044929
:1006C00008804FF4A0704880002004F05BF810BD53
:1006D0001400002070B504460D461646D3488088A5
:1006E00049F24131884205D0D048808845F2103126
:1006F000884240D1CD49488904F03EFD4FF48070D6
:10070000CB490861400048612012CA490860802036
:10071000C7494861086180000861401008614000D5
:100720004861E0B2C34908608020C149486108615E
:1007300080000861BD49888904F01EFD4FF4807077
:10074000BB490861400048612812BA49086080200E
:10075000B7494861086180000861401008614000A5
:100760004861E8B2B34908608020B1494861086136
:10077000800008613DE1AD48808845F21051884213
:1007800050D1AA49488904F0F7FC4FF48070A84979
:100790000861400048612012A64908608020A449F1
:1007A0004861086180000861A0494989491C88B2F4
:1007B00004F0E2FC4FF480709D49086140004861FC
:1007C000E0B29C4908608020994948610861800036
:1007D00008619649888904F0CFFC4FF480709449F1
:1007E00008614000486128129249086080209049C1
:1007F00048610861800008618C498989491C88B278
:1008000004F0BAFC4FF480708949086140004861E7
:10081000E8B2884908608020854948610861800005
:100820000861E6E08148808841F6631188427DD105
:100830007E48807920B97D480088401E001B84B224
:100840007A49488904F098FC4FF48070784908612F
:10085000400048612012774908608020744948614F
:100860000861800008614010086140004861E0B202
:100870007049086080206E49486108618000086105
:10088000401008614000486120126A4908608020D9
:1008900067494861086180000861401008614000B4
:1008A0004861E0B26349086080206149486108619D
:1008B000800008615D49888904F05EFC4FF4807017
:1008C0005B4908614000486128125A49086080204D
:1008D0005749486108618000086140100861400084
:1008E0004861E8B253490860802051494861086175
:1008F00080000861401008614000486128124D499D
:10090000086080204A494861086180000861401001
:10091000086140004861E8B24649086080204449C7
:10092000486108618000086163E0FFE73F48808814
:1009300046F60401884249D13C488079012804D117
:100940003A480088401E001B84B23849488904F0A8
:1009500013FC4FF480703649086140004861201252
:10096000344908608020324948610861800008618C
:100970004010086140004861E0B22E4908608020C4
:100980002B4948610861800008612849888904F082
:10099000F3FB4FF48070264908614000486128123B
:1009A000244908608020224948610861800008616C
:1009B0004010086140004861E8B21E49086080208C
:1009C0001B49486108618000086112E0174880797E
:1009D000012804D115480088401E001B84B2134929
:1009E0004889214604F0E2FB10498889294604F031
:1009F000DDFB4FF480700E494861400048610B48B0
:100A000000890C490860802009494861086180001C
:100A10000861401008614000486106480660802077
:100A2000486108618000086170BD0000140000206A
:100A3000001001400C0C014010B5FE48806940F0E8
:100A40000800FC4988610846806940F01000886110
:100A50000846806940F0010088610120FFF7FEFC34
:100A6000F54840686FF30B00F3494860084640685A
:100A700040F233310843F04948600846006820F0EE
:100A80007F4008600846006840F04C500860084607
:100A9000C06840F4F860C8604FF03330E749086040
:100AA000091F08604FF6FF70E449083108603220E2
:100AB00004F0BAFC0121002004F078FB322004F09D
:100AC000B3FC002003F0ECFDDD49888008468088F7
:100AD000FF280ADB084680884FF6FF71884204D061
:100AE000D7488088B0F5134F7ED1D32004F044FB63
:100AF00003F09EFD03F09CFD03F09AFDD049888031
:100B0000084680884FF6FF7101EA0020CC498880B2
:100B100003F08EFDCA4989880843C9498880084680
:100B2000808849F2413188425ED0BF2004F024FB26
:100B300003F07EFD03F07CFD03F07AFD03F078FD09
:100B4000BF498880084680884FF6FF7101EA00207F
:100B5000BB49888003F06CFDB94989880843B849CE
:100B600088800846808846F60401884274D0D420E4
:100B700004F002FB03F05CFD03F05AFD03F058FDA6
:100B8000AF498880084680884FF6FF7101EA00204F
:100B9000AB49888003F04CFDA94989880843A849DE
:100BA00088800846808845F21031884254D04FF43E
:100BB0005A4004F0E1FA03F03BFD4FF45B4004F0CF
:100BC000DBFA03F035FD9E498880084680884FF6A1
:100BD000FF7101EA00209A4988804FF45C4004F0DC
:100BE000CBFA03F025FD00E036E0954989880843FB
:100BF0009349888008468088B0F5004F02D145F2BD
:100C0000105088808E48808845F21051884223D049
:100C1000A12004F0B1FA03F00BFD8949888003F0AC
:100C200007FD87498880084680884FF6FF7101EAF2
:100C300000208349888003F0FBFC814989880843B0
:100C40007F4988800846808845F26171884203D1D7
:100C500041F663107A4988807948818879A0FFF746
:100C6000D5FA7748808849F2413188427ED1CF2039
:100C700004F082FA002004F06DFAC12004F06AFA50
:100C8000302004F067FAED2004F076FA642004F0D6
:100C900061FA032004F05EFA122004F05BFA81206E
:100CA00004F058FAE82004F067FA852004F052FABC
:100CB000102004F04FFA7A2004F04CFACB2004F014
:100CC0005BFA392004F046FA2C2004F043FA0020A5
:100CD00004F040FA342004F03DFA022004F03AFA1D
:100CE000F72004F049FA202004F034FAEA2004F056
:100CF00043FA002004F02EFA002004F02BFAC02062
:100D000004F03AFA1B2004F025FAC12004F034FA6A
:100D1000012004F01FFAC52004F02EFA302004F060
:100D200019FA302004F016FAC72004F025FAB7208B
:100D300004F010FA362004F01FFA482004F00AFAF2
:100D40003A2004F019FA552004F004FAB12004F016
:100D500013FA002004F0FEF91A2004F0FBF9B62083
:100D600004F00AFA0A2004F0F5F900E0A9E0A22054
:100D700004F0F0F9F22004F0FFF9002004F0EAF9A1
:100D8000262004F0F9F9012004F0E4F9E02004F051
:100D9000F3F90F2004F0DEF92A2004F0DBF9282013
:100DA00004F0D8F9082004F0D5F90E2004F0D2F9A7
:100DB000082004F0CFF9542004F0CCF9A92004F065
:100DC000C9F9432004F0C6F90A2004F0C3F90F2042
:100DD00004F0C0F9002004F0BDF9002004F0BAF9D5
:100DE000002004F0B7F9002004F0B4F9E12004F089
:100DF000C3F9002004F0AEF9152004F0ABF9172078
:100E000004F0A8F9072004F0A5F9112004F0A2F9D4
:100E1000062004F09FF92B2004F09CF9562004F0E2
:100E200099F93C2004F096F9052004F093F910207C
:100E300010E000000010024000100140040C0140CE
:100E400014000020204C43442049443A25780D0AE0
:100E50000000000004F07EF90F2004F07BF93F2031
:100E600004F078F93F2004F075F90F2004F072F9CE
:100E70002B2004F081F9002004F06CF9002004F02C
:100E800069F9012004F066F93F2004F063F92A2093
:100E900004F072F9002004F05DF9002004F05AF922
:100EA000002004F057F9EF2004F054F9112004F069
:100EB00063F9782004F0B8FA292004F05DF903F012
:100EC0009ABBFE48808846F6040188427ED11120F4
:100ED00004F052F9142004F0A7FAD02004F04CF9E1
:100EE000072004F037F9422004F034F91D2004F003
:100EF00031F9D12004F040F9002004F02BF91A2038
:100F000004F028F9092004F025F9D22004F034F97E
:100F1000012004F01FF9222004F01CF9C02004F085
:100F20002BF9102004F016F93B2004F013F90020EF
:100F300004F010F9022004F00DF9112004F00AF970
:100F4000C52004F019F9032004F004F9C82004F0C6
:100F500013F9002004F0FEF8252004F0FBF821200E
:100F600004F0F8F8052004F0F5F8002004F0F2F899
:100F70000A2004F0EFF8652004F0ECF8252004F0D6
:100F8000E9F8772004F0E6F8502004F0E3F80F20A9
:100F900004F0E0F8002004F0DDF8F82004F0ECF8AC
:100FA000012004F0D7F8FE2004F0E6F8002004F059
:100FB000D1F8022004F0CEF8202004F0DDF836202D
:100FC00004F0DAF8082004F0C5F800E02AE03A203E
:100FD00004F0D2F8552004F0BDF82B2004F0CCF832
:100FE000002004F0B7F8002004F0B4F8012004F069
:100FF000B1F83F2004F0AEF82A2004F0BDF800203C
:1010000004F0A8F8002004F0A5F8012004F0A2F8EC
:10101000DF2004F09FF8782004F006FA292004F07D
:10102000ABF84CE7A548808845F21031884240F083
:101030007C87ED2004F0A0F8012004F08BF8FE205E
:1010400004F088F8EE2004F097F8DE2004F082F82F
:10105000212004F07FF8F12004F08EF8012004F044
:1010600079F8DF2004F088F8102004F073F8C42029
:1010700004F082F88F2004F06DF8C62004F07CF8AC
:10108000002004F067F8E22004F064F8E22004F0A5
:1010900061F8E22004F05EF8BF2004F06DF8AA20A9
:1010A00004F058F8B02004F067F80D2004F052F86E
:1010B000002004F04FF80D2004F04CF8002004F05C
:1010C00049F8112004F046F8002004F043F81920F4
:1010D00004F040F8002004F03DF8212004F03AF834
:1010E000002004F037F82D2004F034F8002004F03C
:1010F00031F83D2004F02EF8002004F02BF85D209C
:1011000004F028F8002004F025F85D2004F022F80F
:10111000002004F01FF8B12004F02EF8802004F025
:1011200019F8002004F016F88B2004F013F80020C2
:1011300004F010F8962004F00DF8002004F00AF8EE
:10114000B22004F019F8002004F004F8002004F0A4
:1011500001F8022003F0FEFF002003F0FBFF032054
:1011600003F0F8FF002003F0F5FFB32004F004F8CB
:10117000002003F0EFFF002003F0ECFF002003F05D
:10118000E9FF002003F0E6FF002003F0E3FF00206A
:1011900003F0E0FF002003F0DDFF002003F0DAFFA2
:1011A000002003F0D7FF002003F0D4FF002003F05D
:1011B000D1FF002003F0CEFF002003F0CBFF002082
:1011C00003F0C8FF002003F0C5FF002003F0C2FFBA
:1011D000002003F0BFFF002003F0BCFF002003F05D
:1011E000B9FF002003F0B6FF002003F0B3FF00209A
:1011F00003F0B0FF002003F0ADFF002003F0AAFFD2
:10120000B42003F0B9FF8B2003F0A4FF002003F00B
:10121000A1FF962003F09EFF002003F09BFFA1207A
:1012200003F098FF002003F095FFB52003F0A4FF22
:10123000022003F08FFF002003F08CFF032003F057
:1012400089FF002003F086FF042003F083FF0020C5
:1012500003F080FFB62003F08FFF002003F07AFF39
:10126000002003F077FFB72003F086FF002003F093
:1012700071FF002003F06EFF3F2003F06BFF0020A2
:1012800003F068FF5E2003F065FF002003F062FFBB
:10129000642003F05FFF002003F05CFF8C2003F06C
:1012A00059FF002003F056FFAC2003F053FF00204D
:1012B00003F050FFDC2003F04DFF01E0140000209C
:1012C000002003F047FF702003F044FF002003F0EC
:1012D00041FF902003F03EFF002003F03BFFEB2096
:1012E00003F038FF002003F035FFDC2003F032FF6D
:1012F000002003F02FFFB82003F03EFF002003F092
:1013000029FF002003F026FF002003F023FF002028
:1013100003F020FF002003F01DFF002003F01AFF60
:10132000002003F017FF002003F014FFBA2003F0A1
:1013300023FF242003F00EFF002003F00BFF00200A
:1013400003F008FF002003F005FFC12003F014FFA5
:10135000202003F0FFFE002003F0FCFE542003F0E9
:10136000F9FE002003F0F6FEFF2003F0F3FE00205C
:1013700003F0F0FEC22003F0FFFE0A2003F0EAFEB5
:10138000002003F0E7FE042003F0E4FE002003F059
:10139000E1FEC32003F0F0FE3C2003F0DBFE002062
:1013A00003F0D8FE3A2003F0D5FE002003F0D2FE71
:1013B000392003F0CFFE002003F0CCFE372003F0ED
:1013C000C9FE002003F0C6FE3C2003F0C3FE00204F
:1013D00003F0C0FE362003F0BDFE002003F0BAFE8D
:1013E000322003F0B7FE002003F0B4FE2F2003F0FC
:1013F000B1FE002003F0AEFE2C2003F0ABFE002077
:1014000003F0A8FE292003F0A5FE002003F0A2FEB1
:10141000262003F09FFE002003F09CFE242003F012
:1014200099FE002003F096FE242003F093FE002096
:1014300003F090FE232003F08DFE002003F08AFECF
:101440003C2003F087FE002003F084FE362003F0EA
:1014500081FE002003F07EFE322003F07BFE0020A0
:1014600003F078FE2F2003F075FE002003F072FEDB
:101470002C2003F06FFE002003F06CFE292003F007
:1014800069FE002003F066FE262003F063FE0020C4
:1014900003F060FE242003F05DFE002003F05AFEFE
:1014A000242003F057FE002003F054FE232003F015
:1014B00051FE002003F04EFEC42003F05DFE6220CA
:1014C00003F048FE002003F045FE052003F042FE35
:1014D000002003F03FFE842003F03CFE002003F0D8
:1014E00039FEF02003F036FE002003F033FE182012
:1014F00003F030FE002003F02DFEA42003F02AFEAE
:10150000002003F027FE182003F024FE002003F043
:1015100021FE502003F01EFE002003F01BFE0C20D5
:1015200003F018FE002003F015FE172003F012FE52
:10153000002003F00FFE952003F00CFE002003F0C6
:1015400009FEF32003F006FE002003F003FEE62070
:1015500003F000FE002003F0FDFDC52003F00CFEAB
:10156000322003F0F7FD002003F0F4FD442003F0E7
:10157000F1FD002003F0EEFD652003F0EBFD0020FF
:1015800003F0E8FD762003F0E5FD002003F0E2FD26
:10159000882003F0DFFD002003F0DCFDC62003F00F
:1015A000EBFD202003F0D6FD002003F0D3FD172033
:1015B00003F0D0FD002003F0CDFD012003F0CAFDB3
:1015C000002003F0C7FDC72003F0D6FD002003F084
:1015D000C1FD002003F0BEFD002003F0BBFD002094
:1015E00003F0B8FDC82003F0C7FD002003F0B2FDF2
:1015F000002003F0AFFD002003F0ACFD002003F05D
:10160000A9FDC92003F0B8FD002003F0A3FD0020D0
:1016100003F0A0FD002003F09DFD002003F09AFDE3
:10162000002003F097FD002003F094FD002003F05C
:1016300091FD002003F08EFD002003F08BFD0020C3
:1016400003F088FD002003F085FD002003F082FDFB
:10165000002003F07FFD002003F07CFD002003F05C
:1016600079FD002003F076FDE02003F085FD1620D3
:1016700003F070FD002003F06DFD1C2003F06AFDF7
:10168000002003F067FD212003F064FD002003F03B
:1016900061FD362003F05EFD002003F05BFD462077
:1016A00003F058FD002003F055FD522003F052FDD9
:1016B000002003F04FFD642003F04CFD002003F0F8
:1016C00049FD7A2003F046FD002003F043FD8B2006
:1016D00003F040FD002003F03DFD992003F03AFDAA
:1016E000002003F037FDA82003F034FD002003F0B4
:1016F00031FDB92003F02EFD002003F02BFDC420A6
:1017000003F028FD002003F025FDCA2003F022FD90
:10171000002003F01FFDD22003F01CFD002003F089
:1017200019FDD92003F016FD002003F013FDE02081
:1017300003F010FD002003F00DFDF32003F00AFD7F
:10174000002003F007FDE12003F016FD162003F052
:1017500001FD002003F0FEFC1C2003F0FBFC002038
:1017600003F0F8FC222003F0F5FC002003F0F2FC6B
:10177000362003F0EFFC002003F0ECFC452003F0E2
:10178000E9FC002003F0E6FC522003F0E3FC00201B
:1017900003F0E0FC642003F0DDFC002003F0DAFC41
:1017A0007A2003F0D7FC002003F0D4FC8B2003F058
:1017B000D1FC002003F0CEFC992003F0CBFC0020EC
:1017C00003F0C8FCA82003F0C5FC002003F0C2FC15
:1017D000B92003F0BFFC002003F0BCFCC42003F0E0
:1017E000B9FC002003F0B6FCCA2003F0B3FC0020D3
:1017F00003F0B0FCD22003F0ADFC002003F0AAFC03
:10180000D82003F0A7FC002003F0A4FCE02003F0A4
:10181000A1FC002003F09EFCF32003F09BFC0020C1
:1018200003F098FCE22003F0A7FC052003F092FCF3
:10183000002003F08FFC0B2003F08CFC002003F051
:1018400089FC1B2003F086FC002003F083FC34207D
:1018500003F080FC002003F07DFC442003F07AFCC0
:10186000002003F077FC4F2003F074FC002003F00D
:1018700071FC612003F06EFC002003F06BFC79200A
:1018800003F068FC002003F065FC882003F062FC94
:10189000002003F05FFC972003F05CFC002003F0C5
:1018A00059FCA62003F056FC002003F053FCB7209F
:1018B00003F050FC002003F04DFCC22003F04AFC72
:1018C000002003F047FCC72003F044FC002003F095
:1018D00041FCD12003F03EFC002003F03BFCD6206D
:1018E00003F038FC002003F035FCDD2003F032FC6F
:1018F000002003F02FFCF32003F02CFC002003F069
:1019000029FCE32003F038FC052003F023FC002031
:1019100003F020FC0A2003F01DFC002003F01AFC59
:101920001C2003F017FC002003F014FC332003F00C
:1019300011FC002003F00EFC442003F00BFC0020FF
:1019400003F008FC502003F005FC002003F002FC2B
:10195000622003F0FFFB002003F0FCFB782003F083
:10196000F9FB002003F0F6FB882003F0F3FB0020D6
:1019700003F0F0FB972003F0EDFB002003F0EAFBFF
:10198000A62003F0E7FB002003F0E4FBB72003F000
:10199000E1FB002003F0DEFBC22003F0DBFB0020B4
:1019A00003F0D8FBC72003F0D5FB002003F0D2FBE7
:1019B000D12003F0CFFB002003F0CCFBD52003F0B7
:1019C000C9FB002003F0C6FBDD2003F0C3FB0020B1
:1019D00003F0C0FBF32003F0BDFB002003F0BAFBD3
:1019E000E42003F0C9FB012003F0B4FB002003F066
:1019F000B1FB012003F0AEFB002003F0ABFB0220A3
:101A000003F0A8FB002003F0A5FB2A2003F0A2FBB3
:101A1000002003F09FFB3C2003F09CFB002003F020
:101A200099FB4B2003F096FB002003F093FB5D2015
:101A300003F090FB002003F08DFB742003F08AFB81
:101A4000002003F087FB842003F084FB002003F0D8
:101A500081FB932003F07EFB002003F07BFBA220A0
:101A600003F078FB002003F075FBB32003F072FB5A
:101A7000002003F06FFBBE2003F06CFB002003F09E
:101A800069FBC42003F066FB002003F063FBCD205C
:101A900003F060FB002003F05DFBD32003F05AFB52
:101AA000002003F057FBDD2003F054FB002003F07F
:101AB00051FBF32003F04EFB002003F04BFBE5202D
:101AC00003F05AFB002003F045FB002003F042FB2B
:101AD000002003F03FFB002003F03CFB022003F05A
:101AE00039FB002003F036FB292003F033FB0020F4
:101AF00003F030FB3C2003F02DFB002003F02AFB19
:101B00004B2003F027FB002003F024FB5D2003F0B3
:101B100021FB002003F01EFB742003F01BFB0020C0
:101B200003F018FB842003F015FB002003F012FBE8
:101B3000932003F00FFB002003F00CFBA22003F026
:101B400009FB002003F006FBB32003F003FB002099
:101B500003F000FBBE2003F0FDFA002003F0FAFAC8
:101B6000C42003F0F7FA002003F0F4FACD2003F0CC
:101B7000F1FA002003F0EEFAD32003F0EBFA002094
:101B800003F0E8FADC2003F0E5FA002003F0E2FAC3
:101B9000F32003F0DFFA002003F0DCFAE62003F084
:101BA000EBFA112003F0D6FA002003F0D3FA342028
:101BB00003F0D0FA002003F0CDFA562003F0CAFA61
:101BC000002003F0C7FA762003F0C4FA002003F0E7
:101BD000C1FA772003F0BEFA002003F0BBFA6620BA
:101BE00003F0B8FA002003F0B5FA882003F0B2FA47
:101BF000002003F0AFFA992003F0ACFA002003F0C4
:101C0000A9FABB2003F0A6FA002003F0A3FA99205A
:101C100003F0A0FA002003F09DFA662003F09AFA80
:101C2000002003F097FA552003F094FA002003F007
:101C300091FA552003F08EFA002003F08BFA45202C
:101C400003F088FA002003F085FA432003F082FABB
:101C5000002003F07FFA442003F07CFA002003F018
:101C600079FAE72003F088FA322003F073FA0020B3
:101C700003F070FA552003F06DFA002003F06AFAC1
:101C8000762003F067FA002003F064FA662003F080
:101C900061FA002003F05EFA672003F05BFA00208F
:101CA00003F058FA672003F055FA002003F052FAC7
:101CB000872003F04FFA002003F04CFA992003F03C
:101CC00049FA002003F046FABB2003F043FA002053
:101CD00003F040FA992003F03DFA002003F03AFAAD
:101CE000772003F037FA002003F034FA442003F0A1
:101CF00031FA002003F02EFA562003F02BFA0020D0
:101D000003F028FA232003F025FA002003F022FA3A
:101D1000332003F01FFA002003F01CFA452003F0E3
:101D200019FA002003F016FAE82003F025FA002043
:101D300003F010FA002003F00DFA992003F00AFADC
:101D4000002003F007FA872003F004FA002003F0D4
:101D500001FA882003F0FEF9002003F0FBF9772058
:101D600003F0F8F9002003F0F5F9662003F0F2F92A
:101D7000002003F0EFF9882003F0ECF9002003F0D5
:101D8000E9F9AA2003F0E6F9002003F0E3F9BB200B
:101D900003F0E0F9002003F0DDF9992003F0DAF90F
:101DA000002003F0D7F9662003F0D4F9002003F0F7
:101DB000D1F9552003F0CEF9002003F0CBF95520DE
:101DC00003F0C8F9002003F0C5F9442003F0C2F97C
:101DD000002003F0BFF9442003F0BCF9002003F019
:101DE000B9F9552003F0B6F9002003F0B3F9E92062
:101DF00003F0C2F9AA2003F0ADF9002003F0AAF91C
:101E0000002003F0A7F9002003F0A4F9002003F05C
:101E1000B3F9AA2003F09EF9CF2003F0ADF900201A
:101E200003F098F9002003F095F9002003F092F9EF
:101E3000002003F08FF9002003F08CF9002003F05C
:101E400089F9002003F086F9002003F083F90020CF
:101E500003F080F9002003F07DF9002003F07AF907
:101E6000002003F077F9002003F074F9002003F05C
:101E700071F9002003F06EF9002003F06BF90020E7
:101E800003F068F9F02003F077F9002003F062F91D
:101E9000502003F05FF9002003F05CF9002003F00C
:101EA00059F9002003F056F9F32003F065F90020FA
:101EB00003F050F9F92003F05FF9062003F04AF926
:101EC000102003F047F9292003F044F9002003F023
:101ED00041F93A2003F050F9552003F03BF9112065
:101EE00003F04AF9642003F09FFA292003F044F933
:101EF000352003F041F9002003F02CF9512003F0C4
:101F00003BF9FF2003F026F9532003F035F92C208C
:101F100003F020F9552003F02FF9822003F01AF97D
:101F20002C2003F029F902F066BBFE48808845F2B8
:101F3000105188427ED155214FF4704003F036F99C
:101F4000AA214FF2010003F031F952214FF20200B1
:101F500003F02CF908214FF2030003F027F90121C7
:101F60004FF2040003F022F90D214FF4304003F04A
:101F70001DF90D214BF2010003F018F90D214BF270
:101F8000020003F013F934214FF4364003F00EF948
:101F900034214BF2016003F009F934214BF2026065
:101FA00003F004F90D214FF4314003F0FFF80D2147
:101FB0004BF2011003F0FAF80D214BF2021003F07E
:101FC000F5F834214FF4374003F0F0F834214BF2A8
:101FD000017003F0EBF834214BF2027003F0E6F8E5
:101FE00000214FF4324003F0E1F800214BF20120D0
:101FF00003F0DCF800214BF2022003F0D7F8242193
:102000004FF4384003F0D2F824214BF6010003F0DE
:10201000CDF824214BF6020003F0C8F801214FF45B
:102020003F4003F0C3F80F214FF4334003F0BEF8F4
:102030000F2100E0FEE34BF2013003F0B7F80F216F
:102040004BF2023003F0B2F834214FF4394003F080
:10205000ADF834214BF6011003F0A8F834214BF60B
:10206000021003F0A3F808214FF4354003F09EF866
:1020700008214BF2015003F099F808214BF202506D
:1020800003F094F803214FF4424003F08FF8242129
:102090004FF43A4003F08AF824214BF6012003F074
:1020A00085F824214BF6022003F080F800214FF43C
:1020B0003C4003F07BF878214BF6014003F076F8C2
:1020C00000214BF6024003F071F800214FF43D402F
:1020D00003F06CF878214BF6015003F067F800210B
:1020E0004BF6025003F062F800214FF43E4003F03B
:1020F0005DF864214BF6016003F058F800214FF4BD
:10210000514003F053F833214DF2011003F04EF823
:1021100000214DF2021003F049F834214DF2031072
:1021200003F044F800214DF2041003F03FF83A2187
:102130004DF2051003F03AF800214DF2061003F0BD
:1021400035F84A214DF2071003F030F800214DF226
:10215000081003F02BF85C214DF2091003F026F86B
:1021600000214DF20A1003F021F881214DF20B10ED
:1021700003F01CF800214DF20C1003F017F8A62113
:102180004DF20D1003F012F800214DF20E1003F085
:102190000DF8E5214DF20F1003F008F801214DF282
:1021A000101003F003F813214DF2111002F0FEFF9E
:1021B00001214DF2121002F0F9FF54214DF21310DB
:1021C00002F0F4FF01214DF2141002F0EFFF822122
:1021D0004DF2151002F0EAFF01214DF2161002F047
:1021E000E5FFCA214DF2171002F0E0FF02214DF287
:1021F000181002F0DBFF00214DF2191002F0D6FF9B
:1022000002214DF21A1002F0D1FF01214DF21B10F4
:1022100002F0CCFF02214DF21C1002F0C7FF342166
:102220004DF21D1002F0C2FF02214DF21E1002F00D
:10223000BDFF67214DF21F1002F0B8FF02214DF2E1
:10224000201002F0B3FF84214DF2211002F0AEFF06
:1022500002214DF2221002F0A9FFA4214DF2231019
:1022600002F0A4FF02214DF2241002F09FFFB721DB
:102270004DF2251002F09AFF02214DF2261002F0D5
:1022800095FFCF214DF2271002F090FF02214DF271
:10229000281002F08BFFDE214DF2291002F086FF9C
:1022A00002214DF22A1002F081FFF2214DF22B1093
:1022B00002F07CFF02214DF22C1002F077FFFE218C
:1022C0004DF22D1002F072FF03214DF22E1002F09C
:1022D0006DFF10214DF22F1002F068FF03214DF227
:1022E000301002F063FF33214DF2311002F05EFF37
:1022F00003214DF2321002F059FF6D214DF23310DF
:1023000002F054FF00214FF4524002F04FFF3321FE
:102310004DF2012002F04AFF00214DF2022002F0AE
:1023200045FF01E01400002034214DF2032002F0AB
:102330003DFF00214DF2042002F038FF3A214DF21A
:10234000052002F033FF00214DF2062002F02EFF9F
:102350004A214DF2072002F029FF00214DF208200A
:1023600002F024FF5C214DF2092002F01FFF002142
:102370004DF20A2002F01AFF81214DF20B2002F0EB
:1023800015FF00214DF20C2002F010FFA6214DF2A6
:102390000D2002F00BFF00214DF20E2002F006FF8F
:1023A000E5214DF20F2002F001FF01214DF2102036
:1023B00002F0FCFE13214DF2112002F0F7FE012184
:1023C0004DF2122002F0F2FE54214DF2132002F0E1
:1023D000EDFE01214DF2142002F0E8FE82214DF2C3
:1023E000152002F0E3FE01214DF2162002F0DEFE80
:1023F000CA214DF2172002F0D9FE02214DF2182019
:1024000002F0D4FE00214DF2192002F0CFFE02218D
:102410004DF21A2002F0CAFE01214DF21B2002F0FB
:10242000C5FE02214DF21C2002F0C0FE34214DF207
:102430001D2002F0BBFE02214DF21E2002F0B6FE6E
:1024400067214DF21F2002F0B1FE02214DF2202043
:1024500002F0ACFE84214DF2212002F0A7FE022101
:102460004DF2222002F0A2FEA4214DF2232002F020
:102470009DFE02214DF2242002F098FEB7214DF27C
:10248000252002F093FE02214DF2262002F08EFE5E
:10249000CF214DF2272002F089FE02214DF22820A3
:1024A00002F084FEDE214DF2292002F07FFE02219F
:1024B0004DF22A2002F07AFEF2214DF22B2002F09A
:1024C00075FE02214DF22C2002F070FEFE214DF22D
:1024D0002D2002F06BFE03214DF22E2002F066FE4D
:1024E00010214DF22F2002F061FE03214DF2302029
:1024F00002F05CFE33214DF2312002F057FE032141
:102500004DF2322002F052FE6D214DF2332002F0E6
:102510004DFE00214FF4534002F048FE33214DF2AE
:10252000013002F043FE00214DF2023002F03EFE87
:1025300034214DF2033002F039FE00214DF2043017
:1025400002F034FE3A214DF2053002F02FFE002158
:102550004DF2063002F02AFE4A214DF2073002F019
:1025600025FE00214DF2083002F020FE5C214DF2E4
:10257000093002F01BFE00214DF20A3002F016FE77
:1025800081214DF20B3002F011FE00214DF20C3092
:1025900002F00CFEA6214DF20D3002F007FE0021E4
:1025A0004DF20E3002F002FEE5214DF20F3002F046
:1025B000FDFD01214DF2103002F0F8FD13214DF226
:1025C000113002F0F3FD01214DF2123002F0EEFD68
:1025D00054214DF2133002F0E9FD01214DF2143087
:1025E00002F0E4FD82214DF2153002F0DFFD012101
:1025F0004DF2163002F0DAFDCA214DF2173002F02A
:10260000D5FD02214DF2183002F0D0FD00214DF22F
:10261000193002F0CBFD02214DF21A3002F0C6FD56
:1026200001214DF21B3002F0C1FD02214DF21C30A0
:1026300002F0BCFD34214DF21D3002F0B7FD022145
:102640004DF21E3002F0B2FD67214DF21F3002F054
:10265000ADFD02214DF2203002F0A8FD84214DF2A3
:10266000213002F0A3FD02214DF2223002F09EFD46
:10267000A4214DF2233002F099FD02214DF22430C5
:1026800002F094FDB7214DF2253002F08FFD0221BA
:102690004DF2263002F08AFDCF214DF2273002F0B4
:1026A00085FD02214DF2283002F080FDDE214DF241
:1026B000293002F07BFD02214DF22A3002F076FD36
:1026C000F2214DF22B3002F071FD02214DF22C303F
:1026D00002F06CFDFE214DF22D3002F067FD03216A
:1026E0004DF22E3002F062FD10214DF22F3002F03B
:1026F0005DFD03214DF2303002F058FD33214DF2E3
:10270000313002F053FD03214DF2323002F04EFD24
:102710006D214DF2333002F049FD00214FF4544059
:1027200002F044FD33214DF2014002F03FFD002153
:102730004DF2024002F03AFD34214DF2034002F026
:1027400035FD00214DF2044002F030FD3A214DF2FA
:10275000054002F02BFD00214DF2064002F026FD5F
:102760004A214DF2074002F021FD00214DF20840C0
:1027700002F01CFD5C214DF2094002F017FD002122
:102780004DF20A4002F012FD81214DF20B4002F0A1
:102790000DFD00214DF20C4002F008FDA6214DF286
:1027A0000D4002F003FD00214DF20E4002F0FEFC50
:1027B000E5214DF20F4002F0F9FC01214DF21040ED
:1027C00002F0F4FC13214DF2114002F0EFFC012164
:1027D0004DF2124002F0EAFC54214DF2134002F097
:1027E000E5FC01214DF2144002F0E0FC82214DF2A3
:1027F000154002F0DBFC01214DF2164002F0D6FC40
:10280000CA214DF2174002F0D1FC02214DF21840CE
:1028100002F0CCFC00214DF2194002F0C7FC02216D
:102820004DF21A4002F0C2FC01214DF21B4002F0B1
:10283000BDFC00E004E302214DF21C4002F0B6FCB6
:1028400034214DF21D4002F0B1FC02214DF21E4038
:1028500002F0ACFC67214DF21F4002F0A7FC022100
:102860004DF2204002F0A2FC84214DF2214002F002
:102870009DFC02214DF2224002F098FCA4214DF271
:10288000234002F093FC02214DF2244002F08EFC22
:10289000B7214DF2254002F089FC02214DF226407D
:1028A00002F084FCCF214DF2274002F07FFC022190
:1028B0004DF2284002F07AFCDE214DF2294002F070
:1028C00075FC02214DF22A4002F070FCF2214DF21B
:1028D0002B4002F06BFC02214DF22C4002F066FC12
:1028E000FE214DF22D4002F061FC03214DF22E40FD
:1028F00002F05CFC10214DF22F4002F057FC032146
:102900004DF2304002F052FC33214DF2314002F0E2
:102910004DFC03214DF2324002F048FC6D214DF296
:10292000334002F043FC00214FF4554002F03EFCDE
:1029300033214DF2015002F039FC00214DF20250DA
:1029400002F034FC34214DF2035002F02FFC002140
:102950004DF2045002F02AFC3A214DF2055002F0EB
:1029600025FC00214DF2065002F020FC4A214DF2D8
:10297000075002F01BFC00214DF2085002F016FC3B
:102980005C214DF2095002F011FC00214DF20A5079
:1029900002F00CFC81214DF20B5002F007FC0021EB
:1029A0004DF20C5002F002FCA6214DF20D5002F047
:1029B000FDFB00214DF20E5002F0F8FBE5214DF237
:1029C0000F5002F0F3FB01214DF2105002F0EEFB2C
:1029D00013214DF2115002F0E9FB01214DF212508A
:1029E00002F0E4FB54214DF2135002F0DFFB012111
:1029F0004DF2145002F0DAFB82214DF2155002F034
:102A0000D5FB01214DF2165002F0D0FBCA214DF248
:102A1000175002F0CBFB02214DF2185002F0C6FB1A
:102A200000214DF2195002F0C1FB02214DF21A5063
:102A300002F0BCFB01214DF21B5002F0B7FB02215A
:102A40004DF21C5002F0B2FB34214DF21D5002F049
:102A5000ADFB02214DF21E5002F0A8FB67214DF2A2
:102A60001F5002F0A3FB02214DF2205002F09EFB0A
:102A700084214DF2215002F099FB02214DF22250A7
:102A800002F094FBA4214DF2235002F08FFB0221AF
:102A90004DF2245002F08AFBB7214DF2255002F08E
:102AA00085FB02214DF2265002F080FBCF214DF232
:102AB000275002F07BFB02214DF2285002F076FBFA
:102AC000DE214DF2295002F071FB02214DF22A5015
:102AD00002F06CFBF2214DF22B5002F067FB022159
:102AE0004DF22C5002F062FBFE214DF22D5002F00F
:102AF0005DFB03214DF22E5002F058FB10214DF2E8
:102B00002F5002F053FB03214DF2305002F04EFBE8
:102B100033214DF2315002F049FB03214DF2325086
:102B200002F044FB6D214DF2335002F03FFB0021D7
:102B30004FF4564002F03AFB33214DF2016002F0AF
:102B400035FB00214DF2026002F030FB34214DF2E2
:102B5000036002F02BFB00214DF2046002F026FB23
:102B60003A214DF2056002F021FB00214DF2066092
:102B700002F01CFB4A214DF2076002F017FB002116
:102B80004DF2086002F012FB5C214DF2096002F088
:102B90000DFB00214DF20A6002F008FB81214DF28D
:102BA0000B6002F003FB00214DF20C6002F0FEFA14
:102BB000A6214DF20D6002F0F9FA00214DF20E60EF
:102BC00002F0F4FAE5214DF20F6002F0EFFA012174
:102BD0004DF2106002F0EAFA13214DF2116002F09A
:102BE000E5FA01214DF2126002F0E0FA54214DF2B3
:102BF000136002F0DBFA01214DF2146002F0D6FA04
:102C000082214DF2156002F0D1FA01214DF21660D9
:102C100002F0CCFACA214DF2176002F0C7FA022185
:102C20004DF2186002F0C2FA00214DF2196002F074
:102C3000BDFA02214DF21A6002F0B8FA01214DF2FC
:102C40001B6002F0B3FA02214DF21C6002F0AEFAF2
:102C500034214DF21D6002F0A9FA02214DF21E60EE
:102C600002F0A4FA67214DF21F6002F09FFA0221E0
:102C70004DF2206002F09AFA84214DF2216002F0B8
:102C800095FA02214DF2226002F090FAA4214DF251
:102C9000236002F08BFA02214DF2246002F086FAE2
:102CA000B7214DF2256002F081FA02214DF2266033
:102CB00002F07CFACF214DF2276002F077FA022170
:102CC0004DF2286002F072FADE214DF2296002F026
:102CD0006DFA02214DF22A6002F068FAF2214DF2FB
:102CE0002B6002F063FA02214DF22C6002F05EFAD2
:102CF000FE214DF22D6002F059FA03214DF22E60B3
:102D000002F054FA10214DF22F6002F04FFA032125
:102D10004DF2306002F04AFA33214DF2316002F098
:102D200045FA03214DF2326002F040FA6D214DF276
:102D3000336002F03BFA55214FF4704002F036FA4E
:102D4000AA214FF2010002F031FA52214FF20200A3
:102D500002F02CFA08214FF2030002F027FA0021BA
:102D60004FF2040002F022FACC214FF4314002F07D
:102D70001DFA00214BF2011002F018FA05214FF460
:102D8000364002F013FA70214FF4374002F00EFA89
:102D900070214BF2017002F009FA01214FF4384022
:102DA00002F004FA03214BF6010002F0FFF90321BF
:102DB0004BF6020002F0FAF903214BF6030002F091
:102DC000F5F902214FF43C4002F0F0F900214BF6F6
:102DD000014002F0EBF900214BF6024002F0E6F967
:102DE000D0214FF4494002F0E1F902214CF60110E4
:102DF00002F0DCF950214CF6021002F0D7F9502114
:102E00004CF6031002F0D2F950214CF6041002F0F7
:102E1000CDF900214FF4545002F0C8F955214FF478
:102E2000685002F0C3F94FF4885002F0A5F97820F9
:102E300002F018FB4FF4245002F09EF901F0DBBBC6
:102E4000FE48808849F2253188427DD147F6F0015D
:102E5000E52002F0ABF94FF48071012002F0A6F9F1
:102E60004FF4E061022002F0A1F941F230010320A9
:102E700002F09CF90021042002F098F940F20221AE
:102E8000082002F093F90021092002F08FF90021B7
:102E90000A2002F08BF900210C2002F087F90021B2
:102EA0000D2002F083F900210F2002F07FF90021AC
:102EB000102002F07BF90721112002F077F90021A0
:102EC000122002F073F90021132002F06FF90021A3
:102ED000072002F06BF941F29061102002F066F9D0
:102EE00040F22721112002F061F99D21122002F009
:102EF0005DF94FF4C851132002F058F9252129201B
:102F000002F054F90D212B2002F050F90721302056
:102F100002F04CF940F20331312002F047F903216D
:102F2000322002F043F940F20621352002F03EF94A
:102F30000821362002F03AF940F20641372002F02B
:102F400035F94FF4417100E058E0382002F02EF9D5
:102F50000721392002F02AF940F202613C2002F0F8
:102F600025F908213D2002F021F90021502002F02E
:102F70001DF9EF21512002F019F90021522002F031
:102F800015F940F23F11532002F010F94FF4274198
:102F9000602002F00BF90121612002F007F9002105
:102FA0006A2002F003F90021802002F0FFF80021DE
:102FB000812002F0FBF80021822002F0F7F80021C6
:102FC000832002F0F3F80021842002F0EFF80021C2
:102FD000852002F0EBF81021902002F0E7F84FF482
:102FE000C061922002F0E2F840F23311072002F0B3
:102FF000DDF82221002002F0D9F81FE78F488088F1
:1030000049F2283188427DD141F28F01EC2002F053
:10301000CDF841F23421EF2002F0C8F84FF480716E
:10302000012002F0C3F84FF4E061022002F0BEF884
:1030300041F23001032002F0B9F80021042002F02F
:10304000B5F840F20221082002F0B0F80021092072
:1030500002F0ACF800210A2002F0A8F801210C20AF
:1030600002F0A4F800210D2002F0A0F800210F20AA
:1030700002F09CF80021102002F098F8072111209E
:1030800002F094F80021122002F090F800211320A1
:1030900002F08CF80121072002F088F8322002F0BB
:1030A000C3F941F29041102002F080F840F227214C
:1030B000112002F07BF8322002F0B6F98A211220AA
:1030C00002F074F8322002F0AFF94FF4D05113201F
:1030D00002F06CF80621292002F068F80D212B205F
:1030E00002F064F8322002F09FF90021202002F063
:1030F0005DF80021212002F059F8322002F094F905
:10310000002100E075E0302002F050F840F2046148
:10311000312002F04BF840F20531322002F046F83F
:103120000021352002F042F840F60941362002F035
:103130003DF84FF40171372002F038F840F20131C8
:10314000382002F033F840F20771392002F02EF8EF
:1031500000213C2002F02AF840F60A213D2002F02E
:1031600025F8322002F060F90021502002F01EF80C
:10317000EF21512002F01AF80021522002F016F837
:1031800040F23F11532002F011F84FF42741602024
:1031900002F00CF80121612002F008F800216A20F9
:1031A00002F004F80021802002F000F800218120C4
:1031B00001F0FCFF0021822001F0F8FF00218320B4
:1031C00001F0F4FF0021842001F0F0FF00218520B0
:1031D00001F0ECFF1021902001F0E8FF4FF4C061F6
:1031E000922001F0E3FF40F23311072001F0DEFFEF
:1031F00024E61248808849F2203188427ED100219D
:10320000084601F0D3FF4FF48071012001F0CEFF9A
:103210004FF4E061022001F0C9FF41F230010320C8
:1032200001F0C4FF0021042001F0C0FF40F20221A0
:10323000082001F0BBFF0021092001E0140000205C
:1032400001F0B4FF00210A2001F0B0FF01210C20A1
:1032500001F0ACFF00210D2001F0A8FF00210F209C
:1032600001F0A4FF322002F0DFF840F20111072044
:1032700001F09CFF322002F0D7F84FF48651102065
:1032800001F094FF0721112001F090FF4FF48871A5
:10329000122001F08BFF4FF43061132001F086FF04
:1032A0000021292001F082FF44F210012B2001F0BF
:1032B0007DFF0021502001F079FFEF21512001F026
:1032C00075FF0021522001F071FF40F23F115320A1
:1032D00001F06CFF4FF41C51602001F067FF0121E9
:1032E000612001F063FF00216A2001F05FFF0021EF
:1032F000802001F05BFF0021812000E030E001F040
:1033000055FF0021822001F051FF0021832001F0B0
:103310004DFF0021842001F049FF0021852001F0AC
:1033200045FF1021902001F041FF0021922001F083
:103330003DFF0121932001F039FF4FF48871952062
:1033400001F034FF0021972001F030FF0021982088
:1033500001F02CFF40F27311072001F027FF6DE50B
:10336000FE48808849F2313188427DD141F2140112
:10337000E72001F01BFF4FF48071012001F016FFE0
:103380004FF40071022001F011FF41F238010320D7
:1033900001F00CFF40F20221082001F007FF00219C
:1033A000092001F003FF00210A2001F0FFFE0021A7
:1033B0000C2001F0FBFE00210D2001F0F7FE0021A2
:1033C0000F2001F0F3FE0021102001F0EFFE072195
:1033D000112001F0EBFE0021122001F0E7FE002198
:1033E000132001F0E3FEC82002F01EF841F29061C4
:1033F000102001F0DBFE40F22721112001F0D6FE63
:10340000322002F011F80C21122001F0CFFE322000
:1034100002F00AF84FF40061132001F0C7FE1121F9
:10342000292001F0C3FE0B212B2001F0BFFE32202A
:1034300001F0FAFF0021202001F0B8FE40F23F1118
:10344000212001F0B3FE0021302001F0AFFE4FF447
:103450008371312001F0AAFE0021322001F0A6FE86
:103460004FF40171352000E064E001F09FFE41F26D
:103470000A61362001F09AFE40F20771372001F010
:1034800095FE4FF48371382001F090FE40F20771F1
:10349000392001F08BFE40F202413C2001F086FE13
:1034A00040F60F413D2001F081FE0021502001F047
:1034B0007DFEEF21512001F079FE0021522001F024
:1034C00075FE40F23F11532001F070FE4FF41C5185
:1034D000602001F06BFE0121612001F067FE0021F8
:1034E0006A2001F063FE0021802001F05FFE0021D0
:1034F000812001F05BFE0021822001F057FE0021B7
:10350000832001F053FE0021842001F04FFE0021B2
:10351000852001F04BFE1021902001F047FE4FF472
:10352000C061922001F042FE40F23311072001F009
:103530003DFE83E48948808845F2084188427DD178
:103540004FF48071012001F031FE4FF4E061022060
:1035500001F02CFE41F23001032001F027FE002192
:10356000042001F023FE40F20721082001F01EFE96
:103570000021092001F01AFE00210A2001F016FEA8
:1035800000210C2001F012FE00210D2001F00EFEA2
:1035900000210F2001F00AFE142001F045FF41F246
:1035A000B061102001F002FE0121112001F0FEFDAA
:1035B0000121172001F0FAFD4FF49C71122001F057
:1035C000F5FD4FF40061132001F0F0FD09212920E1
:1035D00001F0ECFD09212A2001F0E8FD0021A420E2
:1035E00001F0E4FD0021502001F0E0FDEF21512029
:1035F00001F0DCFD0021522001F0D8FD40F23F1126
:10360000532001F0D3FD4FF41C51602001F0CEFD9A
:103610000121612001F0CAFD00216A2001F0C6FDF0
:103620000021802001F0C2FD0021812001F0BEFDBB
:103630000021822001F0BAFD002100E024E0832077
:1036400001F0B4FD0021842001F0B0FD00218520AF
:1036500001F0ACFD1321902001F0A8FD0021922083
:1036600001F0A4FD0321932001F0A0FD4FF4887127
:10367000952001F09BFD40F27311072001F096FDAB
:10368000322001F0D1FEB8E43448808841F205517F
:1036900088427DD10021072001F088FD322001F011
:1036A000C3FE4FF48E71122001F080FD0121A42091
:1036B00001F07CFD0F21082001F078FD08210A208F
:1036C00001F074FD08210D2001F070FD40F207713A
:1036D000302001F06BFD0721312001F067FD40F241
:1036E0000361322001F062FD4FF4E061332001F00C
:1036F0005DFD40F20221342001F058FD0221352009
:1037000001F054FD41F60F71362001F04FFD40F2FB
:103710000771372001F04AFD0021382001F046FDF5
:103720000021392001F042FD40F207713A2001F0FA
:103730003DFD00213B2001F039FD07213C2001F037
:1037400035FD00213D2001F031FD322001F06CFEFD
:103750000121072001F02AFD012101E014000020D1
:10376000172001F023FD322001F05EFE4FF4BD5121
:10377000102001F01BFD40F21721112001F016FD71
:103780004FF48F71122001F011FD4FF4706100E0D1
:1037900098E0132001F00AFD00212A2001F006FD27
:1037A0000A21292001F002FD4FF49F71122001F03F
:1037B000FDFC0021502001F0F9FCEF21512001F027
:1037C000F5FC0021522001F0F1FC40F23F115320A2
:1037D00001F0ECFC4FF41C51602001F0E7FC0121EA
:1037E000612001F0E3FC00216A2001F0DFFC0021F0
:1037F000802001F0DBFC0021812001F0D7FC0021BA
:10380000822001F0D3FC0021832001F0CFFC0021B5
:10381000842001F0CBFC0021852001F0C7FC13219E
:10382000902001F0C3FC4FF44071922001F0BEFCE7
:103830000521932001F0BAFC0021952001F0B6FC8F
:103840000021972001F0B2FC0021982001F0AEFC8D
:103850004FF48071012001F0A9FC4FF4E0610220D7
:1038600001F0A4FC41F23801032001F09FFC00218B
:10387000042001F09BFC00210C2001F097FC0021AA
:103880000F2001F093FC0021202001F08FFC00218B
:10389000212001F08BFC2121072001F087FC14205E
:1038A00001F0C2FD6121072001F080FC142001F02D
:1038B000BBFD40F27311072001F078FC142001F0E9
:1038C000B3FD95E4FE4880884BF2055188427CD1D7
:1038D0000021084601F06AFC0021084601F066FC60
:1038E0000021084601F062FC0021084601F05EFC60
:1038F0000121A42001F05AFC142001F095FD4FF4A1
:103900001C51602001F052FC40F20221082001F01D
:103910004DFC4FF40571302001F048FC43F2157165
:10392000312001F043FC40F20461322001F03EFC02
:1039300040F61661332001F039FC42F211213420A7
:1039400001F034FC4FF4A851352001F02FFC48F26F
:103950000751362001F02AFC41F20741372001F0DF
:1039600025FC41F20341382001F020FC20213920C0
:1039700001F01CFC1A21902001F018FC00211020FD
:1039800001F014FC0721112001F010FC002112208D
:1039900001F00CFC0021132001F008FC142001F0C0
:1039A00043FD4FF4E661102001F000FC40F23711B6
:1039B000112001F0FBFB142001F036FD4FF4DC7107
:1039C000122001F0F3FB142000E085E001F02CFD53
:1039D0004FF47061132001F0E9FB80212A2001F0EF
:1039E000E5FB4821292001F0E1FB142001F01CFD3A
:1039F0004FF48071012001F0D9FB4FF4E061022007
:103A000001F0D4FB41F23801032001F0CFFB40F27A
:103A10000221082001F0CAFB00210A2001F0C6FBA8
:103A200000210C2001F0C2FB00210D2001F0BEFBA3
:103A300030210E2001F0BAFB0021502001F0B6FB2E
:103A4000EF21512001F0B2FB0021522001F0AEFB2A
:103A500040F23F11532001F0A9FB4FF41C516020AC
:103A600001F0A4FB0121612001F0A0FB00216A20EC
:103A700001F09CFB1121902001F098FB4FF4C061F4
:103A8000922001F093FB40F20241932001F08EFB63
:103A90000221942001F08AFB142001F0C5FC0121D1
:103AA000072001F083FB142001F0BEFC61210720F8
:103AB00001F07CFB40F27311072001F077FB00213D
:103AC000202001F073FB0021212001F06FFB222157
:103AD000002001F06BFB42E4794880884CF20551EC
:103AE00088427CD10021084601F060FB0021084695
:103AF00001F05CFB142001F097FC0021084601F066
:103B000055FB0021084601F051FB0021084601F059
:103B10004DFB0021084601F049FB0121A42001F0E2
:103B200045FB142001F080FC4FF41C51602001F093
:103B30003DFB40F60601082001F038FB40F203711E
:103B4000302001F033FB0121312001F02FFB042153
:103B5000322001F02BFB4FF48171332001F026FB62
:103B60004FF44071342001F021FB40F20311352065
:103B700001F01CFB1F21362001F018FB40F20371FD
:103B8000372001F013FB0121382001F00FFB042145
:103B9000392001F00BFB1521902001F007FB4FF4B9
:103BA0008261102001F002FB40F24721112001F058
:103BB000FDFA4FF4DE71122001F0F8FA4FF4606163
:103BC000132001F0F3FA782001F02EFC4FF48071FD
:103BD000012001F0EBFA4FF40071022000E052E006
:103BE00001F0E4FA41F23001032001F0DFFA08218C
:103BF0000A2001F0DBFA00210C2001F0D7FA202185
:103C00000E2001F0D3FA00210F2001F0CFFA00219D
:103C1000202001F0CBFA0021212001F0C7FA3D213C
:103C20002A2001F0C3FA142001F0FEFB2D212920E7
:103C300001F0BCFA0021502001F0B8FA4DF2EF017A
:103C4000512001F0B3FA0021522001F0AFFA40F206
:103C50003F11532001F0AAFA0021612001F0A6FAD9
:103C600000216A2001F0A2FA4FF44071922001F085
:103C70009DFA0521932001F099FA4FF480710720F5
:103C800001F094FA55E40E48808848F6891188427C
:103C90007ED10121002001F089FA4AF6A401032017
:103CA00001F084FA00210C2001F080FA40F60C01AA
:103CB0000D2001F07BFA4FF42C510E2002E00000A1
:103CC0001400002001F072FAB0211E2001F06EFAFB
:103CD00042F63F31012001F069FA4FF4C061022041
:103CE00001F064FA0021102001F060FA46F2780138
:103CF000112001F05BFA0021052001F057FA0021A4
:103D0000062001F053FA4EF61C71162001F04EFA0F
:103D10000321172001F04AFA40F23321072001F075
:103D200045FA00210B2001F041FA00210F2001F09B
:103D30003DFA0021412001F039FA0021422001F032
:103D400035FA0021482001F031FA40F23F114920B4
:103D500001F02CFA00214A2001F028FA00214B2022
:103D600001F024FA4FF46F41442001F01FFA0021C2
:103D7000452001F01BFA40F23F11462001F016FAEF
:103D800040F20771302001F011FA4FF4017100E0A8
:103D900040E0312001F00AFA4FF40171322001F0C5
:103DA00005FA40F20251332001F000FA40F20751C7
:103DB000342001F0FBF94FF40171352001F0F6F9E0
:103DC0004FF40171362001F0F1F940F20251372031
:103DD00001F0ECF940F202313A2001F0E7F940F24B
:103DE00002313B2001F0E2F90021232001F0DEF94D
:103DF0000021242001F0DAF94FF40041252001F0E0
:103E0000D5F900214F2001F0D1F900214E2001F019
:103E1000CDF9F0E3FE48808844F2315188427DD1EB
:103E20000121002001F0C2F90A2001F0FDFA41F25F
:103E30002861102001F0BAF90E21122001F0B6F924
:103E400040F63921132001F0B1F90A2001F0ECFA13
:103E50004021112001F0AAF95021152001F0A6F906
:103E60000A2001F0E1FA1E21122001F09FF90A2038
:103E700001F0DAFA4FF4B151102001F097F942F64F
:103E80003921132001F092F90A2001F0CDFA4FF404
:103E90008071012001F08AF94FF44071022001F095
:103EA00085F941F23801032001F080F940F2022146
:103EB000082001F07BF908210A2001F077F90021A0
:103EC000302001F073F940F20241312001F06EF927
:103ED0004FF48371322001F069F940F2035133202D
:103EE00001F064F94FF48271342001F05FF940F27F
:103EF0000131352001F05AF940F20771362001F006
:103F000055F940F20531372001F050F94FF40271B4
:103F1000382001F04BF940F60B7100E03CE039200D
:103F200001F044F90221412001F040F94FF41C5105
:103F3000602001F03BF90121612001F037F94FF4D5
:103F40000471902001F032F94FF48571922001F054
:103F50002DF90421932001F029F94FF48071A0205C
:103F600001F024F90121072001F020F92121072087
:103F700001F01CF92321072001F018F93321072053
:103F800001F014F940F23311072001F00FF900217C
:103F9000A02001F00BF92EE39D48808844F23551B2
:103FA00088427CD13021152001F000F910219A209F
:103FB00001F0FCF82021112001F0F8F843F228412B
:103FC000102001F0F3F80221122001F0EFF841F285
:103FD0003801132001F0EAF8282001F025FA122117
:103FE000084601F0E3F8282001F01EFA43F22041D0
:103FF000102001F0DBF843F23801132001F0D6F86D
:10400000462001F011FA0021302001F0CFF840F2F3
:104010000241312001F0CAF840F20731322001F0AC
:10402000C5F84FF44171332001F0C0F80421342069
:1040300001F0BCF840F20141352001F0B7F840F240
:104040000771362001F0B2F840F20531372001F057
:10405000ADF84FF4C261382001F0A8F84FF4C26106
:10406000392001F0A3F84FF48071012001F09EF88F
:104070004FF44071022001F099F841F23001032021
:1040800001F094F840F60801082001F08FF80821AB
:104090000A2001F08BF84FF41C51602000E033E05F
:1040A00001F084F80121612001F080F84FF49F7144
:1040B000902001F07BF84FF48071922001F076F8A7
:1040C0004FF48071932001F071F84FF44051A0201B
:1040D00001F06CF81021A32001F068F801210720FD
:1040E00001F064F82121072001F060F82321072066
:1040F00001F05CF83321072001F058F840F2331149
:10410000072001F053F876E24148808841F66311B8
:104110008842F8D1E22001F02FF84FF480703D4939
:104120000861400048611D203B49086080203949F2
:1041300048610861800008614010086140004861E2
:1041400002203549086080203249486108618000BA
:104150000861401008614000486104202E49086051
:1041600080202C494861086180000861642001F0CA
:1041700079F9E02001F000F84FF4807025490861DA
:10418000400048610120244908608020214948619D
:104190000861800008610A2001F046F9E02000F083
:1041A000EBFF4FF480701B49086140004861032019
:1041B000194908608020174948610861800008613A
:1041C0000C2001F031F9012000F0D6FF0A2001F0A7
:1041D0002BF9E62000F0D0FF4FF480700D49086104
:1041E000400048612F200C4908608020094948613F
:1041F0000861800008614010086140004861FF20AC
:10420000054908608020034948610861800005E095
:1042100014000020001001400C0C01400861401007
:10422000086140004861FF20F84908608020F84993
:104230004861086180000861B02000F09DFF4FF4E4
:104240008070F3490861400048612020EF49086010
:104250008020EF49486108618000086140100861D2
:10426000400048610020E94908608020E849486131
:104270000861800008614010086140004861032027
:10428000E24908608020E2494861086180000861D5
:10429000401008614000486140F21F30DB4908606F
:1042A0008020DB4948610861800008614010086196
:1042B000400048610120D54908608020D449486108
:1042C000086180000861401008614000486140F2C8
:1042D000DF10CE4908608020CD4948610861800028
:1042E000086140100861400048610020C74908602B
:1042F0008020C7494861086180000861B42000F04F
:104300003BFF4FF48070C2490861400048610420BF
:10431000BE4908608020BE4948610861800008618C
:10432000401008614000486140F21F40B7490860F2
:104330008020B74948610861800008614010086129
:10434000400048610020B14908608020B0494861C0
:1043500008618000086140100861400048612E201B
:10436000AA4908608020AA49486108618000086164
:1043700040100861400048610020A4490860802086
:10438000A34948610861800008614010086140004D
:10439000486100209D49086080209D49486108616E
:1043A0008000086140100861400048610020974982
:1043B00008608020964948610861800008614010CB
:1043C00008614000486100209049086080209049C1
:1043D0004861086180000861B62000F0CDFE4FF40E
:1043E00080708B490861400048610220874908605D
:1043F0008020874948610861800008614010086199
:10440000400048614FF40370804908608020804973
:1044100048610861800008614010086140004861FF
:1044200000207A490860802079494861086180004D
:104430000861401008614000486117207349086016
:10444000802073494861086180000861401008615C
:104450004000486115206D49086080206C49486122
:104460000861800008614010086140004861002038
:1044700066490860802066494861086180000861DB
:1044800040100861400048610020604908608020B9
:104490005F494861086180000861F02000F06CFE0F
:1044A0004FF480705A490861400048610320574921
:1044B0000860802056494861086180000861292011
:1044C00000F05AFED02000F057FE4FF480705049A3
:1044D00008614000486100204C49086080204C4938
:1044E0004861086180000861BE2000F045FE4FF47D
:1044F00080704749086140004861052043490860D1
:1045000080204349486108618000086140100861CB
:1045100040004861FE203D49086080203C494861D8
:104520000861800008614010086140004861012076
:10453000364908608020364948610861800008617A
:104540004010086140004861002030490860802028
:104550002F494861086180000861401008614000EF
:104560004861002029490860802029494861086184
:104570008000086140100861400048610020234924
:104580000860802022494861086180000861B820E5
:1045900000F0F2FD4FF480701D4908614000486151
:1045A00003201A4908608020194948610861800089
:1045B000086140100861400048610120134908600B
:1045C000802013494861086180000861BA2000F02A
:1045D000D3FD4FF480700E4908614000486101200E
:1045E0000A49086080200A49486108618000086122
:1045F000642000F05DF80020FBF78CFF01200549E6
:1046000008604FF6FF70FBF741FF10BD0C0C014036
:1046100000100140A801224210B50246012000E02E
:1046200050430B00A1F10104E1B2F9D110BD00002B
:1046300010B54FF0883017490860091D0860002048
:1046400014490C310860881513490861400048611D
:10465000402048611148808848F68911884202D17B
:10466000022000F0FFFE0B480830006884B24020B2
:1046700009490861C00008614FF0333005490860FE
:10468000091D08604FF6FF7002490C310860204692
:1046900010BD0000000C014000100140140000207B
:1046A00010B50446204600F067FDFFF7C1FF10BDBE
:1046B0002DE9F0410446BE2000F05EFD4FF480700D
:1046C0002D4908614000486105202C490860802080
:1046D0002949486108618000086140100861400074
:1046E0004861204600F0DDFF05464FF06632244B5E
:1046F00000F0EAFF074600F0A7FF2049086080208D
:104700001D4948610861800008614010086140004F
:1047100048610120194908608020174948610861F3
:10472000800008614010086140004861FF20134983
:1047300008608020104948610861800008614010CD
:1047400008614000486100200C49086080200A4947
:1047500048610861800008614010086140004861BC
:1047600000200649086080200349486108618000F4
:104770000861BDE8F0810000001001400C0C014010
:1047800066660440F0B5054600240027FC488079A1
:1047900001280BD1FA48808846F60401884205D0EA
:1047A000F748808841F66311884208D1F44880793F
:1047B000F0B9F348808841F66311884218D1082D7A
:1047C00015D2DFE805F00406080A0C0E10120625C3
:1047D0000DE007250BE0042509E0052507E001258C
:1047E00005E0002503E0032501E0022500BF00BF2E
:1047F000E348808849F24131884217D0E0488088F8
:1048000046F60401884211D0DD48808845F2103117
:1048100088420BD0DA48808845F21051884205D092
:10482000D748808841F6631188427DD1082D1CD27B
:10483000DFE805F00406090C0F12151800BF14E09C
:1048400044F0800411E044F040040EE044F0C00461
:104850000BE044F0200408E044F0600405E044F07C
:10486000A00402E044F0E00400BF00BFC448808818
:1048700045F21051884202D14FF4585700E03627D4
:10488000BF48808845F2103188420DD0BC488088EE
:1048900045F21051884207D0B948808841F663112B
:1048A000884201D044F00804B548808846F60401E7
:1048B000884201D144F002042146384600F076FCDB
:1048C000AF48808841F6631188421DD004F0200073
:1048D00068B1AB480088AA494988884214DAA848D8
:1048E00006884088A6490880084646800CE0A4480F
:1048F0000088A3494988884206DDA1480688408887
:104900009F490880084646809D48808845F210519E
:1049100088427DD19A49488900F02EFC4FF480707E
:1049200098490861400000E030E148610020964964
:1049300008608020934948610861800008619049BF
:104940004989491C88B200F017FC4FF480708D49EA
:1049500008614000486100208B4908608020894937
:10496000486108618000086185494989891C88B2CD
:1049700000F002FC4FF480708249086140004861F9
:104980007F480088401E00127F49086080207D49D2
:10499000486108618000086179494989C91C88B269
:1049A00000F0EAFB4FF480707649086140004861EE
:1049B00073480078401EC0B2734908608020714976
:1049C00048610861800008616D49888900F0D4FB66
:1049D0004FF480706B4908614000486100206A49CB
:1049E0000860802067494861086180000861644967
:1049F0008989491C88B200F0BFFB4FF4807061497F
:104A000008614000486100205F490860802000E0A4
:104A100035E05C494861086180000861584989892E
:104A2000891C88B200F0A8FB4FF4807055490861DA
:104A30004000486152484088401E001252490860B8
:104A40008020504948610861800008614C4989898B
:104A5000C91C88B200F090FB4FF48070494908618E
:104A60004000486146488078401EC0B24649086010
:104A7000802044494861086180000861ADE04049F8
:104A8000488900F079FB4FF480703E49086140008E
:104A9000486100203C49086080203A49486108612B
:104AA00080000861401008614000486100203649DC
:104AB0000860802033494861086180000861401027
:104AC0000861400048612E480088401E00122E49AF
:104AD000086080202B49486108618000086140100F
:104AE00008614000486126480078401EC0B226494F
:104AF00008608020234948610861800008612049DE
:104B0000888900F039FB4FF480701E49086140002D
:104B1000486100201C49086080201A4948610861EA
:104B2000800008614010086140004861002016497B
:104B300008608020134948610861800008614010C6
:104B40000861400048610E484088401E00120E492E
:104B5000086080200B4948610861800008614010AE
:104B600008614000486106488078401EC0B206498E
:104B700008608020034948610861800008612CE0DA
:104B800014000020001001400C0C0140082D1CD224
:104B9000DFE805F004070A0D0F12151844F0300481
:104BA00013E044F0100410E044F020040DE000BFD6
:104BB0000BE044F0380408E044F0280405E044F039
:104BC000180402E044F0080400BF00BF032744F4C7
:104BD00080542146384600F0E9FAF0BD30B504466D
:104BE0000D46EA48808849F24131884205D0E748BD
:104BF000808845F21031884240D1E449488900F06C
:104C0000BBFA4FF48070E24908614000486120120D
:104C1000E04908608020DE49486108618000086141
:104C20004010086140004861E0B2DA490860802025
:104C3000D7494861086180000861D449888900F03B
:104C40009BFA4FF48070D2490861400048612812F5
:104C5000D04908608020CE49486108618000086121
:104C60004010086140004861E8B2CA4908608020ED
:104C7000C749486108618000086186E1C3488088AF
:104C800046F60401884249D1C0488079012804D100
:104C9000BE480088401E001B84B2BC49488900F011
:104CA0006BFA4FF48070BA490861400048612012E5
:104CB000B84908608020B6494861086180000861F1
:104CC0004010086140004861E0B2B24908608020AD
:104CD000AF494861086180000861AC49888900F0EB
:104CE0004BFA4FF48070AA490861400048612812CD
:104CF000A84908608020A6494861086180000861D1
:104D00004010086140004861E8B2A2490860802074
:104D10009F49486108618000086136E19B488088AE
:104D200041F6631188427DD19848807900283FD1AF
:104D300096480088401E001B84B29449488900F0C0
:104D40001BFA4FF4807092490861400048610020CE
:104D50009049086080208E494861086180000861A0
:104D6000401008614000486100208A4908608020A6
:104D7000874948610861800008614010086140006F
:104D80004861201283490860802081494861086198
:104D9000800008614010086140004861E0B27D4930
:104DA000086080207A49486108618000086141E01C
:104DB0007649488900F0E0F94FF480707449086141
:104DC00040004861201273490860802070494861A2
:104DD0000861800008614010086140004861E0B24D
:104DE0006C49086080206A49486108618000086158
:104DF000401008614000486164480088401E00126D
:104E00006449086080206249486108618000086147
:104E100040100861400048615C480078401EC0B204
:104E20005C4900E047E0086080205949486108611A
:104E3000800008615549888900F09EF94FF4807020
:104E40005349086140004861281252490860802097
:104E50004F494861086180000861401008614000C6
:104E60004861E8B24B4908608020494948610861BF
:104E70008000086140100861400048614348408854
:104E8000401E001243490860802041494861086182
:104E90008000086140100861400048613B4880780C
:104EA000401EC0B23B490860802039494861086112
:104EB0008000086169E03548808845F210518842D9
:104EC00050D13249488900F057F94FF48070304989
:104ED00008614000486120122E49086080202C495A
:104EE000486108618000086128494989491C88B2E5
:104EF00000F042F94FF48070254908614000486194
:104F0000E0B224490860802021494861086180009E
:104F100008611E49888900F02FF94FF480701C4900
:104F200008614000486128121A4908608020184929
:104F3000486108618000086114498989491C88B268
:104F400000F01AF94FF4807011490861400048617F
:104F5000E8B21049086080200D494861086180006E
:104F6000086112E009488079012804D107480088C7
:104F7000401E001B84B205494889214600F016F9FD
:104F800002498889294600F011F930BD140000203B
:104F9000001001400C0C01402DE9F84F80460E46F0
:104FA00017461C46B3462046E31704EB5373DB1049
:104FB00021464FEAE47C04EB5C7C4FEAEC0CA4EB6A
:104FC000CC0CBCF1000F02D04FF0010C01E04FF00F
:104FD000000C6344224604EBD27C4FEA6C0C03FBCA
:104FE0000CF3DBB20093A7F12000C7B2002556E016
:104FF0000C2C07D107EB47002B4901EB800010F880
:10500000059013E0102C05D1284800EB071010F88C
:1050100005900BE0182C07D107EBC700244901EBE2
:10502000800010F8059001E0BDE8F88F4FF0000A0D
:105030002FE009F0800030B11E480288314640461A
:10504000FBF748FB07E00A9828B91B48028831465D
:105050004046FBF73FFB4FEA49604FEA1069701C7E
:1050600086B216484088B04200DCDDE7A6EB0B00B4
:10507000A0420AD15E4608F101001FFA80F80F48ED
:105080000088404500DCCFE706E00AF1010000F0AF
:10509000FF0ABAF1080FCCDB00BF681CC5B200984C
:1050A0008542A5DB00BFBFE70A5E00087E620008FC
:1050B0006E6800081000002012000020140000207C
:1050C0002DE9FF4F81B0074691461E460E9D4FF0D9
:1050D000000A002439E0301B401EC1B20A20FFF74D
:1050E0009BFAB9FBF0F00A21B0FBF1F201FB1208C8
:1050F000BAF1000F16D1701EA04213DDB8F1000FF7
:105100000ED10020AB4605EBDB71491001FB0471A9
:10511000009088B22B4620220299FFF73DFF12E053
:105120004FF0010A0020AB4605EBDB71491001FB93
:105130000471009088B208F13001CAB22B4602997E
:10514000FFF72AFF00BF601CC4B2B442C3DB05B046
:10515000BDE8F08F4FF48071054A1161490051613B
:105160000449086080215161116189001161704713
:10517000001001400C0C01404FF48071054A516150
:105180004900516104490860802151611161890021
:1051900011617047001001400C0C014000B502493C
:1051A0000889FFF7E9FF00BD1400002010B5044690
:1051B0000B462046FFF7E0FF4FF480700549086179
:1051C0004000486104480360802048610861800015
:1051D000086110BD001001400C0C014000B500201A
:1051E00015490861C8601420486100208861C861C1
:1051F0000846006840F001000860084640680F4912
:1052000008400D494860084600680D4908400A49B1
:1052100008600846006820F480200860084640685E
:1052200020F4FE0048600020886000214FF00060FC
:1052300000F058F800BD0000001002400000FFF828
:10524000FFFFF6FE2DE9F0410746884614461D464D
:10525000284600F033F8C5F1040007FA00F60F20E5
:10526000284100EA0800064306F00F06E21704EBA7
:10527000D2625211920002F1E022D2F800212146BE
:10528000E31704EBD3635B11A4EB431C012303FA84
:105290000CF31A432046E31704EBD3635B119B0026
:1052A00003F1E023C3F800210348005D40EA061043
:1052B00001490855BDE8F08100E400E001460723FC
:1052C00023EA01021202054B18684FF6FF0318404B
:1052D000034B18431043014B186070470CED00E07E
:1052E0000000FA05024A0A400243024B1A60704766
:1052F00080FFFF1F08ED00E030B504460025FFF7F2
:105300006DFF1F48006840F480301D49086000BFF1
:105310001B480068400C0028FAD04FF48060184900
:105320004860A01EC4B20846406840EA8440486015
:105330000846406840F4803048601248006840F0F9
:105340003200104908600E48006840F080700C4937
:10535000086000BF0A480068400E0028FAD00848DC
:10536000406840F002000649486005E00448406893
:10537000C0F3870505F00305022DF7D130BD00000D
:1053800000100240002002401149098801F020016C
:10539000E9B10F49091D0988C8B20D2811D00A28A2
:1053A0000FD00C490C4A127888540B490978491CD3
:1053B000094A117011460978032908D1002111709A
:1053C00005E00121054A11800021034A1170704750
:1053D00000380140080000200E0000200C000020D2
:1053E000014600BF704700004FF0E021096921F03D
:1053F00004014FF0E0221161C21700EB5272C2F3B8
:10540000C702074B1A701946097801EB4102C2EB3B
:10541000C1114FF6FF7202EAC101024A11807047C2
:10542000000000200200002001460D4A12884A4375
:105430004FF0E0235A6100229A6101221A6100BFF5
:105440004FF0E022106900F001021AB100F480323E
:10545000002AF5D000224FF0E0231A619A617047CC
:105460000200002001460D4A12784A434FF0E02323
:105470005A6100229A6101221A6100BF4FF0E022B6
:10548000106900F001021AB100F48032002AF5D050
:1054900000224FF0E0231A619A617047000000205B
:1054A00000BF054A128802F04002002AF9D0C2B2B9
:1054B000014B1B1D1A807047003801401CB50920A4
:1054C000FFF71AFF4FF41651482000F04FF848201C
:1054D000FFF78AFFFBF7B0FA4FF6FF70FAF7D6FF37
:1054E0003CE01F480088002838D0002416E01D4802
:1054F000005D01A9085501A8005D1B49088000BF97
:105500001948001F008800F040000028F8D001A8CA
:10551000005D303801A90855601CC4B2032CE6DBDD
:10552000182000909DF8042001230F210846FFF762
:10553000C7FD182000909DF8052001230F211B2096
:10554000FFF7BEFD182000909DF8062001230F21D3
:105550002720FFF7B5FD002001490880C1E70000C2
:105560000C00002008000020043801402DE9F05F05
:1055700005460E46300100F0E9FA81462E4905FB4A
:1055800001F000F0E3FA8246494600F0FDF90746D3
:10559000384600F0BBFA84B2204600F0D7FA8346C2
:1055A000394600F0B3FB82464FF0834100F0E2FA47
:1055B000814600F0ABFA80464FF6FF7000EA041413
:1055C00004EB080084B21D48806940F004001B49C8
:1055D00088610846806940F4804088611848006806
:1055E00020F47F60164908600846006840F40B60AC
:1055F00008601248C06840F480401049C8600846FE
:10560000C06820F48040C8600E480480001D0088F7
:1056100042F20C0108430B49091D08800846008826
:1056200040F0200008800223252203210846FFF7CE
:1056300009FEBDE8F09F000040420F00001002404C
:1056400004080140083801404FEA1153A3F5806374
:10565000D3F11E03A8BFD3F1200C08DB4FF00042AA
:1056600042EAC12252EA505232FA03F0704709422C
:105670000BD4102BC4BF0020704703F5787CBCF11D
:10568000FF3F05D04FF0FF3070474FF000007047EC
:1056900070B500F0C3F800BF499224800020704725
:1056A000F0E7B0FA80F310FA03F10AD0C3F11D035A
:1056B00003F580634FEA41504FEA035202EBD121D8
:1056C00070474FF000007047DFF848C170B51CEA22
:1056D000111E1EBF1CEA13159EEA0C0F95EA0C0F53
:1056E00000F06F8081EA030423EA4C134EEAD47E73
:1056F00021EA4C1141F4801143F48013AE44A1FB24
:10570000024CA0FB0365AEF17F7E361955EB0C050C
:10571000A1FB034C4CF10003A0FB021C16EB0C0692
:10572000654153F10003094218BF46F0010613F426
:10573000007F0BD14FEA03314FEA0530340341EAD1
:10574000155140EA16506FF003020AE04FEAC321F8
:105750004FEAC520F40241EA555140EA56506FF035
:10576000020202EB2E4201EB025585EACE710AD00D
:105770005FEA440C18BF24F0004450F1000041F1EE
:10578000000120EAD47040F2FE7C624500D270BD78
:10579000A84214BF4FF080444FF04044002E08BF91
:1057A0000024BEF1806FA8BFA1F1C041BDE87040E8
:1057B00080F282804FF0000001F1C04101F0004111
:1057C00070479EEA0C0F0CEA131518BF95EA0C0FF0
:1057D00006D04FF0000081EA030E0EF0004170BDCC
:1057E00000F01CF88900013E00F007B800F009B88D
:1057F0004FEA430C5FEA5C5C08D081EA030100F0E9
:105800005BB84FEA410C5FEA5C5CF6D14FF00000F8
:10581000014970470000FF070000F87F0EF1020EFB
:105820002EF0030E5EF8046B364205D4012A43EBDA
:10583000030515F5001F12D8012841EB010C1CF5DA
:10584000001F0CD80ED14FEAD17C15F5001F0CEBD0
:105850004C0C0CF1020C08BF4CEBD37C04E04FF075
:10586000080C01E04FEAD37C0CEB4C0526FA05F658
:1058700006F00706B6F1040C06D20EEB860CBDE866
:1058800070404CF0010C6047DFE80CF0090B02029D
:105890004FF000414FF00000A1F5002170BD194606
:1058A0001046012851EB010418BFD4F5001484BF41
:1058B000002001F0004170BD0808A0F500114FEA7A
:1058C0003101704790EA010F48BF81F0004100F1BB
:1058D0002E82421A3CBF801A89184FEAD0524FF0EC
:1058E0007F4C1CEA410FA2EBD15318BF9CEA026F18
:1058F00000F03B804FF0004C4CEA00204CEA0121C4
:1059000021FA03FC10EB0C0C1ED202F1FF325FEA0D
:105910001C2040EBC25038BF70471CF07F0F4FEA8D
:10592000400C18BFBCF17F4F38BF7047C3F1200354
:10593000994008BF20F00100BCF17F4F38BF70478D
:10594000A0F1C04000F0DDB94FEA3C00000A40EB96
:10595000C25028BF1CF0FF0F4FEA400CE6D018BF22
:10596000BCF17F4F38BF7047EAE79CEA026F05D071
:1059700010EA5C0F08BF00F00040704710B500F05F
:105980007AF900BF64FBBE3E4FF47F0C1CEAD012D4
:105990001EBF1CEAD11392EA0C0F93EA0C0F00F021
:1059A000858090EA010F48BF42F4807240F4000CF9
:1059B00041F400002CF07F4120F07F4000B581428F
:1059C000A2EB03020FF2081CACEB504EC0F100003A
:1059D0009EF800E04FEA4E0E00FB0EFC38BF490077
:1059E0004FEA2C1C02F5FA020CFB0EF34FEACE1E16
:1059F0004FEA112C4FEAC1210EEB635E42EB2242CB
:105A00000EFB0CFC4FEA1C5300FB03114FEA112C58
:105A10004FEA01310EFB0CFC4FEADC4C00FB0C1191
:105A2000C14228BF09184CEB03335DF804EB10EBBF
:105A3000410143EBC250B2F57C0F38BF704729D506
:105A400012F0F00F1CBF00F1C04000F000407047A2
:105A5000008182838485868788898B8C8D8E8F9147
:105A60009293959697999A9C9D9FA0A2A3A5A7A86B
:105A7000AAACAEB0B2B3B5B7B9BCBEC0C2C5C7C997
:105A8000CCCED1D4D7D9DCDFE2E6E9ECF0F3F7FAFB
:105A9000FE0000004FEA400C0CF1807CBCF17E4F10
:105AA00028BF7047B0F1C04000F02BB990EA010F59
:105AB0000CEAD11348BF42F48072624538BF634597
:105AC00007D213F47F0F16D080EA010000F00040E7
:105AD000704710B500F0CFF8097EFC3E00F005B825
