:020000040800F2
:10000000E0070020D50100086D1200089F0B0008D2
:10001000C9110008B7060008691A000800000000AE
:100020000000000000000000000000004916000869
:10003000CD080008000000009914000829180008E5
:10004000EF010008EF010008EF010008EF010008D0
:10005000EF010008EF010008EF010008EF010008C0
:10006000EF010008EF010008EF010008EF010008B0
:10007000EF010008EF010008EF010008EF010008A0
:10008000EF010008EF010008EF010008EF01000890
:10009000EF010008EF010008EF010008EF01000880
:1000A000EF010008EF010008EF010008EF01000870
:1000B0008D180008A51800080D190008EF010008A8
:1000C000EF010008EF010008EF010008EF01000850
:1000D000EF010008CD190008EF010008EF0100084A
:1000E000EF010008EF010008EF010008EF01000830
:1000F000EF010008EF010008EF010008EF01000820
:10010000EF010008EF010008EF010008EF0100080F
:10011000EF010008EF010008EF010008EF010008FF
:10012000EF010008EF010008EF010008EF010008EF
:1001300000F002F800F03FF80AA090E8000C8244BA
:100140008344AAF10107DA4501D100F034F8AFF297
:10015000090EBAE80F0013F0010F18BFFB1A43F0A5
:1001600001031847CC640000EC640000103A24BF7F
:1001700078C878C1FAD8520724BF30C830C144BF0C
:1001800004680C607047000000230024002500264E
:10019000103A28BF78C1FBD8520728BF30C148BFEA
:1001A0000B607047642900F09B80002070471FB5EA
:1001B0001FBD10B510BD00F053FA1146FFF7F7FF51
:1001C00003F0D2F900F071FA03B4FFF7F2FF03BCB9
:1001D00001F03CFD0948804709480047FEE7FEE77B
:1001E000FEE7FEE7FEE7FEE7FEE7FEE7FEE7FEE7E7
:1001F00004480549054A064B704700002D180008C1
:1002000031010008E0010020E0070020E0030020A9
:10021000E0030020704710B54C1084EA530404D565
:100220004042C1F1000138BF491E1B4204D5524271
:10023000C3F1000338BF5B1E00F0C6F814F0804F16
:1002400004D04042C1F1000138BF491E14F0004FF4
:1002500004D05242C3F1000338BF5B1E10BD000042
:100260000FB4044910B503AA029800F07DF910BC40
:100270005DF814FB380000202DE9F0410E460446DD
:10028000002020622046E168884730B3252805D049
:10029000D4E901219047206A401CF2E7E16820463A
:1002A00000278847050018D0A5F14100192802D879
:1002B00020354FF400673246294620462760FFF775
:1002C00071FF40B1012804D0F61D26F0070608365C
:1002D000D8E7361DD6E72846DAE7206ABDE8F08180
:1002E0002DE9F0410646002410687529314616A50F
:1002F00010D0AFF30080002802DA404213A507E0D7
:1003000031688A0701D512A502E0490704D511A575
:10031000012401E0AFF3008000210A2206F1240746
:1003200009E0B0FBF2FCB0FBF2F302FB1C00303042
:1003300078541846491C0028F3D123462A463046F3
:10034000BDE8F04100F0B7B8000000002D0000004B
:100350002B0000002000000040EA010310B59B07BD
:100360000FD1042A0DD310C808C9121F9C42F8D01F
:1003700020BA19BA884201D9012010BD4FF0FF30D0
:1003800010BD1AB1D30703D0521C07E0002010BDE6
:1003900010F8013B11F8014B1B1B07D110F8013B72
:1003A00011F8014B1B1B01D1921EF1D1184610BD53
:1003B00002F0FF0343EA032242EA024200F0E8B8F7
:1003C000704770477047704753EA020C00F069802D
:1003D0002DE9F04B4FF00006002B1FBFB3FA83F559
:1003E00003FA05F424FA05F65E4012BF1643B2FA8A
:1003F00082F502FA05F4C5F120051EBF22FA05FCBC
:1004000044EA0C04203556EA044C4FEA144418BF61
:10041000641C4FF000084FF00009904271EB030C90
:1004200039D3002919BFB1FA81F701FA07F6B0FAFA
:1004300080F700FA07F6C7F120071EBF20FA07FC75
:1004400046EA0C062037B6FBF4FCA7EB0507103F85
:1004500007F01F0BCBF120060CFA0BFB2CFA06F66B
:1004600044BFB3460026202FA4BF5E464FF0000BCA
:100470005BEA060C08BF4FF0010B19EB0B09ABFB55
:10048000027C48EB0608C01B06FB02CC0BFB03CC2E
:1004900071EB0C01C1E70B46024641464846BDE8F8
:1004A000F08B13B54FF000004FF00001AFF3008068
:1004B000BDE81C4070472DE9F0470D46994692462D
:1004C000044600F124080168880604D5E06921F09B
:1004D0001001216000E00120A84201DD471B00E07F
:1004E0000027A1697A1902EB0900081AA061207897
:1004F000C00602D42046AFF30080002608E0D4E90D
:1005000001211AF806009047206A401C761C2062E0
:100510004E45F4DB2078C0060AD52046AFF30080B4
:1005200006E0D4E9012130209047206A401C206277
:10053000381EA7F10107F4DC07E0D4E9012118F81F
:1005400005009047206A401C2062281EA5F1010585
:10055000F3DC2046AFF300802078000602D50220AD
:10056000BDE8F0870120FBE7074B70B50D467B44E3
:1005700000F033F80446284600F042F810B14FF07E
:10058000FF3070BD204670BD5B2800004FF00002B8
:100590000429C0F0128010F0030C00F03780CCF179
:1005A000040CBCF1020F18BF00F8012BA8BF20F803
:1005B000022BA1EB0C0100F029B85FEAC17C24BF3B
:1005C00000F8012B00F8012B48BF00F8012B704701
:1005D00001694A1C02610878704700B58FB0CDE907
:1005E00001310021059105497944CDE903101146F7
:1005F0006846FFF741FE0FB000BD0000E5FFFFFFBA
:10060000007B00F0800070474FF0000200B51346F9
:1006100094469646203922BFA0E80C50A0E80C5022
:10062000B1F12001BFF4F7AF090728BFA0E80C50D3
:1006300048BF0CC05DF804EB890028BF40F8042BCC
:1006400008BF704748BF20F8022B11F0804F18BF39
:1006500000F8012B70470000004870477C01002023
:100660007546FFF7F9FFAE4605006946534620F090
:100670000700854618B020B5FFF7BAFDBDE8204059
:100680004FF000064FF000074FF000084FF0000B4E
:1006900021F00701AC46ACE8C009ACE8C009ACE801
:1006A000C009ACE8C0098D4670470446AFF300802E
:1006B0002046FFF789FD00BFFEE7000038B50020A7
:1006C00000906B4601227521682002F0A7FE2CA045
:1006D000FFF7C6FD9DF8000068280ED000BF314826
:1006E000006800F4E06030490843001D2D490860AF
:1006F000BFF3408F00BF00BFFEE703F06BF8002898
:100700003CD1782003F070FE10B91DA0FFF7A8FDC2
:10071000782002F04DFF10B924A0FFF7A1FDC820FA
:1007200003F014FE10B92BA0FFF79AFD01F0EAFECA
:1007300010B932A0FFF794FD3D4802F0DAFE0446FE
:1007400002F03AF910B93BA0FFF78AFD40F27310AE
:1007500001F080FD10B941A0FFF782FDC82002F032
:100760005BF810B947A0FFF77BFD03F0EDFE012019
:1007700003F0E8FC10B94CA0FFF772FD38BD000093
:100780006D70755F7365745F73656E736F722063F0
:100790006F6D706C657465202E2E2E2E2E2E0D0A18
:1007A000000000000CED00E00000FA056D70755FC0
:1007B000636F6E6669677572655F6669666F2063F1
:1007C0006F6D706C657465202E2E2E2E2E2E0D0AE8
:1007D000000000006D70755F7365745F73616D700C
:1007E0006C655F7261746520636F6D706C657465B4
:1007F000202E2E2E2E2E2E0D0A000000646D705F0E
:100800006C6F61645F6D6F74696F6E5F647269763F
:1008100065725F6669726D7761726520636F6D7076
:100820006C657465202E2E2E2E2E2E0D0A000000D3
:1008300094000020646D705F7365745F6F7269650A
:100840006E746174696F6E20636F6D706C65746532
:10085000202E2E2E2E2E2E0D0A000000646D705FAD
:10086000656E61626C655F66656174757265206353
:100870006F6D706C657465202E2E2E2E2E2E0D0A37
:1008800000000000646D705F7365745F6669666F79
:100890005F7261746520636F6D706C657465202E86
:1008A0002E2E2E2E2E0D0A006D70755F7365745FEF
:1008B000646D705F737461746520636F6D706C65D7
:1008C0007465202E2E2E2E2E2E0D0A00704700004D
:1008D00010B52E48C06940F001002C49C861084697
:1008E000806940F0040088612948006820F0FF001A
:1008F000274908600846006840F044000860C804C2
:10090000808940F00100C90488810846808940F050
:100910004000888101231C220321184600F0FAFBC5
:1009200000204FF0804108854FF6FF70888508460B
:10093000008820F4407008800846008820F060009D
:1009400008800846008B40F0010008830846008BB1
:1009500040F4807008830846008C20F00200088470
:100960000846008C20F0200008840846008B40F0E8
:10097000300008830846008940F0030008810846DB
:10098000008840F00100088010BD00000010024007
:100990000008014010B53748C06940F004003549EF
:1009A000C8610846806940F00800886132480068E4
:1009B00020F07F40304908600846006840F08840D9
:1009C00008602E48008840F001002C490880084645
:1009D000008840F04000088001231E2203211846B1
:1009E00000F098FB002025491C3108804FF6FF706D
:1009F000091D088021480C38008820F440701F49E8
:100A00000C3908800846008820F0600008801B48E8
:100A10000C30008840F0010018490C31088008466D
:100A2000008840F48070088014481430008820F05A
:100A300002001249143108800846008820F0200086
:100A400008800E480C30008840F030000B490C3113
:100A500008800A48001F008840F003000749091F6A
:100A6000088006480C38008840F0010003490C3922
:100A7000088010BD00100240000C01400C0800402E
:100A80002DE9F04102460025002600200023002425
:100A9000002791F803C00CF00F0591F803C00CF08B
:100AA000100CBCF1000F03D091F802C04CEA050510
:100AB00091F800C0BCF1000F31D0146800202BE089
:100AC0004FF0010C0CFA00F3B1F800C00CEA030679
:100AD0009E4220D183004FF00F0C0CFA03F7BC4369
:100AE00005FA03FC4CEA040491F803C0BCF1280F9A
:100AF00006D14FF0010C0CFA00FCC2F814C00AE059
:100B000091F803C0BCF1480F05D14FF0010C0CFA6D
:100B100000FCC2F810C0401C0828D1D31460B1F802
:100B200000C0BCF1FF0F34DD546800202EE000F15E
:100B3000080C4FF0010808FA0CF3B1F800C00CEAF9
:100B400003069E4221D183004FF00F0C0CFA03F7ED
:100B5000BC4305FA03FC4CEA040491F803C0BCF161
:100B6000280F05D100F1080C08FA0CF8C2F814801F
:100B700091F803C0BCF1480F07D100F1080C4FF009
:100B8000010808FA0CF8C2F81080401C0828CED3DF
:100B90005460BDE8F081416170470161704700BF5A
:100BA000FEE770B505460E46002400F0E9F8284639
:100BB00000F0B4F8641C00F03BF9304600F0AEF8E9
:100BC000641C00F035F900F0DBF8691CC8B200F0D5
:100BD000A5F8641C00F02CF9002000F067F804462A
:100BE00000F002F9204670BD10B500200E490860E3
:100BF0000E48006820F470600C49086008460068E0
:100C000040F44070086000200949C1F888010120C3
:100C100001F0E4FA01200449086001F0DFFA002045
:100C20000349C1F88C0110BD8C012142000801402C
:100C3000000021420848806940F0040006498861AC
:100C40000648006820F47F400449086008460068B0
:100C500040F44C500860704700100240000801400A
:100C600010B500200E4908600E48006820F470603E
:100C70000C4908600846006840F440700860012094
:100C80000949C1F8880101F0A9FA01200449086066
:100C900001F0A4FA00200449C1F88C0110BD000045
:100CA0008C012142000801400000214270B5054638
:100CB00000241748006820F4706015490860084651
:100CC000006840F400600860002616E0002011492A
:100CD0000860022001F082FA01200F49C1F88C015E
:100CE0006006040E0B488438006808B1601CC4B26A
:100CF000022001F073FA701CC6B2082EE6DB15B1B3
:100D0000FFF772FF01E0FFF7ABFF204670BD000068
:100D1000000801408C0121420000214270B50446C8
:100D20001448006820F470601249086008460068A2
:100D300040F44070086000200F490860002516E06C
:100D4000E0090D49091F08606006040E012001F04A
:100D500045FA01200949C1F88C0101F03FFA002051
:100D600005490860012001F039FA681CC5B2082D58
:100D7000E6DB70BD000801408C01214200002142E9
:100D800010B51648006820F47060144908600846E1
:100D9000006840F440700860012011490860114863
:100DA000D0F8080108B9002010BD01200C49091D28
:100DB000086001F013FA00200A49C1F888010848C8
:100DC0008038006808B10020EEE7012001F006FA43
:100DD00000200349091D08600120E5E700080140E3
:100DE000880121420000214210B50E48006820F41D
:100DF00070600C4908600846006840F44070086064
:100E00000020094908600949C1F88801012001F062
:100E1000E5F90120044908600449C1F8880101F09E
:100E2000DDF910BD000801408C0121420000214283
:100E300010B500241548006820F47060134908605C
:100E40000846006840F4006008600120104908600E
:100E500001F0C4F901200F49C1F88C0101F0BEF97D
:100E60000AE0601CC4B2322C03DDFFF7BDFF002096
:100E700010BD012001F0B2F9054880380068002853
:100E8000EFD10349091D08600120F1E70008014086
:100E9000880121420000214210B501210748FFF7D7
:100EA0007CFE02210548FFF778FE02210348FFF788
:100EB00072FE01210148FFF76EFE10BD000C0140DB
:100EC00010B501210548FFF768FE02210348FFF72E
:100ED00062FE02210148FFF760FE10BD000C0140D8
:100EE00010B501210348FFF758FE01210148FFF723
:100EF00052FE10BD000C014070B505460E4614466A
:100F000031462846FFF74DFE2070012070BDF8B530
:100F100006460F4614461D466A4639463046FFF7D8
:100F2000EBFF2DB10120A0409DF80010084305E023
:100F30000120A0409DF8001021EA0000C0B20090FE
:100F40009DF800203946304600F036F8F8BD2DE90E
:100F5000F8430746884614461D46089E6A464146A1
:100F60003846FFF7C9FF28B3601CFF2101FA00F0E3
:100F7000C4F108012944491EFF220A41104300F030
:100F8000FF09C5F1080006FA00F0C6B2C4F1070077
:100F900006419DF8000000EA090000909DF800005D
:100FA000304300909DF800204146384600F004F898
:100FB000BDE8F8830020FBE737B504460D4602ABD9
:100FC00001222946204600F001F83EBD2DE9F041FE
:100FD00080460D4616461F460024FFF7D1FE4046C8
:100FE000FFF79CFEFFF724FF2846FFF797FEFFF769
:100FF0001FFF00BF06E0385DFFF790FEFFF718FF08
:10100000601CC4B2B442F6DBFFF7EEFE0120BDE87F
:10101000F08110B5022000F010F8032000F021F854
:10102000002000F014F8002000F037F8002000F055
:101030002BF8002000F01FF810BD38B5044603233C
:1010400002226B21D0200094FFF781FF38BD38B514
:101050000446022304221C21D0200094FFF777FFCE
:1010600038BD38B50446022304221B21D020009449
:10107000FFF76DFF38BD10B5044623460122372126
:10108000D020FFF744FF10BD10B5044623460522CB
:101090006A21D020FFF73BFF10BD10B50446234660
:1010A00006226B21D020FFF732FF10BD00B50020D3
:1010B00015490861C8601420486100208861C86132
:1010C0000846006840F001000860084640680F4983
:1010D00008400D494860084600680D4908400A4923
:1010E00008600846006820F48020086008464068D0
:1010F00020F4FE0048600020886000214FF000606E
:1011000000F058F800BD0000001002400000FFF899
:10111000FFFFF6FE2DE9F0410746884614461D46BE
:10112000284600F033F8C5F1040007FA00F60F2056
:10113000284100EA0800064306F00F06E21704EB18
:10114000D2625211920002F1E022D2F8002121462F
:10115000E31704EBD3635B11A4EB431C012303FAF5
:101160000CF31A432046E31704EBD3635B119B0097
:1011700003F1E023C3F800210348005D40EA0610B4
:1011800001490855BDE8F08100E400E0014607236D
:1011900023EA01021202054B18684FF6FF031840BC
:1011A000034B18431043014B186070470CED00E0EF
:1011B0000000FA05024A0A400243024B1A607047D7
:1011C00080FFFF1F08ED00E000BFFEE710B51348E9
:1011D00001681348006800F061FF12490860124876
:1011E00001681248006803F0CDFA114908600D4803
:1011F0000068104908600B4800680F49086000F05B
:101200008BFC0748006800F0BBFB28B90A4801685E
:101210000848006800F08EFA10BD000004000020AD
:10122000000000201C0000201400002010000020FE
:1012300020000020080000200C00002008488069E1
:1012400040F00800064988610648006880B20549F8
:10125000086008460068044908430249086070476E
:1012600000100240040C014000002222704770B5BB
:10127000002418E004F1B000002100F09FF80021E4
:10128000084600F09BF80021102000F097F8002598
:1012900005E00121002000F091F8681CC5B2802D06
:1012A000F7DB601CC4B2082CE4DB70BD08B501217B
:1012B000082000F0F3F80320ADF8000010208DF8AE
:1012C000030003208DF8020069463B48FFF7D8FB76
:1012D00003213948FFF761FCC82000F061FF0021BD
:1012E000AE2000F06BF80021084600F067F80021FE
:1012F000102000F063F80021402000F05FF800218A
:10130000B02000F05BF80021812000F057F80021A8
:10131000FF2000F053F80021A12000F04FF8002139
:10132000A62000F04BF80021A82000F047F800218B
:101330003F2000F043F80021C82000F03FF80021D2
:10134000D32000F03BF80021084600F037F80021D8
:10135000D52000F033F80021802000F02FF8002184
:10136000D82000F02BF80021052000F027F80021FC
:10137000D92000F023F80021F12000F01FF800210F
:10138000DA2000F01BF80021122000F017F80021ED
:10139000DB2000F013F80021302000F00FF80021CE
:1013A0008D2000F00BF80021142000F007F8002138
:1013B000AF2000F003F808BD000C014070B50446F2
:1013C0000D461DB1E0B200F091FB02E0E0B200F08A
:1013D00077FB70BD00B502460B46FFF72FFF2B4889
:1013E000806940F40060294988610846806940F0BE
:1013F00004008861264800684FF20F0188432449A1
:101400000860084600684BF20B0108432049086059
:1014100020480280001F03801E481038008840F4D6
:10142000C0401C4910390880081F008840F0600047
:10143000091F0880081D008840F40060091D08800D
:10144000081F008840F00800091F088011480C3868
:10145000008840F480500F490C3908800846008805
:1014600040F0010008800B481830008840F400402C
:101470000849183108804FF4004006492C3908808B
:101480000846008840F00100088000BD00100240BE
:10149000040801402C2C01407047000029B1064A85
:1014A00092690243044B9A6104E0034A92698243C1
:1014B000014B9A6170470000001002402DE9F04F87
:1014C0008DB00AA849490BAB06AACDE900104849DE
:1014D000484801F023F84548008800F4807000284F
:1014E0007ED0069803F0B2FF04464FF09D4103F012
:1014F0007BFE41490860079803F0A8FF04464FF0BF
:101500009D4103F071FE3D490860089803F09EFF7D
:1015100004464FF09D4103F067FE39490860099881
:1015200003F094FF04464FF09D4103F05DFE354902
:101530000860334801684FF0804003F0E7FF0190F6
:101540002F480168019803F0E1FF82462B480168AB
:101550004FF0404003F0DAFF0190284801680198FD
:1015600003F0D4FF8346514604F0D8F881464FF08B
:101570007E5103F0CBFD044603F09CFDCDE9020152
:101580001D4801684FF0804003F0C0FF83461B48B0
:101590000168584603F0BAFF8146194801684FF0C8
:1015A000804003F0B3FF834616480168584603F0B5
:1015B000ADFF8246494603F0A9FD044603F07AFDDB
:1015C0000746DDE9022300F0A9FC4FF066320E4B1E
:1015D000CDE9040103F07AFB054603F03DF900E094
:1015E00001E00A4908600DB0BDE8F08F80000020DE
:1015F0007A00002074000020840000208800002071
:101600008C0000209000002066A64C407000002056
:101610000146022902D0042910D108E04FF080428F
:10162000928C10B200224FF080439A8408E0054A61
:10163000128810B20022034B1A8001E0002000BF84
:1016400000BF704724080040704710B500F002F852
:1016500010BD00000CB500200190009033480068D8
:1016600040F480303149086000BF3048006800F421
:10167000003000900198401C0190009818B9019822
:10168000B0F5A06FF1D12948006800F4003010B126
:101690000120009001E0002000900098012843D133
:1016A0002348006840F0100021490860084600689F
:1016B00020F0030008600846006840F0020008605F
:1016C0001A4840681949486008464068486008461A
:1016D000406840F4806048600846406820F47C1010
:1016E00048600846406840F4E810486008460068D2
:1016F00040F08070086000BF0C48006800F0007087
:101700000028F9D00948406820F0030007494860E4
:101710000846406840F00200486000BF0348406847
:1017200000F00C000828F9D10CBD000000100240A8
:101730000020024000B502460B46002A0DDA0020C8
:10174000124908601249C1F8B40101200F490C394F
:1017500008600F49C1F8B8010CE001200B4908608E
:101760000B49C1F8B401002008490C390860084948
:10177000C1F8B801104602F0DFFE064908801046A5
:1017800002F0DAFE03490C31088000BDBC81214221
:1017900000802142342C014030B504460025FFF77B
:1017A00085FC1F48006840F480301D49086000BF78
:1017B0001B480068400C0028FAD04FF4806018499C
:1017C0004860A01EC4B20846406840EA84404860B1
:1017D0000846406840F4803048601248006840F095
:1017E0003200104908600E48006840F080700C49D3
:1017F000086000BF0A480068400E0028FAD0084878
:10180000406840F002000649486005E0044840682E
:10181000C0F3870505F00305022DF7D130BD0000A8
:1018200000100240002002407047000010B513482D
:10183000006840F0010011490860084640681049FE
:1018400008400E494860084600680E4908400B49A8
:1018500008600846006820F4802008600846406858
:1018600020F4FE0048604FF41F008860FFF7EDFE93
:101870004FF000600449086010BD000000100240F5
:101880000000FFF8FFFFF6FE08ED00E04FF080409B
:10189000008A4FF08040008A20F001004FF0804124
:1018A0000882704710B51248008800F00100C0B1EE
:1018B000FFF704FE0F4800680F4908600F49B1F9AF
:1018C000000003F0C3FD0E4908600220FFF7A0FEF0
:1018D0000C4908600420FFF79BFE0B490860FFF7E6
:1018E00075FC0348008820F001000149088010BD04
:1018F0001004004070000020000000207400002050
:10190000040000201000002014000020044800887B
:101910000348008820F0010001490880704700005A
:101920001008004010B51448C06940F00200124988
:10193000C8611248008840F001001049088041F653
:101940001F400E49283108803120091D08800B48AE
:101950000C30008840F0010008490C31088008462E
:10196000008840F04000088002231D221946012013
:10197000FFF7D0FB10BD0000001002400004004043
:1019800070B505460D49284603F08CFD04D30C497B
:10199000284603F087FE0DD2012400200949086083
:1019A0000949C1F8BC010749091F08600649C1F887
:1019B000B00100E00024204670BD00000000A0C17E
:1019C0000000A041B88121420080214222480088C5
:1019D00000F0200000283ED01F48001D00881F494D
:1019E000087000201C4908801D48008800F4004051
:1019F00088BB1B48008800F4804070B1174800780D
:101A00000A2803D000201649088024E014480088E2
:101A100040F40040124908801DE0104800780D286D
:101A200006D10F48008840F480400D49088012E03C
:101A30000A4800780A490988C1F30D01094A50543F
:101A400007480088401C0649088008460088C728C7
:101A500001DD002008807047003801401900002097
:101A60003C000020A400002000BFFEE72DE9F0416B
:101A700005462C4601211148FFF78DF8002619E094
:101A8000274607F08007802F04D102210B48FFF77B
:101A900084F803E002210948FFF77DF86006040E90
:101AA00001210648FFF779F801210448FFF773F890
:101AB000701CC6B2082EE3DBBDE8F081000C0140CB
:101AC00010B50446FFF7E8F97820FFF7CFFFFFF7DE
:101AD00007FA0020FFF7CAFFFFF702FA2046FFF7D8
:101AE000C5FFFFF7FDF9FFF7EBF910BD10B5044690
:101AF000FFF7D2F97820FFF7B9FFFFF7F1F940209F
:101B0000FFF7B4FFFFF7ECF92046FFF7AFFFFFF751
:101B1000E7F9FFF7D5F910BD41F6F4200E49096841
:101B20004242914202DA41420B4A11600A49096875
:101B3000814201DD08490860084909684242914232
:101B400002DA4142054A116004490968814201DD17
:101B50000249086070470000080000200C000020C7
:101B6000490050EAC12018BF04204A0D18BF40F0B8
:101B7000010040F2FF72B2EB515F08BF40F002007B
:101B8000012808BF052070472DE9F0414F1E00EBEA
:101B9000C7010446D1E9000115461E4637F006028A
:101BA0000DD02A46334603F091F87F1E04EBC7039D
:101BB000D3E9002302F082FE37F00602F1D1022FB2
:101BC00025D0042F13D0062F18BFBDE8F0812A4678
:101BD000334603F07BF8D4E90A2302F06FFE2A466D
:101BE000334603F073F8D4E9082302F067FE2A466F
:101BF000334603F06BF8D4E9062302F05FFE2A4671
:101C0000334603F063F8D4E9042302F057FE2A4672
:101C1000334603F05BF8D4E9022302F04FFE2A4674
:101C2000334603F053F8D4E90023BDE8F04102F055
:101C300045BE012203F019BE02F040BE024A002058
:101C4000110703F012BE000001FDFFFF014600BFB7
:101C5000704700002DE9FE4F06460F4600256846F6
:101C600001F0C2F8002442E056F8240057F824108E
:101C7000A0EB010ABAF1000F01DB514601E0CAF105
:101C80000001084603F0E2FB83464FF08F4103F06A
:101C9000ABFA80465DF82400002103F067FB16D004
:101CA0005DF82410404603F09FFA82464FF07E51C3
:101CB00003F034FD814629F0004A0F48416A50463E
:101CC00003F0F0FC12D20120A04005430EE00A48C8
:101CD000C169404603F0E6FB05D30748016A404668
:101CE00003F0E0FC02D20120A0400543641C032C59
:101CF000BADB2846BDE8FE8F205900082DE9F84FD1
:101D000004460D4621F0004000917349814211DCE8
:101D10007249884201DC06D12CB120462946BDE833
:101D2000F84FFFF786BF6E48002DCCBF6D496E4956
:101D3000BDE8F88F6D49814211DD6D498142D8BF00
:101D40004FF0FF366DDD20462946FFF709FF0428D6
:101D500008BFFFF773FF20462946BDE8F88F6549A5
:101D6000654F25F00045814233DD6449814219DD2C
:101D7000002632464FF080432046294602F09EFD61
:101D800080468A4601222046294603F06EFD002245
:101D90003B4603F0A5F84246534602F03FFE044698
:101DA0000D463EE001260022BA463B462046294623
:101DB00002F084FD80460F46002253462046294605
:101DC00003F08EF842463B4602F028FE04460D46DC
:101DD00027E04B4981421BDDDFF828A102260022C3
:101DE00053462046294602F071FF00223B4602F08E
:101DF00065FD80460F46002253462046294603F0E3
:101E00006FF842463B4602F009FE04460D4608E0E4
:101E1000032622462B4600203B4902F0FFFD0446E4
:101E20000D4622462B461046194602F04FFF8B46C0
:101E3000824602460B4602F049FF074602463348F7
:101E400088460B4606217844FFF79EFE52465B46C5
:101E500002F03CFF82462E488B463A464346052117
:101E60007844FFF791FE3A46434602F02FFF0246C0
:101E70000B46002E504659460CDA02F01FFD224652
:101E80002B4602F023FF01B022462B46BDE8F04F5F
:101E900003F01AB802F012FD22462B4602F016FF9C
:101EA0001C4A7A4402EBC603D3E9002303F018F876
:101EB00022462B4603F014F8174A7A4402EBC60375
:101EC000D3E9002303F000F8009A002AB8BF81F09C
:101ED0000041BDE8F88F0000000010440000F07FD2
:101EE000182D4454FB21F93FFB21F9BF0000DC3FD2
:101EF0000000203E0000F33F0000F03F0000E63FFE
:101F0000008003400000F83F0000F0BF5E47000083
:101F10001C470000BA460000824600002DE9F04D43
:101F20009446CCF1000423F000464CEA0404524FDE
:101F300046EAD4749A46884621F00042BC4206D84C
:101F4000454240EA050442EAD474BC4204D9BDE8E3
:101F5000F04D6246FFF770BEAAF14055A5F17F65CE
:101F600055EA0C040BD0022404EAAA74434DDFF8AE
:101F700010E144EAD87452EA000B04D00CE0BDE84A
:101F8000F04DFFF7BBBE002C14BF012CBDE8F08D57
:101F9000022C30D0032C32D056EA0C0B0AD0BE42B1
:101FA00020D1BA4209D126F0804622F08042334641
:101FB000114617E000291ADB25E0DFF8C8B0FB4422
:101FC000002C04BFDBE90001BDE8F08D012C02BF4D
:101FD000DBE9000181F00041BDE8F08D022C0AD060
:101FE000032C0CD0BA4212D1B8F1000F0BDA2348FF
:101FF0002549BDE8F08D28462449BDE8F08D2846E6
:102000007146BDE8F08D1D482149BDE8F08D921B59
:1020100012153C2AC4BF19481D490EDCBAF1000F45
:10202000BEBF12F13C0F0020014606DB624602F003
:10203000F5FC21F00041FFF761FE002C08BFBDE870
:10204000F08D012C04BF81F00041BDE8F08D114AF4
:10205000114B022C07D002F043FF2A46BDE8F04D99
:102060000A4B02F03DBF02F03BFF2A46BDE8F04DAF
:10207000064B02F029BF00000000F07F182D4454E9
:10208000FB2109C016460000FB21F9BFFB210940D6
:10209000FB21F93F075C143326A6A13C2DE9FC5F28
:1020A00081460C46DFF844B011480190484603F0E1
:1020B00001F807460F4A104B02F012FF054602F0E6
:1020C000CBFB82462046019903F020FA0646514692
:1020D000584603F01BFA0746314603F017F8054649
:1020E00003F078F900900098BDE8FC9F0000AFC3B2
:1020F000333333BF9A9999999999C93F2DE9F041A2
:102100000446E07800F0C006E07800F03F05607813
:1021100000F0010098B1EF102846E91705EB517166
:10212000C910A5EBC101491C01F0FF080B4800686C
:1021300020B10A48414602683846904700BF60789F
:1021400000F0080030B10548406818B1B011034AEA
:10215000516888470020BDE8F08100006C01002034
:102160004FF0E021096921F004014FF0E0221161F4
:10217000C21700EB5272C2F3C702074B1A7019461E
:10218000097801EB4102C2EBC1114FF6FF7202EA7E
:10219000C101024A1180704734000020360000203F
:1021A00001460D4A12884A434FF0E0235A6100224B
:1021B0009A6101221A6100BF4FF0E022106900F01D
:1021C00001021AB100F48032002AF5D000224FF04B
:1021D000E0231A619A6170473600002001460D4ADB
:1021E00012784A434FF0E0235A6100229A6101229B
:1021F0001A6100BF4FF0E022106900F001021AB12D
:1022000000F48032002AF5D000224FF0E0231A615A
:102210009A6170473400002038B5044664B120202C
:102220008DF8000028208DF8010030208DF8020084
:1022300038208DF8030004E0A32204216846FEF74D
:10224000B7F86A46042140F69E2002F035F901F005
:1022500025FD38BD3EB5044602208DF80000CA2099
:102260008DF80100E3208DF8020009208DF80300AD
:102270006A460421682002F01FF9A3208DF80000AF
:1022800004F0400048B1C0208DF80100C8208DF84E
:102290000200C2208DF8030006E0A3208DF80100A3
:1022A0008DF802008DF8030004F4C07048B1C4201A
:1022B0008DF80400CC208DF80500C6208DF80600AE
:1022C00006E0A3208DF804008DF805008DF80600C7
:1022D000A3208DF807008DF808008DF809006A46E4
:1022E0000A2140F6A72002F0E7F804F0030018B135
:1022F00020208DF8000002E0D8208DF800006A460A
:10230000012140F6B62002F0D7F804F0200018B101
:10231000012000F0ADF802E0002000F0A9F804F47C
:10232000C07008B304F4807060B1B2208DF8000072
:102330008B208DF80100B6208DF802009B208DF8CF
:1023400003000BE0B0208DF8000080208DF8010024
:10235000B4208DF8020090208DF803006A46042115
:1023600040F6A22002F0A8F804F0010020B3F82003
:102370008DF800006A4601214FF40B6002F09CF8D2
:10238000FA21072000F02CFC072000F0F3FB0120CD
:1023900000F013FC642000F0F3FC4FF4FA7000F03E
:1023A00002FDC821304800F0A3FB282000F0BCFB50
:1023B0000A2000F0CCFB08E0D8208DF800006A4627
:1023C00001214FF40B6002F077F804F0020018B11D
:1023D000D9208DF8000002E0D8208DF800006A4670
:1023E000012140F23D7002F067F804F0040018B1DA
:1023F000012000F069F802E0002000F065F804F028
:10240000100018B10120FFF707FF02E00020FFF7DE
:1024100003FF44F008001549488101F03FFC00200B
:102420001249887304F0400018B10846807B801D73
:10243000887304F4C07020B10C48807B801D0B4968
:10244000887304F0140020B10848807B10300749DD
:10245000887304F0030020B10448807B001D034909
:10246000887300203EBD000009E3CA026C01002011
:102470003EB504466CB10EA1D1E900208968CDE9D2
:10248000002002916A4609214FF4976002F014F887
:102490003EBD0AA2D2E900109268CDE90102009186
:1024A0006A4609214FF4976002F006F8F0E7000051
:1024B000B8AAB38DB4980D355D000000B8AAAAAAD9
:1024C000B088C3C5C700000038B5044664B1C02059
:1024D0008DF80000C2208DF80100C4208DF80200A4
:1024E000C6208DF8030004E08B2204216846FDF726
:1024F0005FFF6A46042140F6982001F0DDFF01F0FD
:10250000CDFB38BD10B5C8234FF48062024940F6B8
:10251000F63001F057FA10BD485900082DE9F04F88
:102520008DB00746884615469946DDE9166B0024AE
:10253000002030806B49887B5A4605A901F00EFBCC
:1025400018B1601E0DB0BDE8F08F6648807A00F0CB
:102550001400002867D09DF8140000069DF815109F
:1025600040EA01409DF8161040EA01209DF817103E
:10257000084328609DF8180000069DF8191040EAED
:1025800001409DF81A1040EA01209DF81B100843F5
:1025900068609DF81C0000069DF81D1040EA01408F
:1025A0009DF81E1040EA01209DF81F100843A86006
:1025B0009DF8200000069DF8211040EA01409DF89A
:1025C000221040EA01209DF823100843E86004F13E
:1025D0001000C4B2286800140190686800140290CA
:1025E000A86800140390E868001404900198404320
:1025F000029901FB0100039901FB0100049901FB11
:10260000010ABAF1706F02DBBAF1885F05DD01F0F3
:1026100045FB00203080401E94E7B6F9000040F4EE
:102620008070308000BF2F48807A00F0400020B3D7
:1026300005A9601C085C095D40EA012000B2A8F809
:10264000000005A9E01C095C05AAA01C105C41EA79
:10265000002000B2A8F8020005A9601D095C201D39
:10266000105C41EA002000B2A8F80400A01DC4B22A
:10267000B6F9000040F0080030801A48408900F4A4
:10268000C07008B305A9601C085C095D40EA012020
:1026900000B2388005A9E01C095C05AAA01C105CEA
:1026A00041EA002000B2788005A9601D095C201D68
:1026B000105C41EA002000B2B880A01DC4B2B6F997
:1026C000000040F0700030800648807A00F003007F
:1026D00018B105A90819FFF711FD484601F033FFAD
:1026E00000202FE76C01002070B588B0064601A8D5
:1026F00000F0BCFFBDF804000021C90341EA5045C9
:10270000C4034448007A00F0030056F82000059006
:102710004048007A00F0040010B10598404205904E
:102720003C48007AC0F3C10056F8200006903948B2
:10273000007A00F0200010B106984042069035481B
:10274000007AC0F3811056F82000079031480089C4
:1027500000F4807010B10798404207900598C117A7
:10276000A0FB042301FB043100FB0510810041EABA
:10277000927005900698C117A0FB042301FB043159
:1027800000FB0510810041EA927006900798C1177E
:10279000A0FB042301FB043100FB0510810041EA8A
:1027A000927007900598000E8DF808000598000CAF
:1027B0008DF809000598000A8DF80A000598C0B246
:1027C0008DF80B000698000E8DF80C000698000C92
:1027D0008DF80D000698000A8DF80E000698C0B21C
:1027E0008DF80F000798000E8DF810000798000C68
:1027F0008DF811000798000A8DF812000798C0B2F2
:102800008DF8130002AA0C214FF4257001F054FE3C
:1028100008B070BD6C01002030B585B0044616A22A
:1028200007CA02AB07C3C82C03DD4FF0FF3005B069
:1028300030BDC82090FBF4F0401E85B2280A8DF808
:102840000000E8B28DF801006A46022140F216202D
:1028500001F032FE10B14FF0FF30E8E702AA0C2180
:1028600040F6C12001F028FE10B14FF0FF30DEE746
:10287000044884810020DAE7FEF2ABC4AAF1DFDF6E
:10288000BBAFDFDF6C0100201FB504464848007A6B
:1028900000F0030054F8200001904548007A00F051
:1028A000040010B10198404201904148007AC0F301
:1028B000C10054F8200002903D48007A00F020004A
:1028C00010B10298404202903948007AC0F381105A
:1028D00054F8200003903648008900F4807010B14D
:1028E0000398404203903349019880FB0101800F17
:1028F00040EA810001902F49029880FB011082007C
:1029000042EA917002902B49039880FB01108200EB
:1029100042EA917003900198000E8DF80000019832
:10292000000C8DF801000198000A8DF80200019852
:10293000C0B28DF803006A4604214FF4747001F0B0
:10294000BBFD18B14FF0FF3004B010BD0298000E6F
:102950008DF800000298000C8DF801000298000A22
:102960008DF802000298C0B28DF803006A46042177
:102970004FF4757001F0A0FD10B14FF0FF30E3E7A8
:102980000398000E8DF800000398000C8DF80100EC
:102990000398000A8DF802000398C0B28DF8030076
:1029A0006A4604214FF4767001F086FDCCE7000002
:1029B0006C01002009E3CA0210B586B0044647A0A6
:1029C0000068039046A00068029046A0006801904D
:1029D00045A00068009004F0030003A9085C8DF88E
:1029E000140003A8C4F3C101405C8DF8150003A8CE
:1029F000C4F38111405C8DF8160004F0030002A9B5
:102A0000085C8DF8100002A8C4F3C101405C8DF889
:102A1000110002A8C4F38111405C8DF8120005AAD0
:102A2000032140F2264001F047FD18B14FF0FF307E
:102A300006B010BD04AA032140F22A4001F03CFD7B
:102A400010B14FF0FF30F3E7019805900098049023
:102A500004F0040058B19DF8140040F001008DF816
:102A600014009DF8100040F001008DF8100004F0F3
:102A7000200058B19DF8150040F001008DF81500B8
:102A80009DF8110040F001008DF8110004F48070F1
:102A900058B19DF8160040F001008DF816009DF821
:102AA000120040F001008DF8120005AA03214FF436
:102AB000886001F001FD10B14FF0FF30B8E704AAC3
:102AC000032140F2314001F0F7FC10B14FF0FF302C
:102AD000AEE7064804810020AAE700004CCD6C0058
:102AE0000CC92C0036567600264666006C01002084
:102AF000F8B505460E464FF47A7095FBF0F000FBF2
:102B000006F4200E8DF80000200C8DF80100200A3C
:102B10008DF80200E0B28DF803006A4604214FF4FC
:102B2000AE7001F0C9FCF8BD38B50446052094FB31
:102B3000F0F084B220128DF80000E0B28DF80100B0
:102B40006A4602214FF4AD7001F0B6FC38BD38B5CD
:102B50000446052094FBF0F084B220128DF80000AA
:102B6000E0B28DF801006A4602214FF4AC7001F02A
:102B7000A3FC38BD38B504460020009004F00100E5
:102B800020B19DF8000040F03000009004F00200F9
:102B900020B19DF8000040F00C00009004F004000B
:102BA00020B19DF8000040F0030000906A4601212A
:102BB0004FF4A47001F080FC38BD38B50446012CF8
:102BC00001DA012402E0042C00DD0424601EC0B2FE
:102BD00000906A46012140F24F1001F06DFC38BDB3
:102BE0002DE9FC4706460F4606F0070010B1B7F581
:102BF000C86F03DD4FF0FF30BDE8FC87384602F0B8
:102C00003DFC8146594902F0EFFA8046684600F0E3
:102C100007FD9DF80000022806D0042816D00828D9
:102C200026D0102848D135E04FF08D41404602F0C3
:102C30006DFC814602F0EAFB84B24D49404602F049
:102C400065FC814602F0E2FB85B238E04FF08C4132
:102C5000404602F05BFC814602F0D8FB84B2454955
:102C6000404602F053FC814602F0D0FB85B226E0DC
:102C70004FF08B41404602F049FC814602F0C6FB12
:102C800084B23D49404602F041FC814602F0BEFB61
:102C900085B214E04FF08A41404602F037FC81468D
:102CA00002F0B4FB84B23549404602F02FFC814665
:102CB00002F0ACFB85B202E04FF0FF309CE700BFB2
:102CC00020128DF80400E0B28DF8050028128DF86E
:102CD0000600E8B28DF8070006F00100A0B101AAD5
:102CE00002214FF4EA7001F0E7FB10B14FF0FF3022
:102CF00082E70DF1060202214FF4927001F0DCFB35
:102D000010B14FF0FF3077E706F00200A0B101AA42
:102D100002214FF4EC7001F0CFFB10B14FF0FF3007
:102D20006AE70DF1060202214FF4947001F0C4FB32
:102D300010B14FF0FF305FE706F00400A0B101AA28
:102D400002214FF4EE7001F0B7FB10B14FF0FF30ED
:102D500052E70DF1060202214FF4967001F0ACFB30
:102D600010B14FF0FF3047E7002045E7000048432F
:102D7000000040460000C045000040450000C0443F
:102D800038B50446052094FBF0F085B228128DF882
:102D90000000E8B28DF801006A4602214FF4EF709E
:102DA00001F08AFB38BD38B50446052094FBF0F0ED
:102DB00085B228128DF80000E8B28DF801006A464D
:102DC00002214FF4ED7001F077FB38BD00BF054ADA
:102DD000128802F04002002AF9D0C2B2014B1B1D3A
:102DE0001A807047003801407CB50546284949687B
:102DF000087801AB04220D2100F010FB08B1072078
:102E00007CBD9DF80700C0F301109DF8041001F08F
:102E1000E00140EAE1008DF800009DF80700C0F3F2
:102E200081009DF8051001F0E00140EAE1008DF815
:102E300001009DF8070000F003009DF8061001F066
:102E4000E00140EAE1008DF8020000241CE01DF8DA
:102E5000040018B9002045F8240013E00D4845F897
:102E6000240006E055F824000B4902F04FFB45F81A
:102E700024001DF80400401EC0B20DF80400002814
:102E8000F0D100BF601CC4B2032CE0DB0020B7E728
:102E9000400000207B14AE3E1D5A843F2DE9F04FC8
:102EA00087B005460C46914601208DF810000020A1
:102EB0008DF81100FE4A1268917CFD4A5268107824
:102EC00004AB022200F0E5FA20B14FF0FF3007B06A
:102ED000BDE8F08FC820FFF763F900208DF81000DF
:102EE000F34A1268D17BF24A5268107804AB01228F
:102EF00000F0CFFA10B14FF0FF30E8E7EC4A12686B
:102F00005179EB4A5268107804AB012200F0C1FA03
:102F100010B14FF0FF30DAE7E54A1268917CE44ADD
:102F20005268107804AB012200F0B3FA10B14FF0F0
:102F3000FF30CCE7DE4A1268D17DDD4A5268107856
:102F400004AB012200F0A5FA10B14FF0FF30BEE74C
:102F5000D74A12681179D64A5268107804AB012218
:102F600000F097FA10B14FF0FF30B0E70C208DF869
:102F70001000CF4A12681179CD4A5268107804AB1C
:102F8000012200F086FA10B14FF0FF309FE70F20CA
:102F9000FFF706F9C648806A407A8DF81000C44AE7
:102FA00012689178C24A5268107804AB012200F08E
:102FB00070FA10B14FF0FF3089E7BD48806A007A9F
:102FC0008DF81000BA4A12685178B94A52681078E0
:102FD00004AB012200F05DFA10B14FF0FF3076E74C
:102FE000B9F1000F07D0B248806A807A40F0E00063
:102FF0008DF8100004E0AE48806A807A8DF81000E9
:10300000AB4A12689179AA4A5268107804AB01223F
:1030100000F03FFA10B14FF0FF3058E7B9F1000F60
:1030200007D0A348806AC07A40F0E0008DF8100015
:1030300003E0A048C07A8DF810009D4A1268D1794B
:103040009B4A5268107804AB012200F022FA10B1BA
:103050004FF0FF303BE7B9F1000F02D0C820FFF777
:103060009FF840208DF81000914A12681179904A1B
:103070005268107804AB012200F00BFA10B14FF047
:10308000FF3024E778208DF81000894A12685179C2
:10309000874A5268107804AB012200F0FAF910B1A7
:1030A0004FF0FF3013E783498889FFF779F8002054
:1030B0008DF810007E4A126851797D4A5268107866
:1030C00004AB012200F0E5F910B14FF0FF30FEE64D
:1030D000774A1268917A764A5268107804AB0222D5
:1030E00000F09CF910B14FF0FF30F0E69DF81100B0
:1030F0009DF8101040EA012B0C209BFBF0F0C6B2AB
:103100000020A86068602860A0606060206082463F
:1031100065E0674A1268D17A654A5268107804AB54
:103120000C2200F07BF910B14FF0FF30CFE69DF894
:1031300011009DF8101040EA012000B2ADF808001F
:103140009DF813009DF8121040EA012000B2ADF87E
:103150000A009DF815009DF8141040EA012000B205
:10316000ADF80C00BDF90810206808442060BDF9D6
:103170000A10606808446060BDF90C10A06808443B
:10318000A0609DF817009DF8161040EA012000B2DB
:10319000ADF800009DF819009DF8181040EA0120D4
:1031A00000B2ADF802009DF81B009DF81A1040EA2D
:1031B000012000B2ADF80400BDF9001028680844F1
:1031C0002860BDF90210686808446860BDF9041001
:1031D000A8680844A8600AF1010000F0FF0AB2459F
:1031E00097DB3448D0F800C02868C117090441EAC9
:1031F00010410704624600233846FDF70CF83246BA
:103200000023CDE90201FDF706F828602948D0F82F
:1032100000C06868C117090441EA1041070462460A
:1032200000233846FCF7F7FF32460023CDE90201C0
:10323000FCF7F1FF68601F48D0F800C0A868C1170C
:10324000090441EA10410704624600233846FCF7AE
:10325000E2FF32460023CDE90201FCF7DCFFA86063
:103260001448D0F804C02168C817000440EA114887
:103270000F046246002338464146FCF7CCFF324635
:103280000023CDE90201FCF7C6FF20600948D0F811
:1032900004C06068C117090441EA1041070462468E
:1032A00000233846FCF7B7FF3246002304E0000055
:1032B0004000002020590008CDE90201FCF7ABFFD7
:1032C00060601148D0F804C0A068C117090441EA41
:1032D00010410704624600233846FCF79CFF324643
:1032E0000023CDE90201FCF796FFA060A06800284A
:1032F00004DDA068A0F58030A06003E0A06800F5C0
:103300008030A0600020E2E5205900082DE9FC5F34
:1033100006460F4600253D494968087801AB03225F
:103320000D2100F07BF810B10720BDE8FC9F9DF84F
:10333000040000F01F008DF804009DF8050000F067
:103340001F008DF805009DF8060000F01F008DF8A5
:103350000600002456E056F8240057F82410A0EB8D
:10336000010BBBF1000F01DB594601E0CBF100017D
:10337000084602F06BF84FF08F41009001F034FFE7
:10338000814601A8005D68B32149086802F076F81B
:10339000834659461F4801F027FF804604E01E4936
:1033A000404602F0B3F8804601A8005D401EC0B25E
:1033B00001A908550028F2D14146484601F014FF02
:1033C00083464FF07E5102F0A9F982462AF0004B65
:1033D0000F488169584602F065F912D20120A040D9
:1033E00005430EE00A480169484602F05BF805D340
:1033F00007484169484602F055F902D20120A04031
:103400000543641C032CA6DB28468EE74000002001
:103410002059000800B04C4554E3853F2DE9F041A8
:1034200006460F4614461D46FDF7AAFC10B90120BA
:10343000BDE8F0817106080EFDF770FCFDF7F8FCA1
:1034400018B9FDF7D1FC0120F2E73846FDF766FC1C
:10345000FDF7EEFCFDF794FC012101EB4601C8B23B
:10346000FDF75CFCFDF7E4FC0DE0012C04D100202D
:10347000FDF71CFC287003E00120FDF717FC287005
:103480006D1C601EC4B2002CEFD1FDF7ADFC002016
:10349000CEE72DE9F04105460E4617469846FDF762
:1034A0006FFC10B90120BDE8F0816906080EFDF738
:1034B00035FCFDF7BDFC18B9FDF796FC0120F2E7DD
:1034C0003046FDF72BFCFDF7B3FC00240BE018F8A9
:1034D0000400FDF723FCFDF7ABFC18B9FDF784FCF5
:1034E0000020E0E7641CBC42F1DBFDF77DFC00201E
:1034F000D9E770B50546284600F00FF80446E81CE9
:1035000000F00BF844EAC00084B2A81D00F005F8F2
:1035100044EA801084B2204670BD014691F9002033
:10352000002A01DD00201EE091F90020002A01DAC6
:10353000042018E091F90120002A01DD012012E0A9
:1035400091F90120002A01DA05200CE091F902200E
:10355000002A01DD022006E091F90220002A01DAAA
:10356000062000E0072070470920FEF715F94820E3
:10357000FEF7F6FD4FF41651482001F08BF8FDF7E9
:1035800095FEFDF774FE002141F61F40FDF722FF76
:10359000FDF754FEFDF7FEF9FDF79AF9FDF74AFB3A
:1035A000FDF737FDFDF78AF8FEF7BCF900BFFEE72F
:1035B00070B50446002624F00104184890F8240051
:1035C00008B1002070BD1548807A10B94FF0FF3067
:1035D000F8E71248057C807A2040104908740846B4
:1035E000007CA04202D04FF0FF3600E0002614B964
:1035F0000A48007D18B1012001F004F802E0002023
:1036000001F000F83CB100F049FB20B1034805741B
:103610004FF0FF30D6E73046D4E7000040000020EE
:1036200001461148407A30B1012807D0022808D05D
:1036300003280CD108E0022008700BE00420087079
:1036400008E00820087005E01020087002E04FF044
:10365000FF30704700BF0448C07C18B108784006AE
:10366000000E08700020F4E74000002001461348D7
:10367000407A30B1012808D002280AD0032810D19E
:103680000BE04FF4804008800EE041F69C7008800B
:103690000AE04FF48050088006E04FF40060088094
:1036A00002E04FF0FF30704700BF0448C07C10B10B
:1036B0000888401008800020F5E700004000002046
:1036C00001460248007C087000207047400000203E
:1036D00001460F48007A30B1012807D0022809D0EE
:1036E00003280FD10AE0FA2008800EE04FF4FA70A8
:1036F00008800AE04FF47A70088006E04FF4FA6020
:10370000088002E00020088000BF00BF0020704752
:103710004000002001460E48007A30B1012807D051
:10372000022808D003280CD108E00A4808600BE002
:103730000948086008E00948086005E00848086092
:1037400002E04FF0FF30704700BF0020FBE70000B1
:103750004000002000000343000083423333034253
:103760003333834101461248C07A082817D2DFE874
:1037700000F01704070A0D101318BC20088013E08E
:103780006220088010E02A2008800DE014200880C4
:103790000AE00A20088007E00520088004E000BF56
:1037A00000BF0020088000BF00BF0020704700005D
:1037B000400000200146064890F8240010B14FF068
:1037C000FF3070470248C08908800020F9E70000F8
:1037D000400000201CB580208DF80000654A12686A
:1037E000917C644A526810786B460122FFF751FEC3
:1037F00010B14FF0FF301CBD6420FEF7D1FC00205B
:103800008DF800005B4A1268917C5A4A5268107821
:103810006B460122FFF73DFE10B14FF0FF30EAE7A3
:10382000544A1268917D534A526810786B460622BA
:10383000FFF7F4FD10B14FF0FF30DCE79DF8050015
:10384000C007400F9DF8031001F0010140EA41005C
:103850009DF8011001F0010140EA010494B1012C2E
:1038600003D101214348C17431E0022C03D100216E
:103870004048C1742BE021463FA0FCF7F1FC4FF01B
:10388000FF30B8E73B4A1268D1783A4A526810785C
:103890006B460122FFF7C2FD10B14FF0FF30AAE7DF
:1038A0009DF8000000F00F042CB93D48FCF7D8FC4F
:1038B0004FF0FF309FE7042C06D13AA0FCF7D0FC74
:1038C00001212C48C17402E000212A48C174FF2163
:1038D00028488172FF2027490872FF21254841723C
:1038E000C1724FF6FF71C181FF2101748174012102
:1038F000017380F82210002180F8231041750175B2
:103900001630016041608160163880F8241080F81C
:103910002510C1844FF4FA6000F05CFC10B14FF048
:10392000FF3068E7022000F025FB10B14FF0FF30B8
:1039300061E72A2000F0C8FC10B14FF0FF305AE7D1
:10394000322000F003FD10B14FF0FF3053E70020AC
:10395000FFF72EFE10B14FF0FF304CE7002000F0D3
:103960004BFB10B14FF0FF3045E7002000F03CFD6D
:10397000002040E740000020556E737570706F7234
:1039800074656420736F6674776172652070726FFE
:1039900064756374207265762025642E0A00000029
:1039A000E065000848616C662073656E7369746930
:1039B00076697479207061727420666F756E642EFA
:1039C0000D0A00002DE9F04385B005460E469046ED
:1039D0009946294890F8250020B14FF0FF3005B0F6
:1039E000BDE8F08316B94FF0FF30F8E7002423E07C
:1039F000281B102801DD102000E0281B87B2321997
:103A00003946204600F058FD10B14FF0FF30E6E790
:103A100001AA3946204600F001F910B14FF0FF30FD
:103A2000DDE730193A4601A9FCF796FC10B16FF0BA
:103A30000100D4E7E01984B2AC42D9DB4FEA282078
:103A40008DF8000008F0FF008DF801000A4A1268A6
:103A5000917E094A526810786B460222FFF719FDE1
:103A600010B14FF0FF30BAE70121034880F825106C
:103A7000A0F826900020B2E74000002038B50446A8
:103A8000282C02DD4FF0FF3038BDDCB9002000F0FB
:103A9000E5FB00208DF8000007208DF801002E4A7C
:103AA0001268917C2C4A526810786B460222FFF70C
:103AB000F0FC10B14FF0FF30E6E700212648017519
:103AC0000020E1E7012000F0C9FB20208DF8000074
:103AD000012C06D100208DF80100052000F0F4FB38
:103AE00017E0052C06DC01208DF80100052000F010
:103AF000EBFB0EE0142C06DC02208DF801000A20FE
:103B000000F0E2FB05E003208DF80100142000F036
:103B1000DBFB9DF80100072101EB8010C0B28DF89E
:103B200001000D4A1268917C0B4A526810786B466E
:103B30000222FFF7AEFC10B14FF0FF30A4E70821DE
:103B40000548817200210173012101750020FFF7F2
:103B50002FFD002098E7000040000020F8B5044643
:103B60000F4616462C4890F8240010B94FF0FF304D
:103B7000F8BD2948807A10B94FF0FF30F8E7264A9F
:103B80001268917A244A526810786B460222FFF735
:103B900045FC10B14FF0FF30EAE79DF801009DF8B9
:103BA000001040EA0125A54203DA00203070401ED3
:103BB000DEE7194840684088B5EB600F17DD164A0C
:103BC0001268517C144A526810786B460122FFF744
:103BD00025FC10B14FF0FF30CAE79DF8000000F05F
:103BE000100020B100F05AF86FF00100C0E7E2B217
:103BF000094B1B68D97A084B5B6818783B46FFF77E
:103C00000DFC10B14FF0FF30B2E795FBF4F0401E11
:103C100030700020ACE7000040000020F8B50446FA
:103C20000D46164616B94FF0FF30F8BD1A48807A97
:103C300010B94FF0FF30F8E720128DF80000E0B225
:103C40008DF801009DF8010028441349496849890D
:103C5000884202DD4FF0FF30E7E70F4A1268117E1D
:103C60000D4A526810786B460222FFF712FC10B121
:103C70004FF0FF30D9E7EAB2074B1B68597D064B7E
:103C80005B6818783346FFF7C9FB10B14FF0FF307F
:103C9000CBE70020C9E700004000002008B56D48D0
:103CA000807A10B94FF0FF3008BD00200090694ABB
:103CB0001268D17B674A526810786B460122FFF781
:103CC000E8FB10B14FF0FF30EEE7624A126851791D
:103CD000604A526810786B460122FFF7DAFB10B198
:103CE0004FF0FF30E0E75B4A12681179594A526899
:103CF00010786B460122FFF7CCFB10B14FF0FF307C
:103D0000D2E7544890F82400002850D00C200090AE
:103D1000504A126811794F4A526810786B46012256
:103D2000FFF7B7FB10B14FF0FF30BDE7C0200090A8
:103D30004848807A00F0010020B19DF8000040F072
:103D400020000090434A12681179424A5268107864
:103D50006B460122FFF79DFB10B14FF0FF30A3E748
:103D60003C48407C10B10220009001E0002000900F
:103D7000384A1268D17B374A526810786B46012264
:103D8000FFF787FB10B14FF0FF308DE70020009068
:103D9000304A126851792F4A526810786B460122D6
:103DA000FFF777FB002852D04FF0FF307CE704206C
:103DB0000090284A12681179264A526810786B469A
:103DC0000122FFF766FB10B14FF0FF306CE721488E
:103DD000807C20B91F48807A00F0010010B9402093
:103DE000009001E0602000901A4A12681179194A87
:103DF000526810786B460122FFF74BFB10B14FF071
:103E0000FF3051E71348407C10B10120009001E0E1
:103E1000002000900F4A1268D17B0E4A5268107839
:103E20006B460122FFF735FB10B14FF0FF303BE747
:103E3000084A12685179074A52681078054B1033C6
:103E40000122FFF726FB10B14FF0FF302CE70020D6
:103E50002AE70000400000202DE9F04F8DB0834696
:103E60000F4602200C90424890F8240020B1002018
:103E700000F068F9012600E0002603A8FFF728FCFF
:103E800005A8FFF7CDFB01A8FFF76CFC02A8FFF720
:103E900091FC374890F80AA004A8FFF711FC002411
:103EA00007E0002239465846FEF7F8FF00B902E065
:103EB000641C022CF5DB00BF022C01D1002528E098
:103EC000002407E0012206A909A8FEF7E7FF00B9D0
:103ED00002E0641C022CF5DB00BF022C01D100259E
:103EE00017E006A93846FDF7B5FE00F0FF0809A95E
:103EF0005846FFF70BFA00F0FF090025B9F1000F53
:103F000001D145F00105B8F1000F01D145F00205DE
:103F100000BFFF2016490872FF2115484172C17287
:103F20004FF6FF71C181FF2181720174012101737C
:103F3000BDF80C0000F04EF99DF8140000F01AF8DE
:103F4000BDF8040000F0C0F9BDF8080000F0FEF96B
:103F5000504600F049FA9DF81000FFF729FB16B112
:103F6000012000F0EFF828460DB0BDE8F08F00000A
:103F70004000002038B504461E48807A10B94FF042
:103F8000FF3038BD022C06D0042C07D0082C08D0F6
:103F9000102C0CD108E0002000900BE008200090CD
:103FA00008E01020009005E01820009002E04FF09B
:103FB000FF30E6E700BF0F48407A9DF80010B0EBF5
:103FC000E10F01D10020DCE70A4A1268D179094AE1
:103FD000526810786B460122FFF75BFA10B14FF080
:103FE000FF30CEE79DF80000C1100248417200206A
:103FF000C7E700004000002038B504465048807CE8
:10400000A04201D1002038BD002C46D04C4A126895
:1040100011794B4A526810786B460122FFF7FEF97E
:1040200010B14FF0FF30EEE79DF8000020F02000C7
:104030000090434A12681179414A526810786B46E1
:104040000122FFF726FA10B14FF0FF30DBE7032023
:10405000FEF7A6F802200090394890F8220020B11F
:104060009DF8000040F080000090354890F8230053
:1040700020B19DF8000040F030000090304A1268F6
:10408000117D2F4A526810786B460122FFF701FA22
:10409000002851D04FF0FF30B5E7294A1268117956
:1040A000274A526810786B460122FFF7B7F910B122
:1040B0004FF0FF30A7E72248807A00F0010028B1D6
:1040C0009DF8000040F02000009004E09DF8000002
:1040D00020F0200000901A4A12681179184A52689C
:1040E00010786B460122FFF7D4F910B14FF0FF3082
:1040F00089E70320FEF754F8114890F8220010B128
:104100008020009001E0002000900D4890F82300EE
:1041100020B19DF8000040F030000090084A12687D
:10412000117D074A526810786B460122FFF7B1F9FA
:1041300010B14FF0FF3066E701488474002062E759
:104140004000002038B50446214890F82400A042E1
:1041500001D1002038BD24B31D4890F8250010B9C6
:104160004FF0FF30F6E7002000F04CFA0020FFF798
:1041700043FF1749C88C00F0E9F80020009014496B
:10418000496808786B4601222321FFF782F9012153
:104190000F4880F82410012000F034FAFFF77EFD6C
:1041A00013E0002000F02EFA0948007C0090084936
:1041B000496808786B4601222321FFF76AF900213C
:1041C000034880F82410FFF769FD0020C2E70000D3
:1041D0004000002038B504461F48807A10B94FF0DF
:1041E000FF3038BDFA2C09D0B4F5FA7F09D0B4F508
:1041F0007A7F09D0B4F5FA6F0CD108E00020009066
:104200000BE00820009008E01020009005E0182046
:10421000009002E04FF0FF30E3E700BF0E48007A65
:104220009DF80010B0EBE10F01D10020D9E70A4A58
:1042300012689179084A526810786B460122FFF79C
:1042400028F910B14FF0FF30CBE79DF80000C01007
:10425000014908720020C4E74000002038B5044638
:10426000184890F82300A04201D1002038BD14B1B5
:104270003020009001E0002000901248807C20B1A6
:104280009DF8000040F0020000900E4890F82200D7
:1042900020B19DF8000040F080000090094A1268AB
:1042A000117D084A526810786B460122FFF7F1F839
:1042B00010B14FF0FF30D9E7024880F823400020CA
:1042C000D4E700004000002038B504461E48807A3C
:1042D00010B94FF0FF3038BDBC2C02DB012000903C
:1042E00015E0622C02DB0220009010E02A2C02DB99
:1042F000032000900BE0142C02DB0420009006E069
:104300000A2C02DB0520009001E0062000900E48F8
:10431000C07A9DF80010884201D10020DBE70A4AEC
:1043200012689178084A526810786B460122FFF7AC
:10433000B0F810B14FF0FF30CDE79DF80010024803
:10434000C1720020C7E700004000002038B50446D5
:104350002448807A10B94FF0FF3038BD214890F8DA
:10436000240010B14FF0FF30F7E71E48007D50B138
:1043700034B1282C04DCE0B2FFF780FB0020ECE72E
:104380000020FFF77BFB042C01DA042404E0B4F5E1
:104390007A7F01DD4FF47A744FF47A7090FBF4F079
:1043A000401EC0B200900F4A126851780D4A526800
:1043B00010786B460122FFF76CF810B14FF0FF3018
:1043C000CBE79DF80000401C4FF47A7191FBF0F0B0
:1043D00081B20448C1810146C9894810FFF774FFC2
:1043E0000020BAE74000002038B5044604F0700011
:1043F00010B10120009005E014B10020009001E010
:10440000402000902B4A1268917C2A4A526810780A
:104410006B460122FFF73DF820B10021254881724B
:10442000481E38BD9DF8000020F04001214801736E
:104430000020009004F0400020B99DF8000040F0FA
:104440000400009004F0200020B99DF8000040F026
:104450000200009004F0100020B99DF8000040F028
:104460000100009004F0080020B99DF8000040F021
:10447000380000900F4A1268D17C0E4A52681078BA
:104480006B460122FFF705F820B10021094881722F
:10449000481EC6E724B1082C02D00020FFF7DEFE3C
:1044A00004488472002101753220FDF779FE002056
:1044B000B7E7000040000020F8B504460D46164658
:1044C00016B94FF0FF30F8BD1A48807A10B94FF096
:1044D000FF30F8E720128DF80000E0B28DF80100FF
:1044E0009DF801002844134949684989884202DD42
:1044F0004FF0FF30E7E70F4A1268117E0D4A52680D
:1045000010786B460222FEF7C4FF10B14FF0FF3067
:10451000D9E7EAB2074B1B68597D064B5B681878F0
:104520003346FEF7B6FF10B14FF0FF30CBE7002067
:10453000C9E70000400000200146002901DA484296
:1045400000E008467047704770B588B002A905A81A
:10455000FFF782FC0446072C3FD101A8FFF7DAF8E9
:10456000059800F073FF0646019900F0CFFF05465D
:1045700000F030FF0590069800F068FF06460199AC
:1045800000F0C4FF054600F025FF0690079800F0F4
:104590005DFF0646019900F0B9FF054600F01AFFDD
:1045A000079005A8FEF770F96846FFF75FF8BDF8B9
:1045B0000010029848430290BDF800100398484349
:1045C0000390BDF8001004984843049002A8FEF739
:1045D0008BF803A0FBF744FE00BF08B070BD0000DD
:1045E00073657474696E67206269617320737563A3
:1045F00063657366756C6C79202E2E2E2E2E2E0D13
:104600000A00000038B50446214890F82400C0B1E3
:1046100014B10220009001E0002000901C4A1268B2
:10462000D17B1B4A526810786B460122FEF731FF9E
:1046300010B14FF0FF3038BD9DF8001014484174A0
:1046400023E01348807A10B94FF0FF30F3E724B12C
:104650000F48407C08B10020EDE714B10120009024
:1046600001E0002000900A4A1268D17B084A526893
:1046700010786B460122FEF70CFF10B14FF0FF30AF
:10468000D9E79DF80010024841740020D3E70000EC
:10469000400000202DE9F05F05460E46300100F095
:1046A000EDFE8146334905FB01F000F0E7FE82464E
:1046B000494600F099FD0746384600F0A7FE84B24F
:1046C000204600F0DBFE8346394601F01CF88246A6
:1046D0004FF0834100F01AFF814600F097FE8046BC
:1046E0004FF6FF7000EA041404EB080084B222487D
:1046F000806940F00400204988610846806940F4E0
:10470000804088611D48006820F00F001B49086048
:104710000846006840F0030008600846006820F47E
:104720007F6008600846006840F40B60086012482B
:10473000C06840F480401049C8600846C06820F452
:104740008040C8600E480480001D008842F20C01C1
:1047500008430B49091D08800846008840F02000E6
:1047600008800223252203210846FCF7D3FCBDE87C
:10477000F09F000040420F0000100240040801407A
:10478000083801402DE9FF5F044689462948039017
:104790002948029004EB0901084600F057FE27491A
:1047A00008602748006800F085FC0746254A264B2C
:1047B00000F08CFA054600F04FF8214908601F48C8
:1047C000006800F077FC1F4A204BCDE9000100F0A3
:1047D0007DFA05460E461A48006800F06BFC074655
:1047E0002A46334600F06AF8824600F035F814494C
:1047F0000860084601681648006800F087FC144904
:10480000086013480299006800F080FE05460C48D5
:104810000399006800F07AFE0646294600F076FC0F
:104820000C4908600846006800F0D4FD04B0BDE8FB
:10483000F09F00000000B442CDCCCC3E2800002008
:104840002C0000209A9999999999E93F9999C93F23
:10485000300000202400002021F00042A2F160522C
:10486000B2F5801F01F0004328BFD2F17F6C0BD955
:104870005FEA001C43EAC20242EB507018BF704767
:1048800028BF20F001007047B2F5801FBCBF18465A
:1048900070474FEA410C1CF5001F02D2084600F099
:1048A000FCBE70B500F0BCFA00000089FFF7F6BF4F
:1048B0004FF00040A0F580007047000010B591EA6D
:1048C000030F48BF83F0004300F11283841A71EB99
:1048D000030C05D2121943EB0C03001B61EB0C0116
:1048E000DFF824E14FEA1154A4EB135C1EEA430FF6
:1048F00018BF9EEA445F73D023EA0E03DCF1200E5A
:1049000021EA045143F4801332D322FA0CFE10EB57
:104910000E0023FA0CFE41EB0E01CCF1200E03FA3F
:104920000EFE10EB0E0051F10001B1F5801FCCF12D
:10493000200E32D201EB045112FA0EF2BDE8104003
:1049400058BF7047401C38BF5FEA420218BF70472B
:10495000002814BF20F0010041F100014FEA41039B
:1049600013F5001F38BF7047A1F1C04100F0A6BA8F
:10497000012A43EB0302ACF1200CDCF11F0E32BF25
:104980004FF0000E23FA0CF310EB030041EB04513F
:10499000B4EB115FD0D0A1EB045101F580114908AF
:1049A0005FEA300001EB04510ED350F1000038BF34
:1049B00012FA0EFE08D1BDE81040C9E7401C38BF0E
:1049C0005FEA4202CAD1C3E7BDE810404FEA4103A3
:1049D00013F5001F38BF7047A1F1C04100F06EBA57
:1049E0009EEA445F08D011EA5E0FBDE8104004BFA4
:1049F00001F0004100207047BDE8104070B500F0A4
:104A00000FFA00BF64FBBE3E0000E0FF02494FF01A
:104A1000000000F0F8BE00BF0000F87F2DE9C041A3
:104A200030B4DFF8A0C23CEA111418BF3CEA1314FA
:104A300000F0EC8081EA03051CEA111444EAD57405
:104A400018BF1CEA131500F0C780A4EB05044FF053
:104A5000004545EAC12145EAC32341EA505143EAF2
:104A6000525304F17F74994204F500344FEAC02098
:104A70004FEAC22208BF904200F09C804FEA1365C3
:104A80000FF24016765D4FEA134506FB05F7C7F1B6
:104A9000807706FB07F74FEAD737A7FB0368764214
:104AA000C8F58038A7FB06CE38BFA8F1010807FB80
:104AB00008E64FF0000EA6FB028CE6FB03CEDCF10D
:104AC000000CCEF1004E38BFAEF1010EA6FB0C5823
:104AD0004FF000074FF00005E6FB0E87A1FB08C66C
:104AE000A0FB07CE16EB0E0645F10005E1FB0765BE
:104AF00015F1E04E7EBFA4F580345FEA46066D41B5
:104B000016F1800745F100054FEA17274FEA0666C0
:104B100047EA0567A6F1DE46B6F1805F4FEA152544
:104B20001FD9384624F0010C05EBC471BCF1FE6FAF
:104B300001EB0C1102D8F0BCBDE8008124425CBF3F
:104B400001F5801E9EEAC47F02D4F0BCBDE800815E
:104B5000244238D4F0BCA1F1C041BDE8004100F0CE
:104B6000ADB94FEAD22242EA43524FEAD323A7FB20
:104B700002864FEAD02040EA415007FB03661EEA56
:104B80000E0F4FEAD12105FB026658BFA6EB005677
:104B9000B6EB00564FEA520E4EEAC37E18EB0E0EED
:104BA00056EB530EBDD518EB02085E417F1C55F144
:104BB0000005B6E74FF480154FF000074FF00006F0
:104BC0004FF00008ADE7F0BC4FF0000001F1C0412C
:104BD00001F00041BDE8008111EA0C1F0CEA131539
:104BE00000D00CE013EA0C1F00F025804FF000000D
:104BF000F0BC81EA030101F00041BDE80081F0BC96
:104C0000BDE8004181EA030100F058B9F0BCBDE8FD
:104C1000004170B500F004F9097EFC3E00F007B8D1
:104C200081EA03014FF0000001F00041704781EA82
:104C3000030100F043B9F0BCBDE800414FF00000B3
:104C400021497047FFFDFBF9F7F5F4F2F0EEEDEBCB
:104C5000E9E8E6E4E3E1E0DEDDDBDAD8D7D5D4D37A
:104C6000D1D0CFCDCCCBCAC8C7C6C5C4C2C1C0BFC6
:104C7000BEBDBCBBBAB9B8B7B6B5B4B3B2B1B0AFCC
:104C8000AEADACABAAA9A8A8A7A6A5A4A3A3A2A1B0
:104C9000A09F9F9E9D9C9C9B9A999998979796956B
:104CA00095949393929191908F8F8E8E8D8C8C8B07
:104CB0008B8A89898888878786858584848383828F
:104CC000828181800000FF070000F87FDFF848C183
:104CD00070B51CEA111E1EBF1CEA13159EEA0C0FCC
:104CE00095EA0C0F00F06F8081EA030423EA4C136D
:104CF0004EEAD47E21EA4C1141F4801143F4801332
:104D0000AE44A1FB024CA0FB0365AEF17F7E3619D9
:104D100055EB0C05A1FB034C4CF10003A0FB021C5E
:104D200016EB0C06654153F10003094218BF46F02B
:104D3000010613F4007F0BD14FEA03314FEA05302F
:104D4000340341EA155140EA16506FF003020AE0BD
:104D50004FEAC3214FEAC520F40241EA555140EA27
:104D600056506FF0020202EB2E4201EB025585EA2B
:104D7000CE710AD05FEA440C18BF24F0004450F111
:104D8000000041F1000120EAD47040F2FE7C62454F
:104D900000D270BDA84214BF4FF080444FF0404491
:104DA000002E08BF0024BEF1806FA8BFA1F1C04152
:104DB000BDE8704080F282804FF0000001F1C041F8
:104DC00001F0004170479EEA0C0F0CEA131518BF62
:104DD00095EA0C0F06D04FF0000081EA030E0EF0AA
:104DE000004170BD00F01CF88900013E00F007B8DA
:104DF00000F009B84FEA430C5FEA5C5C08D081EA36
:104E0000030100F05BB84FEA410C5FEA5C5CF6D14D
:104E10004FF00000014970470000FF070000F87FD5
:104E20000EF1020E2EF0030E5EF8046B364205D42E
:104E3000012A43EB030515F5001F12D8012841EBA9
:104E4000010C1CF5001F0CD80ED14FEAD17C15F5D2
:104E5000001F0CEB4C0C0CF1020C08BF4CEBD37C8C
:104E600004E04FF0080C01E04FEAD37C0CEB4C055A
:104E700026FA05F606F00706B6F1040C06D20EEB8C
:104E8000860CBDE870404CF0010C6047DFE80CF088
:104E9000090B02024FF000414FF00000A1F5002184
:104EA00070BD19461046012851EB010418BFD4F516
:104EB000001484BF002001F0004170BD0808A0F577
:104EC00000114FEA3101704791EA030F10B581F0EC
:104ED00000413FF5FBAC83F0004300F009B800004F
:104EE00010B591EA030F48BF83F000433FF5EEACE5
:104EF000841A71EB030C07D212198CF0004C43EBAF
:104F00000C03001B61EB0C01DFF8A4E14FEA115424
:104F1000A4EB135C1EEA430F18BF9EEA445F00F047
:104F2000B08023EA6E03524221EA0451C3EB6E03C0
:104F300038BF5B1EDCF1200E25D322FA0CFE10EBED
:104F40000E0043FA0CFE41EB0E01CCF1200E03FAE9
:104F50000EFE10EB0E0051F10001CCF1200E29D411
:104F600012FA0EF201EB0451BDE8104058BF704731
:104F7000401C1CBFB2F1004F704700280CBF491CF9
:104F800020F00100704712EB020E43EB030218BF42
:104F90004FF0010E4EEA4202ACF1200CDCF11E0E85
:104FA00054D943FA0CFE10EB0E0051F1FF31CCF155
:104FB0001E0ED5D50EF1010E12FA0EFE404141EB48
:104FC000010101EB445C5FEA5C5C10D910EBDE7020
:104FD00001EB045138BFBEF1004FBDE8104018BFCF
:104FE000704700280CBF491C20F00100704730D2E8
:104FF0004FEAD42C11F5001124F400641BD0B1FA4F
:1050000081F20B3AA41AA41ED2F12003914030FA87
:1050100003F31943904001EBCC71002C01EB0451D8
:10502000BDE81040A8BF704701F1C0414FF000003B
:1050300001F000417047B0FA80F310FA03F100D19B
:1050400010BDE41A173C4805C90AE4E701EB045116
:1050500010BD491001EB0451BDE810404FEA30008B
:1050600002E04FF0000170474A0008BF0042F8D04C
:10507000B2F5001F28BF704701F000414FF000005B
:1050800070479EEA445F07D011EA5E0FBDE810400A
:1050900004BF002100207047BDE8104070B5FFF745
:1050A000BFFE00BF40DFF63E83F000411046704770
:1050B0000000E0FF43004FEAD30C4FEA3C0C4340B2
:1050C0001FBF40070CF1605113F0FE4F70471CF0FA
:1050D000006F03D100200CF0004170470CF000433A
:1050E00043EA507010B540EACC0000F090FA00BFDF
:1050F000000000924FEA0001FFF7E0BE4FF00041D0
:105100004FF00000A1F500217047000090EA010F68
:1051100048BF81F0004100F10883421A3CBF801A69
:1051200089184FEAD0524FF07F4C1CEA410FA2EB96
:10513000D15318BF9CEA026F00F03B804FF0004C47
:105140004CEA00204CEA012121FA03FC10EB0C0C84
:105150001ED202F1FF325FEA1C2040EBC25038BF82
:1051600070471CF07F0F4FEA400C18BFBCF17F4F17
:1051700038BF7047C3F12003994008BF20F00100F9
:10518000BCF17F4F38BF7047A0F1C04000F085BA36
:105190004FEA3C00000A40EBC25028BF1CF0FF0F52
:1051A0004FEA400CE6D018BFBCF17F4F38BF7047C4
:1051B000EAE79CEA026F05D010EA5C0F08BF00F036
:1051C0000040704710B500F022FA00BF64FBBE3EFD
:1051D000401058BFC0F14040491058BFC1F1404194
:1051E0008142EFF3008070474FF47F0C1CEAD0122D
:1051F0001EBF1CEAD11392EA0C0F93EA0C0F00F0C9
:10520000858090EA010F48BF42F4807240F4000CA0
:1052100041F400002CF07F4120F07F4000B5814236
:10522000A2EB03020FF2081CACEB504EC0F10000E1
:105230009EF800E04FEA4E0E00FB0EFC38BF49001E
:105240004FEA2C1C02F5FA020CFB0EF34FEACE1EBD
:105250004FEA112C4FEAC1210EEB635E42EB224272
:105260000EFB0CFC4FEA1C5300FB03114FEA112C00
:105270004FEA01310EFB0CFC4FEADC4C00FB0C1139
:10528000C14228BF09184CEB03335DF804EB10EB67
:10529000410143EBC250B2F57C0F38BF704729D5AE
:1052A00012F0F00F1CBF00F1C04000F0004070474A
:1052B000008182838485868788898B8C8D8E8F91EF
:1052C0009293959697999A9C9D9FA0A2A3A5A7A813
:1052D000AAACAEB0B2B3B5B7B9BCBEC0C2C5C7C93F
:1052E000CCCED1D4D7D9DCDFE2E6E9ECF0F3F7FAA3
:1052F000FE0000004FEA400C0CF1807CBCF17E4FB8
:1053000028BF7047B0F1C04000F0C7B990EA010F64
:105310000CEAD11348BF42F48072624538BF63453E
:1053200007D213F47F0F16D080EA010000F000408E
:10533000704710B500F06BF9097EFC3E00F005B82F
:1053400080EA010000F00040704780EA010000F0B0
:10535000004000F0A2B912F47F0F04BF024870476A
:1053600080EA010000F099B90000C07F50EA010C0A
:1053700000F113801CF5000F58BFBCF5000F01D4DD
:105380008842704707D710F5000F58BF11F5000F7E
:1053900015D488427047894270471CF5000F04D528
:1053A000BCF5000FF7D5814270474FF0807C1CEBB5
:1053B000400F38BF1CEB410F01D28142704710B53E
:1053C00000F025F9922449004FF000504FF0805131
:1053D000FFF7FEBE41000B0ED3F19E0208D950F438
:1053E00000034FEA032323FA02F048BF404270470C
:1053F00010B500F00CF900BF4992248000207047DE
:105400006FF0004282EA200070470000C10DD1F128
:105410009E0206DB4FEA002343F0004323FA02F02A
:105420007047004207D54FEA4001B1F1FE4F02D26A
:105430004FF00000704710B500F0E9F84992248061
:10544000002070476FEA20007047000010F0004114
:1054500048BF4042B0FA80F310FA03F2C3F19D0353
:105460000BD051EAC35101EB1220530638BF7047ED
:1054700000F1010008BF20F001007047B0FA80F38E
:1054800010FA03F2C3F19D030AD0D90501EB1220F3
:10549000530638BF704700F1010008BF20F001003B
:1054A0007047000050EA010C00F113801CF5000F5A
:1054B00058BFBCF5000F01D48842704707D710F5DC
:1054C000000F58BF11F5000F15D48842704789426C
:1054D00070471CF5000F04D5BCF5000FF7D58142CD
:1054E00070474FF0807C1CEB400F38BF1CEB410F26
:1054F00001D28142704710B500F089F8922449002A
:105500004FF000504FF08051FFF762BE4FF47F0C18
:105510001CEAD0121EBF1CEAD11392EA0C0F93EAC8
:105520000C0F00F0478090EA010F48BF42F48072F0
:105530004FF0004C4CEA00204CEA012102EB030240
:10554000A0FB0113A2F50002002918BF43F00103DC
:105550005B0028BF4FEA330342EB22425FEA132C81
:105560004CEBC2502EBFBCEB436FB2F57C0F7047C3
:105570004FEA036CBCF1004F08BF20F00100B2F508
:105580007C0F38BF70470BD582F0FF0212F5803FC9
:10559000C8BF704700F1C040D8BF00F0004070475E
:1055A00000F5000C5FEA4C0C48BF7047B0F1C040FA
:1055B00000F073B890EA010F0CEAD11348BF42F42F
:1055C0008072624538BF634504D280EA010000F072
:1055D0000040704710B500F01AF800BF8900013E86
:1055E00000F007B800F009B85FEA410C5FEA1C6CF4
:1055F00008D080EA010000F050B85FEA400C5FEA92
:105600001C6CF6D14FF00040A0F5800070470EF101
:10561000020E2EF0030E5EF8044B244204D44FEA2F
:105620004102B2F17F4F11D84FEA4003B3F17F4FEF
:105630000CD80ED14FEAD07CB2F17F4F0CEB4C0C62
:105640000CF1020C08BF4CEBD17C04E04FF0080CCD
:1056500001E04FEAD17C0CEB4C0324FA03F404F094
:105660000704B4F1040C06D20EEB840CBDE8104024
:105670004CF0010C6047DFE80CF0070802024FF025
:105680000040A0F5800010BD0846420018BFD2F1CE
:10569000807288BF00F0004010BDFF2141EAD05069
:1056A000C005704751EA000C00F113801CF5000F93
:1056B00058BFBCF5000F01D48142704707D711F5E0
:1056C000000F58BF10F5000F15D481427047894272
:1056D00070471CF5000F04D5BCF5000FF7D58842C4
:1056E00070474FF0807C1CEB410F38BF1CEB400F24
:1056F00001D28842704780EA010081EA000180EA15
:105700000100FFF7F8BE80F0004090EA010F7FF53E
:1057100004AD81F0004100F008B8000090EA010FEC
:1057200048BF81F000413FF5F8AC421A04D882F03E
:105730000042A0EB020011444FEAD0524FF07F4CE0
:105740001CEA410FA2EBD15318BF9CEA026F4AD06A
:105750004FF0004C4CEA00204CEA012121FA03FCF6
:10576000B0EB0C0C0FD412F0FE0F36D05FEA4C00F9
:105770001DD5001240EBC25038BF70471CF03F0FE0
:1057800018BF70470BE0A2F101025FEA1C2040EB5A
:10579000C25038BF70471CF07F0F18BF7047C3F16D
:1057A0002003994014BF401E20F00100704780087C
:1057B0004FEA122308BF7047B0FA80FCA2EB0C023C
:1057C000CCF1280C60FA0CF093EA122F04BF00EB26
:1057D000C25070474FEAC3707047130A5FEADC108B
:1057E00008BF7047F6E79CEA026F04D010EA5C0F2E
:1057F00008BF0020704710B5FFF709FF40DFF63EF5
:1058000081F0004070470CF00F03092B08BF0820FF
:1058100000F059800A2B0BD0082B18BF704708BF27
:105820001CF0400F0AD04FF000004FF0000170470D
:105830001CF0400F18BF4FF0004070471CF0100FD5
:1058400008D020F0704300F07F4242EAD3014FEAD3
:105850004370704700F0604021F07F4242EA00024E
:1058600001F07F4040EA727070474FF0FF0C4CF43B
:10587000E06C1CEA11531CBF9CEA030C9445C2BFA8
:10588000DA4201EB02517047002B0DD0BCF1000F42
:105890000FD0002A01F00041A4BF41F0E04141F0E7
:1058A0007F614FF00000704701F000414FF00000B1
:1058B000704750EA01334FF09B0C18BF4CF0806CDE
:1058C0007FF4A4A870471CF4801F11D01CF4E02FB3
:1058D00003D06FEACC31490070474FF04050EFF3EE
:1058E000008222F0704242EA000282F30088704790
:1058F0004FF000007047000068000004760054017B
:10590000F7FD000175191A0C6A231B1C1F20727405
:10591000433B4138393A6B6C376F06246D6E70002B
:10592000830000000008000000010018320005009C
:10593000000020410000D242295C0F3E9A99993E16
:105940003333733F295C0F3E0000700000000024D9
:10595000000000020003000000650054FFEF00009B
:10596000FA80000B12820001030C30C30E8C8CE90C
:1059700014D5400213710F8E3883F8833000F883FA
:10598000258EF8833000F883FFFFFFFF0FFEA9D6B6
:10599000240004001A8279A10000003CFFFF0000EF
:1059A0000010000038836FA2003E0330400000006A
:1059B00002CAE3093E800000200000000000000051
:1059C0004000000060000000000C0000000C186E99
:1059D000000006920A16C0DFFFFF0256FD8CD37747
:1059E000FFE1C496E0C5BEAA00000000FFFF0B2B3C
:1059F00000001657000003594000000000001DFA87
:105A000000026C1D000000003FFFDFEB003EB3B65C
:105A1000000D227800002F3C00000000001942B564
:105A2000000039A20000B365D90E9FC91DCF4C34C8
:105A300030000000500000003BB67AE8006400002F
:105A400000C8000000000000100000001000FA92E2
:105A50001000225E000D229F0001000000320000B5
:105A6000FF46000063D400001000000004D60000D0
:105A700004CC000004CC00000000107200000040C4
:105A80000000000000000000000600020005000702
:105A9000000000000064000000000000000000059D
:105AA000000500640020000000000000000000006D
:105AB000000040000000030000000032F8980000E1
:105AC000FF650000830F0000FF9BFC00000000004A
:105AD00000000000000000000000000000000000C6
