:020000040800F2
:10000000B0040020D5010008D9010008DB01000878
:10001000DD010008DF010008E10100080000000028
:10002000000000000000000000000000E3010008E4
:10003000E501000800000000E7010008E9010008F0
:10004000EB010008EB010008EB010008EB010008E0
:10005000EB010008EB010008EB010008EB010008D0
:10006000EB010008EB010008EB010008EB010008C0
:10007000EB010008EB010008EB010008EB010008B0
:10008000EB010008EB010008EB010008EB010008A0
:10009000EB010008EB010008EB010008950C0008DB
:1000A000EB010008EB010008EB010008EB01000880
:1000B000EB010008A14F0008EB010008EB0100086C
:1000C000EB010008EB010008EB010008EB01000860
:1000D000EB010008E94F0008EB010008EB01000804
:1000E000EB010008EB010008EB010008EB01000840
:1000F000EB010008EB010008EB010008EB01000830
:10010000EB010008EB010008EB010008EB0100081F
:10011000EB010008EB010008B54F0008EB010008F7
:10012000EB010008EB010008EB010008EB010008FF
:1001300000F002F800F03FF80AA090E8000C8244BA
:100140008344AAF10107DA4501D100F034F8AFF297
:10015000090EBAE80F0013F0010F18BFFB1A43F0A5
:10016000010318473471000054710000103A24BF95
:1001700078C878C1FAD8520724BF30C830C144BF0C
:1001800004680C607047000000230024002500264E
:10019000103A28BF78C1FBD8520728BF30C148BFEA
:1001A0000B607047782900F07180002070471FB500
:1001B0001FBD10B510BD00F021F91146FFF7F7FF84
:1001C00004F08CFF00F03FF903B4FFF7F2FF03BC2B
:1001D00004F02EFF08480047FEE7FEE7FEE7FEE7D3
:1001E000FEE7FEE7FEE7FEE7FEE7FEE70348044919
:1001F000024A044B7047000031010008B0000020A3
:10020000B0040020B0000020704700000FB4044983
:1002100010B503AA029800F0C3F810BC5DF814FBF7
:10022000340000202DE9F0410E46044600202062F3
:100230002046E168884730B3252805D0D4E901215C
:100240009047206A401CF2E7E16820460027884773
:10025000050018D0A5F14100192802D820354FF427
:1002600000673246294620462760FFF79BFF40B1D2
:10027000012804D0F61D26F007060836D8E7361DFB
:10028000D6E72846DAE7206ABDE8F08170B5044673
:100290000D4621461068AFF300802188090502D57C
:1002A0000F4A7A4402E00E4A7A440E32002104F1E9
:1002B000240305E000F00F060009965D5E54491C1A
:1002C0000028F7D120780023000704D5702D02D034
:1002D00009B1022311322046BDE8704000F006B893
:1002E000C86F000070477047704770472DE9F047AE
:1002F0000D4699469246044600F124080168880696
:1003000004D5E06921F01001216000E00120A8423D
:1003100001DD471B00E00027A1697A1902EB090003
:10032000081AA0612078C00602D42046AFF30080EE
:10033000002608E0D4E901211AF806009047206A57
:10034000401C761C20624E45F4DB2078C0060AD59E
:100350002046AFF3008006E0D4E901213020904729
:10036000206A401C2062381EA7F10107F4DC07E078
:10037000D4E9012118F805009047206A401C20624A
:10038000281EA5F10105F3DC2046AFF3008020789C
:10039000000602D50220BDE8F0870120FBE700003F
:1003A000074B70B50D467B4400F011F80446284613
:1003B00000F020F810B14FF0FF3070BD204670BD46
:1003C0001B4D000001694A1C02610878704700B5A6
:1003D0008FB0CDE901310021059105497944CDE97E
:1003E000031011466846FFF71DFF0FB000BD000067
:1003F000E5FFFFFF007B00F080007047754600F0CE
:1004000029F8AE4605006946534620F007008546A8
:1004100018B020B5FFF7EAFEBDE820404FF0000617
:100420004FF000074FF000084FF0000B21F00701DC
:10043000AC46ACE8C009ACE8C009ACE8C009ACE81F
:10044000C0098D4670470446AFF300802046FFF791
:10045000BBFE000000487047500000202DE9F0412D
:100460004B4C4FF6FF7660782178884204D03046B6
:1004700000F0AEFC20786070207800252F1F122835
:100480007CD2DFE800F0090D141827374757668340
:10049000838383838383837CBDE8F04100F064B968
:1004A0002079012872D1BDE8F04104F017BABDE807
:1004B000F04100F089BA207A401C2072642004F0D8
:1004C000CFFD207A062800D12572207ABDE8F041C0
:1004D00004F073B96079401C6071642004F0C0FDC1
:1004E0006079052800D1677194F90500BDE8F041F5
:1004F00004F047B9A079401CA071642004F0B0FD5D
:10050000A079052800D1A77194F90600BDE8F04153
:1005100004F010B9E079401CE071642004F0A0FD03
:10052000E079052800D1E77194F90700BDE8F041B2
:1005300004F038B9607A401C6072642004F090FDC9
:10054000607A062800D16572607ABDE8F04104F057
:1005500080B96572E571A57165712846257204F050
:100560002CF994F9050004F00CF994F9060004F054
:10057000E1F894F9070004F015F9E5E706E0012039
:10058000A0723046BDE8F04100F022BCBDE8F08129
:1005900000000020F0B50E46074615460421052050
:1005A00000F029F80021012004F02EFD80210A200E
:1005B00004F0B4FC002405E0395D092004F024FDBA
:1005C000641CE4B2B442F7D30321012004F01CFD03
:1005D000FF24052004F08CFB641E14F0FF0401D0FE
:1005E0004007F6D5222004F083FB2870212004F078
:1005F0007FFB6870F0BD30B50C46054604F078FB13
:1006000020EA04012846BDE8304004F0FDBC0000AB
:1006100070B516480024016821F00F0101600168DF
:1006200041F008010160124D04E0641CE4B20120B5
:1006300004F034FDD5F8000110B1642CF5D30DE0C1
:10064000642C0BD2002404E0641CE4B2012004F00A
:1006500025FDD5F8000118B1642C04D3012070BD2C
:10066000642CF1D3FAE7002070BD000000080140BF
:100670000000214270B50024104D04E0641CE4B277
:10068000012004F00BFDD5F8000108B1642CF5D36E
:10069000002404E0641CE4B2012004F0FFFCD5F85F
:1006A000000108B9642CF5D3282004F0F7FCD5F834
:1006B0000001002800D0012070BD00000000214290
:1006C00070B5002004464006050EFFF7D3FF641CFA
:1006D0002843E4B2082CF6D370BD2DE9FC410E4648
:1006E000074600F023F8FFF793FF10B10120BDE8A3
:1006F000FC8100246D46FFF7E3FF2855641CE4B23B
:10070000052CF8D39DF800009DF801109DF80330EA
:1007100042189DF802100B441A449DF804309A4286
:1007200001D1307039700020E1E700000C4810B5AD
:10073000016821F00F010160016841F003010160CF
:10074000084C0020C4F88001142004F5C07404F0A3
:1007500087FC01202060BDE810401E2004F09EBCF4
:1007600000080140000021427CB57C4D4FF47840E8
:10077000182428807AA0CDE900402346A822002131
:10078000242003F0C2FE0020288079A0CDE900409B
:100790001823D82264210C2003F0B7FE78A0CDE9FD
:1007A0000040182360229621002003F0AEFE77A0BF
:1007B000CDE9004018233C22C821002003F0A5FE0B
:1007C000744D687C01282FD105F11606009432780B
:1007D00002239621642003F05DFE009472780223C8
:1007E00096217C2003F056FE0094B27803239621D4
:1007F000942003F04FFE0094F27802239621B82053
:1008000003F048FE64A0CDE9004064221823C8210B
:10081000104603F07AFE63A0CDE90040182396222B
:10082000FA21322003F071FE687C02282FD1594E44
:1008300000941A36022332789621642003F02AFEAF
:1008400000947278022396217C2003F023FE00940A
:10085000B27803239621942003F01CFE0094F278D2
:1008600002239621B82003F015FE51A0CDE90040E7
:1008700064221823C821104603F047FE49A0CDE9A1
:10088000004018239622FA21322003F03EFE687CB5
:1008900003282FD13F4E00941E3602233278962132
:1008A000642003F0F7FD00947278022396217C20E7
:1008B00003F0F0FD0094B27803239621942003F016
:1008C000E9FD0094F27802239621B82003F0E2FDBE
:1008D00039A0CDE9004064221823C821104603F056
:1008E00014FE30A0CDE9004018239622FA213220D0
:1008F00003F00BFE687C04282FD1264D009422358E
:1009000002232A789621642003F0C4FD00946A78BB
:10091000032396217C2003F0BDFD0094AA780323D5
:100920009621A02003F0B6FD0094EA7802239621D8
:10093000C42003F0AFFD22A0CDE9004064221823BB
:10094000C821104603F0E1FD16A0CDE900401823B0
:100950009622FA21322003F0D8FD7CBD3800002019
:1009600057656C636F6D6520546F2055736500008B
:10097000416C7265616479204C6F6720496E3A0062
:10098000436172642049643A000000004E616D6565
:100990003A000000000000204D692E5A68616E6721
:1009A00000000000596F752043616E20557365008B
:1009B0004D692E57616E67004D692E5A68750000AB
:1009C0004D692E4C690000002DE9FC5F7A4D18241A
:1009D000E87840B979A0CDE900401823CC22322133
:1009E000122003F092FDE878012808D178A0CDE923
:1009F00000401823CC223221122003F086FDE87833
:100A0000022808D177A0CDE900401823CC2232215A
:100A1000122003F07AFDE878032808D176A0CDE90A
:100A200000401823CC223221122003F06EFD6249CF
:100A30000F31481EFFF751FE0A21012000F06EF928
:100A4000A8462E466882714D1F201823288070A06A
:100A5000CDE900409C220A212A2003F056FD70A017
:100A6000CDE9004018231A4664211E2003F04DFDF5
:100A70004FF00009CDE900494F460223B27B6421C3
:100A80003C2003F06CFD67A0CDE9004018231A4616
:100A90008C211E2003F039FDCDE900470223F27BB3
:100AA0008C213C2003F05BFD5FA0CDE900401823C2
:100AB0003C22B4211E2003F028FDCDE90047708AB6
:100AC0000423C0F58052B4213C2003F048FDB07BE4
:100AD0004FF0010A1E2898F80B004FF478464FF4A7
:100AE000FC670BD328B94FF6FF7000F071F988F856
:100AF0000BA018232E804DA0B4220BE0012805D1B5
:100B00004FF6FF7000F064F988F80B9018232F80DF
:100B10004AA09022CDE90040D221002003F0F5FC4C
:100B200098F80F00322898F80C0009D328B94FF62E
:100B3000FF7000F04DF988F80CA02E8043A009E06A
:100B4000012805D14FF6FF7000F042F988F80C90AB
:100B50002F8044A0CDE90040F02218231146002048
:100B600003F0D3FCB8F812004FF4877BC0F5805037
:100B7000B0F57A7F98F80D0009DB28B94FF6FF70C1
:100B800000F026F988F80DA02E803AA009E001288F
:100B900005D14FF6FF7000F01BF988F80D902F80FB
:100BA00037A0CDE900401823F0225946002003F079
:100BB000ACFCBDE8FC9F00000000002044657465AB
:100BC0006374696F6E204120506F696E740000007D
:100BD000446574656374696F6E204220506F696E5E
:100BE00074000000446574656374696F6E2043206F
:100BF000506F696E74000000446574656374696FBA
:100C00006E204420506F696E740000003800002090
:100C1000456E7669726F6E6D656E74616C00000072
:100C2000543A0000483A00004C3A00004F76657292
:100C300074656D7065726174757265004E6F726D6A
:100C40006F746865726D69610000000048756D69B8
:100C50006469747920497320546F6F20486967680C
:100C6000000000004E6F726D616C2048756D696404
:100C700069747900546F6F2042726967687400006C
:100C80004E6F726D616C204272696768746E657335
:100C90007300000030B50F4B1868C00506D50E4A2A
:100CA0000E4C0020117829B1C4F88C014FF48070EB
:100CB000186030BD0A49C1F898010A4D102028601B
:100CC0002D1F28600120C1F89801C4F88C01107014
:100CD000ECE70000140401403C00002000802142A9
:100CE00000802242140C01400B490A6822F01F02C6
:100CF0000A600A6802430A6007482C38016841F418
:100D0000800101600448343801688907FCD5024835
:100D10001830006880B27047342401402DE9F0415A
:100D200000250E4607462C4608E03846FFF7DCFF54
:100D30000544052004F094F9641CE4B2B442F4D3F1
:100D4000B5FBF6F080B2BDE8F08100B504F084F8A0
:100D500003F062FF03F040FE03F042FE41205DF825
:100D600004EB03F051BC000010B5174C00221749EA
:100D7000A078012378B1012813D0022819D00328C4
:100D800008D1E070C1F88831C1F88C31C1F89031D8
:100D9000C1F8942110BDE270C1F88821C1F88C31EE
:100DA00004E0E370C1F88831C1F88C21C1F89031BA
:100DB00007E00220E070C1F88831C1F88C31C1F839
:100DC0009021C1F8943110BD0000002000002142A4
:100DD0002DE9F043174F0646002438887D884543A7
:100DE000B888A0F5D041043902D1B879012807D0DC
:100DF0000021084603F086F903F0F4FB0E4815E0E5
:100E00000020B8714FF02A09A7F80A904FF02B087C
:100E1000A7F80C80014603F075F90120B871A7F816
:100E20000A80A7F80C90E7E70680641CAC42FBD36D
:100E3000BDE8F083400000200008006C2DE9F04F71
:100E40004A492A232B24898845F2105A4FF4305BF3
:100E50004FF4285E4FF448754FF0F00C49F24139D9
:100E60004FF4A07745F210364FF4F07280B13F484E
:100E70004FF00108494580F806800780A0F802C0BD
:100E800001D0B1423ED12C2505814381848157E0B8
:100E900036484FF00008494580F80680A0F800C0A9
:100EA000478006D0A1F5D04CBCF1040C01D0B14272
:100EB0000CD12C2505814381A1F5D0438481043BCD
:100EC00001D0B14244D10780428041E0514507D171
:100ED000A0F808B0A0F80AE04FF42C5181810EE090
:100EE000A1F5C856633E06D022210181202141810F
:100EF000212181812CE02C21018144818381028088
:100F0000458025E0A1F5D04CBCF1040C09D0514539
:100F10000BD1A0F808B0A0F80AE04FF42C5383815D
:100F200021E02C250581448109E0A1F5C85CBCF1D4
:100F3000630C12D022230381212343812023838148
:100F4000A1F5D043043B01D0B14201D102804780DA
:100F5000BDE8F04F002003F001B84FF02C0CA0F8D2
:100F600008C04381848105804280E9E74000002079
:100F70002DE9F04FDFF80C81934642460B46B8F856
:100F800004500C0ADFF800A19189060A5289A5F5E0
:100F900013470AF10209413F18D0A5F5A647103FB3
:100FA00014D0B7F500771CD04746A5F5C85CBE79CC
:100FB0003F883F1A7F1EBCF1630C27D0A5F5D04CAB
:100FC000BCF1040C3AD0012E4AD04AE0AAF8002025
:100FD0004A46A9F80060C0B2A9F80000AAF80010BB
:100FE0003AE0AAF80020A9F80060521CAAF80020F4
:100FF000C0B2A9F80000AAF80010A9F80040491CE6
:10100000AAF80010D8B2A9F8000033E006B9B8B2C7
:10101000AAF80020050A4A46A9F80050C7B2A9F864
:101020000070A9F80050C0B2A9F80000AAF800109A
:10103000A9F80040D8B2A9F800000DE0012E00D1B7
:10104000B8B2AAF80020050A4A46A9F80050C0B272
:10105000A9F80000AAF800101480D8B2108009E0A6
:10106000B8B20146104603F0C7FAB8F80C001946AA
:1010700003F0C2FAB8F80810AAF80010A9F800B0F6
:10108000BDE8F08F40000020FE07006C2DE9F05F06
:10109000FE484069FD4940F480704861886940F02D
:1010A00008008861886940F020008861886940F004
:1010B00040008861886940F480708861F448006865
:1010C000F34920F00F000860086840F00300086052
:1010D000F0480168F04A114001600168EF4A11438D
:1010E0000160001F016801F0FF210160016841F00B
:1010F000BB110160EA48016800210160026842F00A
:10110000BB320260001F026822F070420260026877
:1011100042F030420260E348426822F470224260AA
:10112000426842F430224260026822F00F020260FC
:10113000026842F00B0202604FF020408161C16101
:10114000C0F81C11816941F480518161816941F4C9
:1011500080418161816941F010018161C169C16192
:10116000C16941F00101C161C16941F47061C161AE
:10117000D0F81C11C0F81C11D0F81C11C0F81C11BB
:10118000D0F81C1141F44071C0F81C11816941F084
:1011900001018161322003F063FF002002F0B4FE00
:1011A000C14DC24C49F24137A88046F6040945F2C8
:1011B000103A45F210564FF6FF78FF2804D3404509
:1011C00002D0B0F5134F70D1D320208002F092FEF0
:1011D000A88002F08FFEA88002F08CFE08EA0020B2
:1011E0004146A88002F086FEAA881043A880B84233
:1011F0005BD0BF20208002F07DFEA88002F07AFE46
:10120000A88002F077FEA88002F074FE01EA0020B8
:10121000A88002F06FFEAA881043A880484544D0F9
:10122000D420208002F066FEA88002F063FEA88031
:1012300002F060FE01EA0020A88002F05BFEAA88AE
:101240001043A880504530D04FF45A40208002F01F
:1012500051FEA8804FF45B40208002F04BFE01EA73
:101260000020A8804FF45C40208002F043FEAA8852
:101270001043A880B0F5004F7ED0B04215D0A12019
:10128000208002F037FEA88002F034FE01EA002040
:10129000A88002F02FFEA9880843A0F5AE41A880DF
:1012A000613902D141F66310A880A98880A0FEF7B9
:1012B000ADFFA8887D4DAD1CB8427DD1CF202080E8
:1012C00000202880C120288030202880ED20208028
:1012D00064202880032028801220288081202880F4
:1012E000E820208085202880102028807A202880EF
:1012F000CB202080392028802C20288000202880A6
:101300003420288002202880F72020802020288078
:10131000EA202080002028802880C02020801B20F8
:101320002880C120208001202880C52020803020F6
:1013300028802880C7202080B72028803620208061
:10134000482028803A20208055202880B120208005
:10135000002028801A202880B62020800A2028809B
:10136000A2202880F22020800020288026202080B3
:1013700001202880E02000E050E020800F2028801D
:101380002A20288028202880082028800E202880D5
:101390000820288054202880A920288043202880E5
:1013A0000A2028800F20288000202880288028807C
:1013B0002880E120208000E032E0002028801520F5
:1013C00028801720288007202880112028800620C8
:1013D00028802B202880562028803C20288005202B
:1013E0002880102028800F2028803F2028802880F7
:1013F0000F2028802B20208000202880288001209A
:1014000028803F2028802A202080002028802880D3
:101410002880EF202880112020808BE0AE8044E7D8
:1014200048457DD111202080142003F019FED020E2
:10143000208007202880422028801D202880D1205D
:101440002080002028801A20288009202880D2208F
:1014500020800120288022202880C0202080102089
:1014600028803B202880002028800220288011200E
:101470002880C520208003202880C82020800020CC
:101480002880252028802120288019E00010024093
:10149000000C01400414014000F0FF00BB0B00BB36
:1014A000041801400020014040000020FE07006CAD
:1014B000204C43442049443A25780D0A000000009E
:1014C00005202880002028800A2028806520288088
:1014D0002520288077202880502028800F202880F1
:1014E00000202880F820208001202880FE202080F5
:1014F0000020288002202880202020803620208084
:10150000082028803A202080552028802B20208009
:10151000002028802880012028803F20288000E0AB
:101520000EE02A20208000202880288001202880AA
:10153000DF202880782003F093FD292001F02DBCC6
:1015400050457DD1ED20208001202880FE2028807C
:10155000EE202080DE20288021202880F12020809D
:1015600001202880DF20208010202880C4202080B7
:101570008F202880C620208000202880E22028801C
:1015800028802880BF202080AA202880B0202080AA
:101590000D202880002028800D2028800020288011
:1015A00011202880002028801920288000202880F1
:1015B00021202880002028802D20288000202880BD
:1015C0003D202880002028805D2028800020288061
:1015D0005D20288000202880B12020808020288065
:1015E000002028808B2028800020288096202880BA
:1015F00000202880B220208000202880288002201F
:101600002880002028800320288000202880B32004
:10161000208000202880288028802880288028801A
:10162000288028802880288028802880288028807A
:10163000288028802880288028802880288000E032
:10164000FEE3288028802880B42020808B202880FA
:10165000002028809620288000202880A120288033
:1016600000202880B52020800220288000202880AB
:101670000320288000202880042028800020288043
:10168000B6202080002028802880B72020800020DD
:10169000288028803F202880002028805E20288005
:1016A0000020288064202880002028808C2028802A
:1016B00000202880AC20288000202880DC20288082
:1016C00000202880702028800020288090202880FA
:1016D00000202880EB20288000202880DC20288023
:1016E00000202880B82020800020288028802880A2
:1016F00028802880288028802880BA2020802420E4
:1017000028800020288028802880C1202080202058
:101710002880002028805420288000202880FF2056
:10172000288000202880C22020800A2028800020D5
:1017300028800420288000202880C32020803C208E
:101740002880002028803A20288000202880392006
:1017500028800020288037202880002028803C20F6
:1017600028800020288036202880002028803220F1
:101770002880002028802F202880002028802C20EE
:1017800028800020288029202880002028802620EA
:1017900028800020288024202880002028802420E1
:1017A00028800020288023202880002028803C20BA
:1017B00028800020288036202880002028803220A1
:1017C0002880002028802F202880002028802C209E
:1017D000288000202880292028800020288026209A
:1017E0002880002028802420288000202880242091
:1017F0002880002028802320288000202880C420E2
:101800002080622028800020288005202880002059
:1018100028808420288000202880F0202880002034
:1018200028801820288000202880A42028800020DC
:101830002880182028800020288050202880002020
:1018400028800C2028800020288017202880002055
:1018500028809520288000202880F32028800020E0
:101860002880E620288000202880C5202080322083
:10187000288000202880442028800020288065209F
:10188000288000202880762028800020288088203A
:10189000288000202880C62020802020288000204A
:1018A0002880172028800020288001202880002000
:1018B0002880C72020800020288028802880288039
:1018C000C820208000202880288028802880C920E7
:1018D0002080002028802880288028802880288058
:1018E00028802880288028802880288028802880B8
:1018F00028802880E0202080162028800020288052
:101900001C2028800020288021202880002028807A
:10191000362028800020288046202880002028802B
:1019200052202880002028806420288000202880E1
:101930007A202880002028808B2028800020288082
:101940009920288000202880A82028800020288036
:10195000B920288000202880C420288000202880EA
:10196000CA20288000202880D220288000202880BB
:10197000D920288000202880E0202880002028808E
:10198000F320288000202880E12020801620288055
:10199000002028801C2028800020288022202880E9
:1019A000002028803620288000202880452028809C
:1019B0000020288052202880002028806420288051
:1019C000002028807A202880002028808B202880F2
:1019D000002028809920288000202880A8202880A6
:1019E00000202880B920288000202880C42028805A
:1019F00000202880CA20288000202880D22028802B
:101A000000202880D820288000202880E0202880FE
:101A100000202880F320288000202880E2202080D9
:101A200005202880002028800B2028800020288086
:101A30001B20288000202880342028800020288037
:101A400044202880002028804F20288000202880E3
:101A5000612028800020288079202880002028808C
:101A60008820288000202880972028800020288037
:101A7000A620288000202880B720288000202880E9
:101A8000C220288000202880C720288000202880AD
:101A9000D120288000202880D6202880002028807F
:101AA000DD20288000202880F32028800020288046
:101AB000E320208005202880002028800A2028801C
:101AC000002028801C2028800020288033202880A7
:101AD0000020288044202880002028805020288052
:101AE00000202880622028800020288078202880FC
:101AF00000202880882028800020288097202880A7
:101B000000202880A620288000202880B720288058
:101B100000202880C220288000202880C72028801C
:101B200000202880D120288000202880D5202880EF
:101B300000202880DD20288000202880F3202880B5
:101B400000202880E4202080012028800020288098
:101B50000120288000202880022028800020288062
:101B60002A202880002028803C20288000202880EF
:101B70004B202880002028805D202880002028809D
:101B8000742028800020288084202880002028803D
:101B90009320288000202880A220288000202880F0
:101BA000B320288000202880BE20288000202880A4
:101BB000C420288000202880CD2028800020288074
:101BC000D320288000202880DD2028800020288045
:101BD000F320288000202880E52020800020288015
:101BE0002880288028800220288000202880292022
:101BF0002880002028803C202880002028804B203E
:101C00002880002028805D202880002028807420E3
:101C1000288000202880842028800020288093208D
:101C2000288000202880A220288000202880B3203F
:101C3000288000202880BE20288000202880C42002
:101C4000288000202880CD20288000202880D320D4
:101C5000288000202880DC20288000202880F32095
:101C6000288000202880E620208011202880002065
:101C700028803420288000202880562028800020BA
:101C80002880762028800020288077202880002047
:101C90002880662028800020288088202880002036
:101CA00028809920288000202880BB2028800020C0
:101CB0002880992028800020288066202880002005
:101CC000288055202880002028805520288000204A
:101CD000288045202880002028804320288000205C
:101CE00028804420288000202880E720208032207F
:101CF00028800020288055202880002028807620F9
:101D000028800020288066202880002028806720E6
:101D100028800020288067202880002028808720B5
:101D20002880002028809920288000202880BB203F
:101D30002880002028809920288000202880772073
:101D400028800020288044202880002028805620D9
:101D5000288000202880232028800020288033200D
:101D60002880002028804520288000202880E82026
:101D7000208000202880288099202880002028802A
:101D80008720288000202880882028800020288024
:101D90007720288000202880662028800020288046
:101DA0008820288000202880AA20288000202880E1
:101DB000BB202880002028809920288000202880AF
:101DC0006620288000202880552028800020288038
:101DD000552028800020288044202880002028804A
:101DE000442028800020288055202880002028803A
:101DF000E9202080AA2028800020288028802880B0
:101E00002080AA202880CF202080002028802880C1
:101E10002880288028802880288028802880288082
:101E20002880288028802880288028802880F0200A
:101E3000208000202880502028800020288000E07A
:101E40002CE028802880F320208000202880F920A2
:101E5000208006202880102028802920288000202B
:101E600028803A202080552028801120208064205E
:101E700003F0F6F8292020803520208000202880DB
:101E800051202080FF202880532020802C20288073
:101E900055202080822028802C20FCE3B0427DD178
:101EA0004FF470435521184602F0A6FB4FF201058E
:101EB000AA21284602F0A0FB6E1C5221304602F0F7
:101EC0009BFBAF1C0821384602F096FB4FF2040939
:101ED0000121484602F090FB0D214FF4304002F002
:101EE0008BFB0D214BF2010002F086FB0D214BF222
:101EF000020002F081FB4FF4364A3421504602F0D2
:101F00007BFB34214BF2016002F076FB34214BF273
:101F1000026002F071FB4FF4314B0D21584602F084
:101F20006BFB0D214BF2011002F066FB0D214BF211
:101F3000021002F061FB34214FF4374002F05CFBE9
:101F400034214BF2017002F057FB34214BF2027046
:101F500002F052FB00214FF4324002F04DFB002111
:101F60004BF2012002F048FB00214BF2022002F06C
:101F700043FB24214FF4384002F03EFB24214BF672
:101F8000010002F039FB24214BF6020002F034FB81
:101F900001214FF43F4002F02FFB00E0FEE30F2150
:101FA0004FF4334002F028FB0F214BF2013002F0D6
:101FB00023FB0F214BF2023002F01EFB34214FF4C1
:101FC000394002F019FB34214BF6011002F014FBEA
:101FD00034214BF6021002F00FFB08214FF435407C
:101FE00002F00AFB08214BF2015002F005FB082128
:101FF0004BF2025002F000FB03214FF4424002F08A
:10200000FBFA24214FF43A4002F0F6FA24214BF671
:10201000012002F0F1FA24214BF6022002F0ECFA42
:1020200000214FF43C4002F0E7FA78214BF60140E2
:1020300002F0E2FA00214BF6024002F0DDFA002144
:102040004FF43D4002F0D8FA78214BF6015002F0EF
:10205000D3FA00214BF6025002F0CEFA00214FF4E1
:102060003E4002F0C9FA64214BF6016002F0C4FA66
:1020700000214FF4514002F0BFFA33214DF201101C
:1020800002F0BAFA00214DF2021002F0B5FA342142
:102090004DF2031002F0B0FA00214DF2041002F0EC
:1020A000ABFA3A214DF2051002F0A6FA00214DF2EA
:1020B000061002F0A1FA4A214DF2071002F09CFA34
:1020C00000214DF2081002F097FA5C214DF2091040
:1020D00002F092FA00214DF20A1002F08DFA8121ED
:1020E0004DF20B1002F088FA00214DF20C1002F0B4
:1020F00083FAA6214DF20D1002F07EFA00214DF276
:102100000E1002F079FAE5214DF20F1002F074FA88
:1021100001214DF2101002F06FFA13214DF211104F
:1021200002F06AFA01214DF2121002F065FA542110
:102130004DF2131002F060FA01214DF2141002F07A
:102140005BFA82214DF2151002F056FA01214DF290
:10215000161002F051FACA214DF2171002F04CFA93
:1021600002214DF2181002F047FA00214DF2191029
:1021700002F042FA02214DF21A1002F03DFA01215A
:102180004DF21B1002F038FA02214DF21C1002F041
:1021900033FA34214DF21D1002F02EFA02214DF2D5
:1021A0001E1002F029FA67214DF21F1002F024FAE6
:1021B00002214DF2201002F01FFA84214DF221106D
:1021C00002F01AFA02214DF2221002F015FAA421AF
:1021D0004DF2231002F010FA02214DF2241002F009
:1021E0000BFAB7214DF2251002F006FA02214DF24A
:1021F000261002F001FACF214DF2271002F0FCF96F
:1022000002214DF2281002F0F7F9DE214DF22910DB
:1022100002F0F2F902214DF22A1002F0EDF9F2215A
:102220004DF22B1002F0E8F902214DF22C1002F0D1
:10223000E3F9FE214DF22D1002F0DEF903214DF2FB
:102240002E1002F0D9F910214DF22F1002F0D4F91E
:1022500003214DF2301002F0CFF933214DF231104D
:1022600002F0CAF903214DF2321002F0C5F96D21D6
:102270004DF2331002F0C0F900214FF4524002F049
:10228000BBF933214DF2012002F0B6F900214DF2E5
:10229000022002F0B1F934214DF2032002F0ACF932
:1022A00000214DF2042002F0A7F93A214DF2052059
:1022B00002F0A2F900214DF2062002F09DF94A2118
:1022C0004DF2072002F098F900214DF2082002F0AB
:1022D00093F95C214DF2092002F08EF900214DF2B4
:1022E0000A2002F089F981214DF20B2002F084F9D5
:1022F00000214DF20C2002F07FF9A6214DF20D20B5
:1023000002F07AF900214DF20E2002F075F9E52174
:102310004DF20F2002F070F901214DF2102002F071
:102320006BF913214DF2112002F066F901214DF2F3
:10233000122002F061F954214DF2132002F05CF9F1
:1023400001214DF2142002F057F982214DF215209F
:1023500002F052F901214DF2162002F04DF9CA2186
:102360004DF2172002F048F902214DF2182002F038
:1023700043F900214DF2192002F03EF902214DF2FD
:102380001A2002F039F901214DF21B2002F034F934
:1023900002214DF21C2002F02FF934214DF21D20B4
:1023A00002F02AF902214DF21E2002F025F96721E0
:1023B0004DF21F2002F020F902214DF2202002F000
:1023C0001BF984214DF2212002F016F902214DF271
:1023D000222002F011F9A4214DF2232002F00CF981
:1023E00002214DF2242002F007F9B7214DF22520F9
:1023F00002F002F902214DF2262002F0FDF8CF2171
:102400004DF2272002F0F8F802214DF2282002F0C8
:10241000F3F8DE214DF2292002F0EEF802214DF210
:102420002A2002F0E9F8F2214DF22B2002F0E4F824
:1024300002214DF22C2002F0DFF8FE214DF22D207A
:1024400002F0DAF803214DF22E2002F0D5F8102127
:102450004DF22F2002F0D0F803214DF2302002F08F
:10246000CBF833214DF2312002F0C6F803214DF2B2
:10247000322002F0C1F86D214DF2332002F0BCF899
:1024800000214FF4534002F0B7F833214DF20130F0
:1024900002F0B2F800214DF2023002F0ADF8342122
:1024A0004DF2033002F0A8F800214DF2043002F0A2
:1024B000A3F83A214DF2053002F09EF800214DF2CA
:1024C000063002F099F84A214DF2073002F094F8F4
:1024D00000214DF2083002F08FF85C214DF20930F6
:1024E00002F08AF800214DF20A3002F085F88121CD
:1024F0004DF20B3002F080F800214DF20C3002F06A
:102500007BF8A6214DF20D3002F076F800214DF255
:102510000E3002F071F8E5214DF20F3002F06CF848
:1025200001214DF2103002F067F813214DF2113005
:1025300002F062F801214DF2123002F05DF85421F0
:102540004DF2133002F058F801214DF2143002F030
:1025500053F882214DF2153002F04EF801214DF270
:10256000163002F049F8CA214DF2173002F044F853
:1025700002214DF2183002F03FF800214DF21930DF
:1025800002F03AF802214DF21A3002F035F801213A
:102590004DF21B3002F030F802214DF21C3002F0F7
:1025A0002BF834214DF21D3002F026F802214DF2B5
:1025B0001E3002F021F867214DF21F3002F01CF8A6
:1025C00002214DF2203002F017F884214DF2213023
:1025D00002F012F802214DF2223002F00DF8A4218F
:1025E0004DF2233002F008F802214DF2243002F0BF
:1025F00003F8B7214DF2253001F0FEFF02214DF224
:10260000263001F0F9FFCF214DF2273001F0F4FF21
:1026100002214DF2283001F0EFFFDE214DF229308A
:1026200001F0EAFF02214DF22A3001F0E5FFF2212C
:102630004DF22B3001F0E0FF02214DF22C3001F081
:10264000DBFFFE214DF22D3001F0D6FF03214DF2CC
:102650002E3001F0D1FF10214DF22F3001F0CCFFD0
:1026600003214DF2303001F0C7FF33214DF23130FC
:1026700001F0C2FF03214DF2323001F0BDFF6D21A8
:102680004DF2333001F0B8FF00214FF4544001F017
:10269000B3FF332100E080E34DF2014001F0ACFFD5
:1026A00000214DF2024001F0A7FF34214DF203401A
:1026B00001F0A2FF00214DF2044001F09DFF3A21FC
:1026C0004DF2054001F098FF00214DF2064001F067
:1026D00093FF4A214DF2074001F08EFF00214DF299
:1026E000084001F089FF5C214DF2094001F084FFB0
:1026F00000214DF20A4001F07FFF81214DF20B4095
:1027000001F07AFF00214DF20C4001F075FFA62187
:102710004DF20D4001F070FF00214DF20E4001F02E
:102720006BFFE5214DF20F4001F066FF01214DF2F4
:10273000104001F061FF13214DF2114001F05CFFE8
:1027400001214DF2124001F057FF54214DF2134088
:1027500001F052FF01214DF2144001F04DFF8221A2
:102760004DF2154001F048FF01214DF2164001F0F5
:1027700043FFCA214DF2174001F03EFF02214DF206
:10278000184001F039FF00214DF2194001F034FFEB
:1027900002214DF21A4001F02FFF00E0FFE201217B
:1027A0004DF21B4001F028FF02214DF21C4001F0C8
:1027B00023FF34214DF21D4001F01EFF02214DF296
:1027C0001E4001F019FF67214DF21F4001F014FF78
:1027D00002214DF2204001F00FFF84214DF22140F3
:1027E00001F00AFF02214DF2224001F005FFA42171
:1027F0004DF2234001F000FF02214DF2244001F090
:10280000FBFEB7214DF2254001F0F6FE02214DF20C
:10281000264001F0F1FECF214DF2274001F0ECFE01
:1028200002214DF2284001F0E7FEDE214DF2294061
:1028300001F0E2FE02214DF22A4001F0DDFEF2211C
:102840004DF22B4001F0D8FE02214DF22C4001F058
:10285000D3FEFE214DF22D4001F0CEFE03214DF2BC
:102860002E4001F0C9FE10214DF22F4001F0C4FEB0
:1028700003214DF2304001F0BFFE33214DF23140D3
:1028800001F0BAFE03214DF2324001F0B5FE6D2198
:102890004DF2334001F0B0FE00214FF4554001F0FD
:1028A000ABFE33214DF2015001F0A6FE00214DF2A6
:1028B000025001F0A1FE34214DF2035001F09CFEC4
:1028C00000214DF2045001F097FE3A214DF20550DF
:1028D00001F092FE00214DF2065001F08DFE4A21DA
:1028E0004DF2075001F088FE00214DF2085001F032
:1028F00083FE5C214DF2095001F07EFE00214DF275
:102900000A5001F079FE81214DF20B5001F074FE66
:1029100000214DF20C5001F06FFEA6214DF20D503A
:1029200001F06AFE00214DF20E5001F065FEE52136
:102930004DF20F5001F060FE01214DF2105001F0F8
:102940005BFE13214DF2115001F056FE01214DF2B4
:10295000125001F051FE54214DF2135001F04CFE83
:1029600001214DF2145001F047FE82214DF2155025
:1029700001F042FE01214DF2165001F03DFECA2148
:102980004DF2175001F038FE02214DF2185001F0BF
:1029900033FE00214DF2195001F02EFE02214DF2BE
:1029A0001A5001F029FE01214DF21B5001F024FEC6
:1029B00002214DF21C5001F01FFE34214DF21D503A
:1029C00001F01AFE02214DF21E5001F015FE6721A2
:1029D0004DF21F5001F010FE02214DF2205001F087
:1029E0000BFE84214DF2215001F006FE02214DF232
:1029F000225001F001FEA4214DF2235001F0FCFD14
:102A000002214DF2245001F0F7FDB7214DF225507F
:102A100001F0F2FD02214DF2265001F0EDFDCF2133
:102A20004DF2275001F0E8FD02214DF2285001F04F
:102A3000E3FDDE214DF2295001F0DEFD02214DF2D1
:102A40002A5001F0D9FDF2214DF22B5001F0D4FDB6
:102A500002214DF22C5001F0CFFDFE214DF22D5000
:102A600001F0CAFD03214DF22E5001F0C5FD1021E9
:102A70004DF22F5001F0C0FD03214DF2305001F016
:102A8000BBFD33214DF2315001F0B6FD03214DF273
:102A9000325001F0B1FD6D214DF2335001F0ACFD2B
:102AA00000214FF4564001F0A7FD33214DF20160A3
:102AB00001F0A2FD00214DF2026001F09DFD3421E4
:102AC0004DF2036001F098FD00214DF2046001F029
:102AD00093FD3A214DF2056001F08EFD00214DF28B
:102AE000066001F089FD4A214DF2076001F084FD86
:102AF00000214DF2086001F07FFD5C214DF209607C
:102B000001F07AFD00214DF20A6001F075FD81218E
:102B10004DF20B6001F070FD00214DF20C6001F0F0
:102B20006BFDA6214DF20D6001F066FD00214DF216
:102B30000E6001F061FDE5214DF20F6001F05CFDDA
:102B400001214DF2106001F057FD13214DF211608B
:102B500001F052FD01214DF2126001F04DFD5421B2
:102B60004DF2136001F048FD01214DF2146001F0B7
:102B700043FD82214DF2156001F03EFD01214DF231
:102B8000166001F039FDCA214DF2176001F034FDE5
:102B900002214DF2186001F02FFD00214DF2196065
:102BA00001F02AFD02214DF21A6001F025FD0121FC
:102BB0004DF21B6001F020FD02214DF21C6001F07E
:102BC0001BFD34214DF21D6001F016FD02214DF276
:102BD0001E6001F011FD67214DF21F6001F00CFD38
:102BE00002214DF2206001F007FD84214DF22160A9
:102BF00001F002FD02214DF2226001F0FDFCA42152
:102C00004DF2236001F0F8FC02214DF2246001F046
:102C1000F3FCB7214DF2256001F0EEFC02214DF2EC
:102C2000266001F0E9FCCF214DF2276001F0E4FCC1
:102C300002214DF2286001F0DFFCDE214DF2296017
:102C400001F0DAFC02214DF22A6001F0D5FCF221FC
:102C50004DF22B6001F0D0FC02214DF22C6001F00E
:102C6000CBFCFE214DF22D6001F0C6FC03214DF29C
:102C70002E6001F0C1FC10214DF22F6001F0BCFC70
:102C800003214DF2306001F0B7FC33214DF2316089
:102C900001F0B2FC03214DF2326001F0ADFC6D2178
:102CA0004DF2336001F0A8FC5521184601F0A4FC58
:102CB000AA21284601F0A0FC5221304601F09CFCDC
:102CC0000821384601F098FC0021484601F094FCA8
:102CD000CC21584601F090FC00214BF2011001F08C
:102CE0008BFC0521504601F087FC70214FF43740E2
:102CF00001F082FC70214BF2017001F07DFC01219A
:102D00004FF4384001F078FC03214BF6010001F04C
:102D100073FC03214BF6020001F06EFC03214BF61D
:102D2000030001F069FC02214FF43C4001F064FC17
:102D300000214BF6014001F05FFC00214BF6024000
:102D400001F05AFCD0214FF4494001F055FC02211A
:102D50004CF6011001F050FC50214CF6021001F02D
:102D60004BFC50214CF6031001F046FC50214CF670
:102D7000041001F041FC00214FF4545001F03CFCE0
:102D800055214FF4685001F037FC4FF488502080F3
:102D9000782002F083F94FF424502080FDE3A0F561
:102DA00013414FF480764FF4E06940F2022B4FF468
:102DB000274A253924D040F20777C91E7ED04FF428
:102DC000887A08317BD011397AD0A0F5A84108392A
:102DD00077D0A0F5A8514FF4407A053972D0B1F5FB
:102DE000204170D0B1F580516ED0A0F58A413139C3
:102DF0006BD0091F6AD0A0F5C851633967D0CDE701
:102E000047F6F001E52001F0F7FB3146012001F023
:102E1000F3FB4946022001F0EFFB41F230010320B1
:102E200001F0EAFB0021042001F0E6FB59460820EE
:102E300001F0E2FB0021092001F0DEFB00210A2065
:102E400001F0DAFB00210C2001F0D6FB00210D205F
:102E500001F0D2FB00210F2001F0CEFB0021102059
:102E600001F0CAFB0721112001F0C6FB002112204E
:102E700001F0C2FB0021132001F0BEFB002107205E
:102E800001F0BAFB41F29061102001F0B5FB40F275
:102E90002721112001F0B0FB9D21122001F0ACFB95
:102EA0004FF4C851132001F0A7FB2521292001F080
:102EB000A3FB0D212B2001F09FFB09E077E033E11C
:102EC000D8E1AEE24AE3FDE3FDE3FDE3FDE3FDE32C
:102ED0000721302001F090FB40F20331312001F056
:102EE0008BFB0321322001F087FB40F206213520C5
:102EF00001F082FB0821362001F07EFB40F2064102
:102F0000372001F079FB4FF44171382001F074FB58
:102F10000721392001F070FB40F202613C2001F0F2
:102F20006BFB08213D2001F067FB0021502001F0E0
:102F300063FBEF21512001F05FFB0021522001F0E3
:102F40005BFB40F23F11532001F056FB51466020DD
:102F500001F052FB0121612001F04EFB00216A20AB
:102F600001F04AFB0021802001F046FB0021812076
:102F700001F042FB0021822001F03EFB0021832072
:102F800001F03AFB0021842001F036FB002185206E
:102F900001F032FB1021902001F02EFB4FF4C061B4
:102FA000922001F029FB40F233110720FDE341F2AA
:102FB0008F01EC2001F020FB41F23421EF2001F0E1
:102FC0001BFB3146012001F017FB4946022001F0AE
:102FD00013FB41F23001032001F00EFB002104201D
:102FE00001F00AFB5946082001F006FB00210920E8
:102FF00001F002FB00210A2001F0FEFA01210C2061
:1030000001F0FAFA00210D2001F0F6FA00210F205C
:1030100001F0F2FA0021102001F0EEFA0721112050
:1030200001F0EAFA0021122001F0E6FA0021132053
:1030300001F0E2FA0121072001F0DEFA322002F06D
:103040000FF841F29041102001F0D6FA40F227210A
:10305000112001F0D1FA322002F002F88A21122068
:1030600001F0CAFA322001F0FBFF4FF4D0511320D7
:1030700001F0C2FA0621292001F0BEFA0D212B2011
:1030800001F0BAFA322001F0EBFF0021202001F01C
:10309000B3FA0021212001F0AFFA322001F0E0FF65
:1030A0000021302001F0A8FA40F20461312001F043
:1030B000A3FA40F20531322001F09EFA00213520BA
:1030C00001F09AFA40F60941362001F095FA4FF4E2
:1030D0000171372001F090FA40F20131382001F0FF
:1030E0008BFA3946392001F087FA00213C2001F0A3
:1030F00083FA40F60A213D2001F07EFA322001F0E9
:10310000AFFF0021502001F077FAEF21512001F0AC
:1031100073FA0021522001F06FFA40F23F11532060
:1031200001F06AFA514651E10021084601F064FAC3
:103130003146012001F060FA4946022001F05CFAB4
:1031400041F23001032001F057FA0021042001F080
:1031500053FA5946082001F04FFA0021092001F0E6
:103160004BFA00210A2001F047FA01210C2001F05E
:1031700043FA00210D2001F03FFA00210F2001F059
:103180003BFA322001F06CFF40F20111072001F000
:1031900033FA322001F064FF4FF48651102001F021
:1031A0002BFA0721112001F027FA5346514612202D
:1031B00001F022FA4FF43061132001F01DFA0021D2
:1031C000292001F019FA44F210012B2001F014FA21
:1031D0000021502001F010FAEF21512001F00CFAEB
:1031E0000021522001F008FA40F23F11532001F073
:1031F00003FA4FF41C51602001F0FEF90121612017
:1032000001F0FAF900216A2001F0F6F9002180208E
:1032100001F0F2F90021812001F0EEF90021822075
:1032200001F0EAF90021832001F0E6F90021842071
:1032300001F0E2F90021852001F0DEF91021902053
:1032400001F0DAF90021922001F0D6F90121932052
:1032500001F0D2F91946952001F0CEF9002197200E
:1032600001F0CAF90021982001F0C6F940F273116B
:10327000072085E341F21401E72001F0BDF9314652
:10328000012001F0B9F94FF40071022001F0B4F906
:1032900041F23801032001F0AFF95946082001F04E
:1032A000ABF90021092001F0A7F900210A2001F063
:1032B000A3F900210C2001F09FF900210D2001F05D
:1032C0009BF900210F2001F097F90021102001F057
:1032D00093F90721112001F08FF90021122001F04C
:1032E0008BF90021132001F087F9C82001F0B8FE06
:1032F00041F29061102001F07FF940F22721112066
:1033000001F07AF9322001F0ABFE0C21122001F01D
:1033100073F9322001F0A4FE4FF40061132001F094
:103320006BF91121292001F067F90B212B2001F005
:1033300063F9322001F094FE0021202001F05CF9B5
:1033400040F23F131946212001F056F900213020A8
:1033500001F052F94FF483742146312001F04CF909
:103360000021322001F048F94FF40171352001F0BD
:1033700043F941F20A61362001F03EF9394637201F
:1033800001F03AF92146382001F036F93946392062
:1033900001F032F940F202413C2001F02DF940F6F3
:1033A0000F413D2001F028F90021502001F024F9BF
:1033B000EF21512001F020F90021522001F01CF9E9
:1033C0001946532001F018F94FF41C51602001F008
:1033D00013F90121612001F00FF900216A2001F0A9
:1033E0000BF90021802001F007F90021812001F074
:1033F00003F90021822001F0FFF80021832001F071
:10340000FBF80021842001F0F7F80021852001F06D
:10341000F3F81021902001F0EFF84FF4C0619220F2
:10342000FDE33146012001F0E7F84946022001F0B2
:10343000E3F841F23001032001F0DEF8002104201E
:1034400001F0DAF840F20721082001F0D5F8002158
:10345000092001F0D1F800210A2001F0CDF8002167
:103460000C2001F0C9F800210D2001F0C5F8002161
:103470000F2001F0C1F8142001F0F2FD41F2B0611B
:10348000102001F0B9F80121112001F0B5F8012157
:10349000172001F0B1F84FF49C71122001F0ACF844
:1034A0004FF40061132001F0A7F80921292001F051
:1034B000A3F809212A2001F09FF80021A42001F09F
:1034C0009BF80021502001F097F8EF21512001F0E6
:1034D00093F80021522001F08FF840F23F11532061
:1034E00001F08AF84FF41C51602001F085F80121A9
:1034F000612001F081F800216A2001F07DF80021AF
:10350000802001F079F80021812001F075F8002178
:10351000822001F071F80021832001F06DF8002174
:10352000842001F069F80021852001F065F813215D
:10353000902001F061F80021922001F05DF8032154
:10354000932001F059F85146952001F055F840F2CA
:103550007311072001F050F8322010E100210720FC
:1035600001F04AF8322001F07BFD4FF48E711220F9
:1035700001F042F80121A42001F03EF80F210820BB
:1035800001F03AF808210A2001F036F808210D2050
:1035900001F032F83946302000E072E301F02CF8F7
:1035A0000721312001F028F840F20361322001F0B8
:1035B00023F84C464946332001F01EF85946342082
:1035C00001F01AF80221352001F016F841F60F71CA
:1035D000362001F011F83946372001F00DF80021AE
:1035E000382001F009F80021392001F005F83946AA
:1035F0003A2001F001F800213B2000F0FDFF0721F7
:103600003C2000F0F9FF00213D2000F0F5FF3220C2
:1036100001F026FD0121072000F0EEFF0121172017
:1036200000F0EAFF322001F01BFD4FF4BD511020E5
:1036300000F0E2FF40F21721112000F0DDFF4FF40F
:103640008F71122000F0D8FF4FF47061132000F04A
:10365000D3FF00212A2000F0CFFF0A21292000F00B
:10366000CBFF4FF49F71122000F0C6FF00215020C5
:1036700000F0C2FFEF21512000F0BEFF00215220D8
:1036800000F0BAFF40F23F11532000F0B5FF4FF4B5
:103690001C51602000F0B0FF0121612000F0ACFF60
:1036A00000216A2000F0A8FF0021802000F0A4FF84
:1036B0000021812000F0A0FF0021822000F09CFF6B
:1036C000002104E05EE05CE125E2DBE282E38320AE
:1036D00000F092FF0021842000F08EFF0021852061
:1036E00000F08AFF1321902000F086FF51469220BF
:1036F00000F082FF0521932000F07EFF002195203D
:1037000000F07AFF0021972000F076FF002198203A
:1037100000F072FF3146012000F06EFF21460220CA
:1037200000F06AFF41F23801032000F065FF00213C
:10373000042000F061FF00210C2000F05DFF00215B
:103740000F2000F059FF0021202000F055FF00213C
:10375000212000F051FF2121072000F04DFF14200F
:1037600001F07EFC6121072000F046FF142001F0EB
:1037700077FC40F27311072000F03EFF142001F0A7
:103780006FFCA1E30021084600F036FF0021084647
:1037900000F032FF0021084600F02EFF002108460D
:1037A00000F02AFF0121A42000E0E5E000F024FF62
:1037B000142001F055FC4FF41C542146602000F009
:1037C0001BFF5D465946082000F016FF4FF40571B7
:1037D000302000F011FF43F21571312000F00CFF92
:1037E00040F20461322000F007FF40F616613320FA
:1037F00000F002FF42F21121342000F0FDFE4FF4F0
:10380000A851352000F0F8FE48F20751362000F0AC
:10381000F3FE41F20741372000F0EEFE41F2034192
:10382000382000F0E9FE2021392000F0E5FE1A21C1
:10383000902000F0E1FE0021102000F0DDFE0721C5
:10384000112000F0D9FE0021122000F0D5FE002149
:10385000132000F0D1FE142001F002FC4FF4E661C9
:10386000102000F0C9FE40F23711112000F0C4FE14
:10387000142001F0F5FB4FF4DC71122000F0BCFEC7
:10388000142001F0EDFB4FF47061132000F0B4FE42
:1038900080212A2000F0B0FE4821292000F0ACFE53
:1038A000142001F0DDFB3146012000F0A5FE494661
:1038B000022000F0A1FE41F23801032000F09CFE3E
:1038C0002946082000F098FE00210A2000F094FE0E
:1038D00000210C2000F090FE00210D2000F08CFE55
:1038E00030210E2000F088FE0021502000F084FEE0
:1038F000EF21512000F080FE0021522000F07CFEDC
:1039000040F23F11532000F077FE2146602000F086
:1039100073FE0121612000F06FFE00216A2000F09B
:103920006BFE1121902000F067FE4FF4C0619220E1
:1039300000F062FE40F20241932000F05DFE0221A1
:10394000942000F059FE142001F08AFB0121072089
:1039500000F052FE142001F083FB6121072000F0EB
:103960004BFE40F27311072000F046FE002120209C
:1039700000F042FE0021212000F03EFE2221002026
:103980007DE10021084600F037FE0021084600F0E6
:1039900033FE142001F064FB0021084600F02CFEE9
:1039A0000021084600F028FE0021084600F024FE11
:1039B0000021084600F020FE0121A42000F01CFE9A
:1039C000142001F04DFB4FF41C51602000F014FE58
:1039D00040F60601082000F00FFE40F2037319467E
:1039E000302000F009FE0121312000F005FE042105
:1039F000322000F001FE4FF48171332000F0FCFD15
:103A000054465146342000F0F7FD40F203113520B2
:103A100000F0F2FD1F21362000F0EEFD19463720A0
:103A200000F0EAFD0121382000F0E6FD04213920F4
:103A300000F0E2FD1521902000F0DEFD4FF48261E0
:103A4000102000F0D9FD40F24721112000F0D4FDF4
:103A50004FF4DE71122000F0CFFD4FF460611320AF
:103A600000F0CAFD782001F0FBFA3146012000F099
:103A7000C3FD4FF40071022000F0BEFD41F23001A1
:103A8000032000F0B9FD08210A2000F0B5FD002157
:103A90000C2000F0B1FD20210E2000F0ADFD002132
:103AA0000F2000F0A9FD0021202000F0A5FD00213D
:103AB000212000F0A1FD3D212A2000F09DFD1420D1
:103AC00001F0CEFA2D21292000F096FD0021502092
:103AD00000F092FD4DF2EF01512000F08DFD00212C
:103AE000522000F089FD40F23F11532000F084FD88
:103AF0000021612000F080FD00216A2000F07CFDA3
:103B00002146922000F078FD0521932000F074FDFD
:103B10003146FFF7ADBB0121002000F06DFD0A200A
:103B200001F09EFA41F22861102000F065FD0E219F
:103B3000122000F061FD40F63921132000F05CFDF9
:103B40000A2001F08DFA4021112000F055FD50218E
:103B5000152000F051FD0A2001F082FA1E211220EA
:103B600000F04AFD0A2001F07BFA4FF4B151102019
:103B700000F042FD42F63921132000F03DFD0A20FD
:103B800001F06EFA3146012000F036FD5146022068
:103B900000F032FD41F23801032000F02DFD5946BE
:103BA000082000F029FD08210A2000F025FD002151
:103BB000302000F021FD40F20241312000F01CFDD8
:103BC0004FF48371322000F017FD40F2035133208F
:103BD00000F012FD4FF48271342000F00DFD40F230
:103BE0000131352000F008FD3946362000F004FD93
:103BF00040F20531372000F0FFFC4FF4027138200D
:103C000000F0FAFC40F60B71392000F0F5FC0221BF
:103C1000412000F0F1FC4FF41C51602000E0D4E0A2
:103C200000F0EAFC0121612000F0E6FC4FF4047191
:103C3000902000F0E1FC4FF48571922000F0DCFC54
:103C40000421932000F0D8FC3146A02000F0D4FCE1
:103C50000121072000F0D0FC2121072000F0CCFC3E
:103C60002321072000F0C8FC3321072000F0C4FC0A
:103C700040F23311072000F0BFFC0021A02000F02B
:103C8000BBFC21E13021152000F0B6FC10219A2068
:103C900000F0B2FC2021112000F0AEFC43F22841DC
:103CA000102000F0A9FC0221122000F0A5FC41F236
:103CB0003801132000F0A0FC282001F0D1F91221D6
:103CC000084600F099FC282001F0CAF943F220418F
:103CD000102000F091FC43F23801132000F08CFC1E
:103CE000462001F0BDF90021302000F085FC40F2B3
:103CF0000241312000F080FC40F20731322000F018
:103D00007BFC4FF44171332000F076FC0421342019
:103D100000F072FC40F20141352000F06DFC3946A4
:103D2000362000F069FC40F20531372000F064FCD9
:103D30004FF4C2631946382000F05EFC1946392062
:103D400000F05AFC3146012000F056FC514602209A
:103D500000F052FC41F23001032000F04DFC40F62F
:103D60000801082000F048FC08210A2000F044FC6B
:103D70004FF41C51602000F03FFC0121612000F055
:103D80003BFC4FF49F71902000F036FC31469220AE
:103D900000F032FC3146932000F02EFC4FF44051ED
:103DA000A02000F029FC1021A32000F025FC012117
:103DB000072000F021FC2121072000F01DFC232119
:103DC000072000F019FC3321072000F015FC40F219
:103DD00033119EE6E22020801D20288002202880CA
:103DE00004202880642001F059F9E020208001207F
:103DF00028800A2001F034F9E02020800320288068
:103E00000C2001F02DF9012020800A2001F028F972
:103E1000E62020802F202880FF2028802880B020C6
:103E2000208020202880002028800320288040F245
:103E30001F3028800120288040F2DF1028800020D9
:103E40002880B42020800420288040F21F40288051
:103E5000002028802E20288000202880288028808C
:103E60002880B6202080022028804FF4037028800C
:103E700000202880172028801520288000202880F6
:103E80002880F02020800320288029202080D02036
:103E9000208000202880BE20208005202880FE2051
:103EA0002880012028800020288028802880B820B1
:103EB00020800320288001202880BA202080012033
:103EC0002880642000F02CF80020FCF7B7FF04499C
:103ED0000120C1F880014046BDE8F05FFCF778BFE3
:103EE000008021420346012000E05843491EC9B228
:103EF000FBD27047034808B50088ADF80000BDF854
:103F0000000008BD0008006C044910B508800520B9
:103F100001F0C4F8BDE81040FFF7ECBFFE07006CED
:103F20000C4A10B5BE211180941C0521218001F09E
:103F300016FA4FF06632084B01F024FA01F0E2F96C
:103F4000208001202080FF202080002020802080F1
:103F500010BD0000FE07006C66660440F0B5674EB9
:103F600000233146B279898846F6040741F6631486
:103F7000012A01D02AB11DE0B9421BD0A14202D1D1
:103F800018E0A14216D1082814D2DFE800F0040698
:103F9000080A0C0E101206200CE007200AE004208C
:103FA00008E0052006E0012004E0002002E00320F4
:103FB00000E00220A1F5134C45F2103245F21055F5
:103FC000BCF1410C07D0B94205D0914203D0A942BF
:103FD00001D0A14275D1082812D2DFE800F0110407
:103FE00006080A0C0E1080230AE0402308E0C023D4
:103FF00006E0202304E0602302E0A02300E0E023A9
:10400000A94202D14FF4585000E03620914205D029
:10401000A94203D0A14201D043F00803B94201D123
:1040200043F00203194600F0E7FAB288A2420AD030
:1040300098063088718802D5884202D303E088420E
:1040400001D9318070802E48811CAA427289028079
:1040500021D100230B80531C038000230B80931C71
:10406000038033885B1E1C0A0C80D21C0280DAB2EB
:104070000A80B289028000230B80531C0380002336
:104080000B80931C038073885B1E1C0A0C80D21C5F
:104090000280D8B212E000220A800A803288521EC2
:1040A000130A0B80D2B20A80B289028000200880F5
:1040B00008807088401E020A0A80C0B20880F0BDE5
:1040C000FFE7082812D2DFE800F0040608110A0C06
:1040D0000E1030230AE0102308E0202306E03823E6
:1040E00004E0282302E0182300E00823BDE8F040A4
:1040F000032043F4805100F07FBA0000400000200C
:10410000FE07006C2DE9F04F4E4F0B463A46BD8836
:104110000C0ADFF834B191895289A5F513464FEAAC
:10412000102C0BF1020A413E1DD0A5F5A646103E0B
:1041300019D03E46BE4696F806903688A5F5D0477B
:10414000A6EB0008A8F10108043F17D0A5F5C85751
:10415000633F28D0A5F5AA477646103F51D0B9F164
:10416000010F63D064E0ABF800205246AAF800C00B
:10417000C0B2AAF80000ABF800100FE0B9F1010FCF
:1041800001D11FFA88F0ABF80020050A5246AAF8C0
:104190000050C0B2AAF80000ABF800101480D8B2EA
:1041A0001080BDE8F08FB9F1000F1BD0ABF80020F4
:1041B0005246AAF800C0C0B2AAF80000761E300A23
:1041C000AAF80000F0B21080ABF80010114614807D
:1041D000D8B21080BEF80200401E020A0A80C0B2A7
:1041E0000880DEE71FFA88F0ABF800200026524670
:1041F000AAF80060AAF80060060AAAF80060C0B237
:10420000E1E7ABF80020AAF800C0521CABF8002090
:10421000C0B2AAF80000ABF80010AAF80040491C90
:10422000ABF80010D8B2AAF80000BAE71FFA88F07D
:104230000146104600F0E0F9B089BDE8F04F19469C
:1042400000F0DAB940000020FE07006C2DE9FC4FB9
:10425000044691464844401E86B2C818401E83B2A8
:10426000009004EB0900401EC0F3072EDFF850C198
:1042700000980D46C0F3072B6046BCF804204FEAB7
:10428000112881894089A2F513474FEA142A413F3A
:1042900010D0A2F5A647103F0CD0A2F5D047043F9E
:1042A00008D09CF8067041F6631C0197012F13D1CA
:1042B000624511D1434F3880B81CA0F800A0E2B28B
:1042C0000280A0F800E0F2B202803980A0F80080FD
:1042D000E9B2018059461CE0394F62453F881DD143
:1042E000A7EB0902121B374C009B92B29BB22080B5
:1042F000160AA01C0680D6B206804A44521E160A30
:104300000680D2B202802180A0F80080E9B201804C
:10431000190A0180D9B20180BDE8FC8FA2F5A04C3A
:10432000BCF5A26C1FD0019801283FD0B0462146B1
:104330002E4650204FF0510A4FF05209532700F0FB
:104340005BF94146504600F057F93146484600F0C7
:1043500053F91946384600F04FF929462046BDE882
:10436000FC4FFFF7CFBE174A1080971CA7F800A09C
:1043700000F1010CA2F800C0E4B23C80841C14805F
:10438000A7F800E0C01C1080F0B238801180A7F8B8
:104390000080481C1080E8B23880881C1080A7F884
:1043A00000B0C91C1180D8B23880B5E7B81B401ED8
:1043B00086B2381B9846401E294683B2B9E70000F2
:1043C00040000020FE07006C2DE9F84F82461F4692
:1043D0000C468B46580700D0012000EBD700790827
:1043E0004843203AC0B202F0FF090026009041E0A5
:1043F0000C2F10D0102F12D0182F3ED1204909EBCE
:10440000C90001EB80004FF00008855D28060AD541
:104410001C4802880BE009EB49001B49F1E71B49E6
:1044200001EB0910EFE70A9828B91648428821469F
:104430005046FCF79DFD6806050E1548641CA4B2A5
:104440004088A04219D9A4EB0B00B84209D10AF167
:1044500001001FFA80FA0E485C46018851450CD9CC
:1044600006E008F1010000F0FF08B8F1080FCDD315
:10447000761CF6B200988642BAD3BDE8F88F0000E9
:104480001265000838000020AE5A0008225F0008BC
:10449000400000202DE9FF4F81B00027DDF838B043
:1044A0001D46924680463C46B9464FEA5B0627E0E9
:1044B000281B401EC1B20A20FFF714FDBAFBF0F022
:1044C0000A21B0FBF1F201FB120027B9691E8C42F0
:1044D00001DA48B101273030C2B206FB048080B255
:1044E0005B46CDF8009006E006FB048080B25B4698
:1044F0002022CDF800900299FFF766FF641CE4B219
:10450000AC42D5D305B0BDE8F08F2DE9F84F044695
:1045100000F0FF0810190D46DDE90A761FFA80FA4F
:1045200058191FFA80F94FF0000B11E0544502D3DF
:10453000E819444685B24D450FD23B4629462046F0
:10454000CDF800B0FFF740FF04EB570084B2761CB3
:104550003278A2F120005E28E8D9BDE8F88F2DE975
:10456000FF4F81B08046DDF83CA00E984FF0000967
:104570001F4693464C460AF0010546082BE0381BBF
:10458000401EC1B20A20FFF7ADFCBBFBF0F00A21D0
:10459000B0FBF1F201FB1200B9F1000F05D1791E59
:1045A0008C4202DA48B14FF001093030C2B206FB4A
:1045B000048080B200950E9B08E05FEA0A6006FB6B
:1045C00004800E9B80B200950AD530220299FFF735
:1045D000FBFE641CE4B2BC42D1D305B0BDE8F08F51
:1045E0002022F3E702480349008908807047000051
:1045F00040000020FE07006C024A1080901C0180E1
:1046000070470000FE07006C00B5412801D0012072
:1046100000BD08210846FBF7EEFF3D21112000F008
:10462000F3FC8621172000F0EFFC7F21262000F00C
:10463000EBFC1E212D2000F0E7FC00212C2000F0D7
:10464000E3FC8D212A2000F0DFFC3E212B2000F02E
:10465000DBFC4FF47A7000F017FD00F0C1F9002088
:1046600000BD00000F4800210161C16014224261B9
:104670008161C161026842F00102026042680A4B36
:104680001A4042600268094B1A400260026822F434
:1046900080220260426822F4FE0242608160C00310
:1046A00000F03EB8001002400000FFF8FFFFF6FEE9
:1046B000F0B5064614460F461D46184600F01EF893
:1046C000C5F1040086400F21E940394031436009BB
:1046D000800000F1E020D0F8002104F01F05012344
:1046E000AB401A43C0F8002104F1E02494F8000420
:1046F00040EA011084F80004F0BD0000064A0721DA
:10470000814310684FF6FF031840044B184340EAFA
:1047100001201060704700000CED00E00000FA0579
:10472000024A1140014302480160704780FFFF1FA9
:1047300008ED00E010B5001D092815D2DFE800F0F3
:104740001F1D12100E0C0A070500482100E0382139
:10475000062409E02821FBE71821F9E70821F7E7FB
:10476000082100E018210E249B2000F055FB214673
:10477000BDE81040AB2000F04FBB2821F3E7382103
:10478000F1E710B5011D08290BD804014034E1B24E
:10479000A72000F041FBE1B2BDE81040A82000F0E6
:1047A0003BBB10BD011D082906D8202101EB80006C
:1047B000C1B29C2000F030BB704710B5062847D22C
:1047C000DFE800F003061D27313CFF21132009E03C
:1047D000FD21132000F020FB5A21012000F01CFBDA
:1047E0005C2129E000F018FB65210E2000F014FB8D
:1047F00000212D2000F010FB00212E2024E0FD21BF
:10480000132000F009FB5821012000F005FB602176
:1048100012E0FD21132000F0FFFA8421012000F0B6
:10482000FBFA4C2108E0FD21132000F0F5FA962157
:10483000012000F0F1FA40210220D3E7FF211320EC
:1048400000F0EAFAE5210E20BDE8104000F0E4BADD
:1048500010BD10B5072840D2DFE800F004060913A8
:104860001D273100062103E04621A62031E0262144
:10487000A62000F0D1FA8021602000F0CDFA80213E
:1048800026E01E21A62000F0C7FA8021602000F05B
:10489000C3FAC0211CE01E21A62000F0BDFA602151
:1048A000084600F0B9FA602112E01E21A62000F0AF
:1048B000B3FAA021602000F0AFFA402108E01E21E9
:1048C000A62000F0A9FA4021602000F0A5FAA0215E
:1048D0006120BDE8104000F09FBA10BD2DE9F05FE7
:1048E000DFF8D8B09BF80000002865D00420FFF75F
:1048F00035FB334C4FF4A075F02320886188A0F578
:10490000A070F03901EBD17100EBD070C1F34F0111
:10491000C0F34F002A46FFF799FCA088A0F5C851C4
:10492000633910D120886188A0F5A070F03901EBBF
:10493000D17100EBD070C1F34F01C0F34F002B4693
:10494000F022FFF783FCFFF74DFE1E484FF0000AF0
:10495000C0F8B8A11C4E10213160371F396031609A
:104960000122C0F8B8213960A946184DDFF86080EF
:1049700054464FF6FF7300203160AA68396003EA9D
:1049800002223160D5F808C039600CF0FF0C4CEA07
:10499000020CA8F800C0401C4845EDD3641CF02C64
:1049A000E9D30C488BF800A00178491C0170BDE8E0
:1049B000F05F0020FFF7D2BABDE8F09F3C00002076
:1049C0004000002000002442140C0140001001406F
:1049D0000008006C3D00002003211420FBF70BBEF3
:1049E00000B5142000F084F9800705D103211420BC
:1049F0005DF804EB00F092BA00BD70B506460821E0
:104A000087B000240846FBF7F6FD00210D2000F0DA
:104A1000FBFA80210E20FBF7EEFD93208DF80400B9
:104A200020208DF8050006A801AB0090022219464F
:104A30000C2000F038F805000DD1002101A8425CDF
:104A40007254425C491C5440C9B20429F7D3405CFB
:104A5000A04200D0022580210E2000F05FFA07B0AE
:104A6000284670BD10B587B08DF804008DF805108C
:104A70001068CDF806009088ADF80A001868039019
:104A800006A801AB00900C2219460E2000F00BF88E
:104A9000040004D1082000F02BF9000700D4022400
:104AA00007B0204610BD2DE9FF4F0025DDF834B0DA
:104AB00017468A4681464FF002082E460C2805D03C
:104AC000B9F10E0F04D11225102601E0772530260A
:104AD00045F08001022000F097FA80210420FBF7C6
:104AE0008AFD0021012000F08FFA80210A2000F0C9
:104AF00015FA002406E01AF80410092000F084FAE0
:104B0000641CA4B2BC42F6D34946012000F07CFAF2
:104B1000B9F10C0F03D180210D2000F0FFF94FF403
:104B20001674042000F0E4F8641E24040746240CE4
:104B300003D0F80701D13742F3D080210D20FBF7D5
:104B40005AFD3CB1062000F0D3F810F01B0F0DD039
:104B50004FF0020880210C2000F0E0F90021012034
:104B600000F052FA04B04046BDE8F08F2F404FF0FD
:104B70000008F80701D04FF00108B9F10C0FE9D196
:104B80000A2000F0B5F805460C2000F0B1F810F04E
:104B9000070003D0E9000839084400E0E8008BF87A
:104BA000000025B1122D00D91225002408E00125AE
:104BB000FBE7092000F09CF803990855641CA4B297
:104BC000AC42F6D3C6E730B50C460546082187B09F
:104BD0000846FBF710FD07210D2000F015FA032110
:104BE000142000F09BF906A801AB00908DF804504A
:104BF000012219460C20FFF756FF18B99DF818102E
:104C0000102902D0022007B030BD9DF80410217099
:104C10009DF805106170F6E71B4B00B54FF480520C
:104C20001A600A2000F030FA1748001D02600A20BE
:104C300000F02AFA1A600A2000F026FA0F2101205B
:104C400000F0E2F90F21012000F0DEF90A2000F067
:104C50001BFA3D21112000F0D7F91E212D2000F074
:104C6000D3F900212C2000F0CFF98D212A2000F06B
:104C7000CBF93E212B2000F0C7F94021152000F090
:104C8000C3F9002000BD00001008014010B587B036
:104C900093218DF8041070218DF8051000218DF8F6
:104CA0000A1001AA5418435CA370445C9DF80A30B2
:104CB000491C6340C9B28DF80A300429F2D3072198
:104CC00001A8D21DFBF766FC08210846FBF793FC00
:104CD00006A801AB0090092219460C20FFF7E3FE5D
:104CE00018B99DF81810182900D0022007B010BD7F
:104CF000094900B54FF400630B607E2101EA4000D2
:104D000040F0800000F0FAF8002000F0F7F80249C7
:104D1000091F0B6000BD00001408014070B50A4E69
:104D20000120C6F8B401094DC5F88C01322005F503
:104D3000C67506F5DA7600F0B1F900243460322049
:104D400000F0ACF92C6070BD0000244200802242CB
:104D500070B50B4C0020C4F8B401322004F5DA74AD
:104D600000F09CF907480125C0F88C51322000F072
:104D700095F92560BDE87040322000F08FB9000041
:104D800000002442008022422DE9F04700241F4EFB
:104D90001F4F0546A0464FF00109280601D5484699
:104DA00000E04046C6F8B4016806050E322000F067
:104DB00075F9C7F88C91322000F070F9C7F88C8132
:104DC000641CE4B2082CE8D3124C606820F4700034
:104DD0006060606840F400006060322000F05EF9BE
:104DE000C7F88C91322000F059F9D6F8340100B19F
:104DF0000120C7F88C81616821F4700161606168ED
:104E000041F440116160BDE8F087000000002442D9
:104E1000008022420020014070B50D460646002465
:104E2000FFF77CFF4220FFF7AFFF00B101246420B1
:104E300000F034F93046FFF7A7FF00B101246420E9
:104E400000F02CF92846FFF79FFF00B10124FFF77F
:104E50007FFF204670BD00002348816941F00101B9
:104E60008161816941F008018161816941F004013A
:104E70008161C16941F48041C1611C48016821F42C
:104E80007F210160016841F44C31016018480168DC
:104E9000C1F3130101600168164A1143016016480D
:104EA00001880180018841F400710180018841F48A
:104EB00080710180018841F0040101800188018036
:104EC000018821F002010180018821F001010180A7
:104ED000018841F03801018001880180018841F09A
:104EE00040010180704700000010024004080140AA
:104EF000040C01400000B0B80038004006490A88A0
:104F00009207FCD5044A121D10800888C007FCD007
:104F10001088C0B2704700000838004030B50C4619
:104F20000546FFF7E5FE40EA04012846BDE83040AB
:104F300000F06AB830B505460024FFF793FB164928
:104F4000086840F4803008600868400CFCD04FF4DA
:104F500080604860AD1E4A68E8B242EA804048601E
:104F6000486840F4803048600C48026842F03202E1
:104F70000260086840F0807008600868400EFCD04D
:104F8000486840F00200486002E04868C0F38104CD
:104F9000022CFAD130BD0000001002400020024077
:104FA00003480188018821F0010101807047000059
:104FB00010040040094A108AC0070AD0084809496D
:104FC000002303700878401CC0B20870042800D386
:104FD0000B70108A20F00100108270470010004012
:104FE0003D0000200200002005480188890605D503
:104FF000011D0988034A11700021018070470000DB
:10500000003801400000002010B50C4607494FF45D
:1050100000630B607E2101EA4000FFF76FFF20462E
:10502000FFF76CFF0148001F036010BD140801402A
:10503000704700004FF0E0210A6922F004020A6183
:105040000649C00800EB40020870C2EBC0104FF6E2
:10505000FF7202EAC0004880704700003000002064
:105060000849498848434FF0E021486100238B619B
:10507000012008610869C20701D0C003FAD50B619D
:105080008B61704730000020002103E000BF00BFAB
:1050900000BF491C8142F9D37047000008490978D4
:1050A00048434FF0E021486100238B6101200861F3
:1050B0000869C20701D0C003FAD50B618B61704744
:1050C0003000002004490A885206FCD5024AC1B2C9
:1050D000121D118070470000003801401CB50920E6
:1050E000FFF728FF4FF41651482000F0B3F848208E
:1050F000FFF7A0FFFBF7CAFFFBF727FE41494FF47C
:1051000078401024088040A0CDE900402346C82202
:1051100046211E20FFF7F9F940A0CDE900401023F9
:10512000C8226E211E20FFF7F0F93FA0CDE9004014
:105130001023C82282211E20FFF7E7F94FF6FF7ADD
:105140005046FBF745FE3E4F02260025A7F12604F8
:1051500050E018203BA1CDE900010346D82264218C
:105160000C20FFF7D2F9364952201239FFF72BFDF8
:105170002074A0BB26743248FFF73FFC207470BB3C
:1051800026742F48FFF782FD207440BB2C4B2674F9
:105190001A1D06216120FFF765FC2074F8B9284A22
:1051A0000020103A267402F10C0C131D02F10809BC
:1051B000395C12F80080414501D1012004E01CF85F
:1051C0000080414502D10420607404E013F800809F
:1051D000414505D16674A5725046FBF7F9FD09E01B
:1051E00019F80080414501D10320EDE7401CC0B211
:1051F0000428DDD3A07A0028ABD1FBF7B5FDFBF77F
:105200002DF9F7E7380000204F56373732355F4F1A
:105210005637363730205445535400003230313839
:105220002F352F31320000004F56373732355F4F60
:10523000563736373020496E69742E2E2E00000006
:1052400026000020506C65617365204C6F67204913
:105250006E3A000070B50446080100F0DBFA05461E
:105260002448604300F0D6FA294600F0F1F90546DB
:1052700000F0B0FA84B2204600F0CCFA294600F0E3
:1052800027FB042100F0D5FB00F0A4FA4FF6FF71D4
:1052900001EA04110A181848816941F0040181618A
:1052A000816941F48041816114490B6823F47F6373
:1052B0000B600B6843F40B630B60C16841F48041E1
:1052C000C160C16821F48041C1600D480280001DA9
:1052D000018842F20C0211430180018841F0200153
:1052E0000180BDE870400223252203210846FFF714
:1052F000DFB9000040420F000010024004080140E6
:10530000083801404FEA1153A3F58063D3F11E031F
:10531000A8BFD3F1200C08DB4FF0004242EAC122C3
:1053200052EA505232FA03F0704709420BD4102B64
:10533000C4BF0020704703F5787CBCF1FF3F05D067
:105340004FF0FF3070474FF00000704770B500F02D
:10535000C3F800BF4992248000207047F0E7B0FAFC
:1053600080F310FA03F10AD0C3F11D0303F5806343
:105370004FEA41504FEA035202EBD12170474FF000
:1053800000007047DFF848C170B51CEA111E1EBF4F
:105390001CEA13159EEA0C0F95EA0C0F00F06F80C3
:1053A00081EA030423EA4C134EEAD47E21EA4C112D
:1053B00041F4801143F48013AE44A1FB024CA0FBE6
:1053C0000365AEF17F7E361955EB0C05A1FB034C4E
:1053D0004CF10003A0FB021C16EB0C06654153F1D7
:1053E0000003094218BF46F0010613F4007F0BD1F9
:1053F0004FEA03314FEA0530340341EA155140EAE0
:1054000016506FF003020AE04FEAC3214FEAC520AD
:10541000F40241EA555140EA56506FF0020202EBA5
:105420002E4201EB025585EACE710AD05FEA440CA8
:1054300018BF24F0004450F1000041F1000120EABF
:10544000D47040F2FE7C624500D270BDA84214BF09
:105450004FF080444FF04044002E08BF0024BEF1BE
:10546000806FA8BFA1F1C041BDE8704080F282808A
:105470004FF0000001F1C04101F0004170479EEA89
:105480000C0F0CEA131518BF95EA0C0F06D04FF05D
:10549000000081EA030E0EF0004170BD00F01CF820
:1054A0008900013E00F007B800F009B84FEA430C4C
:1054B0005FEA5C5C08D081EA030100F05BB84FEA68
:1054C000410C5FEA5C5CF6D14FF000000149704787
:1054D0000000FF070000F87F0EF1020E2EF0030E11
:1054E0005EF8046B364205D4012A43EB030515F53B
:1054F000001F12D8012841EB010C1CF5001F0CD82D
:105500000ED14FEAD17C15F5001F0CEB4C0C0CF1C1
:10551000020C08BF4CEBD37C04E04FF0080C01E018
:105520004FEAD37C0CEB4C0526FA05F606F007068D
:10553000B6F1040C06D20EEB860CBDE870404CF0C0
:10554000010C6047DFE80CF0090B02024FF000414C
:105550004FF00000A1F5002170BD1946104601284A
:1055600051EB010418BFD4F5001484BF002001F0F2
:10557000004170BD0808A0F500114FEA31017047E5
:1055800090EA010F48BF81F0004100F1B281421A58
:105590003CBF801A89184FEAD0524FF07F4C1CEA6A
:1055A000410FA2EBD15318BF9CEA026F00F03B8081
:1055B0004FF0004C4CEA00204CEA012121FA03FC98
:1055C00010EB0C0C1ED202F1FF325FEA1C2040EB04
:1055D000C25038BF70471CF07F0F4FEA400C18BF15
:1055E000BCF17F4F38BF7047C3F12003994008BF1B
:1055F00020F00100BCF17F4F38BF7047A0F1C040E0
:1056000000F061B94FEA3C00000A40EBC25028BFED
:105610001CF0FF0F4FEA400CE6D018BFBCF17F4FE3
:1056200038BF7047EAE79CEA026F05D010EA5C0FCA
:1056300008BF00F00040704710B500F0FEF800BF52
:1056400064FBBE3E014800F0C2B900BF0000C07F4D
:105650004FF47F0C1CEAD0121EBF1CEAD11392EA51
:105660000C0F93EA0C0F00F0858090EA010F48BF01
:1056700042F4807240F4000C41F400002CF07F41B1
:1056800020F07F4000B58142A2EB03020FF2081C1C
:10569000ACEB504EC0F100009EF800E04FEA4E0E19
:1056A00000FB0EFC38BF49004FEA2C1C02F5FA0241
:1056B0000CFB0EF34FEACE1E4FEA112C4FEAC1212C
:1056C0000EEB635E42EB22420EFB0CFC4FEA1C53D6
:1056D00000FB03114FEA112C4FEA01310EFB0CFCC9
:1056E0004FEADC4C00FB0C11C14228BF09184CEBFF
:1056F00003335DF804EB10EB410143EBC250B2F50C
:105700007C0F38BF704729D512F0F00F1CBF00F195
:10571000C04000F000407047008182838485868706
:1057200088898B8C8D8E8F919293959697999A9C60
:105730009D9FA0A2A3A5A7A8AAACAEB0B2B3B5B7CF
:10574000B9BCBEC0C2C5C7C9CCCED1D4D7D9DCDFA5
:10575000E2E6E9ECF0F3F7FAFE0000004FEA400C55
:105760000CF1807CBCF17E4F28BF7047B0F1C04087
:1057700000F0A9B890EA010F0CEAD11348BF42F437
:105780008072624538BF634507D213F47F0F16D08D
:1057900080EA010000F00040704710B500F04DF8BD
:1057A000097EFC3E00F005B880EA010000F00040F0
:1057B000704780EA010000F0004000F084B812F465
:1057C0007F0F04BF0248704780EA010000F07BB8F9
:1057D0000000C07FC10DD1F19E0206DB4FEA00231D
:1057E00043F0004323FA02F07047004207D54FEA26
:1057F0004001B1F1FE4F02D24FF00000704710B5EA
:1058000000F01BF849922480002070476FEA2000C6
:1058100070470000B0FA80F310FA03F2C3F19D0361
:105820000AD0D90501EB1220530638BF704700F1AA
:10583000010008BF20F0010070470EF1020E2EF0AB
:10584000030E5EF8044B244204D44FEA4102B2F145
:105850007F4F11D84FEA4003B3F17F4F0CD80ED1E0
:105860004FEAD07CB2F17F4F0CEB4C0C0CF1020CE8
:1058700008BF4CEBD17C04E04FF0080C01E04FEA8C
:10588000D17C0CEB4C0324FA03F404F00704B4F1CC
:10589000040C06D20EEB840CBDE810404CF0010C59
:1058A0006047DFE80CF0070802024FF00040A0F567
:1058B000800010BD0846420018BFD2F1807288BF38
:1058C00000F0004010BDFF2141EAD050C0057047F4
:1058D00080F0004090EA010F7FF559AE81F0004161
:1058E00000F007B890EA010F48BF81F000413FF592
:1058F0004EAE421A04D882F00042A0EB02001144DE
:105900004FEAD0524FF07F4C1CEA410FA2EBD1532B
:1059100018BF9CEA026F4AD04FF0004C4CEA0020BE
:105920004CEA012121FA03FCB0EB0C0C0FD412F06D
:10593000FE0F36D05FEA4C001DD5001240EBC2507E
:1059400038BF70471CF03F0F18BF70470BE0A2F143
:1059500001025FEA1C2040EBC25038BF70471CF0C8
:105960007F0F18BF7047C3F12003994014BF401E3A
:1059700020F00100704780084FEA122308BF7047EB
:10598000B0FA80FCA2EB0C02CCF1280C60FA0CF00F
:1059900093EA122F04BF00EBC25070474FEAC37066
:1059A0007047130A5FEADC1008BF7047F6E79CEA0D
:1059B000026F04D010EA5C0F08BF0020704710B5DA
:1059C000FFF73BFF40DFF63E81F0004070470CF0F0
:1059D0000F03092B08BF082000F051800A2B0BD0C1
:1059E000082B18BF704708BF1CF0400F0AD04FF0BB
:1059F00000004FF0000170471CF0400F18BF4FF03F
:105A0000004070471CF0100F08D020F0704300F0E9
:105A10007F4242EAD3014FEA4370704700F0604092
:105A200021F07F4242EA000201F07F4040EA7270BA
:105A300070474FF0FF0212EAD0521CBF92F0FF03F2
:105A40008B42C2BFD14200EBC1507047002A0AD03E
:105A5000002B0BD0002900F00040A4BF40F0FE4016
:105A600040F40000704700F00040704743024FF0E0
:105A70000B0C18BF4CF0806C7FF4E4AD70471CF445
:105A8000801F11D01CF4E02F03D06FEACC31490005
:105A900070474FF04050EFF3008222F0704242EA2C
:105AA000000282F3008870474FF00000704700004A
:105AB00000000000000000000000000000003F4067
:105AC00000000000000000003000400030004000F6
:105AD000000009000BC03D000BC03D00090018C0CC
