:020000040800F2
:1000000030060020D5010008D9010008DB010008F6
:10001000DD010008DF010008E10100080000000028
:10002000000000000000000000000000E3010008E4
:10003000E501000800000000E7010008E9010008F0
:10004000EB010008EB010008EB010008EB010008E0
:10005000EB010008EB010008EB010008EB010008D0
:10006000EB010008EB010008EB010008EB010008C0
:10007000EB010008EB010008EB010008EB010008B0
:10008000EB010008EB010008EB010008EB010008A0
:10009000EB010008EB010008EB010008EB01000890
:1000A000EB010008EB010008EB010008EB01000880
:1000B000EB010008E9350008EB010008EB0100083E
:1000C000EB010008EB010008EB010008EB01000860
:1000D000EB01000839450008EB010008EB010008BE
:1000E000EB010008EB010008EB010008EB01000840
:1000F000EB010008EB010008EB010008EB01000830
:10010000EB010008EB010008EB010008EB0100081F
:10011000EB010008EB010008EB010008EB0100080F
:10012000EB010008EB010008EB010008EB010008FF
:1001300000F002F800F03FF80AA090E8000C8244BA
:100140008344AAF10107DA4501D100F034F8AFF297
:10015000090EBAE80F0013F0010F18BFFB1A43F0A5
:1001600001031847F073000010740000103A24BF18
:1001700078C878C1FAD8520724BF30C830C144BF0C
:1001800004680C607047000000230024002500264E
:10019000103A28BF78C1FBD8520728BF30C148BFEA
:1001A0000B607047782900F07180002070471FB500
:1001B0001FBD10B510BD00F033F91146FFF7F7FF72
:1001C00004F000FB00F051F903B4FFF7F2FF03BCA9
:1001D00004F068FA08480047FEE7FEE7FEE7FEE79E
:1001E000FEE7FEE7FEE7FEE7FEE7FEE70348044919
:1001F000024A044B70470000310100083002002021
:100200003006002030020020704700000FB404497F
:1002100010B503AA029800F0CDF810BC5DF814FBED
:100220006C0000202DE9F0410E46044600202062BB
:100230002046E168884730B3252805D0D4E901215C
:100240009047206A401CF2E7E16820460027884773
:10025000050018D0A5F14100192802D820354FF427
:1002600000673246294620462760FFF79BFF40B1D2
:10027000012804D0F61D26F007060836D8E7361DFB
:10028000D6E72846DAE7206ABDE8F08170B5044673
:100290000D4621461068AFF300802188090502D57C
:1002A0000F4A7A4402E00E4A7A440E32002104F1E9
:1002B000240305E000F00F060009965D5E54491C1A
:1002C0000028F7D120780023000704D5702D02D034
:1002D00009B1022311322046BDE8704000F011B888
:1002E0000A720000704770477047704710B500F001
:1002F00073F8006810BD10B5044600F06DF8046096
:1003000010BD2DE9F0470D4699469246044600F18E
:1003100024080168880604D5E06921F010012160F5
:1003200000E00120A84201DD471B00E00027A16991
:100330007A1902EB0900081AA0612078C00602D4DD
:100340002046AFF30080002608E0D4E901211AF826
:1003500006009047206A401C761C20624E45F4DB64
:100360002078C0060AD52046AFF3008006E0D4E925
:10037000012130209047206A401C2062381EA7F1DE
:100380000107F4DC07E0D4E9012118F805009047E3
:10039000206A401C2062281EA5F10105F3DC2046DE
:1003A000AFF300802078000602D50220BDE8F08778
:1003B0000120FBE7074B70B50D467B4400F015F8B4
:1003C0000446284600F024F810B14FF0FF3070BD0D
:1003D000204670BDEB43000000487047D00100206C
:1003E00001694A1C02610878704700B58FB0CDE9F9
:1003F00001310021059105497944CDE903101146E9
:100400006846FFF70FFF0FB000BD0000E5FFFFFFDC
:10041000007B00F08000704700487047D00100204A
:100420007546FFF7F9FFAE4605006946534620F0D2
:100430000700854618B020B5FFF7D8FEBDE820407C
:100440004FF000064FF000074FF000084FF0000B90
:1004500021F00701AC46ACE8C009ACE8C009ACE843
:10046000C009ACE8C0098D4670470446AFF3008070
:100470002046FFF7A9FE10B501F010FC10BD70B5C5
:1004800006460C46154608E03046721C96B200F04F
:1004900007F804F8010B681E85B2002DF4D170BD79
:1004A00070B50446002601F05BFD2546E11704EB1C
:1004B00011610912A02202EB4101C8B201F0E8FC6F
:1004C00001F0E6FDE11704EB11610912A4EB012133
:1004D000C8B201F0DDFC01F0DBFD01F041FDA1201F
:1004E00001F0D6FC01F0D4FD002001F061FC0646CD
:1004F00001F082FD304670BD70B505460C461646CB
:1005000006E02178284600F009F8681C85B2641CD2
:100510003000A6F101018EB2F3D170BD70B5044672
:100520000E4601F01DFD2546E11704EB116109128D
:10053000A02202EB4101C8B201F0AAFC01F0A8FD23
:10054000E11704EB11610912A4EB0121C8B201F01B
:100550009FFC01F09DFD304601F09AFC01F098FDF2
:1005600001F04AFD0A2004F0C1F870BD3EB54FF419
:100570007840D249088000201821D1A20B46CDE94D
:100580000021029054225A210B2002F083FFCE4812
:100590000078012862D1002409E000F047FFCB4831
:1005A0000068CB490860CB490860601CC4B20A2CC3
:1005B000F3DB4FF47840C149088000201821C6A21F
:1005C0000B46CDE9002102903022B4210B2002F02D
:1005D00061FF002426E002F0C1FE0020B749088038
:1005E00010210823CDE90010B8485E210268602080
:1005F00002F0FBFA002010210823CDE90010B848D2
:10060000B82102683C2002F0F0FA002010210523F6
:10061000CDE90010B348B8210268822002F0E5FA63
:10062000601CC4B2642CD6DBAD480068AE490860DB
:10063000AC480068AD4908601F20A0490880002030
:100640001821A5A20B46CDE9002102903022B42149
:100650000B2002F01FFF00209B4908709A48007889
:1006600002286AD1002409E000F0E0FE9748006803
:100670009749086097490860601CC4B20A2CF3DBF4
:100680004FF478408D4908800020182198A20B462D
:10069000CDE9002102903022D2210B2002F0FAFE97
:1006A00000F0C4FE894800688949086089490860EB
:1006B000002426E002F052FE00208049088010212C
:1006C0000823CDE9001081485E210268602002F015
:1006D0008CFA002010210823CDE900108048D62193
:1006E00002683C2002F081FA002010210523CDE9A8
:1006F00000107C48D6210268822002F076FA601C45
:10070000C4B2642CD6DB764800687B490860754823
:1007100000687A4908601F20684908800020182175
:1007200073A20B46CDE9002102903022D2210B208A
:1007300002F0B0FE00206449087063480078032886
:100740006AD1002409E000F071FE60480068604949
:10075000086060490860601CC4B20A2CF3DB4FF4E7
:100760007840564908800020182165A20B46CDE943
:10077000002102903022F0210B2002F08BFE00F0CD
:1007800055FE5248006852490860524908600024EA
:1007900026E002F0E3FD00204849088010210823EC
:1007A000CDE9001049485E210268602002F01DFA80
:1007B000002010210823CDE900104948F4210268E7
:1007C0003C2002F012FA002010210523CDE9001090
:1007D0004448F4210268822002F007FA601CC4B287
:1007E000642CD6DB3E480068464908603D480068F6
:1007F000454908601F20314908800020182140A287
:100800000B46CDE9002102903022F0210B2002F0AE
:1008100041FE00202C490870002028490880102142
:100820000823CDE900103048B82102683C2002F0CE
:10083000DCF9002010210523CDE900102B48B82158
:100840000268822002F0D1F9002010210823CDE9AE
:1008500000102948D62102683C2002F0C6F9002089
:1008600010210523CDE900102448D62102688220FA
:1008700002F0BBF9002010210823CDE90010214827
:10088000F42102683C2002F0B0F900201021052379
:10089000CDE900101C48F4210268822002F0A5F97D
:1008A00000200649088010210823CDE900100748E0
:1008B0005E210268602002F098F93EBD72000020BF
:1008C000CDA8B5C032A3BA00580000200400002013
:1008D0000C00002008000020CAAFCDB700000000C7
:1008E0001000002014000020200000202400002020
:1008F000BCF4B5B600000000280000202C00002049
:10090000B2BC0000180000201C0000203EB54FF4CF
:100910007840FB49088000201821FAA20B46CDE957
:100920000021029054225A210B2002F0B3FDF74817
:10093000007801286AD1002409E000F077FDF4482E
:100940000068F4490860F4490860601CC4B20A2CCD
:10095000F3DB4FF47840EA49088000201821EFA229
:100960000B46CDE9002102903C2296210B2002F09B
:1009700091FD00F05BFDE6480068E6490860E64945
:100980000860002426E002F0E9FC0020DC49088031
:1009900010210823CDE90010DD485E2102686020A7
:1009A00002F023F9002010210823CDE90010DC48D3
:1009B0009A2102683C2002F018F90020102105233A
:1009C000CDE90010D7489A210268822002F00DF983
:1009D000601CC4B2642CD6DBD1480068D2490860E0
:1009E000D0480068D14908601F20C5490880002010
:1009F0001821CAA20B46CDE900210290302296218F
:100A00000B2002F047FD0020C0490870BF48007865
:100A100002286AD1002409E000F008FDBC48006803
:100A2000BC490860BC490860601CC4B20A2CF3DBF6
:100A30004FF47840B249088000201821BCA20B4630
:100A4000CDE9002102903022B4210B2002F022FDDA
:100A500000F0ECFCAE480068AE490860AE490860A2
:100A6000002426E002F07AFC0020A549088010212D
:100A70000823CDE90010A6485E210268602002F03C
:100A8000B4F8002010210823CDE90010A448B821B3
:100A900002683C2002F0A9F8002010210523CDE9CE
:100AA0000010A048B8210268822002F09EF8601C65
:100AB000C4B2642CD6DB9A4800689E490860994805
:100AC00000689D4908601F208D490880002018217A
:100AD00097A20B46CDE9002102903022B4210B20D1
:100AE00002F0D8FC00208949087088480078032863
:100AF0006AD1002409E000F099FC85480068854926
:100B0000086085490860601CC4B20A2CF3DB4FF40E
:100B100078407B4908800020182188A20B46CDE947
:100B2000002102903022D2210B2002F0B3FC00F011
:100B30007DFC7748006877490860774908600024A1
:100B400026E002F00BFC00206D49088010210823EC
:100B5000CDE900106E485E210268602002F045F881
:100B6000002010210823CDE900106D48D62102682D
:100B70003C2002F03AF8002010210523CDE90010B6
:100B80006848D6210268822002F02FF8601CC4B2A7
:100B9000642CD6DB624800686949086061480068D7
:100BA000684908601F20564908800020182163A268
:100BB0000B46CDE9002102903022D2210B2002F019
:100BC00069FC0020514908705048007804286AD117
:100BD000002409E000F02AFC4D4800684D490860F7
:100BE0004D490860601CC4B20A2CF3DB4FF4784016
:100BF000434908800020182153A20B46CDE900216B
:100C000002903022F0210B2002F044FC00F00EFC98
:100C10003F4800683F4908603F490860002426E0DB
:100C200002F09CFB00203649088010210823CDE902
:100C3000001037485E210268602001F0D6FF0020D6
:100C400010210823CDE900103548F42102683C202A
:100C500001F0CBFF002010210523CDE90010314821
:100C6000F4210268822001F0C0FF601CC4B2642C31
:100C7000D6DB2B480068354908602A4800683449AB
:100C800008601F201E490880002018212EA20B4654
:100C9000CDE9002102903022F0210B2002F0FAFB76
:100CA00000201A4908701948007805287ED10024D0
:100CB00009E000F0BBFB16480068164908601649B9
:100CC0000860601CC4B20A2CF3DB4FF478400C4976
:100CD0000880002018211FA20B46CDE900210290B8
:100CE00030224FF487710B2002F0D4FB00F09EFB02
:100CF000074800680749086007490860002454E075
:100D000072000020CDA8B5C032A3BA005800002060
:100D1000040000200C00002008000020B2E2310096
:100D200010000020140000203000002034000020BB
:100D3000B2E23200380000203C000020B2E2330072
:100D40004000002044000020B2E2340048000020AF
:100D50004C000020B2E2350002F000FB00206349A5
:100D6000088010210823CDE9001061485E21026847
:100D7000602001F03AFF002010210823CDE9001087
:100D80005C484FF4897102683C2001F02EFF00207E
:100D900010210523CDE9001057484FF489710268EE
:100DA000822001F022FF601CC4B200E01DE0642C30
:100DB000D2DB50480068514908604F4800685049EC
:100DC00008601F204949088000201821AFF27C02EA
:100DD0000B46CDE90021029030224FF487710B20A1
:100DE00002F058FB00204749087000203F49088066
:100DF00010210823CDE9001043489A2102683C20C5
:100E000001F0F3FE002010210523CDE900103F483A
:100E10009A210268822001F0E8FE002010210823B8
:100E2000CDE900103A48B82102683C2001F0DDFE0F
:100E3000002010210523CDE900103648B8210268B2
:100E4000822001F0D2FE002010210823CDE90010FD
:100E50003148D62102683C2001F0C7FE0020102155
:100E60000523CDE900102D48D6210268822001F02B
:100E7000BCFE002010210823CDE900102848F421F1
:100E800002683C2001F0B1FE002010210523CDE9CD
:100E900000102448F4210268822001F0A6FE002000
:100EA00010210823CDE9001014484FF4897102681D
:100EB0003C2001F09AFE002010210523CDE900100E
:100EC0000F484FF489710268822001F08EFE0020E5
:100ED0000649088010210823CDE9001004485E214E
:100EE0000268602001F081FE3EBD0000720000201B
:100EF00004000020100000201400002050000020FA
:100F00005400002058000020300000203400002051
:100F1000380000203C000020400000204400002059
:100F2000480000204C0000202DE9F04F87B0824699
:100F30008B4600BF584604F082F880468946114926
:100F400011F80A0004F07BF804460F4800EBCA00D1
:100F5000D0E900633246204604F0C0F842464B46D2
:100F6000CDE9000104F0BAF80022084BCDE90201F6
:100F700003F0E0FECDE90401DDE9040107B0BDE8BE
:100F8000F08F0000B0000020B00100200000B04150
:100F90002DE9F05F80468946642718212A2000F059
:100FA000ADF88346B8F1000F09D0B8F1010F0AD0AF
:100FB000B8F1020F0BD0B8F1030F10D10BE00024F1
:100FC000012508260BE002240325042607E004245B
:100FD0000525022603E006240725012600BF00BFE1
:100FE00006E018212A2000F089F88346781E07B20F
:100FF0001FB10BEA06000028F3D087B121462A2052
:1010000000F07CF84FEA004A29462A2000F076F8E2
:1010100040EA0A0AC9F800A00120BDE8F09F0020BC
:10102000FBE710B500247F212A2000F067F8044672
:1010300043F2550084425FD100F086F841F28831D6
:10104000002000F073F941F28831012000F06EF9C0
:1010500041F28831022000F069F941F28831032021
:1010600000F064F9C821002000F089F9C8210120AE
:1010700000F085F9C821022000F081F9C821032081
:1010800000F07DF901220221002000F065F8012224
:101090000221104600F060F801220221084600F00B
:1010A0005BF801220221032000F056F8012000F035
:1010B00001F9012000F0ACF8012000F095F80020C3
:1010C00000F0E4F805220221012000F017F90B21BD
:1010D000002000F0B1F80B21012000F0ADF80B2149
:1010E000022000F0A9F80B21032000F0A5F8002051
:1010F00000F06AF9012010BD0020FCE770B504463D
:101100000D4600F053FF6106080E00F0F5FE00F0FA
:10111000F1FF284600F0F0FE00F0ECFF00F046FF83
:10112000012101EB4401C8B200F0E6FE00F0E2FF4D
:10113000012000F075FE0602002000F071FE06435B
:1011400000F080FF304670BD10B54FF400421C2106
:101150002A2000F04DF910BD2DE9F04704460D4658
:1011600016464FF000094FF6FF7000EA0530C6F34F
:10117000090140EA010919480555304603F05FFFAF
:1011800007463A460B460020154903F0D3FD154AA1
:1011900002EBC40203C234B1012C0AD0022C0ED0DF
:1011A000032C18D111E04A4614212A2000F020F91E
:1011B00011E04A4615212A2000F01AF90BE04A46B0
:1011C00016212A2000F014F905E04A4617212A20AA
:1011D00000F00EF900BF00BFBDE8F087B0000020AE
:1011E000D0128341B001002070B5054600241A21B9
:1011F0002A20FFF783FF04464FF6FF5004400DB14D
:1012000044F4007422461A212A2000F0F1F870BD3F
:1012100070B5054600241A212A20FFF76FFF044607
:101220004FF2FF7004400DB144F4006422461A21CD
:101230002A2000F0DDF870BD70B504460D4600268A
:101240004FF6FF7000EAC52634B1012C0AD0022CFB
:101250000ED0032C18D111E032461E212A2000F0B6
:10126000C7F811E032461F212A2000F0C1F80BE038
:10127000324620212A2000F0BBF805E03246212129
:101280002A2000F0B5F800BF00BF70BD70B505465C
:1012900000241A212A20FFF731FF04464FF6BF70C1
:1012A00004400DB144F0400422461A212A2000F0E7
:1012B0009FF870BD70B5054600241A212A20FFF75B
:1012C0001DFF04464FF67F7004400DB144F08004CA
:1012D00022461A212A2000F08BF819212A20FFF734
:1012E0000DFF04464FF6FE7004400DB144F00104BA
:1012F000224619212A2000F07BF870BD2DE9F0412B
:1013000004460E46154600273CB1E00340EA46304D
:1013100040F40270284387B201E045F402773A4670
:101320001B212A2000F064F8BDE8F08170B5054665
:101330000C46FF2C00DC70BD35B1012D0AD0022D0A
:101340000ED0032D18D111E0224608212A2000F0EA
:101350004FF811E0224609212A2000F049F80BE05D
:1013600022460A212A2000F043F805E022460B21FC
:101370002A2000F03DF800BF00BF00BFDBE770B5DA
:1013800005460C4635B1012D0AD0022D0ED0032D95
:1013900018D111E0224610212A2000F029F811E08E
:1013A000224611212A2000F023F80BE022461221C8
:1013B0002A2000F01DF805E0224613212A2000F023
:1013C00017F800BF00BF70BD70B5054600241A2194
:1013D0002A20FFF793FE04464DF6FF7004400DB13E
:1013E00044F4005422461A212A2000F001F870BD6E
:1013F00070B505460E46144600F0D8FD6906080E85
:1014000000F07AFD00F076FE304600F075FD00F049
:1014100071FE201200F070FD00F06CFEE0B200F0F2
:101420006BFD00F067FE00F00DFE70BD2DE9FC5F66
:10143000002417E026490220FFF7AAFD244801688E
:101440000220FFF771FD054603F0CCFD214908603D
:1014500021480068096808441F490860601CC4B23C
:10146000601CC4B21E2CE5DB1B4800681E21B0FBCB
:10147000F1F0184908601948006803F0E0FD0746DC
:10148000174A184B03F02AFE05460E46124800681C
:101490001E21B0FBF1FB584603F0D1FD0746104A70
:1014A000114B03F01BFE81462A46334603F08EFBA8
:1014B000CDE9000103F096FD064908600846006882
:1014C00006490860002004490860BDE8FC9F000050
:1014D00000000020040000205C00002060000020CC
:1014E0009A9999999999C93F9999E93F2DE9FE43AC
:1014F0008748006887490968884224D98648006877
:1015000003F09DFD80460022844B03F0E7FD044676
:101510000D467F4909687F4A1268881A03F08FFDDB
:10152000064622462B4603F09DFD0CD200201821D2
:101530007BA20B46CDE90021029030221E210B2018
:1015400001F0A8FFE2E07248006872490968884229
:1015500024D27148006803F072FD064600226F4BEA
:1015600003F0BCFD04460D466A490968684A1268E2
:10157000881A03F064FD804622462B4603F072FD74
:101580000CD20020182166A20B46CDE90021029062
:1015900030221E210B2001F07DFFB7E05C4800687F
:1015A00061490968884224D96048006803F047FD12
:1015B00006460022594B03F091FD80468946544966
:1015C0000968594A1268881A03F039FD04464246F0
:1015D0004B4603F047FD0CD20020182154A20B46C5
:1015E000CDE90021029030221E210B2001F052FF94
:1015F0008CE0474800684C490968884224D24B482F
:10160000006803F01CFD80460022444B03F066FD99
:1016100004460D46444909683D4A1268881A03F099
:101620000EFD064622462B4603F01CFD0CD2002080
:1016300018213FA20B46CDE90021029030221E2145
:101640000B2001F027FF61E0314800683A49096842
:10165000884224D93948006803F0F1FC064600228C
:101660002E4B03F03BFD04460D4629490968324ADA
:101670001268881A03F0E3FC804622462B4603F0EA
:10168000F1FC0CD2002018212DA20B46CDE900213F
:10169000029030221E210B2001F0FCFE36E01C4897
:1016A000006825490968884224D22448006803F06C
:1016B000C6FC06460022194B03F010FD04460D46F9
:1016C0001D490968124A1268881A03F0B8FC80465E
:1016D00022462B4603F0C6FC0CD20020182118A28B
:1016E0000B46CDE90021029030221E210B2001F093
:1016F000D1FE0BE00020182113A20B46CDE90021FA
:101700000290F0221E21012001F0C4FEBDE8FE83FC
:101710000400002020000020240000200000F83FEA
:10172000CAAFCDB700000000280000202C00002028
:10173000BCF4B5B600000000180000201C0000201A
:101740002020B2BC000000002020202020202020EB
:1017500020202020000000002DE9FE43DD48006825
:10176000DD490968884224D9DC48006803F067FC39
:1017700080460022DA4B03F0B1FC04460D46D54901
:101780000968D54A1268881A03F059FC06462246B1
:101790002B4603F067FC0CD200201821D1A20B4687
:1017A000CDE90021029030221E210B2001F072FEB3
:1017B0008EE1C8480068C8490968884224D2C748F1
:1017C000006803F03CFC06460022C54B03F086FC93
:1017D00004460D46C0490968BE4A1268881A03F0DB
:1017E0002EFC804622462B4603F03CFC0CD2002007
:1017F0001821BCA20B46CDE90021029030221E2107
:101800000B2001F047FE63E1B2480068B649096861
:10181000884224D9B548006803F011FC80460022B4
:10182000AF4B03F05BFC04460D46AA490968AE4A7B
:101830001268881A03F003FC064622462B4603F082
:1018400011FC0CD200201821A9A20B46CDE90021E1
:10185000029030221E210B2001F01CFE38E19D4831
:101860000068A1490968884224D2A048006803F0B2
:10187000E6FB804600229A4B03F030FC04460D46FE
:1018800099490968934A1268881A03F0D8FB0646FA
:1018900022462B4603F0E6FB0CD20020182194A22E
:1018A0000B46CDE90021029030221E210B2001F0D1
:1018B000F1FD0DE1874800688E490968884224D906
:1018C0008D48006803F0BBFB80460022844B03F088
:1018D00005FC04460D467F490968864A1268881A45
:1018E00003F0ADFB064622462B4603F0BBFB0CD2B1
:1018F0000020182181A20B46CDE900210290302260
:101900001E210B2001F0C6FDE2E072480068794913
:101910000968884224D27848006803F090FB80462A
:1019200000226F4B03F0DAFB04460D46714909684B
:10193000684A1268881A03F082FB064622462B4644
:1019400003F090FB0CD2002018216CA20B46CDE9CD
:101950000021029030221E210B2001F09BFDB7E0F8
:101960005C48006866490968884224D9654800686F
:1019700003F065FB06460022594B03F0AFFB04461B
:101980000D46544909685E4A1268881A03F057FBED
:10199000804622462B4603F065FB0CD2002018211E
:1019A00059A20B46CDE90021029030221E210B20C6
:1019B00001F070FD8CE04748006851490968884291
:1019C00024D25048006803F03AFB80460022444B82
:1019D00003F084FB04460D46494909683D4A1268F4
:1019E000881A03F02CFB064622462B4603F03AFBEE
:1019F0000CD20020182144A20B46CDE90021029010
:101A000030221E210B2001F045FD61E031480068C5
:101A10003E490968884224D93D48006803F00FFB1D
:101A2000064600222E4B03F059FB04460D46294979
:101A30000968364A1268881A03F001FB804622467C
:101A40002B4603F00FFB0CD20020182131A20B46CD
:101A5000CDE90021029030221E210B2001F01AFD59
:101A600036E01C48006829490968884224D2284881
:101A7000006803F0E4FA06460022194B03F02EFB3F
:101A800004460D4621490968124A1268881A03F073
:101A9000D6FA804622462B4603F0E4FA0CD2002008
:101AA00018211CA20B46CDE90021029030221E21F4
:101AB0000B2001F0EFFC0BE00020182116A20B46D2
:101AC000CDE900210290F0221E210B2001F0E2FC62
:101AD000BDE8FE8304000020300000203400002018
:101AE0000000F83F31000000380000203C000020DA
:101AF00032000000400000204400002033000000BD
:101B0000480000204C00002034000000500000205D
:101B10005400002035000000300000002DE9F05F87
:101B200082460F4614462046E21704EB5272D2104A
:101B30002146E31704EB5373DB10A4EBC3030BB193
:101B4000012300E000231A44624302F0FF099AF8DF
:101B500000600AF1010082460578812E05DB402DE8
:101B600003DBFF2D01D0FF2E0DD14FF0000B06E05F
:101B7000002007F8010B0BF1010000F0FF0BCB4533
:101B8000F6DBBDE8F09F7F2D03DAA5F14000C5B27A
:101B900002E0A5F14100C5B2A6F18100C6B2BE20A7
:101BA00000FB065000FB09F80C2C04D0102C0CD0C4
:101BB000182C1ED113E01048D0F8090000EB0801E2
:101BC0004A46384602F022FD13E00B48D0F81100D7
:101BD00000EB08014A46384602F018FD09E00648C5
:101BE000D0F8190000EB08014A46384602F00EFD15
:101BF00000BF00BF00BFC4E78A01002010B500206D
:101C00000F4908600F48006820F070400D490860D7
:101C10000846006840F04050086000200A49C1F8BA
:101C20009C01022002F080FD01200549086002208D
:101C300002F07AFD00200449C1F8980110BD0000AF
:101C400098812142000C01400080214210B5002003
:101C50000F4908600F48006820F00F000D49086028
:101C60000846006840F00300086000200A49C1F8F7
:101C70008001022002F058FD012005490860022081
:101C800002F052FD00200449C1F8840110BD00009B
:101C90008401224200100140000022420C48806969
:101CA00040F008000A4988610A48006820F07F4037
:101CB000084908600846006840F04C500860054834
:101CC0000C30006840F0C00002490C3108607047D9
:101CD00000100240000C01400B48806940F01000E9
:101CE000094988610948006820F0FF000749086039
:101CF0000846006840F0330008600846C06840F0BD
:101D00000300C8607047000000100240001001404E
:101D100010B500200F4908600F48006820F070409F
:101D20000D4908600846006840F0405008600120F6
:101D30000A49C1F89C01022002F0F6FC0120054985
:101D40000860022002F0F0FC00200449C1F898016C
:101D500010BD000098812142000C0140008021420A
:101D600010B500200F4908600F48006820F00F00F0
:101D70000D4908600846006840F003000860012033
:101D80000A49C1F88001022002F0CEFC0120054979
:101D90000860022002F0C8FC00200449C1F8840158
:101DA00010BD0000840122420010014000002242C8
:101DB00070B5054600241748006820F070401549AA
:101DC00008600846006840F000400860002616E001
:101DD000002011490860022002F0A6FC01200F49F2
:101DE000C1F898016006040E0B487C38006808B101
:101DF000601CC4B2012002F097FC701CC6B2082E11
:101E0000E6DB15B9FFF784FF01E0FFF7F7FE204698
:101E100070BD0000000C01409881214200802142E9
:101E200070B5054600241748006820F00F001549DA
:101E300008600846006840F008000860002616E0C8
:101E4000002011490860022002F06EFC01200F49B9
:101E5000C1F884016006040E0B488438006808B19C
:101E6000601CC4B2012002F05FFC701CC6B2082ED8
:101E7000E6DB15B9FFF774FF01E0FFF7E7FE204648
:101E800070BD000000100140840122420000224287
:101E900070B504461548006820F07040134908608A
:101EA0000846006840F04050086000201049086073
:101EB000002517E0E0090E49091D08606006040EC0
:101EC000022002F031FC01200A49C1F898010220E9
:101ED00002F02AFC002006490860022002F024FCDF
:101EE000681CC5B2082DE5DB70BD0000000C014088
:101EF000988121420080214270B50446154800684F
:101F000020F00F00134908600846006840F0030005
:101F10000860002010490860002517E0E0090E491C
:101F2000091F08606006040E022002F0FDFB01207C
:101F30000A49C1F88401022002F0F6FB002006499C
:101F40000860022002F0F0FB681CC5B2082DE5DB3A
:101F500070BD0000001001408401224200002242B6
:101F600010B50F48006820F070400D490860084621
:101F7000006840F04050086001200A4908600A49A2
:101F8000C1F89801042002F0CFFB00200549086049
:101F9000042002F0C9FB00200349C1F8980110BDDC
:101FA000000C01409C8121420080214210B50F4865
:101FB000006820F00F000D4908600846006840F0F6
:101FC0000300086001200A4908600A49C1F8840139
:101FD000042002F0A9FB002005490860042002F05B
:101FE000A3FB00200349C1F8840110BD001001408B
:101FF000800122420000224210B50F48006820F004
:1020000070400D4908600846006840F04050086084
:1020100000200A4908600A49C1F89C01042002F026
:1020200083FB0120054908600549C1F89C01042093
:1020300002F07AFB10BD0000000C014098812142A3
:102040000080214210B50F48006820F00F000D49B4
:1020500008600846006840F00300086000200A4954
:1020600008600A49C1F88001042002F05DFB0120EC
:1020700005490860042002F057FB01200349C1F81C
:10208000800110BD00100140840122420000224264
:1020900010B500241448006820F070401249086010
:1020A0000846006840F00040086001200F490860C1
:1020B00002F03AFB01200E49C1F8980102F034FB0E
:1020C00007E0601CC4B2FA2C03DDFFF795FF012086
:1020D00010BD0648803800680028F2D10349091F66
:1020E000086000BFF4E70000000C01409C81214221
:1020F0000080214210B500241448006820F00F0031
:10210000124908600846006840F008000860012095
:102110000F49086002F008FB01200E49C1F8840154
:1021200002F002FB07E0601CC4B2FA2C03DDFFF7EB
:1021300089FF012010BD0648803800680028F2D1D0
:102140000349091D086000BFF4E7000000100140CA
:10215000800122420000224270B504460026094850
:102160000588408845430021084600F00DFC00F03A
:10217000A7FD00BF02E004480480761CAE42FAD3FB
:1021800070BD00007C0100200008006C10B5044602
:10219000ACB9002016498871F02008804FF4A07077
:1021A00048800846808849F2413188421CD12C2061
:1021B0000F4908812A2048812B20888114E00120C2
:1021C0000B4988714FF4A0700880F02048800846C1
:1021D000808849F24131884206D12C200449088187
:1021E0002A2048812B208881002000F06BFB10BD45
:1021F0007C0100202DE9FF4F84B081468A460020F3
:10220000039002900698A0EB09050798A0EB0A0638
:10221000CDF80490CDF800A0002D01DD012705E0E8
:102220000DB9002702E04FF0FF376D42002E02DDAE
:102230004FF0010806E016B94FF0000802E04FF039
:10224000FF387642B54201DD2C4600E034464FF0BF
:10225000000B21E0009A91B2019A90B200F022F8AE
:102260000398284403900298304402900398A042B7
:1022700005DD0398001B03900198384401900298F3
:10228000A04205DD0298001B029000984044009097
:102290000BF101001FFA80FB601C8345DADD08B0FA
:1022A000BDE8F08F30B504460D462946204600F0C3
:1022B0006BFB00F005FD024800880249088030BD34
:1022C000720000200008006CF0B504460D4616466A
:1022D0001F462B46324629462046FFF78BFF3B46DA
:1022E000224629462046FFF785FF3B4632463946BF
:1022F0002046FFF77FFF3B46324629463046FFF730
:1023000079FFF0BD2DE9F04306460F4690460024C4
:1023100045460320A0EB48093CE07A1B91B23219F4
:1023200090B2FFF7BFFF3A1B91B2721990B2FFF75C
:10233000B9FF3A1991B2721990B2FFF7B3FF7A1947
:1023400091B2321990B2FFF7ADFF7A1991B2321BF8
:1023500090B2FFF7A7FF3A1991B2721B90B2FFF744
:10236000A1FF7A1B91B2321B90B2FFF79BFF3A1B81
:1023700091B2721B90B2FFF795FF641CB9F1000F88
:1023800003DAA000801D814404E0601B80000A3055
:1023900081446D1EAC42C0DDBDE8F08310B503463C
:1023A0000C461048808849F24131884213D10D49CA
:1023B000488900F07FFC181200F076FCD8B200F0DB
:1023C00073FC0849888900F075FC201200F06CFC51
:1023D000E0B200F069FC0348008903490880881CCA
:1023E000028010BD7C010020FE07006C10B5FE4885
:1023F000406940F48070FC4948610846806940F0BB
:10240000080088610846806940F02000886108461D
:10241000806940F0400088610846806940F480701F
:102420008861F248006820F00F00F0490860084613
:10243000006840F003000860ED480068ED4908407E
:10244000EB49086008460068EB490843E849086022
:10245000081F006800F0FF20091F08600846006898
:1024600040F0BB100860E54800680020E3490860C0
:102470000846006840F0BB300860081F006820F084
:102480007040091F08600846006840F0304008604E
:10249000DB48406820F47020D9494860084640680D
:1024A00040F4302048600846006820F00F000860C3
:1024B0000846006840F00B00086000204FF0204103
:1024C0008861C861CF4908604FF02040806940F4BE
:1024D00080504FF0204188610846806940F4804078
:1024E00088610846806940F0100088610846C0692C
:1024F000C8610846C06940F00100C8610846C0696B
:1025000040F47060C861BF480068C1F81C01BD4854
:102510000068C1F81C010846D0F81C0140F4407066
:10252000C1F81C010846806940F001008861322032
:1025300002F0DCF8002000F0B9F9B34988800846C1
:102540008088FF280ADB084680884FF6FF718842A2
:1025500004D0AD488088B0F5134F7CD1D32000F073
:10256000A9FB00F099F9A849888000F095F9A649DF
:10257000888000F091F9A4498880084680884FF649
:10258000FF7101EA0020A049888000F085F99E498A
:10259000898808439C4988800846808849F24131EF
:1025A000884221D0BF2000F085FB00F075F99649E4
:1025B000888000F071F99449888000F06DF99249A3
:1025C000888000F069F990498880084680884FF635
:1025D000FF7101EA00208C49888000F05DF98A498A
:1025E00089880843884988808748818887A0FDF7C3
:1025F0000DFE8548808849F2413188427ED1CF2046
:1026000000F058FB002000F04FFBC12000F04CFB15
:10261000302000F049FBED2000F04CFB642000F07E
:1026200043FB032000F040FB122000F03DFB812023
:1026300000F03AFBE82000F03DFB852000F034FB81
:10264000102000F031FB7A2000F02EFBCB2000F0B0
:1026500031FB392000E00FE100F026FB2C2000F0D8
:1026600023FB002000F020FB342000F01DFB0220A3
:1026700000F01AFBF72000F01DFB202000F014FBF7
:10268000EA2000F017FB002000F00EFB002000F015
:102690000BFBC02000F00EFB1B2000F005FBC1204F
:1026A00000F008FB012000F0FFFAC52000F002FB5B
:1026B000302000F0F9FA302000F0F6FAC72000F0E0
:1026C000F9FAB72000F0F0FA362000F0F3FA4820CB
:1026D00000F0EAFA3A2000F0EDFA552000F0E4FAB2
:1026E000B12000F0E7FA002000F0DEFA1A2000F036
:1026F000DBFAB62000F0DEFA0A2000E0B2E000F0DB
:10270000D3FAA22000F0D0FAF22000F0D3FA002091
:1027100000F0CAFA262000F0CDFA012000F0C4FA39
:10272000E02000F0C7FA0F2000F0BEFA2A2000F0E7
:10273000BBFA282000F0B8FA082000F0B5FA0E2005
:1027400000F0B2FA082000F0AFFA542000F0ACFA22
:10275000A92000F0A9FA432000F0A6FA0A2000F010
:10276000A3FA0F2000F0A0FA002000F09DFA00204C
:1027700000F09AFA002000F097FA002000F094FA96
:10278000E12000F097FA002000F08EFA152000F00A
:102790008BFA172000F088FA072000F085FA112044
:1027A00000F082FA062000F07FFA2B2000F07CFA7D
:1027B000562000F079FA3C2000F076FA052000F06F
:1027C00073FA102000F070FA0F2000F06DFA3F202D
:1027D00000F06AFA3F2000F067FA0F2000F064FA78
:1027E0002B2000F067FA19E000100240000C0140B5
:1027F0000414014000F0FF00BB0B00BB04180140B3
:10280000002001401C0100A07C010020204C43441A
:102810002049443A25780D0A00000000002000F00D
:1028200043FA002000F040FA012000F03DFA3F207A
:1028300000F03AFA2A2000F03DFA002000F034FAC5
:10284000002000F031FA002000F02EFAEF2000F016
:102850002BFA112000F02EFA782001F047FF2920F2
:1028600000F028FA0020FFF791FC012003490860DE
:102870004FF6FF70FFF770FC10BD00008081214211
:1028800010B50246012000E050430B00A1F1010405
:10289000E1B2F9D110BD000008B5034800880090EE
:1028A000BDF8000008BD00000008006C10B504462B
:1028B000204600F0FFF9052001F036FFFFF7ECFF9E
:1028C00010BD000030B50446002300252D48808847
:1028D00049F24131884254D1082C1CD2DFE804F07F
:1028E0000406090C0F12151800BF14E043F0800312
:1028F00011E043F040030EE043F0C0030BE043F06F
:10290000200308E043F0600305E043F0A00302E089
:1029100043F0E00300BF00BF362543F0080319462B
:10292000284600F0D7F91749488900F0C3F900207C
:1029300000F0BAF9002000F0B7F912490988491EE1
:10294000C1F30F2000F0B0F90E490978491EC8B252
:1029500000F0AAF90B49888900F0ACF9002000F0DA
:10296000A3F9002000F0A0F906494988491EC1F3E7
:102970000F2000F099F903498978491EC8B200F088
:1029800093F930BD7C01002000B502460B460D488E
:10299000808849F24131884213D10A49488900F0C0
:1029A00089F9101200F080F9D0B200F07DF90549E4
:1029B000888900F07FF9181200F076F9D8B200F09B
:1029C00073F900BD7C0100202DE9F84F80460E46CA
:1029D00017461C46B3462046E31704EB5373DB103F
:1029E00021464FEAE47C04EB5C7C4FEAEC0CA4EB60
:1029F000CC0CBCF1000F02D04FF0010C01E04FF005
:102A0000000C6344224604EBD27C4FEA6C0C03FBBF
:102A10000CF3DBB20093A7F12000C7B2002556E00B
:102A20000C2C07D107EB47002B4901EB800010F875
:102A3000059013E0102C05D1284800EB071010F882
:102A400005900BE0182C07D107EBC700244901EBD8
:102A5000800010F8059001E0BDE8F88F4FF0000A03
:102A60002FE009F0800030B11E4802883146404610
:102A7000FFF794FC07E00A9828B91B480288314602
:102A80004046FFF78BFC4FEA49604FEA1069701C23
:102A900086B216484088B04200DCDDE7A6EB0B00AA
:102AA000A0420AD15E4608F101001FFA80F80F48E3
:102AB0000088404500DCCFE706E00AF1010000F0A5
:102AC000FF0ABAF1080FCCDB00BF681CC5B2009842
:102AD0008542A5DB00BFBFE7EA5C00085E61000835
:102AE0004E67000872000020740000207C01002066
:102AF0002DE9FF4F81B0074691461E460E9D4FF0CF
:102B0000000A002439E0301B401EC1B20A20FFF742
:102B1000B7FEB9FBF0F00A21B0FBF1F201FB12089D
:102B2000BAF1000F16D1701EA04213DDB8F1000FEC
:102B30000ED10020AB4605EBDB71491001FB04719F
:102B4000009088B22B4620220299FFF73DFF12E049
:102B50004FF0010A0020AB4605EBDB71491001FB89
:102B60000471009088B208F13001CAB22B46029974
:102B7000FFF72AFF00BF601CC4B2B442C3DB05B03C
:102B8000BDE8F08F2DE9F84704460D46904699467A
:102B9000DDE9096704F0FF0A08EB04001FFA80F87A
:102BA00009EB05001FFA80F916E0444502DB5446A4
:102BB000A81985B24D4500DB14E0002000903A785A
:102BC000334629462046FFF7FFFE304606EBD0711C
:102BD00004EB61018CB27F1C38787E2802DC3878E7
:102BE0002028E2DA00BFBDE8F8872DE9FF4F82B068
:102BF000064692461F46DDE90F4800200190002559
:102C00004DE0781B401EC1B20A20FFF739FEBAFB27
:102C1000F0F00A21B0FBF1F201FB1209019850BB60
:102C2000781EA84227DDB9F1000F22D108F08000FC
:102C300078B108F00100A34604EBDB71491001FBF9
:102C40000561009088B2234630220399FFF7BCFE4D
:102C50000EE008F00100A34604EBDB71491001FB14
:102C60000561009088B2234620220399FFF7ACFE4D
:102C700013E00120019008F00100A34604EBDB7192
:102C8000491001FB0561009088B209F13001CAB218
:102C900023460399FFF798FE00BF681CC5B2BD42EA
:102CA000AFDB06B0BDE8F08F014908807047000037
:102CB0000008006C0149088070470000FE07006CA6
:102CC0000248008902490880704700007C0100200A
:102CD000FE07006C024A1080921C118070470000B1
:102CE000FE07006C00B5002015490861C86014207B
:102CF000486100208861C8610846006840F0010012
:102D00000860084640680F4908400D494860084679
:102D100000680D4908400A4908600846006820F428
:102D2000802008600846406820F4FE0048600020CB
:102D3000886000214FF0006000F058F800BD0000EE
:102D4000001002400000FFF8FFFFF6FE2DE9F04101
:102D50000746884614461D46284600F033F8C5F15C
:102D6000040007FA00F60F20284100EA0800064395
:102D700006F00F06E21704EBD2625211920002F144
:102D8000E022D2F800212146E31704EBD3635B1164
:102D9000A4EB431C012303FA0CF31A432046E31768
:102DA00004EBD3635B119B0003F1E023C3F8002124
:102DB0000348005D40EA061001490855BDE8F0816E
:102DC00000E400E00146072323EA01021202054B5A
:102DD00018684FF6FF031840034B18431043014B8C
:102DE000186070470CED00E00000FA05024A0A4046
:102DF0000243024B1A60704780FFFF1F08ED00E09E
:102E00000EB5E848416800208847E64890F8200061
:102E100000F0800000287DD0E2488089E2490988DE
:102E2000884277DADF48C08ADF4949888842F8DA81
:102E3000DE48007800286ED1DA4880890B280EDD44
:102E4000D84880893C280ADAD648C08AB42806DDEA
:102E5000D448C08ACD2802DA0120D5490870D1486B
:102E600080890B280EDDCF4880893C280ADACD48BE
:102E7000C08AD22806DDCB48C08AEB2802DA0220BD
:102E8000CB490870C74880890B280FDDC548808969
:102E90003C280BDAC348C08AF02807DDC148C08A45
:102EA000B0F5847F02DC0320C1490870BD488089E9
:102EB0000B282FDDBB488089CB28B2DAB948C08AFD
:102EC0003D28F6DDB748C08A5528AADA0120B7495F
:102ED00008704FF6FF70FFF73FF91F20B5490880D3
:102EE0004FF49B73E6223C210A20FFF7EDF9002006
:102EF0001821B1A20B46CDE900210290C0223D214C
:102F00000B2000F0C7FA4FF47840AA49088000204F
:102F1000182101E044E162E0ACA20B46CDE90021BA
:102F2000029054225A210B2000F0B4FA1F20A1492C
:102F3000088000201821A7A20B46CDE900210290AD
:102F4000302278213C2000F0A5FA00201821A3A20D
:102F50000B46CDE90021029060227821084600F05E
:102F600099FA00201821A0A20B46CDE90021029079
:102F7000302296210B2000F08DFA002018219BA210
:102F80000B46CDE9002102903022B4210B2000F045
:102F900081FA0020182196A20B46CDE9002102906B
:102FA0003022D2210B2000F075FA0020182191A2C6
:102FB0000B46CDE9002102903022F0210B2000F0D9
:102FC00069FA002018218CA20B46CDE9002102905D
:102FD00030224FF487710B2000F05CFAE0E071487A
:102FE00080890B280EDD6F4880894B280ADA6D48EE
:102FF000C08A962806DD6B48C08AAF2802DA012015
:103000006B490870674880890B280EDD6548808908
:103010004B280ADA6348C08AB42806DD6148C08AB2
:10302000CD2802DA0220624908705E4880890B28A8
:103030000EDD5C4880894B280ADA5A48C08AD228BB
:1030400006DD5848C08AEB2802DA03205849087088
:10305000544880890B280FDD524880894B280BDAB1
:103060005048C08AF02807DD4E48C08AB0F5847FFA
:1030700002DC04204E4908704A4880890B2810DD84
:10308000484880894B280CDA4648C08AB0F5877FCB
:1030900007DD4448C08AB0F5937F02DC052044492F
:1030A0000870404880890B287ADD3E488089CB280B
:1030B00076DA3C48C08A3D2872DD3A48C08A5528F5
:1030C0006EDA0020394908704FF6FF70FFF744F8B8
:1030D0001F20384908804FF49B73E6223C210A20C8
:1030E000FFF7F2F80020182144A20B46CDE9002199
:1030F0000290C0223D210B2000F0CCF94FF4784023
:103100002C4908800020182130A20B46CDE900216F
:10311000029054225A210B2000F0BCF91F202549AF
:103120000880002018212BA20B46CDE90021029037
:10313000302296213C2000F0ADF90020182127A272
:103140000B46CDE90021029060229621782000F004
:10315000A1F9002018212EA20B46CDE900210290F2
:103160003022B4210B2000F095F91F20114908806E
:103170000020182128A20B46CDE900210290302220
:10318000D2210B2000F086F90020182124A20B4642
:10319000CDE9002102903022F0210B2000F07AF9D5
:1031A0000EBD0000780000207C010020640000209B
:1031B0005800002072000020BDF8C8EBB2C2C8ADB4
:1031C000CAB6B1F0BDE7C3E600000000CDA8B5C0A7
:1031D00032A3BA00E3D0D6B500000000B2A8B6AF63
:1031E000B7B6CEA700000000B2E23100B2E2320072
:1031F000B2E23300B2E23400B2E23500BDF8C8EB0F
:10320000CAFDD7D6CAB6B1F0BDE7C3E600000000DC
:10321000CAAFCDB700000000BCF4B5B60000000096
:10322000B2BC000000B52848806940F0080026497B
:1032300088610846C06940F48040C861234800683E
:10324000C0F313002149086008460068204908437C
:103250001E4908601D480830006840F460401B4962
:10326000083108601B4800881A4908800846008811
:1032700040F4007008800846008840F480700880A0
:103280000846008840F0040008800846008808804E
:103290000846008840F0020008800846008840F098
:1032A000010008800846008840F0180008800846A1
:1032B000008808800846008840F040000880FF2011
:1032C00000F00AF800BD000000100240040C0140AC
:1032D0000000B0BB003800400246002107E0481C57
:1032E00081B24FF6FE70814201DB002070470F482B
:1032F000008800F002000028F1D00C48001D028078
:10330000002107E0481C81B24FF6FE70814201DBCC
:103310000020EBE70548008800F001000028F1D00C
:103320000248001D0088C0B2E0E7000008380040F5
:1033300000F00700084909884FF6C7721140064A95
:1033400011801146098841EAC0011180114609889F
:1033500041F04001118070470038004010B5FEF781
:1033600065F81548006815490968884203D2124873
:1033700000681249086010480068114909688842CD
:1033800003D90D4800680E4908600C4800680C49D4
:103390000968084440080B49086008460068074966
:1033A0000968401A06490968064A1268891A0844D9
:1033B00040080549086010BD0400002008000020F6
:1033C0000C00002010000020140000202DE9FF4F09
:1033D00093B007460D461C46AA462046E21704EB6A
:1033E0005272D2102146E31704EB5373DB10A4EBA7
:1033F000C3030BB1012300E000231A44624302F02F
:10340000FF0B0C2C06D0102C04D0182C02D017B0B7
:10341000BDE8F08F224601A91598FEF77FFB002634
:103420002FE001A810F806804FF0000923E008F013
:10343000800030B11548028829463846FEF7AEFFB5
:1034400007E0209828B91248028829463846FEF736
:10345000A5FF4FEA48604FEA1068681C85B2A5EBEB
:103460000A00A04203D15546781C87B206E009F154
:10347000010000F0FF09B9F1080FD8DB00BF701C94
:10348000C6B25E45CDDB00BFC1E700007200002080
:10349000740000202DE9FE4F07460E4691469A46DD
:1034A000DDE90D4B0C9DB8460296002001904CE0E2
:1034B000019870BB2878802802DD0120019044E04B
:1034C00004EBD47108EB0902A2EB6101B94202DA04
:1034D000301986B2474602985044001BB04200DAC9
:1034E00036E028780D2804D1301986B247466D1C85
:1034F00007E0CDF800B02A78234631463846FFF77A
:1035000063FA6D1C204604EBD07107EB61018FB2AA
:103510001BE0FFE70020019008EB0900001BB84208
:1035200002DA301986B2474602985044001BB04276
:1035300000DA0DE023462A4631463846CDF800B081
:10354000FFF744FFAD1C381987B228780028AFD1A7
:1035500000BFBDE8FE8F000030B504460025FFF730
:10356000C1FB1F48006840F480301D49086000BF5F
:103570001B480068400C0028FAD04FF480601849BE
:103580004860A01EC4B20846406840EA84404860D3
:103590000846406840F4803048601248006840F0B7
:1035A0003200104908600E48006840F080700C49F5
:1035B000086000BF0A480068400E0028FAD008489A
:1035C000406840F002000649486005E00448406851
:1035D000C0F3870505F00305022DF7D130BD0000CB
:1035E000001002400020024010B50748008800F09B
:1035F000010008B1FFF704FC0348008820F0010037
:103600000149088010BD00001004004070B5054657
:103610000C461048C06940F002000E49C8610E48CF
:103620000580001F04800C482038008840F001000D
:1036300009492039088008482C38008840F00100EA
:1036400005492C39088002231D2203210120FFF7A0
:103650007DFB70BD001002402C0400402DE9FC5F92
:1036600004460D4617461E46DDE90EABDDE90C8922
:103670004FF478405749088057A01021CDE9001039
:10368000564843880288A0212820FFF77BFA54A0DF
:103690001021CDE90010514843880288A0217820EC
:1036A000FFF770FA4FA01021CDE900104B48438876
:1036B0000288B4212820FFF765FA4BA01021CDE93C
:1036C0000010464843880288B4217820FFF75AFA50
:1036D00046A01021CDE90010404843880288C82147
:1036E0002820FFF74FFA42A01021CDE900103B48F7
:1036F00043880288C8217820FFF744FA3DA01021B2
:10370000CDE90010354843880288DC212820FFF7E6
:1037100039FA39A01021CDE90010304843880288D9
:10372000DC217820FFF72EFA34A01021CDE900101B
:103730002A4843880288F0212820FFF723FA102026
:1037400004232246A02100904020FFF7D1F9102049
:1037500004232A46A02100909020FFF7C9F91020E9
:1037600004233A46B42100904020FFF7C1F910200D
:1037700004233246B42100909020FFF7B9F91020BD
:1037800004234246C82100904020FFF7B1F91020E1
:1037900004234A46C82100909020FFF7A9F9102081
:1037A00004235246DC2100904020FFF7A1F91020AD
:1037B00004235A46DC2100909020FFF799F910204D
:1037C00003230090F0216020109AFFF791F9BDE8E3
:1037D000FC9F00007200002078313A007C0100203C
:1037E00079313A0078323A0079323A0078333A0047
:1037F00079333A0078343A0079343A0066616320CC
:1038000069733A0000B597B0002012900B901290A7
:103810001F20FE4908804FF6FF70FD490880FEF723
:103820009BFC4FF47840F94908804FF6FF70FEF793
:1038300093FC0020F5490880F648006810216423B5
:10384000A022CDE9001028210846FFF79BF94FF48C
:1038500078421421084600F003FC0020EE4981F86C
:1038600020004862CFE3EC4840680A9001200A99A2
:103870008847E94890F8200000F0C00040286FD148
:1038800000200B90E44890F8200020F04000E2492E
:1038900081F820000846818913AA129822F8201086
:1038A000DD48C18A129802EB800041801298401CCA
:1038B000C0B212901298012806D0022815D0032811
:1038C00029D0042810D141E04FF6FF721421084698
:1038D00000F0C6FBD1480088143880B24FF478421B
:1038E00014210A9000F0BCFB7DE3CC48008814381A
:1038F00080B24FF6FF7214210A9000F0B1FBC74866
:103900004088143880B24FF4784201460A9014205F
:1039100000F0A6FB67E3C1484088143880B24FF638
:10392000FF7201460A90142000F09AFBBB484088C1
:10393000143880B20A90B9480088143880B24FF425
:10394000784209900A9900F08BFB4CE3BDF84C00DB
:10395000BDF85010401A0A90002802DB0A9802E0D5
:1039600042E30A9840420F90BDF84E1013A8C08859
:10397000081A0A90002801DB0A9801E00A984042E0
:103980000E900F9840430F900E9840430E90DDE943
:103990000E100844059001F052FBCDE9060101F03C
:1039A00081F8CDE9080101F01DFB80B21190BDF84E
:1039B0005400BDF85810401A0A90002801DB0A98FC
:1039C00001E00A9840420F9013A84189C089081A63
:1039D0000A90002801DB0A9801E00A9840420E9004
:1039E0000F9840430F900E9840430E90DDE90E1063
:1039F0000844059001F023FBCDE9060101F052F8DF
:103A0000CDE9080101F0EEFA80B21090109802F0B2
:103A10000DF80990119802F009F80890099901F041
:103A2000EFFE0A9001F05EFECDE90C014FF0663228
:103A30007B4BDDE90C0101F015FB0AD3794A7A4B87
:103A4000DDE90C0101F048FC03D3119808B110988E
:103A5000F0BB0020129071484088143880B20A9060
:103A60006E480088143880B24FF6FF7209900A99A8
:103A700000F0F6FA4FF478421421084600F0F0FA0C
:103A800000226A4BDDE90C0101F028FBCDE90801B9
:103A900001F0A8FA80B213A90A90C989BDF858208C
:103AA00013AB5B89CDE90132CDE90310BDF85400B9
:103AB000009013A8C0880990BDF850000890BDF888
:103AC0004E000790BDF84C00069007A90EC900E013
:103AD00002E0FFF7C3FD96E2BDF84C00BDF85410BC
:103AE000401A0A90002801DB0A9801E00A98404237
:103AF0000F90BDF84E1013A84089081A0A900028AC
:103B000001DB0A9801E00A9840420E900F9840436A
:103B10000F900E9840430E90DDE90E10084405907A
:103B200001F08DFACDE9060100F0BCFFCDE90801F6
:103B300001F058FA80B21190BDF85000BDF858104D
:103B4000401A0A90002801DB0A9801E00A984042D6
:103B50000F9013A8C188C089081A0A90002801DBB9
:103B60000A9801E00A9840420E900F9840430F9047
:103B70000E9840430E90DDE90E100844059001F0C8
:103B80005EFACDE9060100F08DFFCDE9080101F0F4
:103B900029FA80B21090109801F048FF099011980E
:103BA00001F044FF0890099901F02AFE0A9001F003
:103BB00099FDCDE90C014FF06632194BDDE90C019E
:103BC00001F050FA06D3174A174BDDE90C0101F05A
:103BD00083FB53D20020129010484088143880B2E2
:103BE0000A900E480088143880B24FF6FF72099090
:103BF0000A9900F035FA4FF478421421084600F093
:103C00002FFA0022094BDDE90C0111E072000020BF
:103C100074000020AC740008780000207C010020B3
:103C20006666EE3FCDCCCCCCCCCCF03F000059400A
:103C300001F054FACDE9080101F0D4F980B213A9DA
:103C40000A90C989BDF8582013AB5B89CDE90132D0
:103C5000CDE90310BDF85400009013A8C088099066
:103C6000BDF850000890BDF84E000790BDF84C001C
:103C7000069007A90EC9FFF7F1FCC4E1BDF850009A
:103C8000BDF85410401A0A90002801DB0A9801E0A0
:103C90000A9840420F9013A8C1884089081A0A90D8
:103CA000002801DB0A9801E00A9840420E900F9824
:103CB00040430F900E9840430E90DDE90E100844EB
:103CC000059001F0BCF9CDE9060100F0EBFECDE96D
:103CD000080101F087F980B21190BDF84C00BDF8E1
:103CE0005810401A0A90002801DB0A9801E00A984F
:103CF00040420F90BDF84E1013A8C089081A0A90D0
:103D0000002801DB0A9801E00A9840420E900F98C3
:103D100040430F900E9840430E90DDE90E1008448A
:103D2000059001F08CF9CDE9060100F0BBFECDE96C
:103D3000080101F057F980B21090109801F076FE5A
:103D40000990119801F072FE0890099901F058FD50
:103D50000A9001F0C7FCCDE90C014FF06632AC4B84
:103D6000DDE90C0101F07EF906D3AA4AAA4BDDE990
:103D70000C0101F0B1FA40D200201290A74840880F
:103D8000143880B20A90A5480088143880B24FF6E3
:103D9000FF7209900A9900F063F94FF478421421F8
:103DA000084600F05DF900229D4BDDE90C0101F0B1
:103DB00095F9CDE9080101F015F980B213A90A902F
:103DC000C989BDF8582013AB5B89CDE90132CDE933
:103DD0000310BDF85400009013A8C0880990BDF8E6
:103DE00050000890BDF84E000790BDF84C000690BA
:103DF00007A90EC9FFF732FC05E1BDF85000BDF878
:103E00004C10401A089001F0F9FD0A908348008890
:103E10002838089001F0F2FD09900A9901F0F0FCB1
:103E200080494862BDF85000BDF84C100844059028
:103E300001F0E4FD06907B48406A01460590069833
:103E400001F008FE089075480088069001F0EEFD2C
:103E50000790089901F0D4FE4FF08041099001F0DD
:103E6000CFFC0A9001F08EFD00B26E49888513A840
:103E70004089BDF84E10401A089001F0BFFD0A902D
:103E8000664840882838089001F0B8FD09900A99E2
:103E900001F0B6FC6349886213A84089BDF84E1052
:103EA0000844059001F0AAFD06905E48806A01462C
:103EB0000590069801F0CEFD08905848408806907D
:103EC00001F0B4FD0790089901F09AFE4FF080418F
:103ED000099001F095FC0A9001F054FD00B251499F
:103EE000C8850846406A089001F04CFD09900028FA
:103EF00001DB099801E00998404202280DDC49489D
:103F0000806A089001F03EFD0A90002801DB0A98C3
:103F100001E00A984042022842DD002012903F480A
:103F20004088143880B20A903C480088143880B227
:103F30004FF6FF7209900A9900F092F84FF4784218
:103F40001421084600F08CF837A01021CDE90010AC
:103F5000324840880A9031480088099002461A2168
:103F600028200A9BFEF70EFE2E4890F8300008B974
:103F7000012000E000202B4981F83000084690F82D
:103F8000300030B190202D490870D0202C490870A5
:103F900005E0D0202949087090202949087032E0B6
:103FA0001F20284908804FF6FF70FEF7D5F826A09D
:103FB0001021CDE90010194840880A901748008860
:103FC000099002466E2123200A9BFEF7DBFD4FF489
:103FD0007A7000F08BFB00F0F3F94FF6FF70FEF7FC
:103FE000BBF817B000BD00BF0A2000F07FFB0B98A4
:103FF000401C80B20B900B98B0F57A7F02DD00F088
:1040000067F801E000BF2EE400BF00BFE9E7000051
:104010006666EE3FCDCCCCCCCCCCF03F7C01002012
:1040200000005940780000205450204E65656420FF
:10403000726561646A75737421000000AC00002031
:10404000AD00002072000020546F75636820536338
:104050007265656E2041646A757374204F4B210050
:1040600070B504460D4616461848068004F10D0149
:104070008AB2193988B22B462946FEF7BBF805F1FA
:104080000D0083B2193881B222462046FEF7B2F8FD
:104090006A1C91B2621C90B2FEF704F96A1C91B2DC
:1040A000621E90B2FEF7FEF86A1E91B2621C90B2D8
:1040B000FEF7F8F86A1E91B2621E90B2FEF7F2F8AF
:1040C000062229462046FEF71DF970BD7200002029
:1040D00010B53620FCF7E4F904460A2C18D10E225C
:1040E0000C492820FCF7CBF90A48243890F8300016
:1040F00030B1902008490870D0200849087005E0C8
:10410000D02005490870902004490870012010BD96
:104110000020FCE79C000020AC000020AD00002047
:1041200010B52448806940F008002249886108469B
:10413000806940F0800088611F48006820F0F0002E
:104140001D4908600846006840F0300008601A48C1
:104150000C30006840F0060017490C310860174821
:1041600000686FF30F00154908600846006843F6C1
:10417000380108431149086010480830006840F4CD
:1041800060600E49083108600D49A1F10A0000F095
:104190009FF8FCF770F9FFF79BFF08B1002010BDF6
:1041A0004FF6FF70FDF7D8FFFFF72CFBFFF790FFEE
:1041B0000120F4E700100240000C0140041C014003
:1041C0008E00002070B506460025002400201E4900
:1041D00008601E49C1F8A4011D490860304600F07E
:1041E00085F9062000F0A0FA00201A49C1F88401E0
:1041F000012000F099FA01201349086000F094FAB8
:1042000000201449C1F8840100BF15E04FF6FF708B
:1042100000EA440400200C490860012000F084FA00
:1042200001200C49C1F8840109488C38006808B1A4
:10423000601C84B2681CC5B2102DE7DB241101207C
:1042400003490860204670BD8481214200802342DA
:10425000AC812342008021422DE9FE4380460027A5
:10426000002406E04046FFF7ADFF2DF81400601C67
:1042700084B2052CF6DB002416E0601C85B20FE04A
:104280003DF814003DF81510884207DD3DF8146034
:104290003DF815002DF814002DF81560681C85B246
:1042A000052DEDDB601C84B2042CE6DB0027012425
:1042B00005E03DF81400384487B2601C84B2042C39
:1042C000F7DB032097FBF0F086B23046BDE8FE83B3
:1042D0002DE9F04104460D4607480078FFF7BCFF82
:1042E000064606480078FFF7B7FF074626802F806E
:1042F0000120BDE8F0810000AC000020AD000020EE
:104300007FB504460D4602A903A8FFF7E1FF064664
:1043100016B9002004B070BD694601A8FFF7D8FFA8
:1043200006460EB90020F5E7BDF80400BDF80C10F4
:10433000884206DCBDF80C10BDF804003230814222
:104340000CDBBDF80C00BDF80410884236DCBDF86B
:104350000410BDF80C00323081422FDABDF80000A5
:10436000BDF80810884206DCBDF80810BDF8000052
:10437000323081420CDBBDF80800BDF800108842E5
:104380001CDCBDF80010BDF808003230814215DA9F
:10439000BDF80C10BDF80420881800EBD071C1F3F3
:1043A0004F012180BDF80810BDF80020881800EBEF
:1043B000D071C1F34F0129800120ABE70020A9E7AC
:1043C00010B50E2204492820FCF796F80A21362061
:1043D000FCF7A4F810BD00009C0000202DE9F0417E
:1043E000044640480068002856D12CB13E49A1F14E
:1043F0000A00FFF785FF3DE03B49A1F10A00FFF706
:104400007FFFB8B338491639B1F92C0001F0F6FA3C
:10441000074635491639888901F008FB804632483D
:104420001638416A404601F015FB0646394601F050
:1044300085F9054601F0C2FA2B4916398881B1F990
:104440002E0001F0DBFA074627491639C88A01F029
:10445000EDFA804624481638816A404601F0FAFA9F
:104460000646394601F06AF9054601F0A7FA1E49E9
:104470001639C8821C48163890F8200000F08000D9
:1044800038BBC0201849163981F8200008468189B8
:104490008182C18AC1831CE01348163890F820003D
:1044A00000F0800050B11048163890F8200020F03D
:1044B00080000D49163981F820000AE000210A48E1
:1044C00016388182C1834FF6FF70074916398881FB
:1044D000C8820548163890F8200000F08000BDE83A
:1044E000F0810000288123428E00002070B5044630
:1044F000002500BF17E004F0800018B101200B492F
:10450000086002E00020094908606006040E0020EF
:1045100007490860012000F007F901200549C1F8AA
:104520008401681CC5B2082DE5DB70BDA48123425F
:1045300084812142008021421D49098801F0200127
:1045400011B31B49091D0988C8B21A49098801F429
:104550000041C9B91749098801F4804161B10A28AD
:1045600003D00021134A118020E01249098841F448
:104570000041104A118019E00D2806D10D49098823
:1045800041F480410B4A118010E00A490988C1F3C7
:104590000D01094A505407490988491C054A1180F0
:1045A00011460988C72901DD0021118070470000EC
:1045B0000038014070000020B400002010B50F4802
:1045C000806940F008000D4988610D48006820F4BA
:1045D00070200B4908600846006840F440300860CD
:1045E000012008490860FEF71DFE0020FEF7A0FE2E
:1045F00000F034F80449088010BD000000100240AB
:10460000040C0140B0812142AE0000202DE9F041B0
:1046100006460C46174600200F4908600320FEF7A7
:104620005BFEC4F30740FEF757FEC4F30720FEF716
:1046300053FEE0B2FEF750FE002505E0FF20FEF736
:104640004BFE7055681C85B2BD42F7DB0120024964
:104650000860BDE8F0810000B081214210B500245F
:1046600000200E4908609020FEF736FE0020FEF77D
:1046700033FE0020FEF730FE0020FEF72DFEFF2067
:10468000FEF72AFE44EA0024FF20FEF725FE04433D
:1046900001200349C1F8B001204610BDB08121427C
:1046A00000802142014600BF704700004FF0E0212A
:1046B000096921F004014FF0E0221161C21700EBFB
:1046C0005272C2F3C702074B1A701946097801EB00
:1046D0004102C2EBC1114FF6FF7202EAC101024A68
:1046E00011807047660000206800002001460D4AD6
:1046F00012884A434FF0E0235A6100229A61012256
:104700001A6100BF4FF0E022106900F001021AB1F7
:1047100000F48032002AF5D000224FF0E0231A6125
:104720009A6170476800002001460D4A12784A439A
:104730004FF0E0235A6100229A6101221A6100BF02
:104740004FF0E022106900F001021AB100F480324B
:10475000002AF5D000224FF0E0231A619A617047D9
:104760006600002010B50024FFF728FF0FE0601C52
:10477000C4B221224FF440010A48FFF747FF09481D
:104780000078AA2800D104E01420FFF7AFFF0A2C1C
:10479000EDDB00BF03480078AA2801D0012010BD3E
:1047A0000020FCE78A01002000BF054A128802F0C1
:1047B0004002002AF9D0C2B2014B1B1D1A8070477B
:1047C000003801400EB50920FEF7C6FE4820FFF76D
:1047D0006DFF4FF4E131482000F08AF941F61F41A6
:1047E00040F2E730FEF712FFFDF700FEFFF7E6FEAE
:1047F0007F4908688047FDF76FFAFCF712FC00BF9D
:10480000FFF7B0FF0028FBD17A490220FCF7C0FB7C
:10481000784801680220FCF787FB044600F0E2FBC1
:104820007549086008460068744908604FF6FF70D3
:10483000FDF792FC1F20724908804FF49B73E6221B
:104840003C210A20FDF740FD002018216DA20B46F7
:10485000CDE900210290C0223D210B20FEF71AFE77
:104860004FF4784066490880002018216AA20B4660
:10487000CDE90021029054225A210B20FEF70AFEB6
:104880001F205F4908800020182165A20B46CDE952
:1048900000210290302296213C20FEF7FBFD0020F3
:1048A000182161A20B46CDE90021029060229621D9
:1048B0007820FEF7EFFD002018215EA20B46CDE91F
:1048C000002102903022B4210B20FEF7E3FD1F20CF
:1048D0004B4908800020182158A20B46CDE9002141
:1048E00002903022D2210B20FEF7D4FD00201821A7
:1048F00054A20B46CDE9002102903022F0210B207A
:10490000FEF7C8FD72E050480078002831D14F48CA
:104910000068E8B14E480068D0B14E480068B8B1B0
:104920004D480068A0B14D48006888B14C48006807
:1049300070B1002018214BA20B46CDE90021029056
:10494000602201210B20FEF7A5FDFCF7CFFD0BE057
:104950000020182146A20B46CDE9002102906022DA
:1049600001210B20FEF796FDFCF760FDFBF7FEFD35
:104970003CE04248006848B34148006830B34148D1
:10498000006818B34048006800B340480068E8B1C8
:104990003F480068D0B13F480068B8B13E48006861
:1049A000A0B13E48006888B13D48006870B1002061
:1049B00018212CA20B46CDE9002102906022012192
:1049C0000B20FEF767FDFCF7C7FE0BE00020182167
:1049D00027A20B46CDE900210290602201210B2085
:1049E000FEF758FDFCF722FDFBF790FF8BE7000078
:1049F000780000200000002004000020600000205B
:104A000072000020BDF8C8EBCAFDD7D6CAB6B1F017
:104A1000BDE7C3E600000000CDA8B5C032A3BA00D0
:104A2000E3D0D6B500000000B2A8B6AFB7B6CEA7A7
:104A300000000000CAAFCDB700000000BCF4B5B65E
:104A400000000000B2BC0000640000201C00002038
:104A50001800002020000020240000202800002052
:104A60002C000020D1A7CFB0CDEAB3C900000000D0
:104A7000C7EBCFC8D1A7CFB00000000030000020A6
:104A800034000020380000203C00002040000020BE
:104A900044000020480000204C000020500000206E
:104AA000540000202DE9F04106460F4600F04AFC74
:104AB00004000D4618BF0120284320F00040C0F13B
:104AC0007F6000F1E040C00F0ED0301C18BF012005
:104AD000384320F00040C0F17F6000F1E040C00F9B
:104AE00004BF0120FBF707FC20462946BDE8F08102
:104AF0002DE9F05F05460E46300100F097FF814634
:104B00002E4905FB01F000F091FF8246494600F076
:104B100077FE0746384600F051FF84B2204600F089
:104B200085FF8346394601F061F882464FF08341A4
:104B300000F090FF814600F041FF80464FF6FF7085
:104B400000EA041404EB080084B21D48806940F0B8
:104B500004001B4988610846806940F480408861F0
:104B60001848006820F47F6016490860084600680D
:104B700040F40B6008601248C06840F4804010495F
:104B8000C8600846C06820F48040C8600E480480B1
:104B9000001D008842F20C0108430B49091D0880E2
:104BA0000846008840F020000880022325220321C7
:104BB0000846FEF7CBF8BDE8F09F000040420F002A
:104BC00000100240040801400838014010B591EA85
:104BD000030F48BF83F0004300F1A284841A71EBF5
:104BE000030C05D2121943EB0C03001B61EB0C0103
:104BF000DFF824E14FEA1154A4EB135C1EEA430FE3
:104C000018BF9EEA445F73D023EA0E03DCF1200E46
:104C100021EA045143F4801332D322FA0CFE10EB44
:104C20000E0023FA0CFE41EB0E01CCF1200E03FA2C
:104C30000EFE10EB0E0051F10001B1F5801FCCF11A
:104C4000200E32D201EB045112FA0EF2BDE81040F0
:104C500058BF7047401C38BF5FEA420218BF704718
:104C6000002814BF20F0010041F100014FEA410388
:104C700013F5001F38BF7047A1F1C04100F026BBFB
:104C8000012A43EB0302ACF1200CDCF11F0E32BF12
:104C90004FF0000E23FA0CF310EB030041EB04512C
:104CA000B4EB115FD0D0A1EB045101F5801149089C
:104CB0005FEA300001EB04510ED350F1000038BF21
:104CC00012FA0EFE08D1BDE81040C9E7401C38BFFB
:104CD0005FEA4202CAD1C3E7BDE810404FEA410390
:104CE00013F5001F38BF7047A1F1C04100F0EEBAC4
:104CF0009EEA445F08D011EA5E0FBDE8104004BF91
:104D000001F0004100207047BDE8104070B500F090
:104D10008FFA00BF64FBBE3E0000E0FF491058BFA1
:104D2000C1F140415B1058BFC3F140438B42EFF3E8
:104D3000008070472DE9C04130B4DFF8A0C23CEAE2
:104D4000111418BF3CEA131400F0EC8081EA03054B
:104D50001CEA111444EAD57418BF1CEA131500F0BC
:104D6000C780A4EB05044FF0004545EAC12145EAA0
:104D7000C32341EA505143EA525304F17F749942EC
:104D800004F500344FEAC0204FEAC22208BF904227
:104D900000F09C804FEA13650FF24016765D4FEAF3
:104DA000134506FB05F7C7F1807706FB07F74FEAC7
:104DB000D737A7FB03687642C8F58038A7FB06CE35
:104DC00038BFA8F1010807FB08E64FF0000EA6FB6C
:104DD000028CE6FB03CEDCF1000CCEF1004E38BFB6
:104DE000AEF1010EA6FB0C584FF000074FF0000586
:104DF000E6FB0E87A1FB08C6A0FB07CE16EB0E064E
:104E000045F10005E1FB076515F1E04E7EBFA4F515
:104E100080345FEA46066D4116F1800745F10005D2
:104E20004FEA17274FEA066647EA0567A6F1DE460E
:104E3000B6F1805F4FEA15251FD9384624F0010CE2
:104E400005EBC471BCF1FE6F01EB0C1102D8F0BC94
:104E5000BDE8008124425CBF01F5801E9EEAC47F4C
:104E600002D4F0BCBDE80081244238D4F0BCA1F1EA
:104E7000C041BDE8004100F029BA4FEAD22242EA1F
:104E800043524FEAD323A7FB02864FEAD02040EAE1
:104E9000415007FB03661EEA0E0F4FEAD12105FBC6
:104EA000026658BFA6EB0056B6EB00564FEA520E0C
:104EB0004EEAC37E18EB0E0E56EB530EBDD518EB23
:104EC00002085E417F1C55F10005B6E74FF48015DE
:104ED0004FF000074FF000064FF00008ADE7F0BCC0
:104EE0004FF0000001F1C04101F00041BDE8008138
:104EF00011EA0C1F0CEA131500D00CE013EA0C1F8A
:104F000000F025804FF00000F0BC81EA030101F0C1
:104F10000041BDE80081F0BCBDE8004181EA030129
:104F200000F0D4B9F0BCBDE8004170B500F080F9E4
:104F3000097EFC3E00F007B881EA03014FF0000053
:104F400001F00041704781EA030100F0BFB9F0BCF5
:104F5000BDE800414FF0000021497047FFFDFBF91B
:104F6000F7F5F4F2F0EEEDEBE9E8E6E4E3E1E0DE9C
:104F7000DDDBDAD8D7D5D4D3D1D0CFCDCCCBCAC80E
:104F8000C7C6C5C4C2C1C0BFBEBDBCBBBAB9B8B735
:104F9000B6B5B4B3B2B1B0AFAEADACABAAA9A8A828
:104FA000A7A6A5A4A3A3A2A1A09F9F9E9D9C9C9BF6
:104FB0009A999998979796959594939392919190A1
:104FC0008F8F8E8E8D8C8C8B8B8A89898888878732
:104FD0008685858484838382828181800000FF07A7
:104FE0000000F87F4FEA1153A3F58063D3F11E034D
:104FF000A8BFD3F1200C08DB4FF0004242EAC122E7
:1050000052EA505232FA03F0704709420BD4102B87
:10501000C4BF0020704703F5787CBCF1FF3F05D08A
:105020004FF0FF3070474FF00000704770B500F050
:10503000FFF800BF4992248000207047F0E7B0FAE3
:1050400080F310FA03F10AD0C3F11D0303F5806366
:105050004FEA41504FEA035202EBD12170474FF023
:105060000000704751EA030C17D41CF5801F58BF8D
:10507000BCF5801F00F10680994218BF704708BF39
:105080009042704707D711F5801F58BF13F5801F56
:1050900019D499427047894270471CF5801F08D582
:1050A000BCF5801FF7D58B4218BF704708BF8242FE
:1050B00070474FF4001C1CEB410F38BF1CEB430F33
:1050C00001D28B42704770B500F0B2F892244900CB
:1050D0004FF000514FF08053FFF720BEDFF848C17A
:1050E00070B51CEA111E1EBF1CEA13159EEA0C0FB8
:1050F00095EA0C0F00F06F8081EA030423EA4C1359
:105100004EEAD47E21EA4C1141F4801143F480131D
:10511000AE44A1FB024CA0FB0365AEF17F7E3619C5
:1051200055EB0C05A1FB034C4CF10003A0FB021C4A
:1051300016EB0C06654153F10003094218BF46F017
:10514000010613F4007F0BD14FEA03314FEA05301B
:10515000340341EA155140EA16506FF003020AE0A9
:105160004FEAC3214FEAC520F40241EA555140EA13
:1051700056506FF0020202EB2E4201EB025585EA17
:10518000CE710AD05FEA440C18BF24F0004450F1FD
:10519000000041F1000120EAD47040F2FE7C62453B
:1051A00000D270BDA84214BF4FF080444FF040447D
:1051B000002E08BF0024BEF1806FA8BFA1F1C0413E
:1051C000BDE8704080F282804FF0000001F1C041E4
:1051D00001F0004170479EEA0C0F0CEA131518BF4E
:1051E00095EA0C0F06D04FF0000081EA030E0EF096
:1051F000004170BD00F01CF88900013E00F007B8C6
:1052000000F009B84FEA430C5FEA5C5C08D081EA21
:10521000030100F05BB84FEA410C5FEA5C5CF6D139
:105220004FF00000014970470000FF070000F87FC1
:105230000EF1020E2EF0030E5EF8046B364205D41A
:10524000012A43EB030515F5001F12D8012841EB95
:10525000010C1CF5001F0CD80ED14FEAD17C15F5BE
:10526000001F0CEB4C0C0CF1020C08BF4CEBD37C78
:1052700004E04FF0080C01E04FEAD37C0CEB4C0546
:1052800026FA05F606F00706B6F1040C06D20EEB78
:10529000860CBDE870404CF0010C6047DFE80CF074
:1052A000090B02024FF000414FF00000A1F5002170
:1052B00070BD19461046012851EB010418BFD4F502
:1052C000001484BF002001F0004170BD0808A0F563
:1052D00000114FEA3101704753EA010C17D41CF555
:1052E000801F58BFBCF5801F00F106808B4218BF9D
:1052F000704708BF8242704707D713F5801F58BF19
:1053000011F5801F19D48B4270479B4270471CF5E2
:10531000801F08D5BCF5801FF7D5994218BF70478C
:1053200008BF904270474FF4001C1CEB430F38BF7E
:105330001CEB410F01D2994270470FB40CBC03BC67
:10534000FFF7C1BE2DE9F04101F5801CBCF5001F3F
:10535000C0F2C3804FEA115C21EA0C510CF1FD0C44
:1053600041F480115FEA5C0C0CF5C07C01D3400075
:1053700049413DA4890241EA905187028E0E0A0CF0
:10538000A45D04FB04F602FB06F6C6F14046A4FB4E
:105390000662F60D46EA422606FB06F4A4FB01234C
:1053A0005242C3F1404338BF5B1EA6FB02420024B9
:1053B000E6FB0324D20B42EA4446A6FB0623A1FBEC
:1053C00002E2A3FB07E4A4184FF0000252F100022E
:1053D000E3FB01426442C2F1404E38BFAEF1010E20
:1053E000A6FB04234FF00002E6FB0E32A2FB0346AD
:1053F0004FF00004B61954F10004E2FB0264A1FB73
:1054000006E6A4FB07E816EB08064FF0000858F183
:105410000008E4FB01687642C8F1405838BFA8F1A3
:105420000108A2FB06E4A3FB08E52D194FF00004D8
:1054300054F10004E2FB0854A1FB05E6A7FB04E8D5
:1054400018EB06084FF0000656F10006E1FB048653
:1054500018F1200556F10006A809A8F11B08B109AA
:1054600008F03F08B8F10A0F40EA86601CD901EB4A
:105470000C51BDE8F08100BFFCF5EEE8E2DDD8D3C9
:10548000CFCBC7C3C0BDB9B6B4B1AEACA9A7A5A3B5
:10549000A19F9D9B9A9896959392908F8D8C8B89C6
:1054A0008887868584838281A0FB006800FB01F2E7
:1054B00008EB4208B8EB872807D5341858EB0104ED
:1054C000D5D5401C51F10001D1E7341A78EB010425
:1054D000CDD4401E71F10001C9E75FEA4C0C5FEAD0
:1054E0009C5C0DD105D34FF0000001F00041BDE8F8
:1054F000F081BDE8F04170B5FFF79AFE6DDBFFBEAD
:10550000BDE8F0414FF00000004970470000F87F0F
:1055100010B591EA030F48BF83F000433FF55EAB3F
:10552000841A71EB030C07D212198CF0004C43EB78
:105530000C03001B61EB0C01DFF8A4E14FEA1154EE
:10554000A4EB135C1EEA430F18BF9EEA445F00F011
:10555000B08023EA6E03524221EA0451C3EB6E038A
:1055600038BF5B1EDCF1200E25D322FA0CFE10EBB7
:105570000E0043FA0CFE41EB0E01CCF1200E03FAB3
:105580000EFE10EB0E0051F10001CCF1200E29D4DB
:1055900012FA0EF201EB0451BDE8104058BF7047FB
:1055A000401C1CBFB2F1004F704700280CBF491CC3
:1055B00020F00100704712EB020E43EB030218BF0C
:1055C0004FF0010E4EEA4202ACF1200CDCF11E0E4F
:1055D00054D943FA0CFE10EB0E0051F1FF31CCF11F
:1055E0001E0ED5D50EF1010E12FA0EFE404141EB12
:1055F000010101EB445C5FEA5C5C10D910EBDE70EA
:1056000001EB045138BFBEF1004FBDE8104018BF98
:10561000704700280CBF491C20F00100704730D2B1
:105620004FEAD42C11F5001124F400641BD0B1FA18
:1056300081F20B3AA41AA41ED2F12003914030FA51
:1056400003F31943904001EBCC71002C01EB0451A2
:10565000BDE81040A8BF704701F1C0414FF0000005
:1056600001F000417047B0FA80F310FA03F100D165
:1056700010BDE41A173C4805C90AE4E701EB0451E0
:1056800010BD491001EB0451BDE810404FEA300055
:1056900002E04FF0000170474A0008BF0042F8D016
:1056A000B2F5001F28BF704701F000414FF0000025
:1056B00070479EEA445F07D011EA5E0FBDE81040D4
:1056C00004BF002100207047BDE8104070B5FFF70F
:1056D000AFFD00BF40DFF63E83F00041104670474B
:1056E0000000E0FF43004FEAD30C4FEA3C0C43407C
:1056F0001FBF40070CF1605113F0FE4F70471CF0C4
:10570000006F03D100200CF0004170470CF0004303
:1057100043EA507010B540EACC0000F01CFA00BF1C
:10572000000000924FEA0001FFF7D0BD4FF00041AA
:105730004FF00000A1F500217047000090EA010F32
:1057400048BF81F0004100F16282421A3CBF801ADA
:1057500089184FEAD0524FF07F4C1CEA410FA2EB60
:10576000D15318BF9CEA026F00F03B804FF0004C11
:105770004CEA00204CEA012121FA03FC10EB0C0C4E
:105780001ED202F1FF325FEA1C2040EBC25038BF4C
:1057900070471CF07F0F4FEA400C18BFBCF17F4FE1
:1057A00038BF7047C3F12003994008BF20F00100C3
:1057B000BCF17F4F38BF7047A0F1C04000F011BA74
:1057C0004FEA3C00000A40EBC25028BF1CF0FF0F1C
:1057D0004FEA400CE6D018BFBCF17F4F38BF70478E
:1057E000EAE79CEA026F05D010EA5C0F08BF00F000
:1057F0000040704710B500F0AEF900BF64FBBE3E3C
:105800004FF47F0C1CEAD0121EBF1CEAD11392EA9F
:105810000C0F93EA0C0F00F0858090EA010F48BF4F
:1058200042F4807240F4000C41F400002CF07F41FF
:1058300020F07F4000B58142A2EB03020FF2081C6A
:10584000ACEB504EC0F100009EF800E04FEA4E0E67
:1058500000FB0EFC38BF49004FEA2C1C02F5FA028F
:105860000CFB0EF34FEACE1E4FEA112C4FEAC1217A
:105870000EEB635E42EB22420EFB0CFC4FEA1C5324
:1058800000FB03114FEA112C4FEA01310EFB0CFC17
:105890004FEADC4C00FB0C11C14228BF09184CEB4D
:1058A00003335DF804EB10EB410143EBC250B2F55A
:1058B0007C0F38BF704729D512F0F00F1CBF00F1E4
:1058C000C04000F000407047008182838485868755
:1058D00088898B8C8D8E8F919293959697999A9CAF
:1058E0009D9FA0A2A3A5A7A8AAACAEB0B2B3B5B71E
:1058F000B9BCBEC0C2C5C7C9CCCED1D4D7D9DCDFF4
:10590000E2E6E9ECF0F3F7FAFE0000004FEA400CA3
:105910000CF1807CBCF17E4F28BF7047B0F1C040D5
:1059200000F05FB990EA010F0CEAD11348BF42F4CE
:105930008072624538BF634507D213F47F0F16D0DB
:1059400080EA010000F00040704710B500F003F954
:10595000097EFC3E00F005B880EA010000F000403E
:10596000704780EA010000F0004000F03AB912F4FC
:105970007F0F04BF0248704780EA010000F031B990
:105980000000C07F41000B0ED3F19E0208D950F4F5
:1059900000034FEA032323FA02F048BF4042704756
:1059A00010B500F0D8F800BF49922480002070475D
:1059B0006FF0004282EA200070470000C10DD1F173
:1059C0009E0206DB4FEA002343F0004323FA02F075
:1059D0007047004207D54FEA4001B1F1FE4F02D2B5
:1059E0004FF00000704710B500F0B5F849922480E0
:1059F000002070476FEA20007047000010F000415F
:105A000048BF4042B0FA80F310FA03F2C3F19D039D
:105A10000BD051EAC35101EB1220530638BF704737
:105A200000F1010008BF20F001007047B0FA80F3D8
:105A300010FA03F2C3F19D030AD0D90501EB12203D
:105A4000530638BF704700F1010008BF20F0010085
:105A5000704700004FF47F0C1CEAD0121EBF1CEAF6
:105A6000D11392EA0C0F93EA0C0F00F0478090EAF2
:105A7000010F48BF42F480724FF0004C4CEA002006
:105A80004CEA012102EB0302A0FB0113A2F5000284
:105A9000002918BF43F001035B0028BF4FEA33031E
:105AA00042EB22425FEA132C4CEBC2502EBFBCEB00
:105AB000436FB2F57C0F70474FEA036CBCF1004FA7
:105AC00008BF20F00100B2F57C0F38BF70470BD53E
:105AD00082F0FF0212F5803FC8BF704700F1C0405E
