:0300000002011BDF
:0C011B00787FE4F6D8FD7581090200032E
:1000EC00E4F5907F2C7E011200FD7590FF7F2C7E35
:0100FC000102
:1000FD00D3EF9400EE940040147D6E7C00ED1D70E6
:0D010D00011CED4C70F7EF1F70E61E80E343
:01011A0022C2
:100003009000FE858290E4FBFA7FF47E011200FDEE
:10001300E58225E0F582E58333F5838582900BBB8A
:1000230000010AEB64074A70E0E4FAFB7FF47E0107
:100033001200FDE583C313F583E58213F582F59082
:100043000BBB00010AEB64084A70E17590FF7F3235
:100053007E001200FDE4FAFB1200EC0BBB00010A68
:10006300EB64054A70F29000FE858290E4F508F592
:10007300097FF47E011200FDAF827801EF08800151
:1000830023D8FD758300F582F5900509E509700213
:100093000508C39407E508940040D690007F858245
:1000A30090E4F508F5097FF47E011200FDAF827834
:1000B30001EF08800103D8FD758300F582F59005F3
:1000C30009E50970020508C39408E508940040D6C1
:1000D300E4FAFBC3EB9405EA940040030200031225
:0900E30000EC0BBB00010A80EAED
:00000001FF
