:020000040800F2
:10000000B0050020CD010008D1010008D30100088F
:10001000D5010008D7010008D90100080000000040
:10002000000000000000000000000000DB010008EC
:10003000DD01000800000000DF010008E101000808
:10004000E3010008E3010008E3010008E301000800
:10005000E3010008E3010008E3010008E3010008F0
:10006000E3010008E3010008E3010008E3010008E0
:10007000E3010008E3010008E3010008E3010008D0
:10008000E3010008E3010008E3010008E3010008C0
:10009000E3010008E3010008E3010008E3010008B0
:1000A000E3010008E3010008E3010008E3010008A0
:1000B000E3010008E3010008E3010008E301000890
:1000C000E3010008E3010008E3010008E301000880
:1000D000E3010008E52E0008E3010008E301000841
:1000E000E3010008E3010008E3010008E301000860
:1000F000E3010008E3010008E3010008E301000850
:10010000E3010008E3010008E3010008E30100083F
:10011000E3010008E3010008E3010008E30100082F
:10012000E3010008E3010008E3010008E30100081F
:1001300000F002F800F03AF80AA090E8000C8244BF
:100140008344AAF10107DA4501D100F02FF8AFF29C
:10015000090EBAE80F0013F0010F18BFFB1A43F0A5
:10016000010318471C5600003C560000103A24BFFB
:1001700078C878C1FAD8520724BF30C830C144BF0C
:1001800004680C607047000000230024002500264E
:10019000103A28BF78C1FBD8520728BF30C148BFEA
:1001A0000B6070471FB51FBD10B510BD00F040F8C3
:1001B0001146FFF7F7FF02F0EDFF00F05EF803B421
:1001C000FFF7F2FF03BC02F059FF000008480047A8
:1001D000FEE7FEE7FEE7FEE7FEE7FEE7FEE7FEE7F7
:1001E000FEE7FEE703480449024A044B704700005B
:1001F00031010008B0010020B0050020B00100204E
:100200007047704770477047704710B500F008F8A6
:10021000006810BD10B5044600F002F8046010BD7F
:10022000004870474C010020004870474C010020F6
:100230007546FFF7F9FFAE4605006946534620F0C4
:100240000700854618B020B5FFF7CCFFBDE8204079
:100250004FF000064FF000074FF000084FF0000B82
:1002600021F00701AC46ACE8C009ACE8C009ACE835
:10027000C009ACE8C0098D4670470446AFF3008062
:100280002046FFF79CFF10B500F09AFA10BD70B53C
:1002900006460C46154608E03046721C96B200F041
:1002A00007F804F8010B681E85B2002DF4D170BD6B
:1002B00070B50446002600F035FB2546E11704EB37
:1002C00011610912A02202EB4101C8B200F0F6FA56
:1002D00000F074FBE11704EB11610912A4EB01219A
:1002E000C8B200F0EBFA00F069FB00F01BFBA120A4
:1002F00000F0E4FA00F062FB002000F0A7FA0646E6
:1003000000F036FB304670BD70B505460C4616460B
:1003100006E02178284600F009F8681C85B2641CC4
:100320003000A6F101018EB2F3D170BD70B5044664
:100330000E4600F0F7FA2546E11704EB11610912A9
:10034000A02202EB4101C8B200F0B8FA00F036FB7F
:10035000E11704EB11610912A4EB0121C8B200F00E
:10036000ADFA00F02BFB304600F0A8FA00F026FBB7
:1003700000F0FEFA0A2002F0A5FE70BD4548806933
:1003800040F00400434988614348006820F0F000D1
:10039000414908603F48806940F400703D498861E8
:1003A0000846C06840F40070C8600846C06820F481
:1003B0000070C8600846406820F440404860084625
:1003C000406840F4004048603448006834490840C0
:1003D000324908600846006808600846006820F452
:1003E00080700860081D006820F00200091D086088
:1003F0000846006820F4602008600846006840F461
:10040000602008600846006840F4801008600846D4
:10041000006820F40060086020482830006820F45C
:1004200070001E49283108600846006808601B48B3
:100430000C30006820F0030018490C3108600846B1
:10044000006840F0380008601448001D006840F063
:1004500001001249091D08600846006840F00800C4
:10046000086000BF0D48001D006800F0080000286B
:10047000F8D10A48001D006840F004000749091D32
:10048000086000BF0548001D006800F00400002857
:10049000F8D17047001002400008014004240140D8
:1004A000FFFFF0002DE9F04107468846154604217C
:1004B000052000F02DF80021012002F0C9FD802167
:1004C0000A2001F07DFC002405E0395D092002F0DE
:1004D000BFFD601CC4B24445F7DB0321012002F0DC
:1004E000B7FDFF2400BF052001F04AFB0646601E51
:1004F000C4B21CB106F004000028F4D0222001F0A0
:100500003FFB2870212001F03BFB6870BDE8F081C3
:1005100070B505460C460026284601F031FB06461C
:1005200026EA0401284602F093FD70BD10B50024B0
:100530001548006820F00F0013490860084600685D
:1005400040F00800086004E0601CC4B2012002F022
:10055000E1FD0E48006808B1C82CF5DBC82C01DBB2
:10056000012010BD002404E0601CC4B2012002F090
:10057000D1FD0648006808B9F02CF5DBF02C01DB52
:100580000120EEE70020ECE70008014000012142D5
:1005900010B50F48806940F004000D4988610D488E
:1005A000006820F00F000B4908600846006840F022
:1005B0000300086007480C30006840F0010005495E
:1005C0000C31086000F008F8FFF7B0FF10BD000024
:1005D000001002400008014010B50D48006820F0EE
:1005E0000F000B4908600846006840F003000860EF
:1005F00000200849086040F2EE2002F08BFD012047
:100600000549C1F880010F2002F084FD10BD0000F3
:1006100000080140800121420000214201460F48AC
:10062000006820F01F000D4A106010460068084363
:1006300010600A482C38006840F48000074A2C3AC1
:10064000106000BF05483438006800F00200002840
:10065000F8D002481830006880B270473424014056
:100660002DE9F04107460C460025002608E03846F3
:10067000FFF7D4FF0544052002F024FD701CC6B22C
:10068000A642F4DBB5FBF4F080B2BDE8F0810000D7
:100690002DE9F05F82460F4614462046E21704EB30
:1006A0005272D2102146E31704EB5373DB10A4EB14
:1006B000C3030BB1012300E000231A44624302F09C
:1006C000FF099AF800600AF1010082460578812E40
:1006D00005DB402D03DBFF2D01D0FF2E0DD14FF0A8
:1006E000000B06E0002007F8010B0BF1010000F001
:1006F000FF0BCB45F6DBBDE8F09F7F2D03DAA5F1BC
:100700004000C5B202E0A5F14100C5B2A6F18100EA
:10071000C6B2BE2000FB065000FB09F80C2C04D02A
:10072000102C0CD0182C1ED113E01048D0F8090062
:1007300000EB08014A46384602F03EFC13E00B4845
:10074000D0F8110000EB08014A46384602F034FCAC
:1007500009E00648D0F8190000EB08014A4638467F
:1007600002F02AFC00BF00BF00BFC4E72A0100203E
:1007700010B500200F4908600F48006820F0704055
:100780000D4908600846006840F0405008600020AD
:100790000A49C1F89C01022002F0BCFC0120054975
:1007A0000860022002F0B6FC00200449C1F898015C
:1007B00010BD000098812142000C014000802142C0
:1007C0000C48806940F008000A4988610A480068BE
:1007D00020F07F40084908600846006840F04C500F
:1007E000086005480C30006840F0C00002490C3138
:1007F0000860704700100240000C014010B5002056
:100800000F4908600F48006820F070400D490860EB
:100810000846006840F04050086001200A49C1F8CD
:100820009C01022002F076FC0120054908600220AC
:1008300002F070FC00200449C1F8980110BD0000CE
:1008400098812142000C01400080214270B505468C
:1008500000241748006820F07040154908600846D9
:10086000006840F000400860002616E000201149B2
:100870000860022002F04EFC01200F49C1F89801E7
:100880006006040E0B487C38006808B1601CC4B2D6
:10089000012002F03FFC701CC6B2082EE6DB15B941
:1008A000FFF7ACFF01E0FFF763FF204670BD0000DB
:1008B000000C0140988121420080214270B504461D
:1008C0001548006820F07040134908600846006829
:1008D00040F040500860002010490860002517E0F3
:1008E000E0090E49091D08606006040E022002F0AE
:1008F00011FC01200A49C1F89801022002F00AFC0B
:10090000002006490860022002F004FC681CC5B201
:10091000082DE5DB70BD0000000C014098812142EC
:100920000080214210B50F48006820F070400D494A
:1009300008600846006840F04050086001200A49FD
:1009400008600A49C1F89801042002F0E3FB002086
:1009500005490860042002F0DDFB00200349C1F8CE
:10096000980110BD000C01409C8121420080214271
:1009700010B50F48006820F070400D490860084627
:10098000006840F04050086000200A4908600A49A9
:10099000C1F89C01042002F0BDFB0120054908605C
:1009A0000549C1F89C01042002F0B4FB10BD000011
:1009B000000C0140988121420080214210B50024A2
:1009C0001448006820F0704012490860084600682A
:1009D00040F00040086001200F49086002F09AFBD7
:1009E00001200E49C1F8980102F094FB07E0601C59
:1009F000C4B2FA2C03DDFFF7BBFF012010BD06488F
:100A0000803800680028F2D10349091F086000BF40
:100A1000F4E70000000C01409C812142008021424B
:100A200000B501F0C7F801F035F800F0F3FE00F072
:100A3000F7FE412000F0F2FD00BD00000C48806987
:100A400040F010000A4988610A4800686FF30F00FF
:100A5000084908600846006848F6880108430549C7
:100A600008600846C06840F00800C8607047000091
:100A7000001002400010014070B5044600260948ED
:100A80000588408845430021084600F0F1FB00F04E
:100A900085FD00BF02E004480480761CAE42FAD314
:100AA00070BD00001C0100200008006C10B5044659
:100AB000ACB9002016498871F02008804FF4A0706E
:100AC00048800846808849F2413188421CD12C2058
:100AD0000F4908812A2048812B20888114E00120B9
:100AE0000B4988714FF4A0700880F02048800846B8
:100AF000808849F24131884206D12C20044908817E
:100B00002A2048812B208881002000F039FB10BD6D
:100B10001C0100202DE9FF4F84B081468A46002049
:100B2000039002900698A0EB09050798A0EB0A062F
:100B3000CDF80490CDF800A0002D01DD012705E0DF
:100B40000DB9002702E04FF0FF376D42002E02DDA5
:100B50004FF0010806E016B94FF0000802E04FF030
:100B6000FF387642B54201DD2C4600E034464FF0B6
:100B7000000B21E0009A91B2019A90B200F022F8A5
:100B80000398284403900298304402900398A042AE
:100B900005DD0398001B03900198384401900298EA
:100BA000A04205DD0298001B02900098404400908E
:100BB0000BF101001FFA80FB601C8345DADD08B0F1
:100BC000BDE8F08F30B504460D462946204600F0BA
:100BD0004FFB00F0E3FC024800880249088030BD6A
:100BE000160000200008006C2DE9F04306460F4671
:100BF0009046002445460320A0EB48093CE07A1BC0
:100C000091B2321990B2FFF7DDFF3A1B91B272191F
:100C100090B2FFF7D7FF3A1991B2721990B2FFF76D
:100C2000D1FF7A1991B2321990B2FFF7CBFF7A193E
:100C300091B2321B90B2FFF7C5FF3A1991B2721B05
:100C400090B2FFF7BFFF7A1B91B2321B90B2FFF751
:100C5000B9FF3A1B91B2721B90B2FFF7B3FF641C4D
:100C6000B9F1000F03DAA000801D814404E0601B8D
:100C700080000A3081446D1EAC42C0DDBDE8F083C7
:100C800010B503460C460D49488900F081FC181246
:100C900000F078FCD8B200F075FC0849888900F0B3
:100CA00077FC201200F06EFCE0B200F06BFC034811
:100CB000008903490880881C028010BD1C010020A7
:100CC000FE07006C2DE9F04F05460E461746984684
:100CD000DDF824A04FF0000B781B401C1FFA80FBAE
:100CE000344613E02146284600F0C2FA00F056FCD4
:100CF0004FF0000906E00748A0F800A009F1010044
:100D00001FFA80F9D945F6DB601C84B24445E9DD61
:100D1000BDE8F08F0008006C10B5FE48406940F453
:100D20008070FC4948610846806940F0080088618D
:100D30000846806940F0200088610846806940F0DC
:100D4000400088610846806940F480708861F248FC
:100D5000006820F00F00F04908600846006840F085
:100D600003000860ED480068ED490840EB49086061
:100D700008460068EB490843E8490860081F006816
:100D800000F0FF20091F08600846006840F0BB1013
:100D90000860E54800680020E349086008460068EC
:100DA00040F0BB300860081F006820F07040091F49
:100DB00008600846006840F030400860DB48406842
:100DC00020F47020D94948600846406840F430203B
:100DD00048600846006820F00F0008600846006878
:100DE00040F00B00086000204FF020418861C8618E
:100DF000CF4908604FF02040806940F480504FF0A8
:100E0000204188610846806940F480408861084636
:100E1000806940F0100088610846C069C8610846D2
:100E2000C06940F00100C8610846C06940F47060C4
:100E3000C861BF480068C1F81C01BD480068C1F81E
:100E40001C010846D0F81C0140F44070C1F81C0198
:100E50000846806940F001008861322002F032F9D2
:100E6000002000F081F9B349888008468088FF2877
:100E70000ADB084680884FF6FF71884204D0AD48EF
:100E80008088B0F5134F1DD1D32000F081FB00F016
:100E900061F9A849888000F05DF9A649888000F0D2
:100EA00059F9A4498880084680884FF6FF7101EA05
:100EB0000020A049888000F04DF99E4989880843A8
:100EC0009C4988809B48808849F2413188427CD186
:100ED000CF2000F05DFB002000F054FBC12000F0AB
:100EE00051FB302000F04EFBED2000F051FB642060
:100EF00000F048FB032000F045FB122000F042FB0D
:100F0000812000F03FFBE82000F042FB852000F04C
:100F100039FB102000F036FB7A2000F033FBCB20A9
:100F200000F036FB392000F02DFB2C2000F02AFBCE
:100F3000002000F027FB342000F024FB022000F00A
:100F400021FBF72000F024FB202000F01BFBEA200F
:100F500000F01EFB002000F015FB002000F012FB4B
:100F6000C02000F015FB1B2000F00CFBC12000F09E
:100F70000FFB012000F006FBC52000F009FB30202C
:100F800000F000FB302000F0FDFAC72000F000FB6D
:100F9000B72000F0F7FA362000F0FAFA482000F007
:100FA000F1FA3A2000F0F4FA552000F0EBFAB12003
:100FB00000F0EEFA002000F0E5FA1A2000F0E2FA64
:100FC000B62000F0E5FA0A2000E097E000F0DAFA37
:100FD000A22000F0D7FAF22000F0DAFA002000F0A8
:100FE000D1FA262000F0D4FA012000F0CBFAE0205C
:100FF00000F0CEFA0F2000F0C5FA2A2000F0C2FA65
:10100000282000F0BFFA082000F0BCFA0E2000F003
:10101000B9FA082000F0B6FA542000F0B3FAA9207B
:1010200000F0B0FA432000F0ADFA0A2000F0AAFA6E
:101030000F2000F0A7FA002000F0A4FA002000F032
:10104000A1FA002000F09EFA002000F09BFAE120B7
:1010500000F09EFA002000F095FA152000F092FAB8
:10106000172000F08FFA072000F08CFA112000F012
:1010700089FA062000F086FA2B2000F083FA562029
:1010800000F080FA3C2000F07DFA052000F07AFAAA
:10109000102000F077FA0F2000F074FA3F2000F0E3
:1010A00071FA3F2000F06EFA0F2000F06BFA2B204F
:1010B00000F06EFA002000F065FA002000F062FAFD
:1010C000012000F05FFA3F2000F05CFA2A2000F0D7
:1010D0005FFA002000F056FA002000F053FA0020DA
:1010E00000F050FAEF2000F04DFA112000F050FA15
:1010F000782001F0E7FF292000F04AFA0020FFF7EE
:10110000D5FC01200C4908604FF6FF70FFF7B4FCD6
:1011100010BD000000100240000C0140041401400A
:1011200000F0FF00BB0B00BB041801400020014091
:101130001C0100A01C0100208081214210B5024644
:10114000012000E050430B00A1F10104E1B2F9D10C
:1011500010BD000008B5034800880090BDF80000ED
:1011600008BD00000008006C10B50446204600F0E1
:101170000FFA052001F0CEFFFFF7ECFF10BD0000D5
:1011800030B504460023002538488079012818D15D
:10119000082C15D2DFE804F00406080A0C0E101221
:1011A00006240DE007240BE0042409E0052407E0F1
:1011B000012405E0002403E0032401E0022400BF31
:1011C00000BF082C1CD2DFE804F00406090C0F1243
:1011D000151800BF14E043F0800311E043F0400312
:1011E0000EE043F0C0030BE043F0200308E043F0BF
:1011F000600305E043F0A00302E043F0E00300BF1A
:1012000000BF36251946284600F0D2F9174948890B
:1012100000F0BEF9002000F0B5F9002000F0B2F9AE
:1012200012490988491EC1F30F2000F0ABF90F499C
:101230000978491EC8B200F0A5F90C49888900F068
:10124000A7F9002000F09EF9002000F09BF9074963
:101250004988491EC1F30F2000F094F903498978A9
:10126000491EC8B200F08EF930BD00001C010020FC
:1012700000B502460B460A49488900F089F9101268
:1012800000F080F9D0B200F07DF90549888900F0BE
:101290007FF9181200F076F9D8B200F073F900BDAA
:1012A0001C0100202DE9F84F80460E4617461C46CB
:1012B000B3462046E31704EB5373DB1021464FEA95
:1012C000E47C04EB5C7C4FEAEC0CA4EBCC0CBCF1B2
:1012D000000F02D04FF0010C01E04FF0000C63440E
:1012E000224604EBD27C4FEA6C0C03FB0CF3DBB21E
:1012F0000093A7F12000C7B2002556E00C2C07D1BF
:1013000007EB47002B4901EB800010F8059013E034
:10131000102C05D1284800EB071010F805900BE0C1
:10132000182C07D107EBC700244901EB800010F807
:10133000059001E0BDE8F88F4FF0000A2FE009F0BA
:10134000800030B11E48028831464046FFF798FCC5
:1013500007E00A9828B91B48028831464046FFF743
:101360008FFC4FEA49604FEA1069701C86B216483C
:101370004088B04200DCDDE7A6EB0B00A0420AD1BA
:101380005E4608F101001FFA80F80F4800884045CA
:1013900000DCCFE706E00AF1010000F0FF0ABAF135
:1013A000080FCCDB00BF681CC5B200988542A5DBE6
:1013B00000BFBFE79E3F000812440008024A000831
:1013C00016000020180000201C0100202DE9FF4F0E
:1013D00081B0074691461E460E9D4FF0000A00243C
:1013E00039E0301B401EC1B20A20FFF7A7FEB9FB4F
:1013F000F0F00A21B0FBF1F201FB1208BAF1000F84
:1014000016D1701EA04213DDB8F1000F0ED10020DE
:10141000AB4605EBDB71491001FB0471009088B20B
:101420002B4620220299FFF73DFF12E04FF0010A00
:101430000020AB4605EBDB71491001FB0471009005
:1014400088B208F13001CAB22B460299FFF72AFF91
:1014500000BF601CC4B2B442C3DB05B0BDE8F08F6E
:101460002DE9F84704460D4690469946DDE909679F
:1014700004F0FF0A08EB04001FFA80F809EB0500EE
:101480001FFA80F916E0444502DB5446A81985B2DC
:101490004D4500DB14E0002000903A7833462946A1
:1014A0002046FFF7FFFE304606EBD07104EB6101EA
:1014B0008CB27F1C38787E2802DC38782028E2DA6B
:1014C00000BFBDE8F8872DE9FF4F82B0064692467F
:1014D0001F46DDE90F480020019000254DE0781BF4
:1014E000401EC1B20A20FFF729FEBAFBF0F00A2124
:1014F000B0FBF1F201FB1209019850BB781EA84223
:1015000027DDB9F1000F22D108F0800078B108F092
:101510000100A34604EBDB71491001FB056100905B
:1015200088B2234630220399FFF7BCFE0EE008F094
:101530000100A34604EBDB71491001FB056100903B
:1015400088B2234620220399FFF7ACFE13E0012066
:10155000019008F00100A34604EBDB71491001FB88
:101560000561009088B209F13001CAB2234603999F
:10157000FFF798FE00BF681CC5B2BD42AFDB06B0E6
:10158000BDE8F08F01490880704700000008006C3A
:101590000149088070470000FE07006C024800897E
:1015A00002490880704700001C010020FE07006C03
:1015B000024A1080921C118070470000FE07006CE8
:1015C0001248806940F004001049886110480068A2
:1015D000104908400E490860084600680E49084353
:1015E0000B4908600A480830006840F480700849D8
:1015F000083108600846006840F40060086008464A
:10160000006840F4805008607047000000100240FD
:1016100004080140F00FF0FF0330030010B504464A
:10162000412C26D108210846FEF772FF3D211120EA
:1016300001F00EFD8621172001F00AFD7F212620F2
:1016400001F006FD1E212D2001F002FD00212C20BD
:1016500001F0FEFC8D212A2001F0FAFC3E212B2016
:1016600001F0F6FC4FF47A7001F04AFD00F0D8F872
:1016700001E0012010BD0020FCE7000000B50020C3
:1016800015490861C8601420486100208861C8615C
:101690000846006840F001000860084640680F49AD
:1016A00008400D494860084600680D4908400A494D
:1016B00008600846006820F48020086008464068FA
:1016C00020F4FE0048600020886000214FF0006098
:1016D00000F058F800BD0000001002400000FFF8C4
:1016E000FFFFF6FE2DE9F0410746884614461D46E9
:1016F000284600F033F8C5F1040007FA00F60F2081
:10170000284100EA0800064306F00F06E21704EB42
:10171000D2625211920002F1E022D2F80021214659
:10172000E31704EBD3635B11A4EB431C012303FA1F
:101730000CF31A432046E31704EBD3635B119B00C1
:1017400003F1E023C3F800210348005D40EA0610DE
:1017500001490855BDE8F08100E400E00146072397
:1017600023EA01021202054B18684FF6FF031840E6
:10177000034B18431043014B186070470CED00E019
:101780000000FA05024A0A400243024B1A60704701
:1017900080FFFF1F08ED00E01B4A926942F008023B
:1017A000194B9A611A46D26942F00402DA61174A6B
:1017B000126822F00F02154B1A601A46126842F0A6
:1017C0000B021A60124A1080121F1180104A103A40
:1017D000128842F060020E4B103B1A801A461288A3
:1017E00042F008021A801A1D128842F480721B1DF2
:1017F0001A808022064B2C3B1A801A46128842F02F
:1018000001021A807047000000100240040C0140E1
:101810002C08004000B503211420FEF779FE00BD1E
:1018200010B5142000F0ACF9044604F0030018B918
:101830000321142000F0C4FA10BDF0B587B00546AE
:10184000002708210846FEF763FE00210D2001F065
:10185000FFFB80210E20FEF75BFE93208DF8040035
:1018600020208DF8050006A801AB022201A90090F6
:101870000C2000F045F8064686B9002407E001A8D0
:10188000005D285501A8005D4740601CC4B2042CCF
:10189000F5DB01A8005DB84200D0022680210E20B1
:1018A00000F08EFA304607B0F0BD2DE9F04187B068
:1018B00004460D4616461F468DF804408DF8055027
:1018C0003068CDF80600B088ADF80A00386803909B
:1018D00006A801AB0C2201A900900E2000F010F820
:1018E0008046B8F1000F05D1082000F049F900F05A
:1018F000080008B94FF00208404607B0BDE8F08183
:101900002DE9FE4F0646884691469A46DDF830B0EE
:10191000022002900020019000900C2E06D00E2E86
:1019200009D1122001901020009005E0772001904D
:101930003020009000E000BF00BF019840F080011F
:10194000022001F085FB80210420FEF7E1FD00214B
:10195000012001F07DFB80210A2000F031FA0025F2
:1019600006E018F80510092001F072FB681C85B22A
:101970004D45F6DB3146012001F06AFB0C2E03D108
:1019800080210D2000F01CFA4FF4167500BF0420D2
:1019900000F0F6F80446681E85B235B104F0010087
:1019A00018B9009820400028F1D080210D20FEF7C2
:1019B000AFFD002D38D0062000F0E2F800F01B004B
:1019C00078BB002002900198204000F0010008B18F
:1019D000012002900C2E27D10A2000F0D1F80446F5
:1019E0000C2000F0CDF800F007072FB1601E07EBC8
:1019F000C0008BF8000003E0E006000E8BF800004A
:101A000004B90124122C00DD1224002506E009206F
:101A100000F0B6F80AF80500681C85B2A542F6DBAE
:101A200002E0FFE70220029080210C2000F0C8F9BC
:101A30000021012001F00CFB0298BDE8FE8F70B57B
:101A400087B005460C4608210846FEF761FD0721D0
:101A50000D2001F0FDFA0321142000F0B1F98DF8FA
:101A6000045006A801AB012201A900900C20FFF749
:101A700047FF064656B99DF81800102806D19DF874
:101A8000040020709DF80500607000E002263046DA
:101A900007B070BD00B510201B4908600A2001F096
:101AA0002FFB10201849091D08600A2001F028FBAF
:101AB0001020154908600A2001F022FB0F210120A7
:101AC00001F0C6FA0F21012001F0C2FA0A2001F04C
:101AD00017FB3D21112001F0BBFA1E212D2001F042
:101AE000B7FA00212C2001F0B3FA8D212A2001F051
:101AF000AFFA3E212B2001F0ABFA4021152001F076
:101B0000A7FA002000BD00001008014070B587B0A2
:101B1000054693208DF8040070208DF80500002004
:101B20008DF80A0000240BE0295D01AAA01C1154C5
:101B30009DF80A00295D48408DF80A00601CC4B277
:101B4000042CF1DB0DF10B02072101A8FEF7AAFC22
:101B500008210846FEF7DCFC06A801AB092201A912
:101B600000900C20FFF7CCFE06462EB99DF8180019
:101B7000182801D1002600E00226304607B070BDCB
:101B800010B5024600240820094908607E2000EABA
:101B9000420040F08003184600F0FAF8002000F000
:101BA000F7F8044608200249091F0860204610BDC6
:101BB000140801402448806940F0010022498861EE
:101BC0000846806940F0040088610846806940F456
:101BD000805088611D480068C0F30B001B490860F5
:101BE000084600681A4908431849086019480088DF
:101BF000184908800846008840F4007008800846AC
:101C0000008840F4807008800846008840F0040096
:101C100008800846008808800846008820F00200F6
:101C200008800846008820F00100088008460088E7
:101C300040F0380008800846008808800846008880
:101C400040F040000880704700100240000801404A
:101C50000030B3B80030014000B52848806940F03A
:101C60000800264988610846C06940F48040C86180
:101C700023480068C0F31300214908600846006843
:101C8000204908431E4908601D480830006840F498
:101C900060401B49083108601B4800881A490880C9
:101CA0000846008840F4007008800846008840F428
:101CB000807008800846008840F0040008800846CC
:101CC000008808800846008840F002000880084626
:101CD000008840F0010008800846008840F01800A5
:101CE00008800846008808800846008840F04000C8
:101CF0000880FF2000F00AF800BD0000001002403C
:101D0000040C01400000B0BB003800400246002136
:101D100007E0481C81B24FF6FE70814201DB0020D3
:101D200070470F48008800F002000028F1D00C48EE
:101D3000001D0280002107E0481C81B24FF6FE70B2
:101D4000814201DB0020EBE70548008800F001003C
:101D50000028F1D00248001D0088C0B2E0E7000072
:101D60000838004000F00700084909884FF6C7729C
:101D70001140064A11801146098841EAC0011180CC
:101D80001146098841F04001118070470038004039
:101D9000014600BF0948008900F002000028F9D080
:101DA0000648818100BF0548008900F00100002835
:101DB000F9D002488089C0B270470000003001406D
:101DC00070B505460C4600262846FFF7D9FE0646A4
:101DD00046EA0401284601F03BF970BD2DE9FF4FAA
:101DE00093B007460D461C46AA462046E21704EB70
:101DF0005272D2102146E31704EB5373DB10A4EBAD
:101E0000C3030BB1012300E000231A44624302F034
:101E1000FF0B0C2C06D0102C04D0182C02D017B0BD
:101E2000BDE8F08F224601A91598FEF731FC002687
:101E30002FE001A810F806804FF0000923E008F019
:101E4000800030B11548028829463846FEF718FF51
:101E500007E0209828B91248028829463846FEF73C
:101E60000FFF4FEA48604FEA1068681C85B2A5EB87
:101E70000A00A04203D15546781C87B206E009F15A
:101E8000010000F0FF09B9F1080FD8DB00BF701C9A
:101E9000C6B25E45CDDB00BFC1E7000016000020E2
:101EA000180000202DE9FE4F07460E4691469A463F
:101EB000DDE90D4B0C9DB8460296002001904CE0E8
:101EC000019870BB2878802802DD0120019044E051
:101ED00004EBD47108EB0902A2EB6101B94202DA0A
:101EE000301986B2474602985044001BB04200DACF
:101EF00036E028780D2804D1301986B247466D1C8B
:101F000007E0CDF800B02A78234631463846FFF77F
:101F1000C9F96D1C204604EBD07107EB61018FB24B
:101F20001BE0FFE70020019008EB0900001BB8420E
:101F300002DA301986B2474602985044001BB0427C
:101F400000DA0DE023462A4631463846CDF800B087
:101F5000FFF744FFAD1C381987B228780028AFD1AD
:101F600000BFBDE8FE8F000030B504460025FFF736
:101F700085FB1F48006840F480301D49086000BFA1
:101F80001B480068400C0028FAD04FF480601849C4
:101F90004860A01EC4B20846406840EA84404860D9
:101FA0000846406840F4803048601248006840F0BD
:101FB0003200104908600E48006840F080700C49FB
:101FC000086000BF0A480068400E0028FAD00848A0
:101FD000406840F002000649486005E00448406857
:101FE000C0F3870505F00305022DF7D130BD0000D1
:101FF00000100240002002402DE9FC5F04460D461F
:1020000017461E46DDE90EABDDE90C894FF478403A
:102010005749088057A01021CDE900105648438841
:102020000288A0212820FFF71BFA54A01021CDE937
:102030000010514843880288A0217820FFF710FA49
:102040004FA01021CDE900104B4843880288B421ED
:102050002820FFF705FA4BA01021CDE900104648D3
:1020600043880288B4217820FFF7FAF946A01021AE
:10207000CDE90010404843880288C8212820FFF796
:10208000EFF942A01021CDE900103B4843880288B7
:10209000C8217820FFF7E4F93DA01021CDE9001018
:1020A000354843880288DC212820FFF7D9F939A078
:1020B0001021CDE90010304843880288DC217820C7
:1020C000FFF7CEF934A01021CDE900102A4843884B
:1020D0000288F0212820FFF7C3F9102004232246AC
:1020E000A02100904020FFF771F9102004232A4618
:1020F000A02100909020FFF769F9102004233A46B0
:10210000B42100904020FFF761F9102004233246EB
:10211000B42100909020FFF759F910200423424683
:10212000C82100904020FFF751F9102004234A46AF
:10213000C82100909020FFF749F91020042352464F
:10214000DC2100904020FFF741F9102004235A467B
:10215000DC2100909020FFF739F910200323009034
:10216000F0216020109AFFF731F9BDE8FC9F0000D4
:102170001600002078313A001C01002079313A0025
:1021800078323A0079323A0078333A0079333A00BB
:1021900078343A0079343A006661632069733A0012
:1021A00000B597B0002012900B9012901F20FE49AE
:1021B00008804FF6FF70FD490880FEF75DFC4FF484
:1021C0007840F94908804FF6FF70FEF755FC002073
:1021D000F54908801821F64A12686423CDE90021E8
:1021E0000290A02228210846FFF75CFE4FF47842B7
:1021F0001421084600F00AFC0020EE4981F8200076
:1022000048624FF4FA7000F05DFFFAE3E948406875
:102210000A9001200A998847E64890F8200000F0CB
:10222000C00040286FD100200B90E24890F82000B9
:1022300020F04000DF4981F820000846818913AA78
:10224000129822F82010DB48C18A129802EB800015
:1022500041801298401CC0B212901298012806D0FA
:10226000022815D0032829D0042810D141E04FF6C8
:10227000FF721421084600F0C9FBCF4800881438CB
:1022800080B24FF4784214210A9000F0BFFB7FE344
:10229000C9480088143880B24FF6FF7214210A90A2
:1022A00000F0B4FBC4484088143880B24FF4784240
:1022B00001460A90142000F0A9FB69E3BE4840885B
:1022C000143880B24FF6FF7201460A90142000F0D5
:1022D0009DFBB9484088143880B20A90B6480088FF
:1022E000143880B24FF4784209900A9900F08EFBBE
:1022F0004EE3BDF84C00BDF85010401A0A9000287B
:1023000002DB0A9802E044E30A9840420F90BDF8CD
:102310004E1013A8C088081A0A90002801DB0A98FA
:1023200001E00A9840420E900F9840430F900E989B
:1023300040430E90DDE90E100844059001F0C3F80B
:10234000CDE9060100F0F2FFCDE9080101F08EF8B9
:1023500080B21190BDF85400BDF85810401A0A9090
:10236000002801DB0A9801E00A9840420F9013A868
:102370004189C089081A0A90002801DB0A9801E007
:102380000A9840420E900F9840430F900E98404399
:102390000E90DDE90E100844059001F094F8CDE9A7
:1023A000060100F0C3FFCDE9080101F05FF880B23B
:1023B0001090109801F094FC0990119801F090FC95
:1023C0000890099901F076FB0A9001F0E5FACDE951
:1023D0000C014FF06632794BDDE90C0101F086F813
:1023E0000AD3774A774BDDE90C0101F0B9F903D341
:1023F000119808B11098E8BB002012906E484088F0
:10240000143880B20A906C480088143880B24FF6B5
:10241000FF7209900A9900F0F9FA4FF478421421FA
:10242000084600F0F3FA0022674BDDE90C0101F0E9
:1024300099F8CDE9080101F019F880B213A90A90C2
:10244000C989BDF8582013AB5B89CDE90132CDE9CC
:102450000310BDF85400009013A8C0880990BDF87F
:1024600050000890BDF84E000790BDF84C00069053
:1024700007A900E003E00EC9FFF7BEFDC1E2BDF809
:102480004C00BDF85410401A0A90002801DB0A984D
:1024900001E00A9840420F90BDF84E1013A8408901
:1024A000081A0A90002801DB0A9801E00A984042C5
:1024B0000E900F9840430F900E9840430E90DDE928
:1024C0000E100844059000F0FEFFCDE9060100F073
:1024D0002DFFCDE9080100F0C9FF80B21190BDF8D1
:1024E0005000BDF85810401A0A90002801DB0A98E5
:1024F00001E00A9840420F9013A8C188C089081AC9
:102500000A90002801DB0A9801E00A9840420E90E8
:102510000F9840430F900E9840430E90DDE90E1047
:102520000844059000F0CFFFCDE9060100F0FEFE63
:10253000CDE9080100F09AFF80B21090109801F0E8
:10254000CFFB0990119801F0CBFB0890099901F09D
:10255000B1FA0A9001F020FACDE90C014FF0663291
:10256000164BDDE90C0100F0C1FF06D3144A154BF0
:10257000DDE90C0101F0F4F855D2002012900E486C
:102580004088143880B20A900B480088143880B212
:102590004FF6FF7209900A9900F038FA4FF478422A
:1025A0001421084612E00000160000201800002048
:1025B000605700081C0000201C0100206666EE3FEA
:1025C000CDCCCCCCCCCCF03F0000594000F01EFA72
:1025D0000022F74BDDE90C0100F0C4FFCDE9080152
:1025E00000F044FF80B201460A9013A8C289BDF8EA
:1025F000580013AB5B89CDE90130CDE90321BDF86B
:102600005400009013A8C0880990BDF850000890AD
:10261000BDF84E000790BDF84C00069007A90EC902
:10262000FFF7EAFCEDE1BDF85000BDF85410401A88
:102630000A90002801DB0A9801E00A9840420F90B6
:1026400013A8C1884089081A0A90002801DB0A985B
:1026500001E00A9840420E900F9840430F900E9868
:1026600040430E90DDE90E100844059000F02BFF6A
:10267000CDE9060100F05AFECDE9080100F0F6FEB2
:1026800080B21190BDF84C00BDF85810401A0A9065
:10269000002801DB0A9801E00A9840420F90BDF83B
:1026A0004E1013A8C089081A0A90002801DB0A9866
:1026B00001E00A9840420E900F9840430F900E9808
:1026C00040430E90DDE90E100844059000F0FBFE3B
:1026D000CDE9060100F02AFECDE9080100F0C6FEB2
:1026E00080B21090109801F0FBFA0990119801F057
:1026F000F7FA0890099901F0DDF90A9001F04CF918
:10270000CDE90C014FF06632AA4BDDE90C0100F077
:10271000EDFE06D3A84AA94BDDE90C0101F020F833
:1027200040D200201290A6484088143880B20A9007
:10273000A3480088143880B24FF6FF7209900A99B6
:1027400000F064F94FF478421421084600F05EF975
:102750000022974BDDE90C0100F004FFCDE90801F0
:1027600000F084FE80B213A90A90C989BDF85820F0
:1027700013AB5B89CDE90132CDE90310BDF85400FC
:10278000009013A8C0880990BDF850000890BDF8CB
:102790004E000790BDF84C00069007A90EC9FFF740
:1027A0002BFC2EE1BDF85000BDF84C10401A0890EB
:1027B00001F07EFA0A90824800882838089001F0DB
:1027C00077FA09900A9901F075F97E494862BDF8D7
:1027D0005000BDF84C100844059001F069FA0690CD
:1027E0007848406A01460590069801F08DFA0890F5
:1027F00073480088069001F073FA0790089901F079
:1028000059FB4FF08041099001F054F90A9001F012
:1028100013FA00B26B49888513A84089BDF84E10A1
:10282000401A089001F044FA0A9065484088283818
:10283000089001F03DFA09900A9901F03BF96149CD
:10284000886213A84089BDF84E100844059001F035
:102850002FFA06905B48806A01460590069801F0C1
:1028600053FA089056484088069001F039FA0790CC
:10287000089901F01FFB4FF08041099001F01AF90F
:102880000A9001F0D9F900B24E49C8850846406A5D
:10289000089001F0D1F90990002801DB099801E0C6
:1028A0000998404202280DDC4648806A089001F0F1
:1028B000C3F90A90002801DB0A9801E00A98404217
:1028C000022842DD002012903D484088143880B232
:1028D0000A903B480088143880B24FF6FF72099086
:1028E0000A9900F093F84FF478421421084600F05A
:1028F0008DF835A01021CDE90010314840880A90AC
:102900002F480088099002461A2128200A9BFEF7CA
:10291000A7FD2C4890F8300008B9012000E0002005
:10292000284981F83000084690F8300030B19020F6
:102930002A490870D0202A49087005E0D02027498C
:1029400008709020264908705BE01F202549088008
:102950004FF6FF70FEF790F823A01021CDE900108C
:10296000174840880A9016480088099002466E2150
:1029700023200A9BFEF774FD4FF47A7000F0A2FB4F
:1029800000F0F4F94FF6FF70FEF776F817B000BDCF
:1029900000BF0A2000F096FB0B98401C80B20B9001
:1029A0000B98B0F57A7F2BDD00F068F82AE0000084
:1029B000000059406666EE3FCDCCCCCCCCCCF03F8D
:1029C0001C0100201C0000205450204E656564202E
:1029D000726561646A757374210000005000002004
:1029E0005100002016000020546F75636820536367
:1029F0007265656E2041646A757374204F4B2100C7
:102A000000BF03E400BF00BFC0E7000070B504468C
:102A10000D4616461848068004F10D018AB2193990
:102A200088B22B462946FEF775F805F10D0083B2F2
:102A3000193881B222462046FEF76CF86A1C91B222
:102A4000621C90B2FEF7BEF86A1C91B2621E90B290
:102A5000FEF7B8F86A1E91B2621C90B2FEF7B2F8A7
:102A60006A1E91B2621E90B2FEF7ACF806222946A9
:102A70002046FEF7B9F870BD1600002010B53620CC
:102A8000FDF716FC04460A2C18D10E220C4928200A
:102A9000FDF7FDFB0A48243890F8300030B1902053
:102AA00008490870D0200849087005E0D020054981
:102AB0000870902004490870012010BD0020FCE738
:102AC00040000020500000205100002010B5244894
:102AD000806940F00800224988610846806940F01A
:102AE000800088611F48006820F0F0001D490860E0
:102AF0000846006840F0300008601A480C30006852
:102B000040F0060017490C310860174800686FF361
:102B10000F00154908600846006843F6380108436D
:102B20001149086010480830006840F460600E49A0
:102B3000083108600D49A1F10A0000F09FF8FDF787
:102B4000A2FBFFF79BFF08B1002010BD4FF6FF70FE
:102B5000FDF792FFFFF724FBFFF790FF0120F4E75A
:102B600000100240000C0140041C01403200002013
:102B700070B506460025002400201E4908601E4945
:102B8000C1F8A4011D490860304600F085F906200F
:102B900000F0C0FA00201A49C1F88401012000F0B9
:102BA000B9FA01201349086000F0B4FA0020144972
:102BB000C1F8840100BF15E04FF6FF7000EA44043D
:102BC00000200C490860012000F0A4FA01200C4903
:102BD000C1F8840109488C38006808B1601C84B2CF
:102BE000681CC5B2102DE7DB2411012003490860E1
:102BF000204670BD8481214200802342AC81234263
:102C0000008021422DE9FE4380460027002406E093
:102C10004046FFF7ADFF2DF81400601C84B2052C70
:102C2000F6DB002416E0601C85B20FE03DF81400CE
:102C30003DF81510884207DD3DF814603DF8150099
:102C40002DF814002DF81560681C85B2052DEDDBFC
:102C5000601C84B2042CE6DB0027012405E03DF86B
:102C60001400384487B2601C84B2042CF7DB0320C4
:102C700097FBF0F086B23046BDE8FE832DE9F041C7
:102C800004460D4607480078FFF7BCFF0646064895
:102C90000078FFF7B7FF074626802F800120BDE8A8
:102CA000F081000050000020510000207FB5044654
:102CB0000D4602A903A8FFF7E1FF064616B900205A
:102CC00004B070BD694601A8FFF7D8FF06460EB9EB
:102CD0000020F5E7BDF80400BDF80C10884206DCC2
:102CE000BDF80C10BDF80400323081420CDBBDF899
:102CF0000C00BDF80410884236DCBDF80410BDF8A5
:102D00000C00323081422FDABDF80000BDF8081007
:102D1000884206DCBDF80810BDF800003230814260
:102D20000CDBBDF80800BDF8001088421CDCBDF8C3
:102D30000010BDF808003230814215DABDF80C10E1
:102D4000BDF80420881800EBD071C1F34F01218039
:102D5000BDF80810BDF80020881800EBD071C1F351
:102D60004F0129800120ABE70020A9E710B50E2212
:102D700004492820FDF7C8FA0A213620FDF7D6FAC3
:102D800010BD0000400000202DE9F04104464048FD
:102D90000068002856D12CB13E49A1F10A00FFF786
:102DA00085FF3DE03B49A1F10A00FFF77FFFB8B383
:102DB00038491639B1F92C0000F07AFF0746354939
:102DC0001639888900F08CFF804632481638416AEF
:102DD000404600F099FF0646394600F009FE0546D8
:102DE00000F046FF2B4916398881B1F92E0000F01A
:102DF0005FFF074627491639C88A00F071FF8046F1
:102E000024481638816A404600F07EFF064639465F
:102E100000F0EEFD054600F02BFF1E491639C88272
:102E20001C48163890F8200000F0800038BBC02005
:102E30001849163981F82000084681898182C18AA3
:102E4000C1831CE01348163890F8200000F0800081
:102E500050B11048163890F8200020F080000D493D
:102E6000163981F820000AE000210A4816388182CC
:102E7000C1834FF6FF70074916398881C88205481B
:102E8000163890F8200000F08000BDE8F0810000C6
:102E9000288123423200002070B50446002500BF7F
:102EA00017E004F0800018B101200B49086002E02F
:102EB0000020094908606006040E002007490860E8
:102EC000012000F027F901200549C1F88401681CA0
:102ED000C5B2082DE5DB70BDA48123428481214267
:102EE000008021421D49098801F0200111B31B49CE
:102EF000091D0988C8B21A49098801F40041C9B9F5
:102F00001749098801F4804161B10A2803D00021E2
:102F1000134A118020E01249098841F40041104A07
:102F2000118019E00D2806D10D49098841F480412E
:102F30000B4A118010E00A490988C1F30D01094AC2
:102F4000505407490988491C054A118011460988CF
:102F5000C72901DD002111807047000000380140C1
:102F6000140000205400002010B50F48806940F084
:102F700008000D4988610D48006820F470200B4955
:102F800008600846006840F44030086001200849A5
:102F90000860FEF761FE0020FEF7E4FE00F034F862
:102FA0000449088010BD000000100240040C0140DC
:102FB000B0812142520000202DE9F04106460C4626
:102FC000174600200F4908600320FEF79FFEC4F358
:102FD0000740FEF79BFEC4F30720FEF797FEE0B222
:102FE000FEF794FE002505E0FF20FEF78FFE7055EA
:102FF000681C85B2BD42F7DB012002490860BDE8CC
:10300000F0810000B081214210B5002400200E495B
:1030100008609020FEF77AFE0020FEF777FE002081
:10302000FEF774FE0020FEF771FEFF20FEF76EFE35
:1030300044EA0024FF20FEF769FE0443012003490F
:10304000C1F8B001204610BDB0812142008021426C
:1030500010B502460B460820074908607E2000EAAA
:1030600042042046FEF794FE1846FEF791FE082023
:103070000149091F086010BD14080140014600BF46
:10308000704700004FF0E021096921F004014FF082
:10309000E0221161C21700EB5272C2F3C702074B64
:1030A0001A701946097801EB4102C2EBC1114FF6C3
:1030B000FF7202EAC101024A118070470C00002031
:1030C0000E00002001460D4A12884A434FF0E023CB
:1030D0005A6100229A6101221A6100BF4FF0E0227A
:1030E000106900F001021AB100F48032002AF5D014
:1030F00000224FF0E0231A619A6170470E00002011
:10310000002103E000BF00BF00BF491C8142F9D38A
:103110007047000001460D4A12784A434FF0E02301
:103120005A6100229A6101221A6100BF4FF0E02229
:10313000106900F001021AB100F48032002AF5D0C3
:1031400000224FF0E0231A619A6170470C000020C2
:1031500010B50024FFF708FF0FE0601CC4B2212265
:103160004FF440010A48FFF727FF09480078AA28D2
:1031700000D104E01420FFF7A5FF0A2CEDDB00BF0F
:1031800003480078AA2801D0012010BD0020FCE7E8
:103190002A0100200EB50920FEF7E6FE4820FFF7C1
:1031A00071FF4FF4E131482000F0E6F841F61F418D
:1031B000C820FEF7F1FAFDF7AFFDFFF7D5FE4E4947
:1031C0000868804700BFFFF7C3FF0028FBD1FDF769
:1031D00027FCFDF7D3F80020182148A20B46CDE9C3
:1031E000002102903022C8219620FEF75BFEFEF7F8
:1031F000E7F9FDF723FC18E042A010210B46C82296
:10320000CDE9001082213C20FEF72AF9C820FFF703
:1032100059FF4FF6FF709223EF22822100903C204D
:10322000FDF750FDC820FFF74DFFFDF7B1F900286D
:10323000E2D160E037495220FEF701FC054625B98E
:1032400002253548FEF7F9FA054625B90225324828
:10325000FEF75CFC05463DB902252F4B2F4A06219F
:103260006120FEF722FB05468DB9022500240CE003
:10327000102000902848025D742000EB0411032305
:103280000020FEF7A3F8601CC4B2042CF0DB5DB98B
:103290000225102000902048025D742000EB0411EC
:1032A00003230020FEF792F80A210120FDF7D8F948
:1032B00006460020102104233246CDE90010822169
:1032C0007E20FEF700F916480068012807D115494D
:1032D00008601549C1F8AC01124910310860104866
:1032E000006840B900200F4908600F49C1F8AC01DF
:1032F0000C49103108609DE71C000020D0A3D7BC0A
:103300000000000044533138423230204572726F61
:1033100072000000000000200200002006000020D3
:1033200004012242A0012142000021422DE9F04186
:1033300006460F4600F04AFA04000D4618BF012069
:10334000284320F00040C0F17F6000F1E040C00F52
:103350000ED0301C18BF0120384320F00040C0F1CF
:103360007F6000F1E040C00F04BF0120FCF752FF76
:1033700020462946BDE8F0812DE9F05F05460E465E
:10338000300100F0ADFC81462E4905FB01F000F054
:10339000A7FC8246494600F08DFB0746384600F000
:1033A00067FC84B2204600F09BFC8346394600F05F
:1033B00077FD82464FF0834100F0A6FC814600F085
:1033C00057FC80464FF6FF7000EA041404EB080037
:1033D00084B21D48806940F004001B49886108469A
:1033E000806940F4804088611848006820F47F605C
:1033F000164908600846006840F40B6008601248EF
:10340000C06840F480401049C8600846C06820F495
:103410008040C8600E480480001D008842F20C0104
:1034200008430B49091D08800846008840F0200029
:1034300008800223252203210846FEF753F9BDE840
:10344000F09F000040420F000010024004080140BD
:1034500008380140491058BFC1F140415B1058BFC6
:10346000C3F140438B42EFF3008070474FEA1153A2
:10347000A3F58063D3F11E03A8BFD3F1200C08DBB2
:103480004FF0004242EAC12252EA505232FA03F0AF
:10349000704709420BD4102BC4BF0020704703F5BE
:1034A000787CBCF1FF3F05D04FF0FF3070474FF004
:1034B0000000704770B500F0FFF800BF499224800B
:1034C00000207047F0E7B0FA80F310FA03F10AD059
:1034D000C3F11D0303F580634FEA41504FEA0352E5
:1034E00002EBD12170474FF00000704751EA030C06
:1034F00017D41CF5801F58BFBCF5801F00F1068053
:10350000994218BF704708BF9042704707D711F51E
:10351000801F58BF13F5801F19D499427047894204
:1035200070471CF5801F08D5BCF5801FF7D58B426E
:1035300018BF704708BF824270474FF4001C1CEB55
:10354000410F38BF1CEB430F01D28B42704770B55F
:1035500000F0B2F8922449004FF000514FF0805330
:10356000FFF778BFDFF848C170B51CEA111E1EBF17
:103570001CEA13159EEA0C0F95EA0C0F00F06F8001
:1035800081EA030423EA4C134EEAD47E21EA4C116B
:1035900041F4801143F48013AE44A1FB024CA0FB24
:1035A0000365AEF17F7E361955EB0C05A1FB034C8C
:1035B0004CF10003A0FB021C16EB0C06654153F115
:1035C0000003094218BF46F0010613F4007F0BD137
:1035D0004FEA03314FEA0530340341EA155140EA1E
:1035E00016506FF003020AE04FEAC3214FEAC520EC
:1035F000F40241EA555140EA56506FF0020202EBE4
:103600002E4201EB025585EACE710AD05FEA440CE6
:1036100018BF24F0004450F1000041F1000120EAFD
:10362000D47040F2FE7C624500D270BDA84214BF47
:103630004FF080444FF04044002E08BF0024BEF1FC
:10364000806FA8BFA1F1C041BDE8704080F28280C8
:103650004FF0000001F1C04101F0004170479EEAC7
:103660000C0F0CEA131518BF95EA0C0F06D04FF09B
:10367000000081EA030E0EF0004170BD00F01CF85E
:103680008900013E00F007B800F009B84FEA430C8A
:103690005FEA5C5C08D081EA030100F05BB84FEAA6
:1036A000410C5FEA5C5CF6D14FF0000001497047C5
:1036B0000000FF070000F87F0EF1020E2EF0030E4F
:1036C0005EF8046B364205D4012A43EB030515F579
:1036D000001F12D8012841EB010C1CF5001F0CD86B
:1036E0000ED14FEAD17C15F5001F0CEB4C0C0CF100
:1036F000020C08BF4CEBD37C04E04FF0080C01E057
:103700004FEAD37C0CEB4C0526FA05F606F00706CB
:10371000B6F1040C06D20EEB860CBDE870404CF0FE
:10372000010C6047DFE80CF0090B02024FF000418A
:103730004FF00000A1F5002170BD19461046012888
:1037400051EB010418BFD4F5001484BF002001F030
:10375000004170BD0808A0F500114FEA3101704723
:1037600053EA010C17D41CF5801F58BFBCF5801F0D
:1037700000F106808B4218BF704708BF8242704735
:1037800007D713F5801F58BF11F5801F19D48B423E
:1037900070479B4270471CF5801F08D5BCF5801F01
:1037A000F7D5994218BF704708BF904270474FF451
:1037B000001C1CEB430F38BF1CEB410F01D2994298
:1037C00070470FB40CBC03BCFFF7C1BE2DE9F0413C
:1037D00001F5801CBCF5001FC0F2C3804FEA115CEC
:1037E00021EA0C510CF1FD0C41F480115FEA5C0CF4
:1037F0000CF5C07C01D3400049413DA4890241EA57
:10380000905187028E0E0A0CA45D04FB04F602FBA5
:1038100006F6C6F14046A4FB0662F60D46EA4226CD
:1038200006FB06F4A4FB01235242C3F1404338BF18
:103830005B1EA6FB02420024E6FB0324D20B42EAF5
:103840004446A6FB0623A1FB02E2A3FB07E4A4185F
:103850004FF0000252F10002E3FB01426442C2F168
:10386000404E38BFAEF1010EA6FB04234FF000021C
:10387000E6FB0E32A2FB03464FF00004B61954F1EA
:103880000004E2FB0264A1FB06E6A4FB07E816EBDA
:1038900008064FF0000858F10008E4FB0168764282
:1038A000C8F1405838BFA8F10108A2FB06E4A3FB09
:1038B00008E52D194FF0000454F10004E2FB085410
:1038C000A1FB05E6A7FB04E818EB06084FF000068D
:1038D00056F10006E1FB048618F1200556F10006BA
:1038E000A809A8F11B08B10908F03F08B8F10A0FB0
:1038F00040EA86601CD901EB0C51BDE8F08100BFA5
:10390000FCF5EEE8E2DDD8D3CFCBC7C3C0BDB9B676
:10391000B4B1AEACA9A7A5A3A19F9D9B9A9896957B
:103920009392908F8D8C8B89888786858483828102
:10393000A0FB006800FB01F208EB4208B8EB872807
:1039400007D5341858EB0104D5D5401C51F10001BE
:10395000D1E7341A78EB0104CDD4401E71F1000197
:10396000C9E75FEA4C0C5FEA9C5C0DD105D34FF0D0
:10397000000001F00041BDE8F081BDE8F04170B504
:10398000FFF79AFE6DDBFFBEBDE8F0414FF000008F
:10399000004970470000F87F43004FEAD30C4FEA1C
:1039A0003C0C43401FBF40070CF1605113F0FE4F29
:1039B00070471CF0006F03D100200CF000417047ED
:1039C0000CF0004343EA507010B540EACC0000F020
:1039D0001CFA00BF000000924FEA0001FFF7BABED8
:1039E0004FF000414FF00000A1F5002170470000AA
:1039F00090EA010F48BF81F0004100F16282421A53
:103A00003CBF801A89184FEAD0524FF07F4C1CEA15
:103A1000410FA2EBD15318BF9CEA026F00F03B802C
:103A20004FF0004C4CEA00204CEA012121FA03FC43
:103A300010EB0C0C1ED202F1FF325FEA1C2040EBAF
:103A4000C25038BF70471CF07F0F4FEA400C18BFC0
:103A5000BCF17F4F38BF7047C3F12003994008BFC6
:103A600020F00100BCF17F4F38BF7047A0F1C0408B
:103A700000F011BA4FEA3C00000A40EBC25028BFE8
:103A80001CF0FF0F4FEA400CE6D018BFBCF17F4F8F
:103A900038BF7047EAE79CEA026F05D010EA5C0F76
:103AA00008BF00F00040704710B500F0AEF900BF4D
:103AB00064FBBE3E4FF47F0C1CEAD0121EBF1CEA12
:103AC000D11392EA0C0F93EA0C0F00F0858090EA74
:103AD000010F48BF42F4807240F4000C41F4000032
:103AE0002CF07F4120F07F4000B58142A2EB030221
:103AF0000FF2081CACEB504EC0F100009EF800E045
:103B00004FEA4E0E00FB0EFC38BF49004FEA2C1C5A
:103B100002F5FA020CFB0EF34FEACE1E4FEA112C0F
:103B20004FEAC1210EEB635E42EB22420EFB0CFC1E
:103B30004FEA1C5300FB03114FEA112C4FEA0131ED
:103B40000EFB0CFC4FEADC4C00FB0C11C14228BF01
:103B500009184CEB03335DF804EB10EB410143EB28
:103B6000C250B2F57C0F38BF704729D512F0F00F64
:103B70001CBF00F1C04000F000407047008182830C
:103B80008485868788898B8C8D8E8F91929395966C
:103B900097999A9C9D9FA0A2A3A5A7A8AAACAEB0F6
:103BA000B2B3B5B7B9BCBEC0C2C5C7C9CCCED1D4FB
:103BB000D7D9DCDFE2E6E9ECF0F3F7FAFE0000002B
:103BC0004FEA400C0CF1807CBCF17E4F28BF70475F
:103BD000B0F1C04000F05FB990EA010F0CEAD113D8
:103BE00048BF42F48072624538BF634507D213F480
:103BF0007F0F16D080EA010000F00040704710B53A
:103C000000F003F9097EFC3E00F005B880EA0100EF
:103C100000F00040704780EA010000F0004000F032
:103C20003AB912F47F0F04BF0248704780EA0100DE
:103C300000F031B90000C07F41000B0ED3F19E02AD
:103C400008D950F400034FEA032323FA02F048BFD7
:103C50004042704710B500F0D8F800BF4992248068
:103C6000002070476FF0004282EA20007047000099
:103C7000C10DD1F19E0206DB4FEA002343F0004361
:103C800023FA02F07047004207D54FEA4001B1F134
:103C9000FE4F02D24FF00000704710B500F0B5F8AB
:103CA00049922480002070476FEA2000704700008E
:103CB00010F0004148BF4042B0FA80F310FA03F21E
:103CC000C3F19D030BD051EAC35101EB12205306FF
:103CD00038BF704700F1010008BF20F001007047B5
:103CE000B0FA80F310FA03F2C3F19D030AD0D905AC
:103CF00001EB1220530638BF704700F1010008BFE6
:103D000020F00100704700004FF47F0C1CEAD01235
:103D10001EBF1CEAD11392EA0C0F93EA0C0F00F0BD
:103D2000478090EA010F48BF42F480724FF0004C88
:103D30004CEA00204CEA012102EB0302A0FB011334
:103D4000A2F50002002918BF43F001035B0028BF61
:103D50004FEA330342EB22425FEA132C4CEBC25092
:103D60002EBFBCEB436FB2F57C0F70474FEA036C7C
:103D7000BCF1004F08BF20F00100B2F57C0F38BF46
:103D800070470BD582F0FF0212F5803FC8BF704725
:103D900000F1C040D8BF00F00040704700F5000CB3
:103DA0005FEA4C0C48BF7047B0F1C04000F073B8F8
:103DB00090EA010F0CEAD11348BF42F480726245C9
:103DC00038BF634504D280EA010000F0004070472C
:103DD00010B500F01AF800BF8900013E00F007B8E6
:103DE00000F009B85FEA410C5FEA1C6C08D080EA79
:103DF000010000F050B85FEA400C5FEA1C6CF6D19D
:103E00004FF00040A0F5800070470EF1020E2EF03A
:103E1000030E5EF8044B244204D44FEA4102B2F18F
:103E20007F4F11D84FEA4003B3F17F4F0CD80ED12A
:103E30004FEAD07CB2F17F4F0CEB4C0C0CF1020C32
:103E400008BF4CEBD17C04E04FF0080C01E04FEAD6
:103E5000D17C0CEB4C0324FA03F404F00704B4F116
:103E6000040C06D20EEB840CBDE810404CF0010CA3
:103E70006047DFE80CF0070802024FF00040A0F5B1
:103E8000800010BD0846420018BFD2F1807288BF82
:103E900000F0004010BDFF2141EAD050C00570473E
:103EA00080F0004090EA010F7FF5A9AD81F000415C
:103EB00000F007B890EA010F48BF81F000413FF5DC
:103EC0009EAD421A04D882F00042A0EB02001144D9
:103ED0004FEAD0524FF07F4C1CEA410FA2EBD15376
:103EE00018BF9CEA026F4AD04FF0004C4CEA002009
:103EF0004CEA012121FA03FCB0EB0C0C0FD412F0B8
:103F0000FE0F36D05FEA4C001DD5001240EBC250C8
:103F100038BF70471CF03F0F18BF70470BE0A2F18D
:103F200001025FEA1C2040EBC25038BF70471CF012
:103F30007F0F18BF7047C3F12003994014BF401E84
:103F400020F00100704780084FEA122308BF704735
:103F5000B0FA80FCA2EB0C02CCF1280C60FA0CF059
:103F600093EA122F04BF00EBC25070474FEAC370B0
:103F70007047130A5FEADC1008BF7047F6E79CEA57
:103F8000026F04D010EA5C0F08BF0020704710B524
:103F9000FFF73BFF40DFF63E81F000407047000036
:103FA00000000000000000000000000000003F4092
:103FB0000000000000000000300040003000400021
:103FC000000009000BC03D000BC03D00090018C0F7
:103FD00024407FE0224031800000180024C01B00F4
:103FE0000D803240018003801C4027401C80074028
:103FF0000040100060000000000000000000000011
:10400000000000001F802040402000004020204091
:104010001F8000000000090006001F800600090044
:104020000000040004003F800400040000000010B1
:104030000060000000000000000004000400040014
:104040000400040000000000004000000000000028
:104050000000002001C006003800400000001F8062
:104060002040204020401F800000000010403FC042
:1040700000400000000018C02140224024401840A9
:10408000000010802040244024401B8000000200DB
:104090000D0011003FC0014000003C80244024403E
:1040A0002440238000001F802440244034400380AB
:1040B00000003000200027C03800200000001B80D6
:1040C0002440244024401B8000001C0022C02240C9
:1040D00022401F8000000000000008400000000097
:1040E000000000000000046000000000000000006C
:1040F00004000A0011002080404009000900090066
:1041000009000900000000004040208011000A0062
:1041100004001800200023402400180000001F8025
:104120002040274029401F400000004007C03900C0
:104130000F0001C0004020403FC0244024401B80AD
:1041400000001F80204020402040308000002040A0
:104150003FC0204020401F80000020403FC024403E
:104160002E4030C0000020403FC024402E003000D0
:1041700000000F00108020402240338002002040C9
:104180003FC0040004003FC02040204020403FC00A
:104190002040204000000060202020203FC0200060
:1041A000200020403FC024400B0030C02040204071
:1041B0003FC020400040004000C03FC03C0003C062
:1041C0003C003FC0000020403FC00C4023003FC0E7
:1041D00020001F802040204020401F800000204001
:1041E0003FC024402400180000001F8021402140CF
:1041F00020E01FA0000020403FC02440260019C03E
:10420000004018C02440244022403180000030008B
:1042100020403FC020403000000020003F80004090
:1042200000403F80200020003E0001C00700380011
:104230002000380007C03C0007C0380000002040C4
:1042400039C0060039C0204000002000384007C0B7
:10425000384020000000304021C02640384020C0B7
:104260000000000000007FE040204020000000002F
:1042700070000C000380004000000000402040203F
:104280007FE000000000000020004000200000004F
:1042900000000010001000100010001000100000BE
:1042A0000000400000000000000000000280054007
:1042B000054003C0004020003FC00440044003808C
:1042C000000000000380044004400640000000009D
:1042D0000380044024403FC00040000003800540AC
:1042E000054003400000000004401FC0244024405B
:1042F0002000000002E00550055006500420204038
:104300003FC00440040003C000400000044027C038
:1043100000400000000000100010041027E0000022
:10432000000020403FC00140070004C0044020407E
:1043300020403FC000400040000007C0040007C00C
:10434000040003C00000044007C00440040003C090
:10435000004000000380044004400380000004107B
:1043600007F0045004400380000000000380044074
:10437000045007F00010044007C00240040004008D
:104380000000000006400540054004C00000000099
:1043900004001F800440004000000400078000402B
:1043A000044007C000400400070004C0018006006C
:1043B0000400060001C0070001C006000000044020
:1043C00006C0010006C0044000000410071004E00D
:1043D0000180060004000000044005C006400440BF
:1043E00000000000000004007BE04020000000000E
:1043F00000000000FFF000000000000040207BE013
:104400000400000000004000800040002000200068
:10441000400000000000000000000000000000005C
:1044200000000000000000001FCC000C0000000095
:10443000000000000800300060000800300060004C
:104440000000022003FC1E20022003FC1E2002208C
:10445000000000000E1811043FFF10840C780000CB
:1044600000000F0010840F3800C00778188400780F
:10447000000000780F8410C411240E9800E400841A
:104480000008080068007000000000000000000044
:10449000000000000000000007E01818200440029F
:1044A0000000000040022004181807E0000000008F
:1044B00000000240024001800FF0018002400240F3
:1044C00000000080008000800FF8008000800080E5
:1044D00000000001000D000E0000000000000000C0
:1044E00000000000008000800080008000800080CC
:1044F00000800000000C000C000000000000000024
:10450000000000000006001800600180060018008E
:104510002000000007F0080810041004080807F045
:1045200000000000080408041FFC00040004000050
:10453000000000000E0C10141024104411840E0C06
:10454000000000000C1810041104110412880C70F3
:104550000000000000E00320042408241FFC0024C5
:10456000000000001F9810841104110410881070BE
:104570000000000007F0088811041104188800707A
:10458000000000001C00100010FC13001C001000B4
:10459000000000000E3811441084108411440E38BD
:1045A000000000000700088C10441044088807F041
:1045B0000000000000000000030C030C00000000DD
:1045C00000000000000000010106000000000000E3
:1045D00000000000008001400220041008081004C0
:1045E00000000220022002200220022002200220DD
:1045F00000000000100408080410022001400080A0
:10460000000000000E001200100C106C10800F0053
:10461000000003E00C1813E4142417C4082807D082
:1046200000000004003C03C41C40074000E4001CE0
:10463000000410041FFC1104110411040E88007002
:10464000000003E00C1810041004100410081C10E3
:10465000000010041FFC100410041004080807F0E8
:10466000000010041FFC1104110417C410040818E2
:10467000000010041FFC1104110017C010000800F6
:10468000000003E00C181004100410441C780040D3
:10469000000010041FFC10840080008010841FFCA8
:1046A00010040000100410041FFC1004100400008B
:1046B000000000030001100110011FFE1000100097
:1046C000000010041FFC110403801464181C100463
:1046D000000010041FFC1004000400040004000C7F
:1046E000000010041FFC1F0000FC1F001FFC100432
:1046F000000010041FFC0C04030000E010181FFC55
:10470000100007F00808100410041004080807F04F
:10471000000010041FFC10841080108010800F0017
:10472000000007F0081810241024101C080A07F2D3
:10473000000010041FFC1104110011C011300E0CF8
:10474000000400000E1C11041084108410441C3856
:1047500000001800100010041FFC100410001800C6
:10476000000010001FF810040004000410041FF8DB
:10477000100010001E0011E0001C007013801C00CF
:1047800010001FC0103C00E01F0000E0103C1FC0E4
:1047900000001004180C163401C001C01634180CA7
:1047A000100410001C00130400FC13041C00100073
:1047B00000000804101C1064108413041C0410185A
:1047C00000000000000000007FFE400240024002A6
:1047D0000000000030000C0003800060001C00039B
:1047E000000000004002400240027FFE0000000086
:1047F00000000000000020004000400040002000B9
:1048000000000001000100010001000100010001A1
:1048100000010000400040002000000000000000F7
:10482000000000000098012401440144014400FC00
:10483000000410001FFC00880104010400880070BF
:1048400000000000007000880104010401040088D9
:1048500000000000007000880104010411081FFC22
:104860000004000000F8014401440144014400C870
:1048700000000000010401040FFC110411041100E8
:104880001800000000D601290129012901C90106EB
:10489000000010041FFC008401000100010400FC62
:1048A000000400000104190419FC000400040000C5
:1048B00000000000000300010101190119FE0000C1
:1048C000000010041FFC0024004001B4010C01048E
:1048D00000000000100410041FFC0004000400008D
:1048E0000000010401FC0104010001FC01040100BD
:1048F00000FC010401FC008401000100010400FC33
:104900000004000000F8010401040104010400F89F
:104910000000010101FF008501040104008800700E
:10492000000000000070008801040104010501FF7F
:1049300000010104010401FC008401040100018064
:104940000000000000CC012401240124012401986E
:10495000000000000100010007F80104010400004C
:104960000000010001F8000400040004010801FC3B
:104970000004010001800170000C00100160018042
:10498000010001F0010C003001C00030010C01F009
:10499000010000000104018C00740170018C01040D
:1049A0000000010101810171000E00180160018009
:1049B000010000000184010C013401440184010C58
:1049C0000000000000000000000001003EFC40026A
:1049D00040020000000000000000FFFF0000000097
:1049E00000000000400240023EFC01000000000008
:1049F00000000000600080008000400040002000B7
:104A00002000000000000000000000000000000086
:104A10000000000000000000000000000000000096
:104A20000000000000000000000000000000000086
:104A300000000000000F80380FFE380F80380000A3
:104A40000000000000000000000000000000000066
:104A50000100000600000C000038000031000006D4
:104A600000000C00003800003000000000000000D2
:104A7000000061800067F807F980006180006180B4
:104A80000061800061800067F807F98000618000A4
:104A9000000000000000000001C0E003E0F006306C
:104AA000080418081FFFFE040E080787F00381E0C2
:104AB00000000000000001F000060C0004040806DD
:104AC0000C7001F9C0000E00003BE000EC18070874
:104AD00008040C180003E00000000001E00007F0EB
:104AE00003F818041C0804170807E1D003C0E0000D
:104AF00023B0003C08002008000010000000000067
:104B0000000100003100003200001C000000000025
:104B10000000000000000000000000000000000095
:104B20000000000000000000000000000000000085
:104B300000007F0001FFC00780F00C001810000487
:104B40002000020000000000002000021000040C01
:104B500000180780F001FFC0007F00000000000087
:104B60000000000000000000000000000000420003
:104B7000006600006600003C0000180003FFC00053
:104B80001800003C000066000066000042000000C3
:104B900000000800000800000800000800000800ED
:104BA00001FFC00008000008000008000008000025
:104BB0000800000000000001000031000032000089
:104BC0001C000000000000000000000000000000C9
:104BD00000000000000000000000080000080000C5
:104BE0000800000800000800000800000800000895
:104BF00000000800000800000000000000000000A5
:104C000000003800003800003800000000000000FC
:104C10000000000000000000000000000000000094
:104C20000000000600001C000070000180000E0063
:104C300000380000C0000700001C00003000000029
:104C40000000000000007F8001FFE003807006008C
:104C50001804000804000806001803807001FFE033
:104C6000007F80000000000000000000010008013B
:104C7000000801000803FFF807FFF8000008000023
:104C80000800000800000000000000000001C0381B
:104C900002C05804009804011804021804041806FD
:104CA0001C1803F81801E0F80000000000000000E4
:104CB0000001C0E003C0F00400080408080408086C
:104CC00006180803F41801E7F00001E000000000F6
:104CD0000000000000000300000D00001100006152
:104CE0000000810803010807FFF80FFFF800010822
:104CF0000001080000000000000000E007FCD006F2
:104D00000808061008061008061008061838060FCE
:104D1000F00607C0000000000000000000003F8017
:104D200001FFE0038430020818041008041008048E
:104D30001008071810030FF00007C0000000000063
:104D40000000000003C0000700000600000600F895
:104D50000607F806180006E000070000060000003D
:104D6000000000000001E1E003F7F0063410041831
:104D700008041808040C08040C0806161803F3F0BD
:104D800001C1E000000000000000F80003FC300357
:104D90000638040208040208040208040410030888
:104DA000F001FFC0007F00000000000000000000D4
:104DB00000000000000000000000703800703800A3
:104DC000703800000000000000000000000000003B
:104DD0000000000000000000000000000000301A89
:104DE00000301C0000000000000000000000000077
:104DF0000000000000000000000800001400002275
:104E000000004100008080010040020020040010EA
:104E10000800080000000000000021000021000040
:104E200021000021000021000021000021000021BC
:104E30000000210000210000000000000000000030
:104E400008000804001002002001004000808000DB
:104E500041000022000014000008000000000000D3
:104E60000003C00004C000040000080038080F3828
:104E70000808380810000C300007E00003C00000EC
:104E80000000000000003F8000FFE0038070020F80
:104E90001006708804C088048308047F8802C090CC
:104EA00003012000FE400000080000180001F80087
:104EB0003E0801C20007020007E20000FE00001FDA
:104EC000C80001F800003800000804000807FFF8D7
:104ED00007FFF8040808040808040808040808067E
:104EE000180803F41801E7F00001E00000000000DA
:104EF00000003F8001FFE0038070020018040008FA
:104F00000400080400080400100600200780C00008
:104F1000000004000807FFF807FFF8040008040079
:104F20000804000804001802001003807001FFE06C
:104F3000007F8000000004000807FFF807FFF80466
:104F40000808040808040808040808043E080400C7
:104F50000806001801006000000004000807FFF8C0
:104F600007FFF80408080408000408000408000407
:104F70003E00060000060000018000000000000066
:104F800000003F8001FFE003807006001804000865
:104F90000402080402080203F00783F00002000084
:104FA000020004000807FFF807FFF80408080008DB
:104FB0000000080000080000080004080807FFF8C7
:104FC00007FFF804000800000000000004000804C7
:104FD000000804000807FFF807FFF80400080400B1
:104FE00008040008000000000000000000000006A7
:104FF0000000070000010400010400010400030791
:10500000FFFE07FFFC040000040000040000040091
:105010000807FFF807FFF8040C08001800003E001E
:1050200004C7800503C80600F8040038040018000F
:10503000000804000807FFF807FFF8040008000054
:105040000800000800000800000800000800001820
:1050500000006000000004000807FFF80780080750
:10506000FC00007FC00003F80007C0007800078044
:105070000807FFF807FFF804000804000807FFF816
:1050800007000803C00000E000003800001E000018
:1050900007000001C00400F007FFF8040000000052
:1050A00000007F8001FFE003807006001804000804
:1050B00004000806001803003001FFE0007F8000B4
:1050C000000004000807FFF807FFF80404080404C0
:1050D00000040400040400040400060C0003F800AB
:1050E00001F000000000000000007F8001FFE003ED
:1050F00080700600880400880400C806003C030095
:105100003E01FFE6007F8400000004000807FFF86E
:1051100007FFF8040808040800040C00040F00044A
:105120000BC00610F003F03801E008000008000092
:105130000001E0F803F030063010041808041808E5
:10514000040C08040C080206180207F00781E000AE
:1051500000000180000600000400000400000400BC
:105160000807FFF807FFF804000804000004000027
:1051700006000001800004000007FFE007FFF004C4
:1051800000180000080000080000080000080000E7
:105190000804001007FFE0040000040000060000FF
:1051A00007E00007FE00041FE00001F800003800DF
:1051B00001E0043E0007C0000600000400000400F7
:1051C0000007E00007FFC0041FF80007C007F80051
:1051D00007FF80043FF80007C004F8000700000440
:1051E000000000000004000806001807C07805F160
:1051F000C8003E00001F800463E80780F80600181E
:1052000004000800000004000006000007800007FA
:10521000E008047C08001FF80007F800180804E004
:10522000080700000600000400000000000100085C
:105230000600380400F80403E8040F08047C08059D
:10524000F00807C008070018040060000000000014
:10525000000000000000000000000000003FFFFE12
:105260002000022000022000022000022000020094
:10527000000000000000000008000007000000C05F
:10528000000038000006000001C000003000000EE1
:1052900000000100000000000000000020000220CB
:1052A00000022000022000022000023FFFFE00005A
:1052B00000000000000000000000000000000000EE
:1052C0000000000800001000003000002000003046
:1052D00000001000000800000000000000000000B6
:1052E00001000001000001000001000001000001B8
:1052F00000000100000100000100000100000100A9
:10530000000100000000000000000020000020005C
:10531000001000001000000000000000000000006D
:105320000000000000000000000000F00019F8007C
:105330001B18002208002608002408002410003F43
:10534000F8001FF80000080000180000000400002A
:1053500007FFF80FFFF000181800100800200800E1
:105360002008003018001FF0000FC00000000000EF
:10537000000007C0001FF0001830002008002008BF
:10538000002008003C08001C100000600000000025
:1053900000000000000007C0001FF00038180020C7
:1053A0000800200800200804101007FFF80FFFF085
:1053B0000000100000000000000000000007C00016
:1053C0001FF00012300022180022080022080032CC
:1053D00008001E10000E2000000000000000200049
:1053E00000200800200801FFF803FFF80620080449
:1053F000200804200807200003000000000000002F
:105400000000000E000E6E001FF30031B10020B14D
:105410000020B1003191001F13002E1E00200E004D
:10542000300000000004000807FFF80FFFF800102C
:1054300008002000002000002008003FF8001FF8AE
:10544000000008000000000000000000002008002C
:105450002008002008063FF8063FF800000800007A
:10546000080000080000000000000000000000002C
:1054700000000300000300200100200100200306BB
:105480003FFE063FFC00000000000000000000009E
:105490000004000807FFF80FFFF800018800030070
:1054A000002FC00038F80020380020080000080055
:1054B00000000000000000000400080400080400D0
:1054C0000807FFF80FFFF8000008000008000008B8
:1054D000000000000000002008003FF8003FF80036
:1054E0001008002000003FF8003FF80010080020DE
:1054F00000003FF8003FF80000080000000020080E
:10550000003FF8003FF800100800100000200000E5
:105510002008003FF8001FF800000800000000000D
:10552000000007C0000FF00018300030080020080D
:10553000002008003008001830000FF00007C000FD
:105540000000000000002001003FFF003FFF0010AE
:1055500011002009002008002008003038001FF04A
:10556000000FC00000000000000007C0001FF00096
:105570003818002008002008002009001011001F22
:10558000FF003FFF0000010000000020080020088D
:10559000002008003FF8003FF8000808001008004D
:1055A0002008002000003000003000000000000053
:1055B00000000000000C78001E18003308002308CB
:1055C0000021080021880021980030F00038600098
:1055D000000000000000200000200000200000FF6C
:1055E000F003FFF800200800200800200800003029
:1055F000000000000000000000002000003FF0005C
:105600007FF8000018000008000008002010003F8C
:10561000F8007FF0000010000000000000002000F3
:10562000003000003C00003F800023F000007800C4
:105630000070002380003C000030000020000020AB
:1056400000003C00003FE00023F80000E0002700DD
:10565000003E00003FE00021F80001E0003E0000B5
:105660002000000000002008002008003838003E1C
:10567000680027800003C8002CF800383800201884
:10568000002008000000000000002000003003009F
:105690003C01003F830023EC000070002380003CAD
:1056A00000002000002000000000000000000000BA
:1056B0000038080020380020F80023E8002F880078
:1056C0003E080038080020180000700000000000AC
:1056D00000000000000000000000000000000800C2
:1056E0000014001FF7FC300006200002000000003C
:1056F00000000000000000000000000000000000AA
:1057000000000000FFFFFF0000000000000000009C
:105710000000000000000000000000002000023037
:1057200000061FF7FC001400000800000000000045
:105730000000000000000000000000000018000051
:105740006000004000004000002000001000000841
:1057500000000400000400000C0000100000000025
:1057600064570008C7EBB0B4D5D5CCE1CABEBDF8CC
:10577000D0D0B4A5C3FEC6C1D0A3D7BC00000000E2
:10578000A057000800000020540000006C01000831
:10579000F4570008540000205C0500008801000850
:1057A000000000000000FFFFFFFFFFFF00000000FF
:1057B0000000000000000000FFFF0000CD2A0008EC
:1057C000892D0008A1210008000000000000000051
:1057D00000000000000000000000000000000000C9
:1057E00000000000000000000000000000000000B9
:0457F000D09017EF4F
:0400000508000131BD
:00000001FF
