:020000040800F2
:10000000A0050020CD010008D1010008D30100089F
:10001000D5010008D7010008D90100080000000040
:10002000000000000000000000000000DB010008EC
:10003000DD01000800000000DF010008E101000808
:10004000E3010008E3010008E3010008E301000800
:10005000E3010008E3010008E3010008E3010008F0
:10006000E3010008E3010008E3010008E3010008E0
:10007000E3010008E3010008E3010008E3010008D0
:10008000E3010008E3010008E3010008E3010008C0
:10009000E3010008E3010008E3010008E3010008B0
:1000A000E3010008E3010008E3010008E3010008A0
:1000B0009115000851160008E3010008E30100084B
:1000C000E3010008E3010008E3010008E301000880
:1000D000E301000855170008E3010008E3010008E8
:1000E000E3010008E3010008E3010008E301000860
:1000F000E3010008E3010008E3010008E301000850
:10010000E3010008E3010008E3010008E30100083F
:10011000E3010008E3010008E3010008E30100082F
:10012000E3010008E3010008E3010008E30100081F
:1001300000F002F800F03AF80AA090E8000C8244BF
:100140008344AAF10107DA4501D100F02FF8AFF29C
:10015000090EBAE80F0013F0010F18BFFB1A43F0A5
:100160000103184790230000B0230000103A24BF79
:1001700078C878C1FAD8520724BF30C830C144BF0C
:1001800004680C607047000000230024002500264E
:10019000103A28BF78C1FBD8520728BF30C148BFEA
:1001A0000B6070471FB51FBD10B510BD00F02DF8D6
:1001B0001146FFF7F7FF01F0D9FC00F04BF803B44C
:1001C000FFF7F2FF03BC01F01FFB000008480047E7
:1001D000FEE7FEE7FEE7FEE7FEE7FEE7FEE7FEE7F7
:1001E000FEE7FEE703480449024A044B704700005B
:1001F00031010008A0010020A0050020A00100207E
:1002000070477047704770477047754600F028F890
:10021000AE4605006946534620F00700854618B0F3
:1002200020B5FFF7DFFFBDE820404FF000064FF09C
:1002300000074FF000084FF0000B21F00701AC461B
:10024000ACE8C009ACE8C009ACE8C009ACE8C0093A
:100250008D4670470446AFF300802046FFF7AFFF9E
:1002600000487047400100204B48806940F004007E
:100270004949886149480068494908404749086038
:100280004548806940F40070434988610846C06869
:1002900040F40070C8600846C06820F40070C86070
:1002A0000846406820F4404048600846406840F4F2
:1002B000004048603B4800683B49084039490860B5
:1002C0000846006808600846006820F480700860EE
:1002D000081D006820F00200091D0860084600683B
:1002E00020F4602008600846006840F46020086040
:1002F0000846006840F4801008600846006820F452
:100300000060086027482830006820F47000254904
:10031000283108600846006840F4801008602148D1
:100320000C30006820F038001E490C310860084687
:10033000006840F0380008600846006820F4E0409B
:1003400008600846006840F4E04008601548001D59
:10035000006840F001001349091D08600846006864
:1003600040F00800086000BF0E48001D006800F063
:1003700008000028F8D10B48001D006840F0040078
:100380000849091D086000BF0648001D006800F00C
:1003900004000028F8D17047001002400008014016
:1003A0000FFFF0FF04240140FFFFF0002DE9F041B2
:1003B0000746884615460421052000F02DF8002147
:1003C000012001F009FA80210A2001F041F80024FF
:1003D00005E0395D092001F0FFF9601CC4B2444515
:1003E000F7DB0321012001F0F7F9FF2400BF05200E
:1003F00000F0C0FE0646601EC4B21CB106F0040048
:100400000028F4D0222000F0B5FE2870212000F052
:10041000B1FE6870BDE8F08170B505460C46002657
:10042000284600F0A7FE064626EA0401284601F009
:10043000D3F970BD10B500241548406820F0704015
:10044000134948600846406840F00040486004E0B6
:10045000601CC4B2012001F06BFB0E48006808B1BB
:10046000642CF5DB642C01DB012010BD002404E0CA
:10047000601CC4B2012001F05BFB0648006808B9AB
:10048000642CF5DB642C01DB0120EEE70020ECE7B7
:10049000001001403C01224210B50D48806940F037
:1004A00010000B4988610B48406820F070400949F2
:1004B00048600846406840F0405048600846C068C0
:1004C00040F40040C86000F069F8FFF7B3FF10BDCA
:1004D000001002400010014010B5002404E0601C30
:1004E000C4B2012001F024FB0D48006808B1642C5F
:1004F000F5DB002404E0601CC4B2012001F018FB0D
:100500000748006808B9642CF5DB282001F010FBCF
:100510000348006808B1012010BD0020FCE700007E
:100520003C01224270B50024002506E06006040E5E
:10053000FFF7D2FF0443681CC5B2082DF6DB204646
:1005400070BD7CB505460E4600F028F8FFF772FF37
:10055000F8B9002405E0FFF7E5FF0DF80400601C82
:10056000C4B2052CF7DB9DF800009DF8011008448B
:100570009DF8021008449DF8031008449DF80410EB
:10058000884208D19DF8000030709DF80200287064
:1005900001E001207CBD0020FCE7000010B50C4804
:1005A000406820F070400A4948600846406840F0C2
:1005B00040504860002007490860142001F090FA7C
:1005C00001200549C1F8BC011E2001F0B1FA10BD9F
:1005D00000100140BC0122420000224210B500245C
:1005E0001548006820F00F001349086008460068AD
:1005F00040F00800086004E0601CC4B2012001F073
:1006000097FA0E48006808B1C82CF5DBC82C01DB4E
:10061000012010BD002404E0601CC4B2012001F0E0
:1006200087FA0648006808B9F02CF5DBF02C01DBEE
:100630000120EEE70020ECE7000801400001214224
:100640002DE9F84F00F0D0F800F0ACF8FFF7C6FF46
:10065000CC2000F0D5F8BE2000F0D2F800F090F8E1
:10066000834600F08DF80446072C08DDE043C4B251
:100670006FEA0B0000F0FF0B4FF0000A01E04FF0B3
:10068000010AA1464FEA09200FFA80F909EB0B0095
:100690000FFA80F9484601F0B1FD009001F03EFCF0
:1006A00007460022084B01F03BFB054601F008FB22
:1006B0000FFA80F9BAF1000F02D04846BDE8F88F72
:1006C000C9F1000000B2F9E70000E43F10B50F489F
:1006D000806940F004000D4988610D48006820F0F1
:1006E0000F000B4908600846006840F003000860EE
:1006F00007480C30006840F0010005490C310860E3
:1007000000F050F8FFF76AFF10BD00000010024033
:100710000008014010B51748006820F00F00154987
:1007200008600846006840F0030008600020124995
:100730000860022001F0FCF901201049C1F8800195
:100740000C48006820F00F000A490860084600685D
:1007500040F0080008600C2001F0EAF906488038F3
:10076000006808B1012400E00024322001F0E0F923
:10077000204610BD000801408001214200002142B6
:1007800070B50026012508E0FFF7C4FF0446E0012C
:1007900040EA6600C6B2681CC5B2082DF4DD3046DA
:1007A00070BD000010B50D48006820F00F000B4927
:1007B00008600846006840F003000860002008490F
:1007C000086040F2EE2001F0B3F901200549C1F8BC
:1007D00080010F2001F0ACF910BD000000080140BD
:1007E000800121420000214210B5FFF7DBFFFFF737
:1007F000F5FECC2000F004F8442000F001F810BD14
:1008000070B504461848006820F00F0016490860CB
:100810000846006840F003000860012520E004F06D
:10082000010664106EB1002010490860022001F03A
:100830007FF901200E49C1F880013C2001F078F9D0
:100840000CE00020094908603C2001F071F901200A
:100850000749C1F88001022001F06AF9681CC5B29D
:10086000082DDCDD70BD0000000801408001214240
:100870000000214201460F48006820F01F000D4A89
:10088000106010460068084310600A482C38006861
:1008900040F48000074A2C3A106000BF0548343805
:1008A000006800F002000028F8D002481830006804
:1008B00080B27047342401402DE9F04107460C46D0
:1008C0000025002608E03846FFF7D4FF0544052040
:1008D00001F006F9701CC6B2A642F4DBB5FBF4F0D9
:1008E00080B2BDE8F08100B500F034FD00F0A2FB5D
:1008F00000F060FA00F064FA412000F03BF800BD1F
:100900001748806940F008001549886108468069E9
:1009100040F0040088611348006820F47000114919
:1009200008600846006840F4000008600E4800684F
:100930000E4908400C490860084600680C49084305
:10094000094908600848083000680749083108600C
:1009500008460068086008460068086070470000A4
:100960000010024004080140040C0140FF00F0FFA9
:100970000033030010B50446412C26D10821084657
:10098000FFF74AFD3D21112000F026FF86211720A8
:1009900000F022FF7F21262000F01EFF1E212D20C7
:1009A00000F01AFF00212C2000F016FF8D212A20D4
:1009B00000F012FF3E212B2000F00EFF4FF47A7062
:1009C00001F0ACF800F0FCF901E0012010BD0020BE
:1009D000FCE7000000B5002015490861C86014203C
:1009E000486100208861C8610846006840F0010045
:1009F0000860084640680F4908400D4948600846AD
:100A000000680D4908400A4908600846006820F45B
:100A1000802008600846406820F4FE0048600020FE
:100A2000886000214FF0006000F058F800BD000021
:100A3000001002400000FFF8FFFFF6FE2DE9F04134
:100A40000746884614461D46284600F033F8C5F18F
:100A5000040007FA00F60F20284100EA08000643C8
:100A600006F00F06E21704EBD2625211920002F177
:100A7000E022D2F800212146E31704EBD3635B1197
:100A8000A4EB431C012303FA0CF31A432046E3179B
:100A900004EBD3635B119B0003F1E023C3F8002157
:100AA0000348005D40EA061001490855BDE8F081A1
:100AB00000E400E00146072323EA01021202054B8D
:100AC00018684FF6FF031840034B18431043014BBF
:100AD000186070470CED00E00000FA05024A0A4079
:100AE0000243024B1A60704780FFFF1F08ED00E0D1
:100AF0001CB511A103C9CDE90001022000F014FCCE
:100B000005226946302000F01FF9052269461020B1
:100B100000F07EF8002406E01DF80400A52800D0AF
:100B200003E0601CC4B2052CF6DB00BF052C01D02D
:100B300001201CBD0020FCE7A5A5A5A5A50000007F
:100B400010B52B48806940F00400294988610846A7
:100B5000806940F0080088612648006826490840FE
:100B60002449086008460068244908432149086070
:100B700020480C30006840F01E001E490C3108600F
:100B80001F48006820F07F601D4908600846006823
:100B900040F0607008601A480C30006840F0200097
:100BA00017490C3108600846006840F040000860B2
:100BB00000F036FB1348008820F0400011490880FF
:100BC0000846008820F0020008800846008820F0CF
:100BD000010008800846008840F04000088000209E
:100BE0000949086001200949C1F8980110BD0000B9
:100BF0000010024000080140FF00F0FF0033030036
:100C0000000C01400030014090012142008021424F
:100C10002DE9F04107460D46164600200A490860B6
:100C2000384600F057FB8046002405E0FF2000F026
:100C300051FB2855601CC4B2B442F7DB01200249C5
:100C400008604046BDE8F0819881214270B50446B5
:100C5000002007490860204600F03CFBFF2000F020
:100C600039FB054601200349C1F89801284670BDAB
:100C7000988121420080214210B50020144908606B
:100C800005221449302000F05FF8052212492A207D
:100C900000F05AF80121212000F074F801212220EF
:100CA00000F070F81A21242000F06CF8282125208B
:100CB00000F068F80F21262000F064F80E212020B3
:100CC00000F060F801200549C1F8900110BD000056
:100CD00090012142EA240008EF240008000021428C
:100CE00070B50546022000F01FFB00201349086084
:100CF00020222946A02000F027F801201049C1F841
:100D0000900100BF0F4800680028FBD10720FFF7C3
:100D10009DFF04462146272000F034F804F010001F
:100D200028B1FF21E12000F02DF8102070BD04F063
:100D3000200008B12020F9E7FF20F7E790012142C9
:100D400000002142148121422DE9F04107460C4662
:100D5000154600200A490860384600F0BBFA804674
:100D6000002605E014F8010B00F0B4FA701CC6B2BE
:100D7000AE42F7DB0120024908604046BDE8F08141
:100D80009881214270B505460C460020074908604D
:100D9000284600F09FFA0646204600F09BFA012004
:100DA0000349C1F89801304670BD00009881214286
:100DB0000080214200B503211420FFF72DFB00BD68
:100DC00010B5142000F0D6F9044604F0030018B959
:100DD0000321142000F03CFB10BDF0B587B00546A0
:100DE000002708210846FFF717FB00210D2000F01F
:100DF000F3FC80210E20FFF70FFB93208DF80400F9
:100E000020208DF8050006A801AB022201A9009060
:100E10000C2000F045F8064686B9002407E001A83A
:100E2000005D285501A8005D4740601CC4B2042C39
:100E3000F5DB01A8005DB84200D0022680210E201B
:100E400000F006FB304607B0F0BD2DE9F04187B059
:100E500004460D4616461F468DF804408DF8055091
:100E60003068CDF80600B088ADF80A003868039005
:100E700006A801AB0C2201A900900E2000F010F88A
:100E80008046B8F1000F05D1082000F073F900F09A
:100E9000080008B94FF00208404607B0BDE8F081ED
:100EA0002DE9FE4F0646884691469A46DDF830B059
:100EB000022002900020019000900C2E06D00E2EF1
:100EC00009D1122001901020009005E077200190B8
:100ED0003020009000E000BF00BF019840F080018A
:100EE000022000F079FC80210420FFF795FA002110
:100EF000012000F071FC80210A2000F0A9FA0025F1
:100F000006E018F80510092000F066FC681C85B2A0
:100F10004D45F6DB3146012000F05EFC0C2E03D17E
:100F200080210D2000F094FA4FF4167500BF0420C4
:100F300000F020F90446681E85B235B104F00100C6
:100F400018B9009820400028F1D080210D20FFF72B
:100F500063FA002D38D0062000F00CF900F01B00D9
:100F600078BB002002900198204000F0010008B1F9
:100F7000012002900C2E27D10A2000F0FBF8044635
:100F80000C2000F0F7F800F007072FB1601E07EB08
:100F9000C0008BF8000003E0E006000E8BF80000B4
:100FA00004B90124122C00DD1224002506E00920DA
:100FB00000F0E0F80AF80500681C85B2A542F6DBEF
:100FC00002E0FFE70220029080210C2000F040FAAE
:100FD0000021012000F000FC0298BDE8FE8F70B5F2
:100FE00087B005460C4608210846FFF715FA072189
:100FF0000D2000F0F1FB0321142000F029FA8DF8F8
:10100000045006A801AB012201A900900C20FFF7B3
:1010100047FF064656B99DF81800102806D19DF8DE
:10102000040020709DF80500607000E00226304644
:1010300007B070BD00B54FF480601C4908600A20FD
:1010400000F06CFD4FF480601849091D08600A200B
:1010500000F064FD4FF48060144908600A2000F03D
:101060005DFD0F21012000F0B7FB0F21012000F0F2
:10107000B3FB0A2000F052FD3D21112000F0ACFB33
:101080001E212D2000F0A8FB00212C2000F0A4FB45
:101090008D212A2000F0A0FB3E212B2000F09CFB9C
:1010A0004021152000F098FB002000BD10080140F1
:1010B00070B587B0054693208DF8040070208DF838
:1010C000050000208DF80A0000240BE0295D01AA2C
:1010D000A01C11549DF80A00295D48408DF80A00B3
:1010E000601CC4B2042CF1DB0DF10B02072101A836
:1010F000FFF75CF908210846FFF78EF906A801AB57
:10110000092201A900900C20FFF7CAFE06462EB95D
:101110009DF81800182801D1002600E0022630466C
:1011200007B070BD10B510495220FFF758FF0446B4
:1011300024B902240D48FFF750FE044624B90224C6
:101140000A48FFF7B5FF04463CB90224074B084A9A
:1011500006216120FFF779FE04461CB90224C8204D
:1011600000F0BEFC10BD0000170000201900002098
:101170002D00002010B5024600244FF400700A49EB
:1011800008607E2000EA420040F08003184600F02C
:1011900045F9002000F042F904464FF4007002497E
:1011A000091F0860204610BD1408014010B5012039
:1011B000164908600F2000F0BBFC00201449C1F85C
:1011C0008C011448007800F08000E8B111480078E4
:1011D00000F03F00104908600846008800040860DD
:1011E000084600680D49098808440B49086008460C
:1011F0000068AA2148434FF47A71B0FBF1F0064928
:10120000086000200349088010BD00008C012142C5
:10121000000021423E00002010000020400000207D
:1012200000B52848806940F00400264988610846D6
:10123000806940F48050886123480068C0F313003F
:101240002149086008460068204908431E49086093
:101250001D480C30006840F0E0001B490C3108606C
:101260001B4800881A4908800846008840F400702E
:1012700008800846008840F480700880084600888E
:1012800040F004000880084600880880084600886E
:1012900040F0020008800846008840F00100088005
:1012A0000846008840F0380008800846008808801A
:1012B0000846008840F040000880FF2000F00AF84F
:1012C00000BD000000100240000801400000B0BB5B
:1012D000003001400246002107E0481C81B24FF671
:1012E000FE70814201DD002070470E48008900F049
:1012F00002000028F1D00B488281002107E0481C41
:1013000081B24FF6FE70814201DD0020ECE7054816
:10131000008900F001000028F1D002488089C0B2A5
:10132000E2E700000030014000F0070008490988AA
:101330004FF6C7721140064A11801146098841EAEA
:10134000C00111801146098841F0400111807047A9
:10135000003001402C48806940F001002A49886132
:101360000846806940F0080088610846806940F0BE
:10137000040088610846C06940F48040C861234881
:10138000006820F47F60214908600846006840F446
:101390004C7008601E480068C0F313001C490860C8
:1013A000084600681B490843194908601A48008824
:1013B000194908800846008840F4007008800846F3
:1013C000008840F4807008800846008840F00400DF
:1013D00008800846008808800846008820F002003F
:1013E00008800846008820F0010008800846008830
:1013F00040F03800088008460088088008460088C9
:1014000040F0400008807047001002400008014092
:10141000040C01400000B0B800380040014600BF95
:101420000A48008800F002000028F9D00748001D93
:10143000018000BF0548008800F001000028F9D0B5
:101440000248001D0088C0B2704700000838004004
:1014500070B505460C4600262846FFF78BFE06466B
:1014600046EA0401284600F0B7F970BD30B50446DD
:101470000025FFF7AFFA1F48006840F480301D498F
:10148000086000BF1B480068400C0028FAD04FF4E9
:10149000806018494860A01EC4B20846406840EA0F
:1014A000844048600846406840F4803048601248F4
:1014B000006840F03200104908600E48006840F0B3
:1014C00080700C49086000BF0A480068400E002880
:1014D000FAD00848406840F002000649486005E03C
:1014E00004484068C0F3870505F00305022DF7D1D5
:1014F00030BD0000001002400020024070B50446DC
:101500000D462148C06940F001001F49C8610846E6
:10151000806940F0040088611C48006820F47F4026
:101520001A4908600846006840F420500860C80462
:1015300084850585808B40F00100C90488830846B6
:10154000808B88830846808B88830846008C0884BB
:101550000846008C40F4807008840846808940F07A
:10156000080088810846808940F00100888108468B
:10157000008840F00100088001231C220321184646
:10158000FFF75CFA70BD0000001002400008014047
:101590004FF08041088A2C49097801F08001002928
:1015A0004DD100F00101D1B12749097801F0400186
:1015B000A9B12549097801F03F013F290AD1224903
:1015C000098841F08001204A11804FF6FF711F4ABF
:1015D000118004E01C490988491C1B4A118000F055
:1015E000080161B31849097801F0400199B1164921
:1015F000098841F08001144A11804FF08041898FA1
:10160000124A11804FF08041098C21F400714FF093
:101610008042118413E000210B4A11800B4A118093
:101620000949098841F04001074A118000214FF023
:10163000804291841146098C41F40071118400218B
:101640004FF08042118270473E0000204000002091
:101650002848008800F00100002843D02648007880
:10166000401C2549087008460078012803D0084628
:10167000007802280AD10120204908600020204972
:10168000C1F8AC011D49083108602BE01A48007808
:10169000032803D01848007804280BD100201749EC
:1016A000086001201649C1F8AC0100201349083137
:1016B000086017E010480078052803D00E4800782D
:1016C00006280FD100200D4908600D49C1F8AC0172
:1016D0000120C1F8B00108480078062802D1002096
:1016E000054908700348008820F00100014908807E
:1016F000704700001004004016000020A88121421D
:101700000080214270B505460C461048C06940F083
:1017100002000E49C8610E480580001F04800C4875
:101720002038008840F00100094920390880084825
:101730002C38008840F0010005492C39088002232C
:101740001D2203210120FFF779F970BD001002402E
:101750002C0400401D49098801F0200111B31B49E8
:10176000091D0988C8B21A49098801F40041C9B99C
:101770001749098801F4804161B10A2803D000218A
:10178000134A118020E01249098841F40041104AAF
:10179000118019E00D2806D10D49098841F48041D6
:1017A0000B4A118010E00A490988C1F30D01094A6A
:1017B000505407490988491C054A11801146098877
:1017C000C72901DD00211180704700000038014069
:1017D0003C0000207500002010B502460B464FF477
:1017E0000070084908607E2000EA42042046FFF7A6
:1017F00015FE1846FFF712FE4FF400700149091F4D
:10180000086010BD14080140014600BF7047000089
:1018100010B5FFF7CBFCFEF713FF994908600A21CA
:101820000120FFF749F89749088097499748FEF744
:1018300088FE442096490870944800780A2190FB5D
:10184000F1F0303092494870904800780A2190FBBE
:10185000F1F201FB120030308D4988708A4800781F
:101860000A2190FBF1F030308949C8708648007831
:101870000A2190FBF1F201FB12003030844908711B
:10188000804800884FF47A7190FBF1F03030804945
:1018900048717C4800884FF47A7190FBF1F201FBAB
:1018A0001200642190FBF1F030307949887175485D
:1018B0000088642190FBF1F201FB12000A2190FBE9
:1018C000F1F030307249C8716E4800880A2190FBEF
:1018D000F1F201FB120030306D4908726D4800686A
:1018E0006421B0FBF1F03030694948726948006802
:1018F0006421B0FBF1F201FB12000A21B0FBF1F010
:10190000303063498872634800680A21B0FBF1F205
:1019100001FB120030305E49C872594800686421EA
:1019200090FBF1F030305A49087355480068642143
:1019300090FBF1F201FB12000A2190FBF1F0303034
:10194000534948734E4800680A2190FBF1F201FBAD
:10195000120030304E4988734F48006810B930206B
:10196000C87302E031204A49C8734C4800786421AA
:1019700090FBF1F0303046494874484800786421C3
:1019800090FBF1F201FB12000A2190FBF1F03030E4
:101990003F498874414800780A2190FBF1F201FB2D
:1019A000120030303A49C8743C484078642190FBBA
:1019B000F1F030303649087538484078642190FBA2
:1019C000F1F201FB12000A2190FBF1F030303049B6
:1019D0004875324840780A2190FBF1F201FB120071
:1019E00030302B4988752D488078642190FBF1F0C8
:1019F00030302749C87529488078642190FBF1F27E
:101A000001FB12000A2190FBF1F0303020490876EA
:101A1000224880780A2190FBF1F201FB120030305D
:101A20001B4948761D48C078642190FBF1F03030A6
:101A3000174988761948C078642190FBF1F201FBC0
:101A400012000A2190FBF1F030301149C87613489A
:101A5000C0780A2190FBF1F201FB120030300C49F2
:101A600008770E48C0780A2190FBF1F201FB1200C2
:101A7000303007494877002081F8200010BD000071
:101A8000000000200C0000201500002014000020A1
:101A900044000020100000203401214219000020E1
:101AA0004FF0E021096921F004014FF0E0221161BB
:101AB000C21700EB5272C2F3C702074B1A701946E5
:101AC000097801EB4102C2EBC1114FF6FF7202EA45
:101AD000C101024A11807047340000203600002006
:101AE00001460D4A12884A434FF0E0235A61002212
:101AF0009A6101221A6100BF4FF0E022106900F0E4
:101B000001021AB100F48032002AF5D000224FF011
:101B1000E0231A619A61704736000020002103E03B
:101B200000BF00BF00BF491C8142F9D370470000CD
:101B300001460D4A12784A434FF0E0235A610022D1
:101B40009A6101221A6100BF4FF0E022106900F093
:101B500001021AB100F48032002AF5D000224FF0C1
:101B6000E0231A619A617047340000200920FFF7D2
:101B70007DFC4820FFF794FF4FF41651482000F0F9
:101B800031F8FEF771FBFEF7BBFE47214FF6FF7001
:101B9000FFF7B4FC41F61F4142F20F70FFF7B2FDB0
:101BA00000BFFEF779FC0028FBD100BFFEF78EFDD9
:101BB0000028FBD1FEF7C4FF00BFFEF799FF002805
:101BC000FBD1FEF790FEFFF757F808E0FFF7AAFAFF
:101BD0000348FFF785F8202801D1FFF719FEF5E744
:101BE000440000202DE9F05F05460E46300100F06C
:101BF0001DFB81462E4905FB01F000F017FB8246D4
:101C0000494600F019FA0746384600F0D7FA84B280
:101C1000204600F00BFB8346394600F0E7FB824686
:101C20004FF0834100F016FB814600F0C7FA804672
:101C30004FF6FF7000EA041404EB080084B21D485C
:101C4000806940F004001B4988610846806940F4BF
:101C5000804088611848006820F47F601649086059
:101C60000846006840F40B6008601248C06840F401
:101C700080401049C8600846C06820F48040C860B1
:101C80000E480480001D008842F20C0108430B49F5
:101C9000091D08800846008840F0200008800223C3
:101CA000252203210846FEF7C9FEBDE8F09F00008B
:101CB00040420F0000100240040801400838014073
:101CC0004FEA41034FEA5353A3F58063D3F11E0358
:101CD000C8BFD3F1210C0CDD4FF0004242EAC12213
:101CE00042EA505232FA03FC8CEAE17CACEBE17040
:101CF0007047102BC4BF0020704703F5787CBCF1FF
:101D0000FF3F04D06FF0004282EA2100704770B5B7
:101D100000F0B0F84992248000207047F2E70000FC
:101D2000DFF848C170B51CEA111E1EBF1CEA13156E
:101D30009EEA0C0F95EA0C0F00F06F8081EA030415
:101D400023EA4C134EEAD47E21EA4C1141F480116F
:101D500043F48013AE44A1FB024CA0FB0365AEF13B
:101D60007F7E361955EB0C05A1FB034C4CF10003AB
:101D7000A0FB021C16EB0C06654153F1000309425F
:101D800018BF46F0010613F4007F0BD14FEA033170
:101D90004FEA0530340341EA155140EA16506FF01E
:101DA00003020AE04FEAC3214FEAC520F40241EAE8
:101DB000555140EA56506FF0020202EB2E4201EB01
:101DC000025585EACE710AD05FEA440C18BF24F0B0
:101DD000004450F1000041F1000120EAD47040F2CB
:101DE000FE7C624500D270BDA84214BF4FF0804413
:101DF0004FF04044002E08BF0024BEF1806FA8BF02
:101E0000A1F1C041BDE8704080F282804FF0000037
:101E100001F1C04101F0004170479EEA0C0F0CEA4D
:101E2000131518BF95EA0C0F06D04FF0000081EA99
:101E3000030E0EF0004170BD00F01CF88900013E59
:101E400000F007B800F009B84FEA430C5FEA5C5CA9
:101E500008D081EA030100F05BB84FEA410C5FEA69
:101E60005C5CF6D14FF00000014970470000FF07AD
:101E70000000F87F0EF1020E2EF0030E5EF8046BE8
:101E8000364205D4012A43EB030515F5001F12D88D
:101E9000012841EB010C1CF5001F0CD80ED14FEAB4
:101EA000D17C15F5001F0CEB4C0C0CF1020C08BF9B
:101EB0004CEBD37C04E04FF0080C01E04FEAD37CFC
:101EC0000CEB4C0526FA05F606F00706B6F1040CF5
:101ED00006D20EEB860CBDE870404CF0010C60475A
:101EE000DFE80CF0090B02024FF000414FF0000058
:101EF000A1F5002170BD19461046012851EB0104DF
:101F000018BFD4F5001484BF002001F0004170BD5B
:101F10000808A0F500114FEA3101704743004FEA6D
:101F2000D30C4FEA3C0C43401FBF40070CF16051FB
:101F300013F0FE4F70471CF0006F03D100200CF02F
:101F4000004170470CF0004343EA507010B540EA7E
:101F5000CC0000F000FA00BF000000924FEA000140
:101F6000FFF7D6BF4FF000414FF00000A1F5002170
:101F70007047000090EA010F48BF81F0004100F176
:101F80004682421A3CBF801A89184FEAD0524FF05D
:101F90007F4C1CEA410FA2EBD15318BF9CEA026FA1
:101FA00000F03B804FF0004C4CEA00204CEA01214D
:101FB00021FA03FC10EB0C0C1ED202F1FF325FEA97
:101FC0001C2040EBC25038BF70471CF07F0F4FEA17
:101FD000400C18BFBCF17F4F38BF7047C3F12003DE
:101FE000994008BF20F00100BCF17F4F38BF704717
:101FF000A0F1C04000F0F5B94FEA3C00000A40EB08
:10200000C25028BF1CF0FF0F4FEA400CE6D018BFAB
:10201000BCF17F4F38BF7047EAE79CEA026F05D0FA
:1020200010EA5C0F08BF00F00040704710B500F0E8
:1020300092F900BF64FBBE3E4FF47F0C1CEAD01245
:102040001EBF1CEAD11392EA0C0F93EA0C0F00F0AA
:10205000858090EA010F48BF42F4807240F4000C82
:1020600041F400002CF07F4120F07F4000B5814218
:10207000A2EB03020FF2081CACEB504EC0F10000C3
:102080009EF800E04FEA4E0E00FB0EFC38BF490000
:102090004FEA2C1C02F5FA020CFB0EF34FEACE1E9F
:1020A0004FEA112C4FEAC1210EEB635E42EB224254
:1020B0000EFB0CFC4FEA1C5300FB03114FEA112CE2
:1020C0004FEA01310EFB0CFC4FEADC4C00FB0C111B
:1020D000C14228BF09184CEB03335DF804EB10EB49
:1020E000410143EBC250B2F57C0F38BF704729D590
:1020F00012F0F00F1CBF00F1C04000F0004070472C
:10210000008182838485868788898B8C8D8E8F91D0
:102110009293959697999A9C9D9FA0A2A3A5A7A8F4
:10212000AAACAEB0B2B3B5B7B9BCBEC0C2C5C7C920
:10213000CCCED1D4D7D9DCDFE2E6E9ECF0F3F7FA84
:10214000FE0000004FEA400C0CF1807CBCF17E4F99
:1021500028BF7047B0F1C04000F043B990EA010FCA
:102160000CEAD11348BF42F48072624538BF634520
:1021700007D213F47F0F16D080EA010000F0004070
:10218000704710B500F0E7F8097EFC3E00F005B896
:1021900080EA010000F00040704780EA010000F092
:1021A000004000F01EB912F47F0F04BF02487047D0
:1021B00080EA010000F015B90000C07FC10DD1F127
:1021C0009E0206DB4FEA002343F0004323FA02F0AD
:1021D0007047004207D54FEA4001B1F1FE4F02D2ED
:1021E0004FF00000704710B500F0B5F84992248018
:1021F000002070476FEA20007047000010F0004197
:1022000048BF4042B0FA80F310FA03F2C3F19D03D5
:102210000BD051EAC35101EB1220530638BF70476F
:1022200000F1010008BF20F001007047B0FA80F310
:1022300010FA03F2C3F19D030AD0D90501EB122075
:10224000530638BF704700F1010008BF20F00100BD
:10225000704700004FF47F0C1CEAD0121EBF1CEA2E
:10226000D11392EA0C0F93EA0C0F00F0478090EA2A
:10227000010F48BF42F480724FF0004C4CEA00203E
:102280004CEA012102EB0302A0FB0113A2F50002BC
:10229000002918BF43F001035B0028BF4FEA330356
:1022A00042EB22425FEA132C4CEBC2502EBFBCEB38
:1022B000436FB2F57C0F70474FEA036CBCF1004FDF
:1022C00008BF20F00100B2F57C0F38BF70470BD576
:1022D00082F0FF0212F5803FC8BF704700F1C04096
:1022E000D8BF00F00040704700F5000C5FEA4C0CCE
:1022F00048BF7047B0F1C04000F073B890EA010FDA
:102300000CEAD11348BF42F48072624538BF63457E
:1023100004D280EA010000F00040704710B500F0E0
:102320001AF800BF8900013E00F007B800F009B8B4
:102330005FEA410C5FEA1C6C08D080EA010000F003
:1023400050B85FEA400C5FEA1C6CF6D14FF00040D9
:10235000A0F5800070470EF1020E2EF0030E5EF81D
:10236000044B244204D44FEA4102B2F17F4F11D80A
:102370004FEA4003B3F17F4F0CD80ED14FEAD07C27
:10238000B2F17F4F0CEB4C0C0CF1020C08BF4CEB84
:10239000D17C04E04FF0080C01E04FEAD17C0CEB5B
:1023A0004C0324FA03F404F00704B4F1040C06D23D
:1023B0000EEB840CBDE810404CF0010C6047DFE8E8
:1023C0000CF0070802024FF00040A0F5800010BD9D
:1023D0000846420018BFD2F1807288BF00F000406A
:1023E00010BDFF2141EAD050C005704780F0004089
:1023F00090EA010F7FF5C5AD81F0004100F007B80C
:1024000090EA010F48BF81F000413FF5BAAD421A92
:1024100004D882F00042A0EB020011444FEAD052EF
:102420004FF07F4C1CEA410FA2EBD15318BF9CEA3E
:10243000026F4AD04FF0004C4CEA00204CEA0121D8
:1024400021FA03FCB0EB0C0C0FD412F0FE0F36D0C7
:102450005FEA4C001DD5001240EBC25038BF7047F8
:102460001CF03F0F18BF70470BE0A2F101025FEABA
:102470001C2040EBC25038BF70471CF07F0F18BFC4
:102480007047C3F12003994014BF401E20F00100A3
:10249000704780084FEA122308BF7047B0FA80FCEB
:1024A000A2EB0C02CCF1280C60FA0CF093EA122F8C
:1024B00004BF00EBC25070474FEAC3707047130A65
:1024C0005FEADC1008BF7047F6E79CEA026F04D0B1
:1024D00010EA5C0F08BF0020704710B5FFF73BFF04
:1024E00040DFF63E81F00040704734431010013465
:1024F00043101001142500080000002044000000D3
:102500006C01000858250008440000205C0500000C
:10251000880100080000000000000000000000002A
:1025200000000000000000000000000000000000AB
:1025300000010000000000FF078029FFFFFFFFFFF0
:10254000FFFFFFFFFFFFFF00000000000000000092
:08255000000000000000000083
:0400000508000131BD
:00000001FF
